{
  "contractName": "BeamCrowdsale",
  "abi": [
    {
      "constant": true,
      "inputs": [],
      "name": "ownerTestValue",
      "outputs": [
        {
          "name": "",
          "type": "uint256"
        }
      ],
      "payable": false,
      "stateMutability": "view",
      "type": "function"
    },
    {
      "constant": true,
      "inputs": [],
      "name": "requireCustomerId",
      "outputs": [
        {
          "name": "",
          "type": "bool"
        }
      ],
      "payable": false,
      "stateMutability": "view",
      "type": "function"
    },
    {
      "constant": false,
      "inputs": [
        {
          "name": "addr",
          "type": "address"
        }
      ],
      "name": "invest",
      "outputs": [],
      "payable": true,
      "stateMutability": "payable",
      "type": "function"
    },
    {
      "constant": true,
      "inputs": [],
      "name": "isPricingSane",
      "outputs": [
        {
          "name": "sane",
          "type": "bool"
        }
      ],
      "payable": false,
      "stateMutability": "view",
      "type": "function"
    },
    {
      "constant": true,
      "inputs": [],
      "name": "endsAt",
      "outputs": [
        {
          "name": "",
          "type": "uint256"
        }
      ],
      "payable": false,
      "stateMutability": "view",
      "type": "function"
    },
    {
      "constant": true,
      "inputs": [],
      "name": "minimumFundingGoal",
      "outputs": [
        {
          "name": "",
          "type": "uint256"
        }
      ],
      "payable": false,
      "stateMutability": "view",
      "type": "function"
    },
    {
      "constant": true,
      "inputs": [],
      "name": "getState",
      "outputs": [
        {
          "name": "",
          "type": "uint8"
        }
      ],
      "payable": false,
      "stateMutability": "view",
      "type": "function"
    },
    {
      "constant": false,
      "inputs": [
        {
          "name": "addr",
          "type": "address"
        }
      ],
      "name": "setFinalizeAgent",
      "outputs": [],
      "payable": false,
      "stateMutability": "nonpayable",
      "type": "function"
    },
    {
      "constant": false,
      "inputs": [
        {
          "name": "addr",
          "type": "address"
        },
        {
          "name": "customerId",
          "type": "uint128"
        },
        {
          "name": "v",
          "type": "uint8"
        },
        {
          "name": "r",
          "type": "bytes32"
        },
        {
          "name": "s",
          "type": "bytes32"
        }
      ],
      "name": "investWithSignedAddress",
      "outputs": [],
      "payable": true,
      "stateMutability": "payable",
      "type": "function"
    },
    {
      "constant": true,
      "inputs": [
        {
          "name": "",
          "type": "address"
        }
      ],
      "name": "investedAmountOf",
      "outputs": [
        {
          "name": "",
          "type": "uint256"
        }
      ],
      "payable": false,
      "stateMutability": "view",
      "type": "function"
    },
    {
      "constant": true,
      "inputs": [],
      "name": "finalizeAgent",
      "outputs": [
        {
          "name": "",
          "type": "address"
        }
      ],
      "payable": false,
      "stateMutability": "view",
      "type": "function"
    },
    {
      "constant": false,
      "inputs": [
        {
          "name": "receiver",
          "type": "address"
        },
        {
          "name": "fullTokens",
          "type": "uint256"
        },
        {
          "name": "weiPrice",
          "type": "uint256"
        }
      ],
      "name": "preallocate",
      "outputs": [],
      "payable": false,
      "stateMutability": "nonpayable",
      "type": "function"
    },
    {
      "constant": true,
      "inputs": [],
      "name": "weiRaised",
      "outputs": [
        {
          "name": "",
          "type": "uint256"
        }
      ],
      "payable": false,
      "stateMutability": "view",
      "type": "function"
    },
    {
      "constant": true,
      "inputs": [],
      "name": "isCrowdsale",
      "outputs": [
        {
          "name": "",
          "type": "bool"
        }
      ],
      "payable": false,
      "stateMutability": "view",
      "type": "function"
    },
    {
      "constant": false,
      "inputs": [],
      "name": "finalize",
      "outputs": [],
      "payable": false,
      "stateMutability": "nonpayable",
      "type": "function"
    },
    {
      "constant": true,
      "inputs": [],
      "name": "tokensSold",
      "outputs": [
        {
          "name": "",
          "type": "uint256"
        }
      ],
      "payable": false,
      "stateMutability": "view",
      "type": "function"
    },
    {
      "constant": false,
      "inputs": [],
      "name": "refund",
      "outputs": [],
      "payable": false,
      "stateMutability": "nonpayable",
      "type": "function"
    },
    {
      "constant": true,
      "inputs": [],
      "name": "signerAddress",
      "outputs": [
        {
          "name": "",
          "type": "address"
        }
      ],
      "payable": false,
      "stateMutability": "view",
      "type": "function"
    },
    {
      "constant": true,
      "inputs": [],
      "name": "weiRefunded",
      "outputs": [
        {
          "name": "",
          "type": "uint256"
        }
      ],
      "payable": false,
      "stateMutability": "view",
      "type": "function"
    },
    {
      "constant": false,
      "inputs": [],
      "name": "halt",
      "outputs": [],
      "payable": false,
      "stateMutability": "nonpayable",
      "type": "function"
    },
    {
      "constant": true,
      "inputs": [],
      "name": "MAX_INVESTMENTS_BEFORE_MULTISIG_CHANGE",
      "outputs": [
        {
          "name": "",
          "type": "uint256"
        }
      ],
      "payable": false,
      "stateMutability": "view",
      "type": "function"
    },
    {
      "constant": false,
      "inputs": [
        {
          "name": "customerId",
          "type": "uint128"
        },
        {
          "name": "checksum",
          "type": "bytes1"
        }
      ],
      "name": "buyWithCustomerIdWithChecksum",
      "outputs": [],
      "payable": true,
      "stateMutability": "payable",
      "type": "function"
    },
    {
      "constant": false,
      "inputs": [
        {
          "name": "time",
          "type": "uint256"
        }
      ],
      "name": "setEndsAt",
      "outputs": [],
      "payable": false,
      "stateMutability": "nonpayable",
      "type": "function"
    },
    {
      "constant": false,
      "inputs": [],
      "name": "renounceOwnership",
      "outputs": [],
      "payable": false,
      "stateMutability": "nonpayable",
      "type": "function"
    },
    {
      "constant": true,
      "inputs": [
        {
          "name": "dataframe",
          "type": "bytes"
        }
      ],
      "name": "getKYCPayload",
      "outputs": [
        {
          "name": "whitelistedAddress",
          "type": "address"
        },
        {
          "name": "customerId",
          "type": "uint128"
        },
        {
          "name": "minEth",
          "type": "uint32"
        },
        {
          "name": "maxEth",
          "type": "uint32"
        },
        {
          "name": "pricingInfo",
          "type": "uint256"
        }
      ],
      "payable": false,
      "stateMutability": "view",
      "type": "function"
    },
    {
      "constant": true,
      "inputs": [],
      "name": "pricingStrategy",
      "outputs": [
        {
          "name": "",
          "type": "address"
        }
      ],
      "payable": false,
      "stateMutability": "view",
      "type": "function"
    },
    {
      "constant": true,
      "inputs": [],
      "name": "loadedRefund",
      "outputs": [
        {
          "name": "",
          "type": "uint256"
        }
      ],
      "payable": false,
      "stateMutability": "view",
      "type": "function"
    },
    {
      "constant": true,
      "inputs": [],
      "name": "isMinimumGoalReached",
      "outputs": [
        {
          "name": "reached",
          "type": "bool"
        }
      ],
      "payable": false,
      "stateMutability": "view",
      "type": "function"
    },
    {
      "constant": false,
      "inputs": [
        {
          "name": "value",
          "type": "bool"
        }
      ],
      "name": "setRequireCustomerId",
      "outputs": [],
      "payable": false,
      "stateMutability": "nonpayable",
      "type": "function"
    },
    {
      "constant": false,
      "inputs": [],
      "name": "loadRefund",
      "outputs": [],
      "payable": true,
      "stateMutability": "payable",
      "type": "function"
    },
    {
      "constant": false,
      "inputs": [
        {
          "name": "val",
          "type": "uint256"
        }
      ],
      "name": "setOwnerTestValue",
      "outputs": [],
      "payable": false,
      "stateMutability": "nonpayable",
      "type": "function"
    },
    {
      "constant": true,
      "inputs": [],
      "name": "owner",
      "outputs": [
        {
          "name": "",
          "type": "address"
        }
      ],
      "payable": false,
      "stateMutability": "view",
      "type": "function"
    },
    {
      "constant": true,
      "inputs": [
        {
          "name": "weisTotal",
          "type": "uint256"
        },
        {
          "name": "pricePerToken",
          "type": "uint256"
        }
      ],
      "name": "calculateTokens",
      "outputs": [
        {
          "name": "tokensTotal",
          "type": "uint256"
        }
      ],
      "payable": false,
      "stateMutability": "view",
      "type": "function"
    },
    {
      "constant": true,
      "inputs": [],
      "name": "multisigWallet",
      "outputs": [
        {
          "name": "",
          "type": "address"
        }
      ],
      "payable": false,
      "stateMutability": "view",
      "type": "function"
    },
    {
      "constant": true,
      "inputs": [
        {
          "name": "",
          "type": "address"
        }
      ],
      "name": "tokenAmountOf",
      "outputs": [
        {
          "name": "",
          "type": "uint256"
        }
      ],
      "payable": false,
      "stateMutability": "view",
      "type": "function"
    },
    {
      "constant": false,
      "inputs": [
        {
          "name": "customerId",
          "type": "uint128"
        }
      ],
      "name": "buyWithCustomerId",
      "outputs": [],
      "payable": true,
      "stateMutability": "payable",
      "type": "function"
    },
    {
      "constant": false,
      "inputs": [],
      "name": "buy",
      "outputs": [],
      "payable": true,
      "stateMutability": "payable",
      "type": "function"
    },
    {
      "constant": true,
      "inputs": [],
      "name": "isFinalizerSane",
      "outputs": [
        {
          "name": "sane",
          "type": "bool"
        }
      ],
      "payable": false,
      "stateMutability": "view",
      "type": "function"
    },
    {
      "constant": true,
      "inputs": [],
      "name": "startsAt",
      "outputs": [
        {
          "name": "",
          "type": "uint256"
        }
      ],
      "payable": false,
      "stateMutability": "view",
      "type": "function"
    },
    {
      "constant": true,
      "inputs": [],
      "name": "finalized",
      "outputs": [
        {
          "name": "",
          "type": "bool"
        }
      ],
      "payable": false,
      "stateMutability": "view",
      "type": "function"
    },
    {
      "constant": true,
      "inputs": [],
      "name": "halted",
      "outputs": [
        {
          "name": "",
          "type": "bool"
        }
      ],
      "payable": false,
      "stateMutability": "view",
      "type": "function"
    },
    {
      "constant": true,
      "inputs": [
        {
          "name": "",
          "type": "address"
        }
      ],
      "name": "earlyParticipantWhitelist",
      "outputs": [
        {
          "name": "",
          "type": "bool"
        }
      ],
      "payable": false,
      "stateMutability": "view",
      "type": "function"
    },
    {
      "constant": false,
      "inputs": [],
      "name": "unhalt",
      "outputs": [],
      "payable": false,
      "stateMutability": "nonpayable",
      "type": "function"
    },
    {
      "constant": true,
      "inputs": [],
      "name": "requiredSignedAddress",
      "outputs": [
        {
          "name": "",
          "type": "bool"
        }
      ],
      "payable": false,
      "stateMutability": "view",
      "type": "function"
    },
    {
      "constant": true,
      "inputs": [],
      "name": "investorCount",
      "outputs": [
        {
          "name": "",
          "type": "uint256"
        }
      ],
      "payable": false,
      "stateMutability": "view",
      "type": "function"
    },
    {
      "constant": false,
      "inputs": [
        {
          "name": "addr",
          "type": "address"
        },
        {
          "name": "status",
          "type": "bool"
        }
      ],
      "name": "setEarlyParicipantWhitelist",
      "outputs": [],
      "payable": false,
      "stateMutability": "nonpayable",
      "type": "function"
    },
    {
      "constant": false,
      "inputs": [
        {
          "name": "value",
          "type": "bool"
        },
        {
          "name": "_signerAddress",
          "type": "address"
        }
      ],
      "name": "setRequireSignedAddress",
      "outputs": [],
      "payable": false,
      "stateMutability": "nonpayable",
      "type": "function"
    },
    {
      "constant": false,
      "inputs": [
        {
          "name": "addr",
          "type": "address"
        },
        {
          "name": "customerId",
          "type": "uint128"
        }
      ],
      "name": "investWithCustomerId",
      "outputs": [],
      "payable": true,
      "stateMutability": "payable",
      "type": "function"
    },
    {
      "constant": false,
      "inputs": [
        {
          "name": "_newOwner",
          "type": "address"
        }
      ],
      "name": "transferOwnership",
      "outputs": [],
      "payable": false,
      "stateMutability": "nonpayable",
      "type": "function"
    },
    {
      "constant": false,
      "inputs": [
        {
          "name": "addr",
          "type": "address"
        }
      ],
      "name": "setMultisig",
      "outputs": [],
      "payable": false,
      "stateMutability": "nonpayable",
      "type": "function"
    },
    {
      "constant": false,
      "inputs": [
        {
          "name": "customerId",
          "type": "uint128"
        },
        {
          "name": "v",
          "type": "uint8"
        },
        {
          "name": "r",
          "type": "bytes32"
        },
        {
          "name": "s",
          "type": "bytes32"
        }
      ],
      "name": "buyWithSignedAddress",
      "outputs": [],
      "payable": true,
      "stateMutability": "payable",
      "type": "function"
    },
    {
      "constant": true,
      "inputs": [],
      "name": "presaleWeiRaised",
      "outputs": [
        {
          "name": "",
          "type": "uint256"
        }
      ],
      "payable": false,
      "stateMutability": "view",
      "type": "function"
    },
    {
      "constant": true,
      "inputs": [],
      "name": "token",
      "outputs": [
        {
          "name": "",
          "type": "address"
        }
      ],
      "payable": false,
      "stateMutability": "view",
      "type": "function"
    },
    {
      "inputs": [
        {
          "name": "_token",
          "type": "address"
        },
        {
          "name": "_pricingStrategy",
          "type": "address"
        },
        {
          "name": "_multisigWallet",
          "type": "address"
        },
        {
          "name": "_start",
          "type": "uint256"
        },
        {
          "name": "_end",
          "type": "uint256"
        },
        {
          "name": "_minimumFundingGoal",
          "type": "uint256"
        }
      ],
      "payable": false,
      "stateMutability": "nonpayable",
      "type": "constructor"
    },
    {
      "payable": true,
      "stateMutability": "payable",
      "type": "fallback"
    },
    {
      "anonymous": false,
      "inputs": [
        {
          "indexed": false,
          "name": "signer",
          "type": "address"
        }
      ],
      "name": "SignerChanged",
      "type": "event"
    },
    {
      "anonymous": false,
      "inputs": [
        {
          "indexed": false,
          "name": "investor",
          "type": "address"
        },
        {
          "indexed": false,
          "name": "weiAmount",
          "type": "uint256"
        },
        {
          "indexed": false,
          "name": "tokenAmount",
          "type": "uint256"
        },
        {
          "indexed": false,
          "name": "customerId",
          "type": "uint128"
        }
      ],
      "name": "Invested",
      "type": "event"
    },
    {
      "anonymous": false,
      "inputs": [
        {
          "indexed": false,
          "name": "investor",
          "type": "address"
        },
        {
          "indexed": false,
          "name": "weiAmount",
          "type": "uint256"
        }
      ],
      "name": "Refund",
      "type": "event"
    },
    {
      "anonymous": false,
      "inputs": [
        {
          "indexed": false,
          "name": "newRequireCustomerId",
          "type": "bool"
        },
        {
          "indexed": false,
          "name": "newRequiredSignedAddress",
          "type": "bool"
        },
        {
          "indexed": false,
          "name": "newSignerAddress",
          "type": "address"
        }
      ],
      "name": "InvestmentPolicyChanged",
      "type": "event"
    },
    {
      "anonymous": false,
      "inputs": [
        {
          "indexed": false,
          "name": "addr",
          "type": "address"
        },
        {
          "indexed": false,
          "name": "status",
          "type": "bool"
        }
      ],
      "name": "Whitelisted",
      "type": "event"
    },
    {
      "anonymous": false,
      "inputs": [
        {
          "indexed": false,
          "name": "newEndsAt",
          "type": "uint256"
        }
      ],
      "name": "EndsAtChanged",
      "type": "event"
    },
    {
      "anonymous": false,
      "inputs": [
        {
          "indexed": true,
          "name": "previousOwner",
          "type": "address"
        }
      ],
      "name": "OwnershipRenounced",
      "type": "event"
    },
    {
      "anonymous": false,
      "inputs": [
        {
          "indexed": true,
          "name": "previousOwner",
          "type": "address"
        },
        {
          "indexed": true,
          "name": "newOwner",
          "type": "address"
        }
      ],
      "name": "OwnershipTransferred",
      "type": "event"
    },
    {
      "constant": false,
      "inputs": [
        {
          "name": "_pricingStrategy",
          "type": "address"
        }
      ],
      "name": "setPricingStrategy",
      "outputs": [],
      "payable": false,
      "stateMutability": "nonpayable",
      "type": "function"
    },
    {
      "constant": true,
      "inputs": [
        {
          "name": "weiAmount",
          "type": "uint256"
        },
        {
          "name": "tokenAmount",
          "type": "uint256"
        },
        {
          "name": "weiRaisedTotal",
          "type": "uint256"
        },
        {
          "name": "tokensSoldTotal",
          "type": "uint256"
        }
      ],
      "name": "isBreakingCap",
      "outputs": [
        {
          "name": "limitBroken",
          "type": "bool"
        }
      ],
      "payable": false,
      "stateMutability": "view",
      "type": "function"
    },
    {
      "constant": true,
      "inputs": [],
      "name": "isCrowdsaleFull",
      "outputs": [
        {
          "name": "",
          "type": "bool"
        }
      ],
      "payable": false,
      "stateMutability": "view",
      "type": "function"
    },
    {
      "constant": false,
      "inputs": [
        {
          "name": "receiver",
          "type": "address"
        },
        {
          "name": "customerId",
          "type": "uint128"
        },
        {
          "name": "fiatAmount",
          "type": "uint256"
        }
      ],
      "name": "buyTokensForFiat",
      "outputs": [
        {
          "name": "tokensBought",
          "type": "uint256"
        }
      ],
      "payable": false,
      "stateMutability": "nonpayable",
      "type": "function"
    },
    {
      "constant": false,
      "inputs": [
        {
          "name": "dataframe",
          "type": "bytes32"
        },
        {
          "name": "v",
          "type": "uint8"
        },
        {
          "name": "r",
          "type": "bytes32"
        },
        {
          "name": "s",
          "type": "bytes32"
        }
      ],
      "name": "buyWithKYCData",
      "outputs": [
        {
          "name": "result",
          "type": "address"
        }
      ],
      "payable": true,
      "stateMutability": "payable",
      "type": "function"
    },
    {
      "constant": false,
      "inputs": [
        {
          "name": "_signerAddress",
          "type": "address"
        }
      ],
      "name": "setSignerAddress",
      "outputs": [],
      "payable": false,
      "stateMutability": "nonpayable",
      "type": "function"
    }
  ],
  "bytecode": "0x6080604052600560015560006009556000600a556000600b556000600c556000600d556000600e553480156200003457600080fd5b5060405160c0806200544d833981018060405281019080805190602001909291908051906020019092919080519060200190929190805190602001909291908051906020019092919080519060200190929190505050858585858585858585858585336000806101000a81548173ffffffffffffffffffffffffffffffffffffffff021916908373ffffffffffffffffffffffffffffffffffffffff160217905550336000806101000a81548173ffffffffffffffffffffffffffffffffffffffff021916908373ffffffffffffffffffffffffffffffffffffffff16021790555085600260006101000a81548173ffffffffffffffffffffffffffffffffffffffff021916908373ffffffffffffffffffffffffffffffffffffffff160217905550620001718562000257640100000000026401000000009004565b83600560006101000a81548173ffffffffffffffffffffffffffffffffffffffff021916908373ffffffffffffffffffffffffffffffffffffffff1602179055506000600560009054906101000a900473ffffffffffffffffffffffffffffffffffffffff1673ffffffffffffffffffffffffffffffffffffffff161415620001f957600080fd5b60008314156200020857600080fd5b8260078190555060008214156200021e57600080fd5b816008819055506008546007541015156200023857600080fd5b80600681905550505050505050505050505050505050505050620003c7565b6000809054906101000a900473ffffffffffffffffffffffffffffffffffffffff1673ffffffffffffffffffffffffffffffffffffffff163373ffffffffffffffffffffffffffffffffffffffff16141515620002b357600080fd5b80600360006101000a81548173ffffffffffffffffffffffffffffffffffffffff021916908373ffffffffffffffffffffffffffffffffffffffff160217905550600360009054906101000a900473ffffffffffffffffffffffffffffffffffffffff1673ffffffffffffffffffffffffffffffffffffffff166380d822256040518163ffffffff167c0100000000000000000000000000000000000000000000000000000000028152600401602060405180830381600087803b1580156200037b57600080fd5b505af115801562000390573d6000803e3d6000fd5b505050506040513d6020811015620003a757600080fd5b81019080805190602001909291905050501515620003c457600080fd5b50565b61507680620003d76000396000f3006080604052600436106102bf576000357c0100000000000000000000000000000000000000000000000000000000900463ffffffff1680630226401d146102c457806303ca0eed146102ef57806303f9c7931461031e578063046dc16614610354578063062b01ce146103975780630a09284a146103c657806313f4e977146103f15780631865c57d1461041c57806319b667da146104555780631a49803b146104985780631aae34601461051357806321d5c0f61461056a57806332013ac3146105c15780634042b66f146106185780634551dd591461064357806348b18973146106725780634bb278f3146106ff57806350c6773414610716578063518ab2a814610759578063590e1ae3146107845780635b7633d01461079b5780635da89ac0146107f25780635ed7ca5b1461081d5780636203f09f1461083457806363c6082f1461085f5780636e50eb3f146108bd578063715018a6146108ea57806373752db41461090157806378b99c2414610a02578063797d943714610a595780637c2e08a314610a845780637f7d711e14610ab35780638761210214610ae25780638d51faec14610aec5780638da5cb5b14610b19578063903cc58314610b705780639075becf14610bbb57806397b150ca14610c1257806399e9376c14610c695780639d3c663f14610c9b578063a6f2ae3a14610cfe578063a7ba44c314610d08578063af46868214610d37578063b3f05b9714610d62578063b9b8af0b14610d91578063cb16e6d014610dc0578063cb3e64fd14610e1b578063d222dc0414610e32578063d5d0902114610e61578063d7e64c0014610e90578063e2a2bacd14610ebb578063eac2493214610f38578063ed68ff2c14610f87578063ef86944314610fd6578063f2fde38b14611028578063f3283fba1461106b578063f4869726146110ae578063f7c00e2f14611109578063fc0c546a14611134575b600080fd5b3480156102d057600080fd5b506102d961118b565b6040518082815260200191505060405180910390f35b3480156102fb57600080fd5b50610304611191565b604051808215151515815260200191505060405180910390f35b610352600480360381019080803573ffffffffffffffffffffffffffffffffffffffff1690602001909291905050506111a4565b005b34801561036057600080fd5b50610395600480360381019080803573ffffffffffffffffffffffffffffffffffffffff1690602001909291905050506111e7565b005b3480156103a357600080fd5b506103ac61130b565b604051808215151515815260200191505060405180910390f35b3480156103d257600080fd5b506103db61140a565b6040518082815260200191505060405180910390f35b3480156103fd57600080fd5b50610406611410565b6040518082815260200191505060405180910390f35b34801561042857600080fd5b50610431611416565b6040518082600781111561044157fe5b60ff16815260200191505060405180910390f35b34801561046157600080fd5b50610496600480360381019080803573ffffffffffffffffffffffffffffffffffffffff1690602001909291905050506116e2565b005b610511600480360381019080803573ffffffffffffffffffffffffffffffffffffffff16906020019092919080356fffffffffffffffffffffffffffffffff169060200190929190803560ff1690602001909291908035600019169060200190929190803560001916906020019092919050505061184d565b005b34801561051f57600080fd5b50610554600480360381019080803573ffffffffffffffffffffffffffffffffffffffff1690602001909291905050506119f0565b6040518082815260200191505060405180910390f35b34801561057657600080fd5b5061057f611a08565b604051808273ffffffffffffffffffffffffffffffffffffffff1673ffffffffffffffffffffffffffffffffffffffff16815260200191505060405180910390f35b3480156105cd57600080fd5b50610616600480360381019080803573ffffffffffffffffffffffffffffffffffffffff1690602001909291908035906020019092919080359060200190929190505050611a2e565b005b34801561062457600080fd5b5061062d611fcc565b6040518082815260200191505060405180910390f35b34801561064f57600080fd5b50610658611fd2565b604051808215151515815260200191505060405180910390f35b6106bd6004803603810190808035600019169060200190929190803560ff16906020019092919080356000191690602001909291908035600019169060200190929190505050611fdb565b604051808273ffffffffffffffffffffffffffffffffffffffff1673ffffffffffffffffffffffffffffffffffffffff16815260200191505060405180910390f35b34801561070b57600080fd5b506107146120a0565b005b34801561072257600080fd5b50610757600480360381019080803573ffffffffffffffffffffffffffffffffffffffff16906020019092919050505061225b565b005b34801561076557600080fd5b5061076e6123c6565b6040518082815260200191505060405180910390f35b34801561079057600080fd5b506107996123cc565b005b3480156107a757600080fd5b506107b06125f7565b604051808273ffffffffffffffffffffffffffffffffffffffff1673ffffffffffffffffffffffffffffffffffffffff16815260200191505060405180910390f35b3480156107fe57600080fd5b5061080761261d565b6040518082815260200191505060405180910390f35b34801561082957600080fd5b50610832612623565b005b34801561084057600080fd5b5061084961269b565b6040518082815260200191505060405180910390f35b6108bb60048036038101908080356fffffffffffffffffffffffffffffffff16906020019092919080357effffffffffffffffffffffffffffffffffffffffffffffffffffffffffffff191690602001909291905050506126a1565b005b3480156108c957600080fd5b506108e86004803603810190808035906020019092919050505061274d565b005b3480156108f657600080fd5b506108ff612807565b005b34801561090d57600080fd5b50610968600480360381019080803590602001908201803590602001908080601f0160208091040260200160405190810160405280939291908181526020018383808284378201915050505050509192919290505050612909565b604051808673ffffffffffffffffffffffffffffffffffffffff1673ffffffffffffffffffffffffffffffffffffffff168152602001856fffffffffffffffffffffffffffffffff166fffffffffffffffffffffffffffffffff1681526020018463ffffffff1663ffffffff1681526020018363ffffffff1663ffffffff1681526020018281526020019550505050505060405180910390f35b348015610a0e57600080fd5b50610a17612f05565b604051808273ffffffffffffffffffffffffffffffffffffffff1673ffffffffffffffffffffffffffffffffffffffff16815260200191505060405180910390f35b348015610a6557600080fd5b50610a6e612f2b565b6040518082815260200191505060405180910390f35b348015610a9057600080fd5b50610a99612f31565b604051808215151515815260200191505060405180910390f35b348015610abf57600080fd5b50610ae0600480360381019080803515159060200190929190505050612f40565b005b610aea613073565b005b348015610af857600080fd5b50610b1760048036038101908080359060200190929190505050613169565b005b348015610b2557600080fd5b50610b2e6131ce565b604051808273ffffffffffffffffffffffffffffffffffffffff1673ffffffffffffffffffffffffffffffffffffffff16815260200191505060405180910390f35b348015610b7c57600080fd5b50610ba560048036038101908080359060200190929190803590602001909291905050506131f3565b6040518082815260200191505060405180910390f35b348015610bc757600080fd5b50610bd0613380565b604051808273ffffffffffffffffffffffffffffffffffffffff1673ffffffffffffffffffffffffffffffffffffffff16815260200191505060405180910390f35b348015610c1e57600080fd5b50610c53600480360381019080803573ffffffffffffffffffffffffffffffffffffffff1690602001909291905050506133a6565b6040518082815260200191505060405180910390f35b610c9960048036038101908080356fffffffffffffffffffffffffffffffff1690602001909291905050506133be565b005b348015610ca757600080fd5b50610ce4600480360381019080803590602001909291908035906020019092919080359060200190929190803590602001909291905050506133cb565b604051808215151515815260200191505060405180910390f35b610d066133d8565b005b348015610d1457600080fd5b50610d1d6133e3565b604051808215151515815260200191505060405180910390f35b348015610d4357600080fd5b50610d4c6134ab565b6040518082815260200191505060405180910390f35b348015610d6e57600080fd5b50610d776134b1565b604051808215151515815260200191505060405180910390f35b348015610d9d57600080fd5b50610da66134c4565b604051808215151515815260200191505060405180910390f35b348015610dcc57600080fd5b50610e01600480360381019080803573ffffffffffffffffffffffffffffffffffffffff1690602001909291905050506134d7565b604051808215151515815260200191505060405180910390f35b348015610e2757600080fd5b50610e306134f7565b005b348015610e3e57600080fd5b50610e47613589565b604051808215151515815260200191505060405180910390f35b348015610e6d57600080fd5b50610e7661359c565b604051808215151515815260200191505060405180910390f35b348015610e9c57600080fd5b50610ea56135a4565b6040518082815260200191505060405180910390f35b348015610ec757600080fd5b50610f22600480360381019080803573ffffffffffffffffffffffffffffffffffffffff16906020019092919080356fffffffffffffffffffffffffffffffff169060200190929190803590602001909291905050506135aa565b6040518082815260200191505060405180910390f35b348015610f4457600080fd5b50610f85600480360381019080803573ffffffffffffffffffffffffffffffffffffffff169060200190929190803515159060200190929190505050614028565b005b348015610f9357600080fd5b50610fd4600480360381019080803515159060200190929190803573ffffffffffffffffffffffffffffffffffffffff16906020019092919050505061414d565b005b611026600480360381019080803573ffffffffffffffffffffffffffffffffffffffff16906020019092919080356fffffffffffffffffffffffffffffffff1690602001909291905050506142c2565b005b34801561103457600080fd5b50611069600480360381019080803573ffffffffffffffffffffffffffffffffffffffff16906020019092919050505061430b565b005b34801561107757600080fd5b506110ac600480360381019080803573ffffffffffffffffffffffffffffffffffffffff169060200190929190505050614372565b005b61110760048036038101908080356fffffffffffffffffffffffffffffffff169060200190929190803560ff16906020019092919080356000191690602001909291908035600019169060200190929190505050614422565b005b34801561111557600080fd5b5061111e614435565b6040518082815260200191505060405180910390f35b34801561114057600080fd5b5061114961443b565b604051808273ffffffffffffffffffffffffffffffffffffffff1673ffffffffffffffffffffffffffffffffffffffff16815260200191505060405180910390f35b60135481565b601460009054906101000a900460ff1681565b601460009054906101000a900460ff16156111be57600080fd5b601460019054906101000a900460ff16156111d857600080fd5b6111e3816000614461565b5050565b6000809054906101000a900473ffffffffffffffffffffffffffffffffffffffff1673ffffffffffffffffffffffffffffffffffffffff163373ffffffffffffffffffffffffffffffffffffffff1614151561124257600080fd5b80601560006101000a81548173ffffffffffffffffffffffffffffffffffffffff021916908373ffffffffffffffffffffffffffffffffffffffff1602179055507f5719a5656c5cfdaafa148ecf366fd3b0a7fae06449ce2a46225977fb7417e29d601560009054906101000a900473ffffffffffffffffffffffffffffffffffffffff16604051808273ffffffffffffffffffffffffffffffffffffffff1673ffffffffffffffffffffffffffffffffffffffff16815260200191505060405180910390a150565b6000600360009054906101000a900473ffffffffffffffffffffffffffffffffffffffff1673ffffffffffffffffffffffffffffffffffffffff16638e768288306040518263ffffffff167c0100000000000000000000000000000000000000000000000000000000028152600401808273ffffffffffffffffffffffffffffffffffffffff1673ffffffffffffffffffffffffffffffffffffffff168152602001915050602060405180830381600087803b1580156113ca57600080fd5b505af11580156113de573d6000803e3d6000fd5b505050506040513d60208110156113f457600080fd5b8101908080519060200190929190505050905090565b60085481565b60065481565b6000600f60009054906101000a900460ff161561143657600690506116df565b6000600460009054906101000a900473ffffffffffffffffffffffffffffffffffffffff1673ffffffffffffffffffffffffffffffffffffffff16141561148057600190506116df565b600460009054906101000a900473ffffffffffffffffffffffffffffffffffffffff1673ffffffffffffffffffffffffffffffffffffffff166382771c8e6040518163ffffffff167c0100000000000000000000000000000000000000000000000000000000028152600401602060405180830381600087803b15801561150657600080fd5b505af115801561151a573d6000803e3d6000fd5b505050506040513d602081101561153057600080fd5b8101908080519060200190929190505050151561155057600190506116df565b600360009054906101000a900473ffffffffffffffffffffffffffffffffffffffff1673ffffffffffffffffffffffffffffffffffffffff16638e768288306040518263ffffffff167c0100000000000000000000000000000000000000000000000000000000028152600401808273ffffffffffffffffffffffffffffffffffffffff1673ffffffffffffffffffffffffffffffffffffffff168152602001915050602060405180830381600087803b15801561160d57600080fd5b505af1158015611621573d6000803e3d6000fd5b505050506040513d602081101561163757600080fd5b8101908080519060200190929190505050151561165757600190506116df565b60075442101561166a57600290506116df565b6008544211158015611681575061167f61359c565b155b1561168f57600390506116df565b611697612f31565b156116a557600490506116df565b6116ad612f31565b1580156116bc57506000600a54115b80156116cc5750600a54600d5410155b156116da57600790506116df565b600590505b90565b6000809054906101000a900473ffffffffffffffffffffffffffffffffffffffff1673ffffffffffffffffffffffffffffffffffffffff163373ffffffffffffffffffffffffffffffffffffffff1614151561173d57600080fd5b80600460006101000a81548173ffffffffffffffffffffffffffffffffffffffff021916908373ffffffffffffffffffffffffffffffffffffffff160217905550600460009054906101000a900473ffffffffffffffffffffffffffffffffffffffff1673ffffffffffffffffffffffffffffffffffffffff1663614cb9046040518163ffffffff167c0100000000000000000000000000000000000000000000000000000000028152600401602060405180830381600087803b15801561180457600080fd5b505af1158015611818573d6000803e3d6000fd5b505050506040513d602081101561182e57600080fd5b8101908080519060200190929190505050151561184a57600080fd5b50565b6000600286604051808273ffffffffffffffffffffffffffffffffffffffff1673ffffffffffffffffffffffffffffffffffffffff166c010000000000000000000000000281526014019150506020604051808303816000865af11580156118b9573d6000803e3d6000fd5b5050506040513d60208110156118ce57600080fd5b81019080805190602001909291905050509050601460029054906101000a900473ffffffffffffffffffffffffffffffffffffffff1673ffffffffffffffffffffffffffffffffffffffff16600182868686604051600081526020016040526040518085600019166000191681526020018460ff1660ff1681526020018360001916600019168152602001826000191660001916815260200194505050505060206040516020810390808403906000865af1158015611991573d6000803e3d6000fd5b5050506020604051035173ffffffffffffffffffffffffffffffffffffffff161415156119bd57600080fd5b6000856fffffffffffffffffffffffffffffffff1614156119dd57600080fd5b6119e78686614461565b50505050505050565b60106020528060005260406000206000915090505481565b600460009054906101000a900473ffffffffffffffffffffffffffffffffffffffff1681565b6000806000809054906101000a900473ffffffffffffffffffffffffffffffffffffffff1673ffffffffffffffffffffffffffffffffffffffff163373ffffffffffffffffffffffffffffffffffffffff16141515611a8c57600080fd5b600260009054906101000a900473ffffffffffffffffffffffffffffffffffffffff1673ffffffffffffffffffffffffffffffffffffffff1663313ce5676040518163ffffffff167c0100000000000000000000000000000000000000000000000000000000028152600401602060405180830381600087803b158015611b1257600080fd5b505af1158015611b26573d6000803e3d6000fd5b505050506040513d6020811015611b3c57600080fd5b8101908080519060200190929190505050600a0a840291508383029050600a5473__SafeMathLib___________________________6366098d4f9091836040518363ffffffff167c0100000000000000000000000000000000000000000000000000000000028152600401808381526020018281526020019250505060206040518083038186803b158015611bd057600080fd5b505af4158015611be4573d6000803e3d6000fd5b505050506040513d6020811015611bfa57600080fd5b8101908080519060200190929190505050600a8190555060095473__SafeMathLib___________________________6366098d4f9091846040518363ffffffff167c0100000000000000000000000000000000000000000000000000000000028152600401808381526020018281526020019250505060206040518083038186803b158015611c8857600080fd5b505af4158015611c9c573d6000803e3d6000fd5b505050506040513d6020811015611cb257600080fd5b8101908080519060200190929190505050600981905550601060008673ffffffffffffffffffffffffffffffffffffffff1673ffffffffffffffffffffffffffffffffffffffff1681526020019081526020016000205473__SafeMathLib___________________________6366098d4f9091836040518363ffffffff167c0100000000000000000000000000000000000000000000000000000000028152600401808381526020018281526020019250505060206040518083038186803b158015611d7d57600080fd5b505af4158015611d91573d6000803e3d6000fd5b505050506040513d6020811015611da757600080fd5b8101908080519060200190929190505050601060008773ffffffffffffffffffffffffffffffffffffffff1673ffffffffffffffffffffffffffffffffffffffff16815260200190815260200160002081905550601160008673ffffffffffffffffffffffffffffffffffffffff1673ffffffffffffffffffffffffffffffffffffffff1681526020019081526020016000205473__SafeMathLib___________________________6366098d4f9091846040518363ffffffff167c0100000000000000000000000000000000000000000000000000000000028152600401808381526020018281526020019250505060206040518083038186803b158015611eaf57600080fd5b505af4158015611ec3573d6000803e3d6000fd5b505050506040513d6020811015611ed957600080fd5b8101908080519060200190929190505050601160008773ffffffffffffffffffffffffffffffffffffffff1673ffffffffffffffffffffffffffffffffffffffff16815260200190815260200160002081905550611f37858361466e565b7f0396f60aaad038749091d273dc13aaabc63db6e2271c7bad442d5cf25cc433508582846000604051808573ffffffffffffffffffffffffffffffffffffffff1673ffffffffffffffffffffffffffffffffffffffff168152602001848152602001838152602001826fffffffffffffffffffffffffffffffff16815260200194505050505060405180910390a15050505050565b600a5481565b60006001905090565b6000806000806000670de0b6b3a764000092508860405180826000191660001916815260200191505060405180910390209150600182898989604051600081526020016040526040518085600019166000191681526020018460ff1660ff1681526020018360001916600019168152602001826000191660001916815260200194505050505060206040516020810390808403906000865af1158015612085573d6000803e3d6000fd5b50505060206040510351905080945050505050949350505050565b60048060078111156120ae57fe5b6120b6611416565b60078111156120c157fe5b1415156120cd57600080fd5b6000809054906101000a900473ffffffffffffffffffffffffffffffffffffffff1673ffffffffffffffffffffffffffffffffffffffff163373ffffffffffffffffffffffffffffffffffffffff1614151561212857600080fd5b600060149054906101000a900460ff161561214257600080fd5b600f60009054906101000a900460ff161561215c57600080fd5b6000600460009054906101000a900473ffffffffffffffffffffffffffffffffffffffff1673ffffffffffffffffffffffffffffffffffffffff1614151561223d57600460009054906101000a900473ffffffffffffffffffffffffffffffffffffffff1673ffffffffffffffffffffffffffffffffffffffff16630bf318a36040518163ffffffff167c0100000000000000000000000000000000000000000000000000000000028152600401600060405180830381600087803b15801561222457600080fd5b505af1158015612238573d6000803e3d6000fd5b505050505b6001600f60006101000a81548160ff02191690831515021790555050565b6000809054906101000a900473ffffffffffffffffffffffffffffffffffffffff1673ffffffffffffffffffffffffffffffffffffffff163373ffffffffffffffffffffffffffffffffffffffff161415156122b657600080fd5b80600360006101000a81548173ffffffffffffffffffffffffffffffffffffffff021916908373ffffffffffffffffffffffffffffffffffffffff160217905550600360009054906101000a900473ffffffffffffffffffffffffffffffffffffffff1673ffffffffffffffffffffffffffffffffffffffff166380d822256040518163ffffffff167c0100000000000000000000000000000000000000000000000000000000028152600401602060405180830381600087803b15801561237d57600080fd5b505af1158015612391573d6000803e3d6000fd5b505050506040513d60208110156123a757600080fd5b810190808051906020019092919050505015156123c357600080fd5b50565b60095481565b600060078060078111156123dc57fe5b6123e4611416565b60078111156123ef57fe5b1415156123fb57600080fd5b601060003373ffffffffffffffffffffffffffffffffffffffff1673ffffffffffffffffffffffffffffffffffffffff168152602001908152602001600020549150600082141561244b57600080fd5b6000601060003373ffffffffffffffffffffffffffffffffffffffff1673ffffffffffffffffffffffffffffffffffffffff16815260200190815260200160002081905550600e5473__SafeMathLib___________________________6366098d4f9091846040518363ffffffff167c0100000000000000000000000000000000000000000000000000000000028152600401808381526020018281526020019250505060206040518083038186803b15801561250757600080fd5b505af415801561251b573d6000803e3d6000fd5b505050506040513d602081101561253157600080fd5b8101908080519060200190929190505050600e819055507fbb28353e4598c3b9199101a66e0989549b659a59a54d2c27fbb183f1932c8e6d3383604051808373ffffffffffffffffffffffffffffffffffffffff1673ffffffffffffffffffffffffffffffffffffffff1681526020018281526020019250505060405180910390a13373ffffffffffffffffffffffffffffffffffffffff166108fc839081150290604051600060405180830381858888f1935050505015156125f357600080fd5b5050565b601560009054906101000a900473ffffffffffffffffffffffffffffffffffffffff1681565b600e5481565b6000809054906101000a900473ffffffffffffffffffffffffffffffffffffffff1673ffffffffffffffffffffffffffffffffffffffff163373ffffffffffffffffffffffffffffffffffffffff1614151561267e57600080fd5b6001600060146101000a81548160ff021916908315150217905550565b60015481565b807effffffffffffffffffffffffffffffffffffffffffffffffffffffffffffff19168260405180826fffffffffffffffffffffffffffffffff166fffffffffffffffffffffffffffffffff1670010000000000000000000000000000000002815260100191505060405180910390207effffffffffffffffffffffffffffffffffffffffffffffffffffffffffffff191614151561273f57600080fd5b61274933836142c2565b5050565b6000809054906101000a900473ffffffffffffffffffffffffffffffffffffffff1673ffffffffffffffffffffffffffffffffffffffff163373ffffffffffffffffffffffffffffffffffffffff161415156127a857600080fd5b804211156127b557600080fd5b8060075411156127c457600080fd5b806008819055507fd34bb772c4ae9baa99db852f622773b31c7827e8ee818449fef20d30980bd3106008546040518082815260200191505060405180910390a150565b6000809054906101000a900473ffffffffffffffffffffffffffffffffffffffff1673ffffffffffffffffffffffffffffffffffffffff163373ffffffffffffffffffffffffffffffffffffffff1614151561286257600080fd5b6000809054906101000a900473ffffffffffffffffffffffffffffffffffffffff1673ffffffffffffffffffffffffffffffffffffffff167ff8df31144d9c2f0f6b59d69b8b98abd5459d07f2742c4df920b25aae33c6482060405160405180910390a260008060006101000a81548173ffffffffffffffffffffffffffffffffffffffff021916908373ffffffffffffffffffffffffffffffffffffffff160217905550565b6000806000806000806000806000808a73__BytesDeserializer_____________________63b655e138909160006040518363ffffffff167c01000000000000000000000000000000000000000000000000000000000281526004018080602001838152602001828103825284818151815260200191508051906020019080838360005b838110156129a857808201518184015260208101905061298d565b50505050905090810190601f1680156129d55780820380516001836020036101000a031916815260200191505b50935050505060206040518083038186803b1580156129f357600080fd5b505af4158015612a07573d6000803e3d6000fd5b505050506040513d6020811015612a1d57600080fd5b810190808051906020019092919050505094508a73__BytesDeserializer_____________________6316419aa7909160146040518363ffffffff167c01000000000000000000000000000000000000000000000000000000000281526004018080602001838152602001828103825284818151815260200191508051906020019080838360005b83811015612ac0578082015181840152602081019050612aa5565b50505050905090810190601f168015612aed5780820380516001836020036101000a031916815260200191505b50935050505060206040518083038186803b158015612b0b57600080fd5b505af4158015612b1f573d6000803e3d6000fd5b505050506040513d6020811015612b3557600080fd5b8101908080519060200190929190505050700100000000000000000000000000000000900493508a73__BytesDeserializer_____________________63d54dd8f9909160246040518363ffffffff167c01000000000000000000000000000000000000000000000000000000000281526004018080602001838152602001828103825284818151815260200191508051906020019080838360005b83811015612bec578082015181840152602081019050612bd1565b50505050905090810190601f168015612c195780820380516001836020036101000a031916815260200191505b50935050505060206040518083038186803b158015612c3757600080fd5b505af4158015612c4b573d6000803e3d6000fd5b505050506040513d6020811015612c6157600080fd5b81019080805190602001909291905050507c0100000000000000000000000000000000000000000000000000000000900492508a73__BytesDeserializer_____________________63d54dd8f9909160286040518363ffffffff167c01000000000000000000000000000000000000000000000000000000000281526004018080602001838152602001828103825284818151815260200191508051906020019080838360005b83811015612d24578082015181840152602081019050612d09565b50505050905090810190601f168015612d515780820380516001836020036101000a031916815260200191505b50935050505060206040518083038186803b158015612d6f57600080fd5b505af4158015612d83573d6000803e3d6000fd5b505050506040513d6020811015612d9957600080fd5b81019080805190602001909291905050507c0100000000000000000000000000000000000000000000000000000000900491508a73__BytesDeserializer_____________________632e1eb7fe9091602c6040518363ffffffff167c01000000000000000000000000000000000000000000000000000000000281526004018080602001838152602001828103825284818151815260200191508051906020019080838360005b83811015612e5c578082015181840152602081019050612e41565b50505050905090810190601f168015612e895780820380516001836020036101000a031916815260200191505b50935050505060206040518083038186803b158015612ea757600080fd5b505af4158015612ebb573d6000803e3d6000fd5b505050506040513d6020811015612ed157600080fd5b8101908080519060200190929190505050600190049050848484848499509950995099509950505050505091939590929450565b600360009054906101000a900473ffffffffffffffffffffffffffffffffffffffff1681565b600d5481565b6000600654600a541015905090565b6000809054906101000a900473ffffffffffffffffffffffffffffffffffffffff1673ffffffffffffffffffffffffffffffffffffffff163373ffffffffffffffffffffffffffffffffffffffff16141515612f9b57600080fd5b80601460006101000a81548160ff0219169083151502179055507f48d826081348f5f00e8a33c9ae8ce89ed4c6e88400b585a478bc203d9e8177d3601460009054906101000a900460ff16601460019054906101000a900460ff16601460029054906101000a900473ffffffffffffffffffffffffffffffffffffffff166040518084151515158152602001831515151581526020018273ffffffffffffffffffffffffffffffffffffffff1673ffffffffffffffffffffffffffffffffffffffff168152602001935050505060405180910390a150565b600580600781111561308157fe5b613089611416565b600781111561309457fe5b1415156130a057600080fd5b60003414156130ae57600080fd5b600d5473__SafeMathLib___________________________6366098d4f9091346040518363ffffffff167c0100000000000000000000000000000000000000000000000000000000028152600401808381526020018281526020019250505060206040518083038186803b15801561312557600080fd5b505af4158015613139573d6000803e3d6000fd5b505050506040513d602081101561314f57600080fd5b8101908080519060200190929190505050600d8190555050565b6000809054906101000a900473ffffffffffffffffffffffffffffffffffffffff1673ffffffffffffffffffffffffffffffffffffffff163373ffffffffffffffffffffffffffffffffffffffff161415156131c457600080fd5b8060138190555050565b6000809054906101000a900473ffffffffffffffffffffffffffffffffffffffff1681565b600080600260009054906101000a900473ffffffffffffffffffffffffffffffffffffffff1673ffffffffffffffffffffffffffffffffffffffff1663313ce5676040518163ffffffff167c0100000000000000000000000000000000000000000000000000000000028152600401602060405180830381600087803b15801561327c57600080fd5b505af1158015613290573d6000803e3d6000fd5b505050506040513d60208110156132a657600080fd5b8101908080519060200190929190505050600a0a9050828473__SafeMathLib___________________________631d3b9edf9091846040518363ffffffff167c0100000000000000000000000000000000000000000000000000000000028152600401808381526020018281526020019250505060206040518083038186803b15801561333257600080fd5b505af4158015613346573d6000803e3d6000fd5b505050506040513d602081101561335c57600080fd5b810190808051906020019092919050505081151561337657fe5b0491505092915050565b600560009054906101000a900473ffffffffffffffffffffffffffffffffffffffff1681565b60116020528060005260406000206000915090505481565b6133c833826142c2565b50565b6000809050949350505050565b6133e1336111a4565b565b6000600460009054906101000a900473ffffffffffffffffffffffffffffffffffffffff1673ffffffffffffffffffffffffffffffffffffffff166382771c8e6040518163ffffffff167c0100000000000000000000000000000000000000000000000000000000028152600401602060405180830381600087803b15801561346b57600080fd5b505af115801561347f573d6000803e3d6000fd5b505050506040513d602081101561349557600080fd5b8101908080519060200190929190505050905090565b60075481565b600f60009054906101000a900460ff1681565b600060149054906101000a900460ff1681565b60126020528060005260406000206000915054906101000a900460ff1681565b6000809054906101000a900473ffffffffffffffffffffffffffffffffffffffff1673ffffffffffffffffffffffffffffffffffffffff163373ffffffffffffffffffffffffffffffffffffffff1614151561355257600080fd5b600060149054906101000a900460ff16151561356d57600080fd5b60008060146101000a81548160ff021916908315150217905550565b601460019054906101000a900460ff1681565b600080905090565b600c5481565b600080600080600060149054906101000a900460ff16156135ca57600080fd5b6000809054906101000a900473ffffffffffffffffffffffffffffffffffffffff1673ffffffffffffffffffffffffffffffffffffffff163373ffffffffffffffffffffffffffffffffffffffff1614151561362557600080fd5b6002600781111561363257fe5b61363a611416565b600781111561364557fe5b14156136a857601260008873ffffffffffffffffffffffffffffffffffffffff1673ffffffffffffffffffffffffffffffffffffffff16815260200190815260200160002060009054906101000a900460ff1615156136a357600080fd5b6136d9565b600360078111156136b557fe5b6136bd611416565b60078111156136c857fe5b14156136d3576136d8565b600080fd5b5b600360009054906101000a900473ffffffffffffffffffffffffffffffffffffffff169250848373ffffffffffffffffffffffffffffffffffffffff1663e7aa997c6040518163ffffffff167c0100000000000000000000000000000000000000000000000000000000028152600401602060405180830381600087803b15801561376357600080fd5b505af1158015613777573d6000803e3d6000fd5b505050506040513d602081101561378d57600080fd5b81019080805190602001909291905050500291508273ffffffffffffffffffffffffffffffffffffffff166318a4155e83600b54600a54036009548b600260009054906101000a900473ffffffffffffffffffffffffffffffffffffffff1673ffffffffffffffffffffffffffffffffffffffff1663313ce5676040518163ffffffff167c0100000000000000000000000000000000000000000000000000000000028152600401602060405180830381600087803b15801561384f57600080fd5b505af1158015613863573d6000803e3d6000fd5b505050506040513d602081101561387957600080fd5b81019080805190602001909291905050506040518663ffffffff167c0100000000000000000000000000000000000000000000000000000000028152600401808681526020018581526020018481526020018373ffffffffffffffffffffffffffffffffffffffff1673ffffffffffffffffffffffffffffffffffffffff16815260200182815260200195505050505050602060405180830381600087803b15801561392457600080fd5b505af1158015613938573d6000803e3d6000fd5b505050506040513d602081101561394e57600080fd5b810190808051906020019092919050505090506000811415151561397157600080fd5b6000601060008973ffffffffffffffffffffffffffffffffffffffff1673ffffffffffffffffffffffffffffffffffffffff1681526020019081526020016000205414156139cc57600c600081548092919060010191905055505b601060008873ffffffffffffffffffffffffffffffffffffffff1673ffffffffffffffffffffffffffffffffffffffff1681526020019081526020016000205473__SafeMathLib___________________________6366098d4f9091846040518363ffffffff167c0100000000000000000000000000000000000000000000000000000000028152600401808381526020018281526020019250505060206040518083038186803b158015613a8057600080fd5b505af4158015613a94573d6000803e3d6000fd5b505050506040513d6020811015613aaa57600080fd5b8101908080519060200190929190505050601060008973ffffffffffffffffffffffffffffffffffffffff1673ffffffffffffffffffffffffffffffffffffffff16815260200190815260200160002081905550601160008873ffffffffffffffffffffffffffffffffffffffff1673ffffffffffffffffffffffffffffffffffffffff1681526020019081526020016000205473__SafeMathLib___________________________6366098d4f9091836040518363ffffffff167c0100000000000000000000000000000000000000000000000000000000028152600401808381526020018281526020019250505060206040518083038186803b158015613bb257600080fd5b505af4158015613bc6573d6000803e3d6000fd5b505050506040513d6020811015613bdc57600080fd5b8101908080519060200190929190505050601160008973ffffffffffffffffffffffffffffffffffffffff1673ffffffffffffffffffffffffffffffffffffffff16815260200190815260200160002081905550600a5473__SafeMathLib___________________________6366098d4f9091846040518363ffffffff167c0100000000000000000000000000000000000000000000000000000000028152600401808381526020018281526020019250505060206040518083038186803b158015613ca757600080fd5b505af4158015613cbb573d6000803e3d6000fd5b505050506040513d6020811015613cd157600080fd5b8101908080519060200190929190505050600a8190555060095473__SafeMathLib___________________________6366098d4f9091836040518363ffffffff167c0100000000000000000000000000000000000000000000000000000000028152600401808381526020018281526020019250505060206040518083038186803b158015613d5f57600080fd5b505af4158015613d73573d6000803e3d6000fd5b505050506040513d6020811015613d8957600080fd5b8101908080519060200190929190505050600981905550600360009054906101000a900473ffffffffffffffffffffffffffffffffffffffff1673ffffffffffffffffffffffffffffffffffffffff1663f14ae17d886040518263ffffffff167c0100000000000000000000000000000000000000000000000000000000028152600401808273ffffffffffffffffffffffffffffffffffffffff1673ffffffffffffffffffffffffffffffffffffffff168152602001915050602060405180830381600087803b158015613e5d57600080fd5b505af1158015613e71573d6000803e3d6000fd5b505050506040513d6020811015613e8757600080fd5b810190808051906020019092919050505015613f5657600b5473__SafeMathLib___________________________6366098d4f9091846040518363ffffffff167c0100000000000000000000000000000000000000000000000000000000028152600401808381526020018281526020019250505060206040518083038186803b158015613f1457600080fd5b505af4158015613f28573d6000803e3d6000fd5b505050506040513d6020811015613f3e57600080fd5b8101908080519060200190929190505050600b819055505b613f668282600a546009546133cb565b151515613f7257600080fd5b613f7c878261466e565b7f0396f60aaad038749091d273dc13aaabc63db6e2271c7bad442d5cf25cc4335087838389604051808573ffffffffffffffffffffffffffffffffffffffff1673ffffffffffffffffffffffffffffffffffffffff168152602001848152602001838152602001826fffffffffffffffffffffffffffffffff166fffffffffffffffffffffffffffffffff16815260200194505050505060405180910390a18093505050509392505050565b6000809054906101000a900473ffffffffffffffffffffffffffffffffffffffff1673ffffffffffffffffffffffffffffffffffffffff163373ffffffffffffffffffffffffffffffffffffffff1614151561408357600080fd5b80601260008473ffffffffffffffffffffffffffffffffffffffff1673ffffffffffffffffffffffffffffffffffffffff16815260200190815260200160002060006101000a81548160ff0219169083151502179055507fa54714518c5d275fdcd3d2a461e4858e4e8cb04fb93cd0bca9d6d34115f264408282604051808373ffffffffffffffffffffffffffffffffffffffff1673ffffffffffffffffffffffffffffffffffffffff168152602001821515151581526020019250505060405180910390a15050565b6000809054906101000a900473ffffffffffffffffffffffffffffffffffffffff1673ffffffffffffffffffffffffffffffffffffffff163373ffffffffffffffffffffffffffffffffffffffff161415156141a857600080fd5b81601460016101000a81548160ff02191690831515021790555080601460026101000a81548173ffffffffffffffffffffffffffffffffffffffff021916908373ffffffffffffffffffffffffffffffffffffffff1602179055507f48d826081348f5f00e8a33c9ae8ce89ed4c6e88400b585a478bc203d9e8177d3601460009054906101000a900460ff16601460019054906101000a900460ff16601460029054906101000a900473ffffffffffffffffffffffffffffffffffffffff166040518084151515158152602001831515151581526020018273ffffffffffffffffffffffffffffffffffffffff1673ffffffffffffffffffffffffffffffffffffffff168152602001935050505060405180910390a15050565b601460019054906101000a900460ff16156142dc57600080fd5b6000816fffffffffffffffffffffffffffffffff1614156142fc57600080fd5b6143068282614461565b505050565b6000809054906101000a900473ffffffffffffffffffffffffffffffffffffffff1673ffffffffffffffffffffffffffffffffffffffff163373ffffffffffffffffffffffffffffffffffffffff1614151561436657600080fd5b61436f81614755565b50565b6000809054906101000a900473ffffffffffffffffffffffffffffffffffffffff1673ffffffffffffffffffffffffffffffffffffffff163373ffffffffffffffffffffffffffffffffffffffff161415156143cd57600080fd5b600154600c5411156143de57600080fd5b80600560006101000a81548173ffffffffffffffffffffffffffffffffffffffff021916908373ffffffffffffffffffffffffffffffffffffffff16021790555050565b61442f338585858561184d565b50505050565b600b5481565b600260009054906101000a900473ffffffffffffffffffffffffffffffffffffffff1681565b60008060149054906101000a900460ff161561447c57600080fd5b6146668383600360009054906101000a900473ffffffffffffffffffffffffffffffffffffffff1673ffffffffffffffffffffffffffffffffffffffff166318a4155e34600b54600a540360095433600260009054906101000a900473ffffffffffffffffffffffffffffffffffffffff1673ffffffffffffffffffffffffffffffffffffffff1663313ce5676040518163ffffffff167c0100000000000000000000000000000000000000000000000000000000028152600401602060405180830381600087803b15801561455157600080fd5b505af1158015614565573d6000803e3d6000fd5b505050506040513d602081101561457b57600080fd5b81019080805190602001909291905050506040518663ffffffff167c0100000000000000000000000000000000000000000000000000000000028152600401808681526020018581526020018481526020018373ffffffffffffffffffffffffffffffffffffffff1673ffffffffffffffffffffffffffffffffffffffff16815260200182815260200195505050505050602060405180830381600087803b15801561462657600080fd5b505af115801561463a573d6000803e3d6000fd5b505050506040513d602081101561465057600080fd5b810190808051906020019092919050505061484f565b905092915050565b6000600260009054906101000a900473ffffffffffffffffffffffffffffffffffffffff1690508073ffffffffffffffffffffffffffffffffffffffff166340c10f1984846040518363ffffffff167c0100000000000000000000000000000000000000000000000000000000028152600401808373ffffffffffffffffffffffffffffffffffffffff1673ffffffffffffffffffffffffffffffffffffffff16815260200182815260200192505050600060405180830381600087803b15801561473857600080fd5b505af115801561474c573d6000803e3d6000fd5b50505050505050565b600073ffffffffffffffffffffffffffffffffffffffff168173ffffffffffffffffffffffffffffffffffffffff161415151561479157600080fd5b8073ffffffffffffffffffffffffffffffffffffffff166000809054906101000a900473ffffffffffffffffffffffffffffffffffffffff1673ffffffffffffffffffffffffffffffffffffffff167f8be0079c531659141344cd1fd0a4f28419497f9722a3daafe3b4186f6b6457e060405160405180910390a3806000806101000a81548173ffffffffffffffffffffffffffffffffffffffff021916908373ffffffffffffffffffffffffffffffffffffffff16021790555050565b600080600060149054906101000a900460ff161561486c57600080fd5b6002600781111561487957fe5b614881611416565b600781111561488c57fe5b14156148ef57601260008673ffffffffffffffffffffffffffffffffffffffff1673ffffffffffffffffffffffffffffffffffffffff16815260200190815260200160002060009054906101000a900460ff1615156148ea57600080fd5b614920565b600360078111156148fc57fe5b614904611416565b600781111561490f57fe5b141561491a5761491f565b600080fd5b5b3490506000831415151561493357600080fd5b6000601060008773ffffffffffffffffffffffffffffffffffffffff1673ffffffffffffffffffffffffffffffffffffffff16815260200190815260200160002054141561498e57600c600081548092919060010191905055505b601060008673ffffffffffffffffffffffffffffffffffffffff1673ffffffffffffffffffffffffffffffffffffffff1681526020019081526020016000205473__SafeMathLib___________________________6366098d4f9091836040518363ffffffff167c0100000000000000000000000000000000000000000000000000000000028152600401808381526020018281526020019250505060206040518083038186803b158015614a4257600080fd5b505af4158015614a56573d6000803e3d6000fd5b505050506040513d6020811015614a6c57600080fd5b8101908080519060200190929190505050601060008773ffffffffffffffffffffffffffffffffffffffff1673ffffffffffffffffffffffffffffffffffffffff16815260200190815260200160002081905550601160008673ffffffffffffffffffffffffffffffffffffffff1673ffffffffffffffffffffffffffffffffffffffff1681526020019081526020016000205473__SafeMathLib___________________________6366098d4f9091856040518363ffffffff167c0100000000000000000000000000000000000000000000000000000000028152600401808381526020018281526020019250505060206040518083038186803b158015614b7457600080fd5b505af4158015614b88573d6000803e3d6000fd5b505050506040513d6020811015614b9e57600080fd5b8101908080519060200190929190505050601160008773ffffffffffffffffffffffffffffffffffffffff1673ffffffffffffffffffffffffffffffffffffffff16815260200190815260200160002081905550600a5473__SafeMathLib___________________________6366098d4f9091836040518363ffffffff167c0100000000000000000000000000000000000000000000000000000000028152600401808381526020018281526020019250505060206040518083038186803b158015614c6957600080fd5b505af4158015614c7d573d6000803e3d6000fd5b505050506040513d6020811015614c9357600080fd5b8101908080519060200190929190505050600a8190555060095473__SafeMathLib___________________________6366098d4f9091856040518363ffffffff167c0100000000000000000000000000000000000000000000000000000000028152600401808381526020018281526020019250505060206040518083038186803b158015614d2157600080fd5b505af4158015614d35573d6000803e3d6000fd5b505050506040513d6020811015614d4b57600080fd5b8101908080519060200190929190505050600981905550600360009054906101000a900473ffffffffffffffffffffffffffffffffffffffff1673ffffffffffffffffffffffffffffffffffffffff1663f14ae17d866040518263ffffffff167c0100000000000000000000000000000000000000000000000000000000028152600401808273ffffffffffffffffffffffffffffffffffffffff1673ffffffffffffffffffffffffffffffffffffffff168152602001915050602060405180830381600087803b158015614e1f57600080fd5b505af1158015614e33573d6000803e3d6000fd5b505050506040513d6020811015614e4957600080fd5b810190808051906020019092919050505015614f1857600b5473__SafeMathLib___________________________6366098d4f9091836040518363ffffffff167c0100000000000000000000000000000000000000000000000000000000028152600401808381526020018281526020019250505060206040518083038186803b158015614ed657600080fd5b505af4158015614eea573d6000803e3d6000fd5b505050506040513d6020811015614f0057600080fd5b8101908080519060200190929190505050600b819055505b614f288184600a546009546133cb565b151515614f3457600080fd5b614f3e858461466e565b600560009054906101000a900473ffffffffffffffffffffffffffffffffffffffff1673ffffffffffffffffffffffffffffffffffffffff166108fc829081150290604051600060405180830381858888f193505050501515614fa057600080fd5b7f0396f60aaad038749091d273dc13aaabc63db6e2271c7bad442d5cf25cc4335085828587604051808573ffffffffffffffffffffffffffffffffffffffff1673ffffffffffffffffffffffffffffffffffffffff168152602001848152602001838152602001826fffffffffffffffffffffffffffffffff166fffffffffffffffffffffffffffffffff16815260200194505050505060405180910390a18291505093925050505600a165627a7a723058203fdc6a07b0a960af29f5f57c30b534005fdffab9ccef7d004ca1794a5ca192e60029",
  "source": "/**\n * This smart contract code is Copyright 2017 TokenMarket Ltd. For more information see https://tokenmarket.net\n *\n * Licensed under the Apache License, version 2.0: https://github.com/TokenMarketNet/ico/blob/master/LICENSE.txt\n */\n\npragma solidity ^0.4.8;\n\nimport \"./Crowdsale.sol\";\nimport \"./MintableToken.sol\";\nimport \"./FlatFiatPricing.sol\";\nimport \"./KYCPayloadDeserializer.sol\";\n\n/**\n * Uncapped ICO crowdsale contract.\n *\n *\n * Intended usage\n *\n * - A short time window\n * - Flat price\n * - No cap\n *\n */\ncontract BeamCrowdsale is Crowdsale, KYCPayloadDeserializer {\n\n  /* Server holds the private key to this address to sign incoming buy payloads to signal we have KYC records in the books for these users. */\n  address public signerAddress;\n\n  /* A new server-side signer key was set to be effective */\n  event SignerChanged(address signer);\n\n  function BeamCrowdsale(address _token, PricingStrategy _pricingStrategy, address _multisigWallet, uint _start, uint _end, uint _minimumFundingGoal) Crowdsale(_token, _pricingStrategy, _multisigWallet, _start, _end, _minimumFundingGoal) {\n\n  }\n\n  function setPricingStrategy(PricingStrategy _pricingStrategy) onlyOwner {\n    pricingStrategy = _pricingStrategy;\n\n    if(!FlatFiatPricing(pricingStrategy).isFlatFiatPricingStrategy()) {\n      throw;\n    }\n  }\n\n  /**\n   * Called from invest() to confirm if the curret investment does not break our cap rule.\n   */\n  function isBreakingCap(uint weiAmount, uint tokenAmount, uint weiRaisedTotal, uint tokensSoldTotal) constant returns (bool limitBroken) {\n    return false;\n  }\n\n  function isCrowdsaleFull() public constant returns (bool) {\n    // Uncle Scrooge\n    return false;\n  }\n\n  function assignTokens(address receiver, uint tokenAmount) internal {\n    MintableToken mintableToken = MintableToken(token);\n    mintableToken.mint(receiver, tokenAmount);\n  }\n\n  /**\n   * @dev Make an investment.\n   *\n   * Crowdsale must be running for one to invest.\n   * We must have not pressed the emergency brake.\n   *\n   * @param receiver The Ethereum address who receives the tokens\n   * @param customerId (optional) UUID v4 to track the successful payments on the server side'\n   * @param fiatAmount Amount of fiat coins which be credited to receiver\n   *\n   * @return tokensBought How mony tokens were bought\n   */\n  function buyTokensForFiat(address receiver, uint128 customerId, uint fiatAmount) stopInEmergency onlyOwner public returns(uint tokensBought) {\n\n    // Determine if it's a good time to accept investment from this participant\n    if(getState() == State.PreFunding) {\n      // Are we whitelisted for early deposit\n      if(!earlyParticipantWhitelist[receiver]) {\n        throw;\n      }\n    } else if(getState() == State.Funding) {\n      // Retail participants can only come in when the crowdsale is running\n      // pass\n    } else {\n      // Unwanted state\n      throw;\n    }\n\n    FlatFiatPricing pricing = FlatFiatPricing(pricingStrategy);\n    uint weiAmount = pricing.oneFiatInWeis() * fiatAmount;\n    uint tokenAmount = pricing.calculatePrice(weiAmount, weiRaised - presaleWeiRaised, tokensSold, receiver, token.decimals());\n\n    // Dust transaction\n    require(tokenAmount != 0);\n\n    if(investedAmountOf[receiver] == 0) {\n      // A new investor\n      investorCount++;\n    }\n\n    // Update investor\n    investedAmountOf[receiver] = investedAmountOf[receiver].plus(weiAmount);\n    tokenAmountOf[receiver] = tokenAmountOf[receiver].plus(tokenAmount);\n\n    // Update totals\n    weiRaised = weiRaised.plus(weiAmount);\n    tokensSold = tokensSold.plus(tokenAmount);\n\n    if(pricingStrategy.isPresalePurchase(receiver)) {\n      presaleWeiRaised = presaleWeiRaised.plus(weiAmount);\n    }\n\n    // Check that we did not bust the cap\n    require(!isBreakingCap(weiAmount, tokenAmount, weiRaised, tokensSold));\n\n    assignTokens(receiver, tokenAmount);\n\n    // Tell us invest was success\n    Invested(receiver, weiAmount, tokenAmount, customerId);\n\n    return tokenAmount;\n  }\n\n  /**\n   * A token purchase with anti-money laundering\n   *\n   * return tokenAmount How many tokens where bought\n   */\n  function buyWithKYCData(bytes32 dataframe, uint8 v, bytes32 r, bytes32 s) public payable returns(address result) {\n\n    uint _tokenAmount;\n    uint multiplier = 10 ** 18;\n\n    // User comes through the server, check that the signature to ensure ther server\n    // side KYC has passed for this customer id and whitelisted Ethereum address\n\n    //bytes memory prefix = \"\\x19Ethereum Signed Message:\\n32\";\n    //bytes32 hash = sha3(prefix, dataframe);\n    bytes32 hash = sha3(dataframe);\n\n    //var (whitelistedAddress, customerId, minETH, maxETH, pricingInfo) = getKYCPayload(dataframe);\n\n    // Check that the KYC data is signed by our server\n    //require(ecrecover(hash, v, r, s) == signerAddress);\n\n    // Only whitelisted address can participate the transaction\n    //require(whitelistedAddress == msg.sender);\n\n    // Server gives us information what is the buy price for this user\n    //uint256 tokensTotal = calculateTokens(msg.value, pricingInfo);\n\n    //_tokenAmount = buyTokens(msg.sender, customerId, tokensTotal);\n\n    address addr =  ecrecover(hash, v, r, s);\n    return addr;\n  }\n\n  /// @dev This function can set the server side address\n  /// @param _signerAddress The address derived from server's private key\n  function setSignerAddress(address _signerAddress) onlyOwner {\n    signerAddress = _signerAddress;\n    SignerChanged(signerAddress);\n  }\n}\n",
  "sourcePath": "/home/otokarev/work/umbre/ico/contracts/BeamCrowdsale.sol",
  "compiler": {
    "name": "solc",
    "version": "0.4.24+commit.e67f0147.Emscripten.clang"
  },
  "schemaVersion": "2.0.1",
  "updatedAt": "2018-09-12T21:12:30.099Z"
}