{
  "contractName": "BonusFinalizeAgent",
  "abi": [
    {
      "constant": true,
      "inputs": [],
      "name": "isFinalizeAgent",
      "outputs": [
        {
          "name": "",
          "type": "bool"
        }
      ],
      "payable": false,
      "stateMutability": "view",
      "type": "function"
    },
    {
      "constant": true,
      "inputs": [],
      "name": "allocatedBonus",
      "outputs": [
        {
          "name": "",
          "type": "uint256"
        }
      ],
      "payable": false,
      "stateMutability": "view",
      "type": "function"
    },
    {
      "constant": true,
      "inputs": [],
      "name": "bonusBasePoints",
      "outputs": [
        {
          "name": "",
          "type": "uint256"
        }
      ],
      "payable": false,
      "stateMutability": "view",
      "type": "function"
    },
    {
      "constant": true,
      "inputs": [],
      "name": "crowdsale",
      "outputs": [
        {
          "name": "",
          "type": "address"
        }
      ],
      "payable": false,
      "stateMutability": "view",
      "type": "function"
    },
    {
      "constant": true,
      "inputs": [],
      "name": "teamMultisig",
      "outputs": [
        {
          "name": "",
          "type": "address"
        }
      ],
      "payable": false,
      "stateMutability": "view",
      "type": "function"
    },
    {
      "constant": true,
      "inputs": [],
      "name": "token",
      "outputs": [
        {
          "name": "",
          "type": "address"
        }
      ],
      "payable": false,
      "stateMutability": "view",
      "type": "function"
    },
    {
      "inputs": [
        {
          "name": "_token",
          "type": "address"
        },
        {
          "name": "_crowdsale",
          "type": "address"
        },
        {
          "name": "_bonusBasePoints",
          "type": "uint256"
        },
        {
          "name": "_teamMultisig",
          "type": "address"
        }
      ],
      "payable": false,
      "stateMutability": "nonpayable",
      "type": "constructor"
    },
    {
      "constant": true,
      "inputs": [],
      "name": "isSane",
      "outputs": [
        {
          "name": "",
          "type": "bool"
        }
      ],
      "payable": false,
      "stateMutability": "view",
      "type": "function"
    },
    {
      "constant": false,
      "inputs": [],
      "name": "finalizeCrowdsale",
      "outputs": [],
      "payable": false,
      "stateMutability": "nonpayable",
      "type": "function"
    }
  ],
  "bytecode": "0x608060405234801561001057600080fd5b50604051608080610a4f83398101806040528101908080519060200190929190805190602001909291908051906020019092919080519060200190929190505050836000806101000a81548173ffffffffffffffffffffffffffffffffffffffff021916908373ffffffffffffffffffffffffffffffffffffffff16021790555082600160006101000a81548173ffffffffffffffffffffffffffffffffffffffff021916908373ffffffffffffffffffffffffffffffffffffffff1602179055506000600160009054906101000a900473ffffffffffffffffffffffffffffffffffffffff1673ffffffffffffffffffffffffffffffffffffffff16141561011857600080fd5b80600360006101000a81548173ffffffffffffffffffffffffffffffffffffffff021916908373ffffffffffffffffffffffffffffffffffffffff1602179055506000600360009054906101000a900473ffffffffffffffffffffffffffffffffffffffff1673ffffffffffffffffffffffffffffffffffffffff16141561019f57600080fd5b8160028190555050505050610896806101b96000396000f30060806040526004361061008e576000357c0100000000000000000000000000000000000000000000000000000000900463ffffffff1680630bf318a314610093578063614cb904146100aa5780636a457ee9146100d95780637424bebc1461010457806382771c8e1461012f5780639c1e03a01461015e578063dbc0c085146101b5578063fc0c546a1461020c575b600080fd5b34801561009f57600080fd5b506100a8610263565b005b3480156100b657600080fd5b506100bf6105e9565b604051808215151515815260200191505060405180910390f35b3480156100e557600080fd5b506100ee6105f2565b6040518082815260200191505060405180910390f35b34801561011057600080fd5b506101196105f8565b6040518082815260200191505060405180910390f35b34801561013b57600080fd5b506101446105fe565b604051808215151515815260200191505060405180910390f35b34801561016a57600080fd5b506101736107f9565b604051808273ffffffffffffffffffffffffffffffffffffffff1673ffffffffffffffffffffffffffffffffffffffff16815260200191505060405180910390f35b3480156101c157600080fd5b506101ca61081f565b604051808273ffffffffffffffffffffffffffffffffffffffff1673ffffffffffffffffffffffffffffffffffffffff16815260200191505060405180910390f35b34801561021857600080fd5b50610221610845565b604051808273ffffffffffffffffffffffffffffffffffffffff1673ffffffffffffffffffffffffffffffffffffffff16815260200191505060405180910390f35b6000600160009054906101000a900473ffffffffffffffffffffffffffffffffffffffff1673ffffffffffffffffffffffffffffffffffffffff163373ffffffffffffffffffffffffffffffffffffffff161415156102c157600080fd5b600160009054906101000a900473ffffffffffffffffffffffffffffffffffffffff1673ffffffffffffffffffffffffffffffffffffffff1663518ab2a86040518163ffffffff167c0100000000000000000000000000000000000000000000000000000000028152600401602060405180830381600087803b15801561034757600080fd5b505af115801561035b573d6000803e3d6000fd5b505050506040513d602081101561037157600080fd5b810190808051906020019092919050505090506127108173__SafeMathLib___________________________631d3b9edf90916002546040518363ffffffff167c0100000000000000000000000000000000000000000000000000000000028152600401808381526020018281526020019250505060206040518083038186803b1580156103fe57600080fd5b505af4158015610412573d6000803e3d6000fd5b505050506040513d602081101561042857600080fd5b810190808051906020019092919050505081151561044257fe5b046004819055506000809054906101000a900473ffffffffffffffffffffffffffffffffffffffff1673ffffffffffffffffffffffffffffffffffffffff166340c10f19600360009054906101000a900473ffffffffffffffffffffffffffffffffffffffff166004546040518363ffffffff167c0100000000000000000000000000000000000000000000000000000000028152600401808373ffffffffffffffffffffffffffffffffffffffff1673ffffffffffffffffffffffffffffffffffffffff16815260200182815260200192505050600060405180830381600087803b15801561053157600080fd5b505af1158015610545573d6000803e3d6000fd5b505050506000809054906101000a900473ffffffffffffffffffffffffffffffffffffffff1673ffffffffffffffffffffffffffffffffffffffff16635f412d4f6040518163ffffffff167c0100000000000000000000000000000000000000000000000000000000028152600401600060405180830381600087803b1580156105ce57600080fd5b505af11580156105e2573d6000803e3d6000fd5b5050505050565b60006001905090565b60045481565b60025481565b6000600115156000809054906101000a900473ffffffffffffffffffffffffffffffffffffffff1673ffffffffffffffffffffffffffffffffffffffff166342c1867b306040518263ffffffff167c0100000000000000000000000000000000000000000000000000000000028152600401808273ffffffffffffffffffffffffffffffffffffffff1673ffffffffffffffffffffffffffffffffffffffff168152602001915050602060405180830381600087803b1580156106c057600080fd5b505af11580156106d4573d6000803e3d6000fd5b505050506040513d60208110156106ea57600080fd5b810190808051906020019092919050505015151480156107f457503073ffffffffffffffffffffffffffffffffffffffff166000809054906101000a900473ffffffffffffffffffffffffffffffffffffffff1673ffffffffffffffffffffffffffffffffffffffff1663d1f276d36040518163ffffffff167c0100000000000000000000000000000000000000000000000000000000028152600401602060405180830381600087803b1580156107a157600080fd5b505af11580156107b5573d6000803e3d6000fd5b505050506040513d60208110156107cb57600080fd5b810190808051906020019092919050505073ffffffffffffffffffffffffffffffffffffffff16145b905090565b600160009054906101000a900473ffffffffffffffffffffffffffffffffffffffff1681565b600360009054906101000a900473ffffffffffffffffffffffffffffffffffffffff1681565b6000809054906101000a900473ffffffffffffffffffffffffffffffffffffffff16815600a165627a7a72305820e7d823d4ed8d3c54f27cb052c2305ebbf2837fa23d9ef0e245c14aeab9f2aadd0029",
  "source": "/**\n * This smart contract code is Copyright 2017 TokenMarket Ltd. For more information see https://tokenmarket.net\n *\n * Licensed under the Apache License, version 2.0: https://github.com/TokenMarketNet/ico/blob/master/LICENSE.txt\n */\n\npragma solidity ^0.4.6;\n\nimport \"./Crowdsale.sol\";\nimport \"./CrowdsaleToken.sol\";\nimport \"./SafeMathLib.sol\";\n\n/**\n * At the end of the successful crowdsale allocate % bonus of tokens to the team.\n *\n * Unlock tokens.\n *\n * BonusAllocationFinal must be set as the minting agent for the MintableToken.\n *\n */\ncontract BonusFinalizeAgent is FinalizeAgent {\n\n  using SafeMathLib for uint;\n\n  CrowdsaleToken public token;\n  Crowdsale public crowdsale;\n\n  /** Total percent of tokens minted to the team at the end of the sale as base points (0.0001) */\n  uint public bonusBasePoints;\n\n  /** Where we move the tokens at the end of the sale. */\n  address public teamMultisig;\n\n  /* How much bonus tokens we allocated */\n  uint public allocatedBonus;\n\n  function BonusFinalizeAgent(CrowdsaleToken _token, Crowdsale _crowdsale, uint _bonusBasePoints, address _teamMultisig) {\n    token = _token;\n    crowdsale = _crowdsale;\n    if(address(crowdsale) == 0) {\n      throw;\n    }\n\n    teamMultisig = _teamMultisig;\n    if(address(teamMultisig) == 0) {\n      throw;\n    }\n\n    bonusBasePoints = _bonusBasePoints;\n  }\n\n  /* Can we run finalize properly */\n  function isSane() public constant returns (bool) {\n    return (token.mintAgents(address(this)) == true) && (token.releaseAgent() == address(this));\n  }\n\n  /** Called once by crowdsale finalize() if the sale was success. */\n  function finalizeCrowdsale() {\n    if(msg.sender != address(crowdsale)) {\n      throw;\n    }\n\n    // How many % of tokens the founders and others get\n    uint tokensSold = crowdsale.tokensSold();\n    allocatedBonus = tokensSold.times(bonusBasePoints) / 10000;\n\n    // move tokens to the team multisig wallet\n    token.mint(teamMultisig, allocatedBonus);\n\n    // Make token transferable\n    token.releaseTokenTransfer();\n  }\n\n}\n",
  "sourcePath": "/home/otokarev/work/umbre/ico/contracts/BonusFinalizeAgent.sol",
  "compiler": {
    "name": "solc",
    "version": "0.4.24+commit.e67f0147.Emscripten.clang"
  },
  "schemaVersion": "2.0.1",
  "updatedAt": "2018-09-12T21:12:30.102Z"
}