{
  "contractName": "BytesDeserializer",
  "abi": [
    {
      "constant": true,
      "inputs": [
        {
          "name": "b",
          "type": "bytes"
        },
        {
          "name": "offset",
          "type": "uint256"
        }
      ],
      "name": "slice32",
      "outputs": [
        {
          "name": "",
          "type": "bytes32"
        }
      ],
      "payable": false,
      "stateMutability": "view",
      "type": "function"
    },
    {
      "constant": true,
      "inputs": [
        {
          "name": "b",
          "type": "bytes"
        },
        {
          "name": "offset",
          "type": "uint256"
        }
      ],
      "name": "sliceAddress",
      "outputs": [
        {
          "name": "",
          "type": "address"
        }
      ],
      "payable": false,
      "stateMutability": "view",
      "type": "function"
    },
    {
      "constant": true,
      "inputs": [
        {
          "name": "b",
          "type": "bytes"
        },
        {
          "name": "offset",
          "type": "uint256"
        }
      ],
      "name": "slice16",
      "outputs": [
        {
          "name": "",
          "type": "bytes16"
        }
      ],
      "payable": false,
      "stateMutability": "view",
      "type": "function"
    },
    {
      "constant": true,
      "inputs": [
        {
          "name": "b",
          "type": "bytes"
        },
        {
          "name": "offset",
          "type": "uint256"
        }
      ],
      "name": "slice4",
      "outputs": [
        {
          "name": "",
          "type": "bytes4"
        }
      ],
      "payable": false,
      "stateMutability": "view",
      "type": "function"
    },
    {
      "constant": true,
      "inputs": [
        {
          "name": "b",
          "type": "bytes"
        },
        {
          "name": "offset",
          "type": "uint256"
        }
      ],
      "name": "slice2",
      "outputs": [
        {
          "name": "",
          "type": "bytes2"
        }
      ],
      "payable": false,
      "stateMutability": "view",
      "type": "function"
    }
  ],
  "bytecode": "0x610895610030600b82828239805160001a6073146000811461002057610022565bfe5b5030600052607381538281f3007300000000000000000000000000000000000000003014608060405260043610610084576000357c0100000000000000000000000000000000000000000000000000000000900463ffffffff16806316419aa71461008957806320956341146101295780632e1eb7fe146101e5578063b655e13814610267578063d54dd8f91461030d575b600080fd5b6100ed600480360381019080803590602001908201803590602001908080601f0160208091040260200160405190810160405280939291908181526020018383808284378201915050505050509192919290803590602001909291905050506103c5565b60405180826fffffffffffffffffffffffffffffffff19166fffffffffffffffffffffffffffffffff1916815260200191505060405180910390f35b61018d600480360381019080803590602001908201803590602001908080601f0160208091040260200160405190810160405280939291908181526020018383808284378201915050505050509192919290803590602001909291905050506104b2565b60405180827dffffffffffffffffffffffffffffffffffffffffffffffffffffffffffff19167dffffffffffffffffffffffffffffffffffffffffffffffffffffffffffff1916815260200191505060405180910390f35b610249600480360381019080803590602001908201803590602001908080601f0160208091040260200160405190810160405280939291908181526020018383808284378201915050505050509192919290803590602001909291905050506105ad565b60405180826000191660001916815260200191505060405180910390f35b6102cb600480360381019080803590602001908201803590602001908080601f01602080910402602001604051908101604052809392919081815260200183838082843782019150505050505091929192908035906020019092919050505061068b565b604051808273ffffffffffffffffffffffffffffffffffffffff1673ffffffffffffffffffffffffffffffffffffffff16815260200191505060405180910390f35b610371600480360381019080803590602001908201803590602001908080601f016020809104026020016040519081016040528093929190818152602001838380828437820191505050505050919291929080359060200190929190505050610770565b60405180827bffffffffffffffffffffffffffffffffffffffffffffffffffffffff19167bffffffffffffffffffffffffffffffffffffffffffffffffffffffff1916815260200191505060405180910390f35b60008060008090505b60108110156104a7576008810260ff7f0100000000000000000000000000000000000000000000000000000000000000028683870181518110151561040f57fe5b9060200101517f010000000000000000000000000000000000000000000000000000000000000090047f010000000000000000000000000000000000000000000000000000000000000002167effffffffffffffffffffffffffffffffffffffffffffffffffffffffffffff19166fffffffffffffffffffffffffffffffff19169060020a90048217915080806001019150506103ce565b819250505092915050565b60008060008090505b60028110156105a2576008810260ff7f010000000000000000000000000000000000000000000000000000000000000002868387018151811015156104fc57fe5b9060200101517f010000000000000000000000000000000000000000000000000000000000000090047f010000000000000000000000000000000000000000000000000000000000000002167effffffffffffffffffffffffffffffffffffffffffffffffffffffffffffff19167dffffffffffffffffffffffffffffffffffffffffffffffffffffffffffff19169060020a90048217915080806001019150506104bb565b819250505092915050565b60008060008090505b6020811015610680576008810260ff7f010000000000000000000000000000000000000000000000000000000000000002868387018151811015156105f757fe5b9060200101517f010000000000000000000000000000000000000000000000000000000000000090047f010000000000000000000000000000000000000000000000000000000000000002167effffffffffffffffffffffffffffffffffffffffffffffffffffffffffffff1916600019169060020a90048217915080806001019150506105b6565b819250505092915050565b60008060008090505b6014811015610761576008600c82010260ff7f010000000000000000000000000000000000000000000000000000000000000002868387018151811015156106d857fe5b9060200101517f010000000000000000000000000000000000000000000000000000000000000090047f010000000000000000000000000000000000000000000000000000000000000002167effffffffffffffffffffffffffffffffffffffffffffffffffffffffffffff1916600019169060020a9004821791508080600101915050610694565b81600190049250505092915050565b60008060008090505b600481101561085e576008810260ff7f010000000000000000000000000000000000000000000000000000000000000002868387018151811015156107ba57fe5b9060200101517f010000000000000000000000000000000000000000000000000000000000000090047f010000000000000000000000000000000000000000000000000000000000000002167effffffffffffffffffffffffffffffffffffffffffffffffffffffffffffff19167bffffffffffffffffffffffffffffffffffffffffffffffffffffffff19169060020a9004821791508080600101915050610779565b8192505050929150505600a165627a7a72305820503610a7c2b57096646ebd692f9dbb654e39003ea4301d501fe151642781a8f00029",
  "source": "/**\n * This smart contract code is Copyright 2017 TokenMarket Ltd. For more information see https://tokenmarket.net\n *\n * Licensed under the Apache License, version 2.0: https://github.com/TokenMarketNet/ico/blob/master/LICENSE.txt\n */\n\n/**\n * Deserialize bytes payloads.\n *\n * Values are in big-endian byte order.\n *\n */\nlibrary BytesDeserializer {\n\n  /**\n   * Extract 256-bit worth of data from the bytes stream.\n   */\n  function slice32(bytes b, uint offset) constant returns (bytes32) {\n    bytes32 out;\n\n    for (uint i = 0; i < 32; i++) {\n      out |= bytes32(b[offset + i] & 0xFF) >> (i * 8);\n    }\n    return out;\n  }\n\n  /**\n   * Extract Ethereum address worth of data from the bytes stream.\n   */\n  function sliceAddress(bytes b, uint offset) constant returns (address) {\n    bytes32 out;\n\n    for (uint i = 0; i < 20; i++) {\n      out |= bytes32(b[offset + i] & 0xFF) >> ((i+12) * 8);\n    }\n    return address(uint(out));\n  }\n\n  /**\n   * Extract 128-bit worth of data from the bytes stream.\n   */\n  function slice16(bytes b, uint offset) constant returns (bytes16) {\n    bytes16 out;\n\n    for (uint i = 0; i < 16; i++) {\n      out |= bytes16(b[offset + i] & 0xFF) >> (i * 8);\n    }\n    return out;\n  }\n\n  /**\n   * Extract 32-bit worth of data from the bytes stream.\n   */\n  function slice4(bytes b, uint offset) constant returns (bytes4) {\n    bytes4 out;\n\n    for (uint i = 0; i < 4; i++) {\n      out |= bytes4(b[offset + i] & 0xFF) >> (i * 8);\n    }\n    return out;\n  }\n\n  /**\n   * Extract 16-bit worth of data from the bytes stream.\n   */\n  function slice2(bytes b, uint offset) constant returns (bytes2) {\n    bytes2 out;\n\n    for (uint i = 0; i < 2; i++) {\n      out |= bytes2(b[offset + i] & 0xFF) >> (i * 8);\n    }\n    return out;\n  }\n\n\n\n}\n",
  "sourcePath": "/home/otokarev/work/umbre/ico/contracts/BytesDeserializer.sol",
  "compiler": {
    "name": "solc",
    "version": "0.4.24+commit.e67f0147.Emscripten.clang"
  },
  "schemaVersion": "2.0.1",
  "updatedAt": "2018-09-12T21:12:30.103Z"
}