{
  "contractName": "FlatFiatPricing",
  "abi": [
    {
      "constant": true,
      "inputs": [],
      "name": "isPricingStrategy",
      "outputs": [
        {
          "name": "",
          "type": "bool"
        }
      ],
      "payable": false,
      "stateMutability": "view",
      "type": "function"
    },
    {
      "constant": true,
      "inputs": [],
      "name": "oneTokenInFiat",
      "outputs": [
        {
          "name": "",
          "type": "uint256"
        }
      ],
      "payable": false,
      "stateMutability": "view",
      "type": "function"
    },
    {
      "constant": true,
      "inputs": [],
      "name": "owner",
      "outputs": [
        {
          "name": "",
          "type": "address"
        }
      ],
      "payable": false,
      "stateMutability": "view",
      "type": "function"
    },
    {
      "constant": true,
      "inputs": [
        {
          "name": "crowdsale",
          "type": "address"
        }
      ],
      "name": "isSane",
      "outputs": [
        {
          "name": "",
          "type": "bool"
        }
      ],
      "payable": false,
      "stateMutability": "view",
      "type": "function"
    },
    {
      "constant": true,
      "inputs": [],
      "name": "oneFiatInWeis",
      "outputs": [
        {
          "name": "",
          "type": "uint256"
        }
      ],
      "payable": false,
      "stateMutability": "view",
      "type": "function"
    },
    {
      "constant": true,
      "inputs": [
        {
          "name": "purchaser",
          "type": "address"
        }
      ],
      "name": "isPresalePurchase",
      "outputs": [
        {
          "name": "",
          "type": "bool"
        }
      ],
      "payable": false,
      "stateMutability": "view",
      "type": "function"
    },
    {
      "inputs": [
        {
          "name": "_oneTokenInFiat",
          "type": "uint256"
        }
      ],
      "payable": false,
      "stateMutability": "nonpayable",
      "type": "constructor"
    },
    {
      "constant": true,
      "inputs": [],
      "name": "isFlatFiatPricingStrategy",
      "outputs": [
        {
          "name": "",
          "type": "bool"
        }
      ],
      "payable": false,
      "stateMutability": "view",
      "type": "function"
    },
    {
      "constant": false,
      "inputs": [
        {
          "name": "_oneFiatInWeis",
          "type": "uint256"
        }
      ],
      "name": "setOneFiatInWeis",
      "outputs": [],
      "payable": false,
      "stateMutability": "nonpayable",
      "type": "function"
    },
    {
      "constant": true,
      "inputs": [
        {
          "name": "value",
          "type": "uint256"
        },
        {
          "name": "weiRaised",
          "type": "uint256"
        },
        {
          "name": "tokensSold",
          "type": "uint256"
        },
        {
          "name": "msgSender",
          "type": "address"
        },
        {
          "name": "decimals",
          "type": "uint256"
        }
      ],
      "name": "calculatePrice",
      "outputs": [
        {
          "name": "",
          "type": "uint256"
        }
      ],
      "payable": false,
      "stateMutability": "view",
      "type": "function"
    }
  ],
  "bytecode": "0x608060405234801561001057600080fd5b506040516020806104c483398101806040528101908080519060200190929190505050336000806101000a81548173ffffffffffffffffffffffffffffffffffffffff021916908373ffffffffffffffffffffffffffffffffffffffff16021790555060008111151561008257600080fd5b806001819055505061042b806100996000396000f300608060405260043610610099576000357c0100000000000000000000000000000000000000000000000000000000900463ffffffff16806304bbc2551461009e57806318a4155e146100cd57806345647c051461014c57806380d82225146101775780638da5cb5b146101a65780638e768288146101fd578063c730a7b514610258578063e7aa997c14610285578063f14ae17d146102b0575b600080fd5b3480156100aa57600080fd5b506100b361030b565b604051808215151515815260200191505060405180910390f35b3480156100d957600080fd5b50610136600480360381019080803590602001909291908035906020019092919080359060200190929190803573ffffffffffffffffffffffffffffffffffffffff16906020019092919080359060200190929190505050610314565b6040518082815260200191505060405180910390f35b34801561015857600080fd5b5061016161033c565b6040518082815260200191505060405180910390f35b34801561018357600080fd5b5061018c610342565b604051808215151515815260200191505060405180910390f35b3480156101b257600080fd5b506101bb61034b565b604051808273ffffffffffffffffffffffffffffffffffffffff1673ffffffffffffffffffffffffffffffffffffffff16815260200191505060405180910390f35b34801561020957600080fd5b5061023e600480360381019080803573ffffffffffffffffffffffffffffffffffffffff169060200190929190505050610370565b604051808215151515815260200191505060405180910390f35b34801561026457600080fd5b506102836004803603810190808035906020019092919050505061037b565b005b34801561029157600080fd5b5061029a6103ef565b6040518082815260200191505060405180910390f35b3480156102bc57600080fd5b506102f1600480360381019080803573ffffffffffffffffffffffffffffffffffffffff1690602001909291905050506103f5565b604051808215151515815260200191505060405180910390f35b60006001905090565b60006001546002548781151561032657fe5b0481151561033057fe5b04905095945050505050565b60015481565b60006001905090565b6000809054906101000a900473ffffffffffffffffffffffffffffffffffffffff1681565b600060019050919050565b6000809054906101000a900473ffffffffffffffffffffffffffffffffffffffff1673ffffffffffffffffffffffffffffffffffffffff163373ffffffffffffffffffffffffffffffffffffffff161415156103d657600080fd5b6000811115156103e557600080fd5b8060028190555050565b60025481565b60008090509190505600a165627a7a72305820a43148405227282fcc1a87b080cd3224920534b7da84a2c493d35aa4e218d8950029",
  "source": "/**\n * This smart contract code is Copyright 2017 TokenMarket Ltd. For more information see https://tokenmarket.net\n *\n * Licensed under the Apache License, version 2.0: https://github.com/TokenMarketNet/ico/blob/master/LICENSE.txt\n */\n\npragma solidity ^0.4.12;\n\nimport \"./PricingStrategy.sol\";\nimport \"./SafeMathLib.sol\";\n\n/**\n * Fixed crowdsale pricing - everybody gets the same price.\n */\ncontract FlatFiatPricing is PricingStrategy {\n\n  address public owner;\n  using SafeMathLib for uint;\n\n  /* How much fiat money one token costs */\n  uint public oneTokenInFiat;\n\n  /* How many weis one fiat coin costs */\n  uint public oneFiatInWeis;\n\n  function FlatFiatPricing(uint _oneTokenInFiat) {\n    owner = msg.sender;\n    require(_oneTokenInFiat > 0);\n    oneTokenInFiat = _oneTokenInFiat;\n  }\n\n  /** Interface declaration. */\n  function isFlatFiatPricingStrategy() public constant returns (bool) {\n    return true;\n  }\n\n  /**\n   * @dev Throws if called by any account other than the owner.\n   */\n  modifier onlyOwner() {\n    require(msg.sender == owner);\n    _;\n  }\n\n  /**\n   * Owner can set a fiat coin price\n   */\n  function setOneFiatInWeis(uint _oneFiatInWeis) public onlyOwner {\n    require(_oneFiatInWeis > 0);\n    oneFiatInWeis = _oneFiatInWeis;\n  }\n\n  /**\n   * Calculate the current price for buy in amount.\n   *\n   */\n  function calculatePrice(uint value, uint weiRaised, uint tokensSold, address msgSender, uint decimals) public constant returns (uint) {\n    return value / oneFiatInWeis / oneTokenInFiat;\n  }\n\n}\n",
  "sourcePath": "/home/otokarev/work/umbre/ico/contracts/FlatFiatPricing.sol",
  "compiler": {
    "name": "solc",
    "version": "0.4.24+commit.e67f0147.Emscripten.clang"
  },
  "schemaVersion": "2.0.1",
  "updatedAt": "2018-09-12T21:12:30.125Z"
}