{
  "contractName": "FlatPricing",
  "abi": [
    {
      "constant": true,
      "inputs": [],
      "name": "isPricingStrategy",
      "outputs": [
        {
          "name": "",
          "type": "bool"
        }
      ],
      "payable": false,
      "stateMutability": "view",
      "type": "function"
    },
    {
      "constant": true,
      "inputs": [],
      "name": "oneTokenInWei",
      "outputs": [
        {
          "name": "",
          "type": "uint256"
        }
      ],
      "payable": false,
      "stateMutability": "view",
      "type": "function"
    },
    {
      "constant": true,
      "inputs": [
        {
          "name": "crowdsale",
          "type": "address"
        }
      ],
      "name": "isSane",
      "outputs": [
        {
          "name": "",
          "type": "bool"
        }
      ],
      "payable": false,
      "stateMutability": "view",
      "type": "function"
    },
    {
      "constant": true,
      "inputs": [
        {
          "name": "purchaser",
          "type": "address"
        }
      ],
      "name": "isPresalePurchase",
      "outputs": [
        {
          "name": "",
          "type": "bool"
        }
      ],
      "payable": false,
      "stateMutability": "view",
      "type": "function"
    },
    {
      "inputs": [
        {
          "name": "_oneTokenInWei",
          "type": "uint256"
        }
      ],
      "payable": false,
      "stateMutability": "nonpayable",
      "type": "constructor"
    },
    {
      "constant": true,
      "inputs": [
        {
          "name": "value",
          "type": "uint256"
        },
        {
          "name": "weiRaised",
          "type": "uint256"
        },
        {
          "name": "tokensSold",
          "type": "uint256"
        },
        {
          "name": "msgSender",
          "type": "address"
        },
        {
          "name": "decimals",
          "type": "uint256"
        }
      ],
      "name": "calculatePrice",
      "outputs": [
        {
          "name": "",
          "type": "uint256"
        }
      ],
      "payable": false,
      "stateMutability": "view",
      "type": "function"
    }
  ],
  "bytecode": "0x608060405234801561001057600080fd5b5060405160208061037c8339810180604052810190808051906020019092919050505060008111151561004257600080fd5b8060008190555050610323806100596000396000f30060806040526004361061006d576000357c0100000000000000000000000000000000000000000000000000000000900463ffffffff16806304bbc2551461007257806318a4155e146100a157806384e3ac94146101205780638e7682881461014b578063f14ae17d146101a6575b600080fd5b34801561007e57600080fd5b50610087610201565b604051808215151515815260200191505060405180910390f35b3480156100ad57600080fd5b5061010a600480360381019080803590602001909291908035906020019092919080359060200190929190803573ffffffffffffffffffffffffffffffffffffffff1690602001909291908035906020019092919050505061020a565b6040518082815260200191505060405180910390f35b34801561012c57600080fd5b506101356102dc565b6040518082815260200191505060405180910390f35b34801561015757600080fd5b5061018c600480360381019080803573ffffffffffffffffffffffffffffffffffffffff1690602001909291905050506102e2565b604051808215151515815260200191505060405180910390f35b3480156101b257600080fd5b506101e7600480360381019080803573ffffffffffffffffffffffffffffffffffffffff1690602001909291905050506102ed565b604051808215151515815260200191505060405180910390f35b60006001905090565b60008082600a0a90506000548773__SafeMathLib___________________________631d3b9edf9091846040518363ffffffff167c0100000000000000000000000000000000000000000000000000000000028152600401808381526020018281526020019250505060206040518083038186803b15801561028b57600080fd5b505af415801561029f573d6000803e3d6000fd5b505050506040513d60208110156102b557600080fd5b81019080805190602001909291905050508115156102cf57fe5b0491505095945050505050565b60005481565b600060019050919050565b60008090509190505600a165627a7a72305820d425dd8780bb101f6c6a58be4f6e5bdc6ffa7f42ea4688f9e4bda2ee63f92e080029",
  "source": "/**\n * This smart contract code is Copyright 2017 TokenMarket Ltd. For more information see https://tokenmarket.net\n *\n * Licensed under the Apache License, version 2.0: https://github.com/TokenMarketNet/ico/blob/master/LICENSE.txt\n */\n\npragma solidity ^0.4.12;\n\nimport \"./PricingStrategy.sol\";\nimport \"./SafeMathLib.sol\";\n\n/**\n * Fixed crowdsale pricing - everybody gets the same price.\n */\ncontract FlatPricing is PricingStrategy {\n\n  using SafeMathLib for uint;\n\n  /* How many weis one token costs */\n  uint public oneTokenInWei;\n\n  function FlatPricing(uint _oneTokenInWei) {\n    require(_oneTokenInWei > 0);\n    oneTokenInWei = _oneTokenInWei;\n  }\n\n  /**\n   * Calculate the current price for buy in amount.\n   *\n   */\n  function calculatePrice(uint value, uint weiRaised, uint tokensSold, address msgSender, uint decimals) public constant returns (uint) {\n    uint multiplier = 10 ** decimals;\n    return value.times(multiplier) / oneTokenInWei;\n  }\n\n}\n",
  "sourcePath": "/home/otokarev/work/umbre/ico/contracts/FlatPricing.sol",
  "compiler": {
    "name": "solc",
    "version": "0.4.24+commit.e67f0147.Emscripten.clang"
  },
  "schemaVersion": "2.0.1",
  "updatedAt": "2018-09-12T21:12:30.126Z"
}