{
  "contractName": "KYCCrowdsale",
  "abi": [
    {
      "constant": true,
      "inputs": [],
      "name": "ownerTestValue",
      "outputs": [
        {
          "name": "",
          "type": "uint256"
        }
      ],
      "payable": false,
      "stateMutability": "view",
      "type": "function"
    },
    {
      "constant": true,
      "inputs": [],
      "name": "isPricingSane",
      "outputs": [
        {
          "name": "sane",
          "type": "bool"
        }
      ],
      "payable": false,
      "stateMutability": "view",
      "type": "function"
    },
    {
      "constant": true,
      "inputs": [],
      "name": "endsAt",
      "outputs": [
        {
          "name": "",
          "type": "uint256"
        }
      ],
      "payable": false,
      "stateMutability": "view",
      "type": "function"
    },
    {
      "constant": true,
      "inputs": [],
      "name": "minimumFundingGoal",
      "outputs": [
        {
          "name": "",
          "type": "uint256"
        }
      ],
      "payable": false,
      "stateMutability": "view",
      "type": "function"
    },
    {
      "constant": true,
      "inputs": [],
      "name": "getState",
      "outputs": [
        {
          "name": "",
          "type": "uint8"
        }
      ],
      "payable": false,
      "stateMutability": "view",
      "type": "function"
    },
    {
      "constant": false,
      "inputs": [
        {
          "name": "addr",
          "type": "address"
        }
      ],
      "name": "setFinalizeAgent",
      "outputs": [],
      "payable": false,
      "stateMutability": "nonpayable",
      "type": "function"
    },
    {
      "constant": true,
      "inputs": [
        {
          "name": "",
          "type": "address"
        }
      ],
      "name": "investedAmountOf",
      "outputs": [
        {
          "name": "",
          "type": "uint256"
        }
      ],
      "payable": false,
      "stateMutability": "view",
      "type": "function"
    },
    {
      "constant": true,
      "inputs": [],
      "name": "finalizeAgent",
      "outputs": [
        {
          "name": "",
          "type": "address"
        }
      ],
      "payable": false,
      "stateMutability": "view",
      "type": "function"
    },
    {
      "constant": true,
      "inputs": [],
      "name": "beneficiary",
      "outputs": [
        {
          "name": "",
          "type": "address"
        }
      ],
      "payable": false,
      "stateMutability": "view",
      "type": "function"
    },
    {
      "constant": true,
      "inputs": [],
      "name": "weiRaised",
      "outputs": [
        {
          "name": "",
          "type": "uint256"
        }
      ],
      "payable": false,
      "stateMutability": "view",
      "type": "function"
    },
    {
      "constant": true,
      "inputs": [],
      "name": "isCrowdsale",
      "outputs": [
        {
          "name": "",
          "type": "bool"
        }
      ],
      "payable": false,
      "stateMutability": "view",
      "type": "function"
    },
    {
      "constant": false,
      "inputs": [],
      "name": "finalize",
      "outputs": [],
      "payable": false,
      "stateMutability": "nonpayable",
      "type": "function"
    },
    {
      "constant": false,
      "inputs": [
        {
          "name": "_pricingStrategy",
          "type": "address"
        }
      ],
      "name": "setPricingStrategy",
      "outputs": [],
      "payable": false,
      "stateMutability": "nonpayable",
      "type": "function"
    },
    {
      "constant": true,
      "inputs": [],
      "name": "tokensSold",
      "outputs": [
        {
          "name": "",
          "type": "uint256"
        }
      ],
      "payable": false,
      "stateMutability": "view",
      "type": "function"
    },
    {
      "constant": false,
      "inputs": [],
      "name": "refund",
      "outputs": [],
      "payable": false,
      "stateMutability": "nonpayable",
      "type": "function"
    },
    {
      "constant": true,
      "inputs": [],
      "name": "signerAddress",
      "outputs": [
        {
          "name": "",
          "type": "address"
        }
      ],
      "payable": false,
      "stateMutability": "view",
      "type": "function"
    },
    {
      "constant": true,
      "inputs": [],
      "name": "weiRefunded",
      "outputs": [
        {
          "name": "",
          "type": "uint256"
        }
      ],
      "payable": false,
      "stateMutability": "view",
      "type": "function"
    },
    {
      "constant": false,
      "inputs": [],
      "name": "halt",
      "outputs": [],
      "payable": false,
      "stateMutability": "nonpayable",
      "type": "function"
    },
    {
      "constant": true,
      "inputs": [],
      "name": "MAX_INVESTMENTS_BEFORE_MULTISIG_CHANGE",
      "outputs": [
        {
          "name": "",
          "type": "uint256"
        }
      ],
      "payable": false,
      "stateMutability": "view",
      "type": "function"
    },
    {
      "constant": false,
      "inputs": [
        {
          "name": "time",
          "type": "uint256"
        }
      ],
      "name": "setEndsAt",
      "outputs": [],
      "payable": false,
      "stateMutability": "nonpayable",
      "type": "function"
    },
    {
      "constant": false,
      "inputs": [],
      "name": "renounceOwnership",
      "outputs": [],
      "payable": false,
      "stateMutability": "nonpayable",
      "type": "function"
    },
    {
      "constant": true,
      "inputs": [
        {
          "name": "dataframe",
          "type": "bytes"
        }
      ],
      "name": "getKYCPayload",
      "outputs": [
        {
          "name": "whitelistedAddress",
          "type": "address"
        },
        {
          "name": "customerId",
          "type": "uint128"
        },
        {
          "name": "minEth",
          "type": "uint32"
        },
        {
          "name": "maxEth",
          "type": "uint32"
        },
        {
          "name": "pricingInfo",
          "type": "uint256"
        }
      ],
      "payable": false,
      "stateMutability": "view",
      "type": "function"
    },
    {
      "constant": true,
      "inputs": [],
      "name": "pricingStrategy",
      "outputs": [
        {
          "name": "",
          "type": "address"
        }
      ],
      "payable": false,
      "stateMutability": "view",
      "type": "function"
    },
    {
      "constant": true,
      "inputs": [],
      "name": "loadedRefund",
      "outputs": [
        {
          "name": "",
          "type": "uint256"
        }
      ],
      "payable": false,
      "stateMutability": "view",
      "type": "function"
    },
    {
      "constant": true,
      "inputs": [],
      "name": "isMinimumGoalReached",
      "outputs": [
        {
          "name": "reached",
          "type": "bool"
        }
      ],
      "payable": false,
      "stateMutability": "view",
      "type": "function"
    },
    {
      "constant": false,
      "inputs": [],
      "name": "loadRefund",
      "outputs": [],
      "payable": true,
      "stateMutability": "payable",
      "type": "function"
    },
    {
      "constant": false,
      "inputs": [
        {
          "name": "val",
          "type": "uint256"
        }
      ],
      "name": "setOwnerTestValue",
      "outputs": [],
      "payable": false,
      "stateMutability": "nonpayable",
      "type": "function"
    },
    {
      "constant": true,
      "inputs": [],
      "name": "owner",
      "outputs": [
        {
          "name": "",
          "type": "address"
        }
      ],
      "payable": false,
      "stateMutability": "view",
      "type": "function"
    },
    {
      "constant": true,
      "inputs": [
        {
          "name": "weisTotal",
          "type": "uint256"
        },
        {
          "name": "pricePerToken",
          "type": "uint256"
        }
      ],
      "name": "calculateTokens",
      "outputs": [
        {
          "name": "tokensTotal",
          "type": "uint256"
        }
      ],
      "payable": false,
      "stateMutability": "view",
      "type": "function"
    },
    {
      "constant": true,
      "inputs": [],
      "name": "multisigWallet",
      "outputs": [
        {
          "name": "",
          "type": "address"
        }
      ],
      "payable": false,
      "stateMutability": "view",
      "type": "function"
    },
    {
      "constant": true,
      "inputs": [
        {
          "name": "",
          "type": "address"
        }
      ],
      "name": "tokenAmountOf",
      "outputs": [
        {
          "name": "",
          "type": "uint256"
        }
      ],
      "payable": false,
      "stateMutability": "view",
      "type": "function"
    },
    {
      "constant": true,
      "inputs": [
        {
          "name": "weiAmount",
          "type": "uint256"
        },
        {
          "name": "tokenAmount",
          "type": "uint256"
        },
        {
          "name": "weiRaisedTotal",
          "type": "uint256"
        },
        {
          "name": "tokensSoldTotal",
          "type": "uint256"
        }
      ],
      "name": "isBreakingCap",
      "outputs": [
        {
          "name": "limitBroken",
          "type": "bool"
        }
      ],
      "payable": false,
      "stateMutability": "view",
      "type": "function"
    },
    {
      "constant": true,
      "inputs": [],
      "name": "isFinalizerSane",
      "outputs": [
        {
          "name": "sane",
          "type": "bool"
        }
      ],
      "payable": false,
      "stateMutability": "view",
      "type": "function"
    },
    {
      "constant": true,
      "inputs": [],
      "name": "startsAt",
      "outputs": [
        {
          "name": "",
          "type": "uint256"
        }
      ],
      "payable": false,
      "stateMutability": "view",
      "type": "function"
    },
    {
      "constant": true,
      "inputs": [],
      "name": "finalized",
      "outputs": [
        {
          "name": "",
          "type": "bool"
        }
      ],
      "payable": false,
      "stateMutability": "view",
      "type": "function"
    },
    {
      "constant": true,
      "inputs": [],
      "name": "halted",
      "outputs": [
        {
          "name": "",
          "type": "bool"
        }
      ],
      "payable": false,
      "stateMutability": "view",
      "type": "function"
    },
    {
      "constant": true,
      "inputs": [
        {
          "name": "",
          "type": "address"
        }
      ],
      "name": "earlyParticipantWhitelist",
      "outputs": [
        {
          "name": "",
          "type": "bool"
        }
      ],
      "payable": false,
      "stateMutability": "view",
      "type": "function"
    },
    {
      "constant": false,
      "inputs": [],
      "name": "unhalt",
      "outputs": [],
      "payable": false,
      "stateMutability": "nonpayable",
      "type": "function"
    },
    {
      "constant": true,
      "inputs": [],
      "name": "isCrowdsaleFull",
      "outputs": [
        {
          "name": "",
          "type": "bool"
        }
      ],
      "payable": false,
      "stateMutability": "view",
      "type": "function"
    },
    {
      "constant": true,
      "inputs": [],
      "name": "investorCount",
      "outputs": [
        {
          "name": "",
          "type": "uint256"
        }
      ],
      "payable": false,
      "stateMutability": "view",
      "type": "function"
    },
    {
      "constant": true,
      "inputs": [],
      "name": "getTokensLeft",
      "outputs": [
        {
          "name": "",
          "type": "uint256"
        }
      ],
      "payable": false,
      "stateMutability": "view",
      "type": "function"
    },
    {
      "constant": false,
      "inputs": [
        {
          "name": "addr",
          "type": "address"
        },
        {
          "name": "status",
          "type": "bool"
        }
      ],
      "name": "setEarlyParicipantWhitelist",
      "outputs": [],
      "payable": false,
      "stateMutability": "nonpayable",
      "type": "function"
    },
    {
      "constant": false,
      "inputs": [
        {
          "name": "_newOwner",
          "type": "address"
        }
      ],
      "name": "transferOwnership",
      "outputs": [],
      "payable": false,
      "stateMutability": "nonpayable",
      "type": "function"
    },
    {
      "constant": false,
      "inputs": [
        {
          "name": "addr",
          "type": "address"
        }
      ],
      "name": "setMultisig",
      "outputs": [],
      "payable": false,
      "stateMutability": "nonpayable",
      "type": "function"
    },
    {
      "constant": true,
      "inputs": [],
      "name": "presaleWeiRaised",
      "outputs": [
        {
          "name": "",
          "type": "uint256"
        }
      ],
      "payable": false,
      "stateMutability": "view",
      "type": "function"
    },
    {
      "constant": true,
      "inputs": [],
      "name": "token",
      "outputs": [
        {
          "name": "",
          "type": "address"
        }
      ],
      "payable": false,
      "stateMutability": "view",
      "type": "function"
    },
    {
      "inputs": [
        {
          "name": "_token",
          "type": "address"
        },
        {
          "name": "_pricingStrategy",
          "type": "address"
        },
        {
          "name": "_multisigWallet",
          "type": "address"
        },
        {
          "name": "_start",
          "type": "uint256"
        },
        {
          "name": "_end",
          "type": "uint256"
        },
        {
          "name": "_minimumFundingGoal",
          "type": "uint256"
        },
        {
          "name": "_beneficiary",
          "type": "address"
        }
      ],
      "payable": false,
      "stateMutability": "nonpayable",
      "type": "constructor"
    },
    {
      "payable": true,
      "stateMutability": "payable",
      "type": "fallback"
    },
    {
      "anonymous": false,
      "inputs": [
        {
          "indexed": false,
          "name": "signer",
          "type": "address"
        }
      ],
      "name": "SignerChanged",
      "type": "event"
    },
    {
      "anonymous": false,
      "inputs": [
        {
          "indexed": false,
          "name": "investor",
          "type": "address"
        },
        {
          "indexed": false,
          "name": "weiAmount",
          "type": "uint256"
        },
        {
          "indexed": false,
          "name": "tokenAmount",
          "type": "uint256"
        },
        {
          "indexed": false,
          "name": "customerId",
          "type": "uint128"
        }
      ],
      "name": "Invested",
      "type": "event"
    },
    {
      "anonymous": false,
      "inputs": [
        {
          "indexed": false,
          "name": "investor",
          "type": "address"
        },
        {
          "indexed": false,
          "name": "weiAmount",
          "type": "uint256"
        }
      ],
      "name": "Refund",
      "type": "event"
    },
    {
      "anonymous": false,
      "inputs": [
        {
          "indexed": false,
          "name": "newRequireCustomerId",
          "type": "bool"
        },
        {
          "indexed": false,
          "name": "newRequiredSignedAddress",
          "type": "bool"
        },
        {
          "indexed": false,
          "name": "newSignerAddress",
          "type": "address"
        }
      ],
      "name": "InvestmentPolicyChanged",
      "type": "event"
    },
    {
      "anonymous": false,
      "inputs": [
        {
          "indexed": false,
          "name": "addr",
          "type": "address"
        },
        {
          "indexed": false,
          "name": "status",
          "type": "bool"
        }
      ],
      "name": "Whitelisted",
      "type": "event"
    },
    {
      "anonymous": false,
      "inputs": [
        {
          "indexed": false,
          "name": "newEndsAt",
          "type": "uint256"
        }
      ],
      "name": "EndsAtChanged",
      "type": "event"
    },
    {
      "anonymous": false,
      "inputs": [
        {
          "indexed": true,
          "name": "previousOwner",
          "type": "address"
        }
      ],
      "name": "OwnershipRenounced",
      "type": "event"
    },
    {
      "anonymous": false,
      "inputs": [
        {
          "indexed": true,
          "name": "previousOwner",
          "type": "address"
        },
        {
          "indexed": true,
          "name": "newOwner",
          "type": "address"
        }
      ],
      "name": "OwnershipTransferred",
      "type": "event"
    },
    {
      "constant": false,
      "inputs": [
        {
          "name": "dataframe",
          "type": "bytes"
        },
        {
          "name": "v",
          "type": "uint8"
        },
        {
          "name": "r",
          "type": "bytes32"
        },
        {
          "name": "s",
          "type": "bytes32"
        }
      ],
      "name": "buyWithKYCData",
      "outputs": [
        {
          "name": "tokenAmount",
          "type": "uint256"
        }
      ],
      "payable": true,
      "stateMutability": "payable",
      "type": "function"
    },
    {
      "constant": false,
      "inputs": [
        {
          "name": "_signerAddress",
          "type": "address"
        }
      ],
      "name": "setSignerAddress",
      "outputs": [],
      "payable": false,
      "stateMutability": "nonpayable",
      "type": "function"
    }
  ],
  "bytecode": "0x6080604052600560015560006009556000600a556000600b556000600c556000600d556000600e553480156200003457600080fd5b5060405160e08062003ff68339810180604052810190808051906020019092919080519060200190929190805190602001909291908051906020019092919080519060200190929190805190602001909291908051906020019092919050505080878787878787336000806101000a81548173ffffffffffffffffffffffffffffffffffffffff021916908373ffffffffffffffffffffffffffffffffffffffff160217905550336000806101000a81548173ffffffffffffffffffffffffffffffffffffffff021916908373ffffffffffffffffffffffffffffffffffffffff16021790555085600260006101000a81548173ffffffffffffffffffffffffffffffffffffffff021916908373ffffffffffffffffffffffffffffffffffffffff160217905550620001768562000299640100000000026401000000009004565b83600560006101000a81548173ffffffffffffffffffffffffffffffffffffffff021916908373ffffffffffffffffffffffffffffffffffffffff1602179055506000600560009054906101000a900473ffffffffffffffffffffffffffffffffffffffff1673ffffffffffffffffffffffffffffffffffffffff161415620001fe57600080fd5b60008314156200020d57600080fd5b8260078190555060008214156200022357600080fd5b816008819055506008546007541015156200023d57600080fd5b8060068190555050505050505080601460006101000a81548173ffffffffffffffffffffffffffffffffffffffff021916908373ffffffffffffffffffffffffffffffffffffffff160217905550505050505050505062000409565b6000809054906101000a900473ffffffffffffffffffffffffffffffffffffffff1673ffffffffffffffffffffffffffffffffffffffff163373ffffffffffffffffffffffffffffffffffffffff16141515620002f557600080fd5b80600360006101000a81548173ffffffffffffffffffffffffffffffffffffffff021916908373ffffffffffffffffffffffffffffffffffffffff160217905550600360009054906101000a900473ffffffffffffffffffffffffffffffffffffffff1673ffffffffffffffffffffffffffffffffffffffff166304bbc2556040518163ffffffff167c0100000000000000000000000000000000000000000000000000000000028152600401602060405180830381600087803b158015620003bd57600080fd5b505af1158015620003d2573d6000803e3d6000fd5b505050506040513d6020811015620003e957600080fd5b810190808051906020019092919050505015156200040657600080fd5b50565b613bdd80620004196000396000f300608060405260043610610246576000357c0100000000000000000000000000000000000000000000000000000000900463ffffffff1680630226401d1461024b578063046dc16614610276578063062b01ce146102b95780630a09284a146102e857806313f4e977146103135780631865c57d1461033e57806319b667da146103775780631aae3460146103ba57806321d5c0f61461041157806338af3eed146104685780634042b66f146104bf5780634551dd59146104ea5780634bb278f31461051957806350c6773414610530578063518ab2a814610573578063590e1ae31461059e5780635b7633d0146105b55780635da89ac01461060c5780635ed7ca5b146106375780636203f09f1461064e5780636e50eb3f14610679578063715018a6146106a657806373752db4146106bd57806378b99c24146107be578063797d9437146108155780637c2e08a314610840578063876121021461086f5780638d51faec146108795780638da5cb5b146108a6578063903cc583146108fd5780639075becf1461094857806397b150ca1461099f5780639d3c663f146109f6578063a7ba44c314610a59578063af46868214610a88578063b3f05b9714610ab3578063b9b8af0b14610ae2578063cb16e6d014610b11578063cb3e64fd14610b6c578063d5d0902114610b83578063d7c7159c14610bb2578063d7e64c0014610c4b578063de5f986614610c76578063eac2493214610ca1578063f2fde38b14610cf0578063f3283fba14610d33578063f7c00e2f14610d76578063fc0c546a14610da1575b600080fd5b34801561025757600080fd5b50610260610df8565b6040518082815260200191505060405180910390f35b34801561028257600080fd5b506102b7600480360381019080803573ffffffffffffffffffffffffffffffffffffffff169060200190929190505050610dfe565b005b3480156102c557600080fd5b506102ce610f22565b604051808215151515815260200191505060405180910390f35b3480156102f457600080fd5b506102fd611021565b6040518082815260200191505060405180910390f35b34801561031f57600080fd5b50610328611027565b6040518082815260200191505060405180910390f35b34801561034a57600080fd5b5061035361102d565b6040518082600781111561036357fe5b60ff16815260200191505060405180910390f35b34801561038357600080fd5b506103b8600480360381019080803573ffffffffffffffffffffffffffffffffffffffff1690602001909291905050506112f9565b005b3480156103c657600080fd5b506103fb600480360381019080803573ffffffffffffffffffffffffffffffffffffffff169060200190929190505050611464565b6040518082815260200191505060405180910390f35b34801561041d57600080fd5b5061042661147c565b604051808273ffffffffffffffffffffffffffffffffffffffff1673ffffffffffffffffffffffffffffffffffffffff16815260200191505060405180910390f35b34801561047457600080fd5b5061047d6114a2565b604051808273ffffffffffffffffffffffffffffffffffffffff1673ffffffffffffffffffffffffffffffffffffffff16815260200191505060405180910390f35b3480156104cb57600080fd5b506104d46114c8565b6040518082815260200191505060405180910390f35b3480156104f657600080fd5b506104ff6114ce565b604051808215151515815260200191505060405180910390f35b34801561052557600080fd5b5061052e6114d7565b005b34801561053c57600080fd5b50610571600480360381019080803573ffffffffffffffffffffffffffffffffffffffff169060200190929190505050611692565b005b34801561057f57600080fd5b506105886117fd565b6040518082815260200191505060405180910390f35b3480156105aa57600080fd5b506105b3611803565b005b3480156105c157600080fd5b506105ca611a2e565b604051808273ffffffffffffffffffffffffffffffffffffffff1673ffffffffffffffffffffffffffffffffffffffff16815260200191505060405180910390f35b34801561061857600080fd5b50610621611a54565b6040518082815260200191505060405180910390f35b34801561064357600080fd5b5061064c611a5a565b005b34801561065a57600080fd5b50610663611ad2565b6040518082815260200191505060405180910390f35b34801561068557600080fd5b506106a460048036038101908080359060200190929190505050611ad8565b005b3480156106b257600080fd5b506106bb611b92565b005b3480156106c957600080fd5b50610724600480360381019080803590602001908201803590602001908080601f0160208091040260200160405190810160405280939291908181526020018383808284378201915050505050509192919290505050611c94565b604051808673ffffffffffffffffffffffffffffffffffffffff1673ffffffffffffffffffffffffffffffffffffffff168152602001856fffffffffffffffffffffffffffffffff166fffffffffffffffffffffffffffffffff1681526020018463ffffffff1663ffffffff1681526020018363ffffffff1663ffffffff1681526020018281526020019550505050505060405180910390f35b3480156107ca57600080fd5b506107d3612290565b604051808273ffffffffffffffffffffffffffffffffffffffff1673ffffffffffffffffffffffffffffffffffffffff16815260200191505060405180910390f35b34801561082157600080fd5b5061082a6122b6565b6040518082815260200191505060405180910390f35b34801561084c57600080fd5b506108556122bc565b604051808215151515815260200191505060405180910390f35b6108776122cb565b005b34801561088557600080fd5b506108a4600480360381019080803590602001909291905050506123c1565b005b3480156108b257600080fd5b506108bb612426565b604051808273ffffffffffffffffffffffffffffffffffffffff1673ffffffffffffffffffffffffffffffffffffffff16815260200191505060405180910390f35b34801561090957600080fd5b50610932600480360381019080803590602001909291908035906020019092919050505061244b565b6040518082815260200191505060405180910390f35b34801561095457600080fd5b5061095d6125d8565b604051808273ffffffffffffffffffffffffffffffffffffffff1673ffffffffffffffffffffffffffffffffffffffff16815260200191505060405180910390f35b3480156109ab57600080fd5b506109e0600480360381019080803573ffffffffffffffffffffffffffffffffffffffff1690602001909291905050506125fe565b6040518082815260200191505060405180910390f35b348015610a0257600080fd5b50610a3f60048036038101908080359060200190929190803590602001909291908035906020019092919080359060200190929190505050612616565b604051808215151515815260200191505060405180910390f35b348015610a6557600080fd5b50610a6e61263d565b604051808215151515815260200191505060405180910390f35b348015610a9457600080fd5b50610a9d612705565b6040518082815260200191505060405180910390f35b348015610abf57600080fd5b50610ac861270b565b604051808215151515815260200191505060405180910390f35b348015610aee57600080fd5b50610af761271e565b604051808215151515815260200191505060405180910390f35b348015610b1d57600080fd5b50610b52600480360381019080803573ffffffffffffffffffffffffffffffffffffffff169060200190929190505050612731565b604051808215151515815260200191505060405180910390f35b348015610b7857600080fd5b50610b81612751565b005b348015610b8f57600080fd5b50610b986127e3565b604051808215151515815260200191505060405180910390f35b610c35600480360381019080803590602001908201803590602001908080601f0160208091040260200160405190810160405280939291908181526020018383808284378201915050505050509192919290803560ff169060200190929190803560001916906020019092919080356000191690602001909291905050506127f4565b6040518082815260200191505060405180910390f35b348015610c5757600080fd5b50610c60612b88565b6040518082815260200191505060405180910390f35b348015610c8257600080fd5b50610c8b612b8e565b6040518082815260200191505060405180910390f35b348015610cad57600080fd5b50610cee600480360381019080803573ffffffffffffffffffffffffffffffffffffffff169060200190929190803515159060200190929190505050612ce2565b005b348015610cfc57600080fd5b50610d31600480360381019080803573ffffffffffffffffffffffffffffffffffffffff169060200190929190505050612e07565b005b348015610d3f57600080fd5b50610d74600480360381019080803573ffffffffffffffffffffffffffffffffffffffff169060200190929190505050612e6e565b005b348015610d8257600080fd5b50610d8b612f1e565b6040518082815260200191505060405180910390f35b348015610dad57600080fd5b50610db6612f24565b604051808273ffffffffffffffffffffffffffffffffffffffff1673ffffffffffffffffffffffffffffffffffffffff16815260200191505060405180910390f35b60135481565b6000809054906101000a900473ffffffffffffffffffffffffffffffffffffffff1673ffffffffffffffffffffffffffffffffffffffff163373ffffffffffffffffffffffffffffffffffffffff16141515610e5957600080fd5b80601560006101000a81548173ffffffffffffffffffffffffffffffffffffffff021916908373ffffffffffffffffffffffffffffffffffffffff1602179055507f5719a5656c5cfdaafa148ecf366fd3b0a7fae06449ce2a46225977fb7417e29d601560009054906101000a900473ffffffffffffffffffffffffffffffffffffffff16604051808273ffffffffffffffffffffffffffffffffffffffff1673ffffffffffffffffffffffffffffffffffffffff16815260200191505060405180910390a150565b6000600360009054906101000a900473ffffffffffffffffffffffffffffffffffffffff1673ffffffffffffffffffffffffffffffffffffffff16638e768288306040518263ffffffff167c0100000000000000000000000000000000000000000000000000000000028152600401808273ffffffffffffffffffffffffffffffffffffffff1673ffffffffffffffffffffffffffffffffffffffff168152602001915050602060405180830381600087803b158015610fe157600080fd5b505af1158015610ff5573d6000803e3d6000fd5b505050506040513d602081101561100b57600080fd5b8101908080519060200190929190505050905090565b60085481565b60065481565b6000600f60009054906101000a900460ff161561104d57600690506112f6565b6000600460009054906101000a900473ffffffffffffffffffffffffffffffffffffffff1673ffffffffffffffffffffffffffffffffffffffff16141561109757600190506112f6565b600460009054906101000a900473ffffffffffffffffffffffffffffffffffffffff1673ffffffffffffffffffffffffffffffffffffffff166382771c8e6040518163ffffffff167c0100000000000000000000000000000000000000000000000000000000028152600401602060405180830381600087803b15801561111d57600080fd5b505af1158015611131573d6000803e3d6000fd5b505050506040513d602081101561114757600080fd5b8101908080519060200190929190505050151561116757600190506112f6565b600360009054906101000a900473ffffffffffffffffffffffffffffffffffffffff1673ffffffffffffffffffffffffffffffffffffffff16638e768288306040518263ffffffff167c0100000000000000000000000000000000000000000000000000000000028152600401808273ffffffffffffffffffffffffffffffffffffffff1673ffffffffffffffffffffffffffffffffffffffff168152602001915050602060405180830381600087803b15801561122457600080fd5b505af1158015611238573d6000803e3d6000fd5b505050506040513d602081101561124e57600080fd5b8101908080519060200190929190505050151561126e57600190506112f6565b60075442101561128157600290506112f6565b600854421115801561129857506112966127e3565b155b156112a657600390506112f6565b6112ae6122bc565b156112bc57600490506112f6565b6112c46122bc565b1580156112d357506000600a54115b80156112e35750600a54600d5410155b156112f157600790506112f6565b600590505b90565b6000809054906101000a900473ffffffffffffffffffffffffffffffffffffffff1673ffffffffffffffffffffffffffffffffffffffff163373ffffffffffffffffffffffffffffffffffffffff1614151561135457600080fd5b80600460006101000a81548173ffffffffffffffffffffffffffffffffffffffff021916908373ffffffffffffffffffffffffffffffffffffffff160217905550600460009054906101000a900473ffffffffffffffffffffffffffffffffffffffff1673ffffffffffffffffffffffffffffffffffffffff1663614cb9046040518163ffffffff167c0100000000000000000000000000000000000000000000000000000000028152600401602060405180830381600087803b15801561141b57600080fd5b505af115801561142f573d6000803e3d6000fd5b505050506040513d602081101561144557600080fd5b8101908080519060200190929190505050151561146157600080fd5b50565b60106020528060005260406000206000915090505481565b600460009054906101000a900473ffffffffffffffffffffffffffffffffffffffff1681565b601460009054906101000a900473ffffffffffffffffffffffffffffffffffffffff1681565b600a5481565b60006001905090565b60048060078111156114e557fe5b6114ed61102d565b60078111156114f857fe5b14151561150457600080fd5b6000809054906101000a900473ffffffffffffffffffffffffffffffffffffffff1673ffffffffffffffffffffffffffffffffffffffff163373ffffffffffffffffffffffffffffffffffffffff1614151561155f57600080fd5b600060149054906101000a900460ff161561157957600080fd5b600f60009054906101000a900460ff161561159357600080fd5b6000600460009054906101000a900473ffffffffffffffffffffffffffffffffffffffff1673ffffffffffffffffffffffffffffffffffffffff1614151561167457600460009054906101000a900473ffffffffffffffffffffffffffffffffffffffff1673ffffffffffffffffffffffffffffffffffffffff16630bf318a36040518163ffffffff167c0100000000000000000000000000000000000000000000000000000000028152600401600060405180830381600087803b15801561165b57600080fd5b505af115801561166f573d6000803e3d6000fd5b505050505b6001600f60006101000a81548160ff02191690831515021790555050565b6000809054906101000a900473ffffffffffffffffffffffffffffffffffffffff1673ffffffffffffffffffffffffffffffffffffffff163373ffffffffffffffffffffffffffffffffffffffff161415156116ed57600080fd5b80600360006101000a81548173ffffffffffffffffffffffffffffffffffffffff021916908373ffffffffffffffffffffffffffffffffffffffff160217905550600360009054906101000a900473ffffffffffffffffffffffffffffffffffffffff1673ffffffffffffffffffffffffffffffffffffffff166304bbc2556040518163ffffffff167c0100000000000000000000000000000000000000000000000000000000028152600401602060405180830381600087803b1580156117b457600080fd5b505af11580156117c8573d6000803e3d6000fd5b505050506040513d60208110156117de57600080fd5b810190808051906020019092919050505015156117fa57600080fd5b50565b60095481565b6000600780600781111561181357fe5b61181b61102d565b600781111561182657fe5b14151561183257600080fd5b601060003373ffffffffffffffffffffffffffffffffffffffff1673ffffffffffffffffffffffffffffffffffffffff168152602001908152602001600020549150600082141561188257600080fd5b6000601060003373ffffffffffffffffffffffffffffffffffffffff1673ffffffffffffffffffffffffffffffffffffffff16815260200190815260200160002081905550600e5473__SafeMathLib___________________________6366098d4f9091846040518363ffffffff167c0100000000000000000000000000000000000000000000000000000000028152600401808381526020018281526020019250505060206040518083038186803b15801561193e57600080fd5b505af4158015611952573d6000803e3d6000fd5b505050506040513d602081101561196857600080fd5b8101908080519060200190929190505050600e819055507fbb28353e4598c3b9199101a66e0989549b659a59a54d2c27fbb183f1932c8e6d3383604051808373ffffffffffffffffffffffffffffffffffffffff1673ffffffffffffffffffffffffffffffffffffffff1681526020018281526020019250505060405180910390a13373ffffffffffffffffffffffffffffffffffffffff166108fc839081150290604051600060405180830381858888f193505050501515611a2a57600080fd5b5050565b601560009054906101000a900473ffffffffffffffffffffffffffffffffffffffff1681565b600e5481565b6000809054906101000a900473ffffffffffffffffffffffffffffffffffffffff1673ffffffffffffffffffffffffffffffffffffffff163373ffffffffffffffffffffffffffffffffffffffff16141515611ab557600080fd5b6001600060146101000a81548160ff021916908315150217905550565b60015481565b6000809054906101000a900473ffffffffffffffffffffffffffffffffffffffff1673ffffffffffffffffffffffffffffffffffffffff163373ffffffffffffffffffffffffffffffffffffffff16141515611b3357600080fd5b80421115611b4057600080fd5b806007541115611b4f57600080fd5b806008819055507fd34bb772c4ae9baa99db852f622773b31c7827e8ee818449fef20d30980bd3106008546040518082815260200191505060405180910390a150565b6000809054906101000a900473ffffffffffffffffffffffffffffffffffffffff1673ffffffffffffffffffffffffffffffffffffffff163373ffffffffffffffffffffffffffffffffffffffff16141515611bed57600080fd5b6000809054906101000a900473ffffffffffffffffffffffffffffffffffffffff1673ffffffffffffffffffffffffffffffffffffffff167ff8df31144d9c2f0f6b59d69b8b98abd5459d07f2742c4df920b25aae33c6482060405160405180910390a260008060006101000a81548173ffffffffffffffffffffffffffffffffffffffff021916908373ffffffffffffffffffffffffffffffffffffffff160217905550565b6000806000806000806000806000808a73__BytesDeserializer_____________________63b655e138909160006040518363ffffffff167c01000000000000000000000000000000000000000000000000000000000281526004018080602001838152602001828103825284818151815260200191508051906020019080838360005b83811015611d33578082015181840152602081019050611d18565b50505050905090810190601f168015611d605780820380516001836020036101000a031916815260200191505b50935050505060206040518083038186803b158015611d7e57600080fd5b505af4158015611d92573d6000803e3d6000fd5b505050506040513d6020811015611da857600080fd5b810190808051906020019092919050505094508a73__BytesDeserializer_____________________6316419aa7909160146040518363ffffffff167c01000000000000000000000000000000000000000000000000000000000281526004018080602001838152602001828103825284818151815260200191508051906020019080838360005b83811015611e4b578082015181840152602081019050611e30565b50505050905090810190601f168015611e785780820380516001836020036101000a031916815260200191505b50935050505060206040518083038186803b158015611e9657600080fd5b505af4158015611eaa573d6000803e3d6000fd5b505050506040513d6020811015611ec057600080fd5b8101908080519060200190929190505050700100000000000000000000000000000000900493508a73__BytesDeserializer_____________________63d54dd8f9909160246040518363ffffffff167c01000000000000000000000000000000000000000000000000000000000281526004018080602001838152602001828103825284818151815260200191508051906020019080838360005b83811015611f77578082015181840152602081019050611f5c565b50505050905090810190601f168015611fa45780820380516001836020036101000a031916815260200191505b50935050505060206040518083038186803b158015611fc257600080fd5b505af4158015611fd6573d6000803e3d6000fd5b505050506040513d6020811015611fec57600080fd5b81019080805190602001909291905050507c0100000000000000000000000000000000000000000000000000000000900492508a73__BytesDeserializer_____________________63d54dd8f9909160286040518363ffffffff167c01000000000000000000000000000000000000000000000000000000000281526004018080602001838152602001828103825284818151815260200191508051906020019080838360005b838110156120af578082015181840152602081019050612094565b50505050905090810190601f1680156120dc5780820380516001836020036101000a031916815260200191505b50935050505060206040518083038186803b1580156120fa57600080fd5b505af415801561210e573d6000803e3d6000fd5b505050506040513d602081101561212457600080fd5b81019080805190602001909291905050507c0100000000000000000000000000000000000000000000000000000000900491508a73__BytesDeserializer_____________________632e1eb7fe9091602c6040518363ffffffff167c01000000000000000000000000000000000000000000000000000000000281526004018080602001838152602001828103825284818151815260200191508051906020019080838360005b838110156121e75780820151818401526020810190506121cc565b50505050905090810190601f1680156122145780820380516001836020036101000a031916815260200191505b50935050505060206040518083038186803b15801561223257600080fd5b505af4158015612246573d6000803e3d6000fd5b505050506040513d602081101561225c57600080fd5b8101908080519060200190929190505050600190049050848484848499509950995099509950505050505091939590929450565b600360009054906101000a900473ffffffffffffffffffffffffffffffffffffffff1681565b600d5481565b6000600654600a541015905090565b60058060078111156122d957fe5b6122e161102d565b60078111156122ec57fe5b1415156122f857600080fd5b600034141561230657600080fd5b600d5473__SafeMathLib___________________________6366098d4f9091346040518363ffffffff167c0100000000000000000000000000000000000000000000000000000000028152600401808381526020018281526020019250505060206040518083038186803b15801561237d57600080fd5b505af4158015612391573d6000803e3d6000fd5b505050506040513d60208110156123a757600080fd5b8101908080519060200190929190505050600d8190555050565b6000809054906101000a900473ffffffffffffffffffffffffffffffffffffffff1673ffffffffffffffffffffffffffffffffffffffff163373ffffffffffffffffffffffffffffffffffffffff1614151561241c57600080fd5b8060138190555050565b6000809054906101000a900473ffffffffffffffffffffffffffffffffffffffff1681565b600080600260009054906101000a900473ffffffffffffffffffffffffffffffffffffffff1673ffffffffffffffffffffffffffffffffffffffff1663313ce5676040518163ffffffff167c0100000000000000000000000000000000000000000000000000000000028152600401602060405180830381600087803b1580156124d457600080fd5b505af11580156124e8573d6000803e3d6000fd5b505050506040513d60208110156124fe57600080fd5b8101908080519060200190929190505050600a0a9050828473__SafeMathLib___________________________631d3b9edf9091846040518363ffffffff167c0100000000000000000000000000000000000000000000000000000000028152600401808381526020018281526020019250505060206040518083038186803b15801561258a57600080fd5b505af415801561259e573d6000803e3d6000fd5b505050506040513d60208110156125b457600080fd5b81019080805190602001909291905050508115156125ce57fe5b0491505092915050565b600560009054906101000a900473ffffffffffffffffffffffffffffffffffffffff1681565b60116020528060005260406000206000915090505481565b6000612620612b8e565b8411156126305760019050612635565b600090505b949350505050565b6000600460009054906101000a900473ffffffffffffffffffffffffffffffffffffffff1673ffffffffffffffffffffffffffffffffffffffff166382771c8e6040518163ffffffff167c0100000000000000000000000000000000000000000000000000000000028152600401602060405180830381600087803b1580156126c557600080fd5b505af11580156126d9573d6000803e3d6000fd5b505050506040513d60208110156126ef57600080fd5b8101908080519060200190929190505050905090565b60075481565b600f60009054906101000a900460ff1681565b600060149054906101000a900460ff1681565b60126020528060005260406000206000915054906101000a900460ff1681565b6000809054906101000a900473ffffffffffffffffffffffffffffffffffffffff1673ffffffffffffffffffffffffffffffffffffffff163373ffffffffffffffffffffffffffffffffffffffff161415156127ac57600080fd5b600060149054906101000a900460ff1615156127c757600080fd5b60008060146101000a81548160ff021916908315150217905550565b6000806127ee612b8e565b14905090565b600080600080600080600080600080670de0b6b3a76400009750601260003373ffffffffffffffffffffffffffffffffffffffff1673ffffffffffffffffffffffffffffffffffffffff16815260200190815260200160002060009054906101000a900460ff16156128735761286c33611000612f4a565b9850612a5a565b60028e6040518082805190602001908083835b6020831015156128ab5780518252602082019150602081019050602083039250612886565b6001836020036101000a0380198251168184511680821785525050505050509050019150506020604051808303816000865af11580156128ef573d6000803e3d6000fd5b5050506040513d602081101561290457600080fd5b810190808051906020019092919050505096506129208e611c94565b95509550955095509550601560009054906101000a900473ffffffffffffffffffffffffffffffffffffffff1673ffffffffffffffffffffffffffffffffffffffff166001888f8f8f604051600081526020016040526040518085600019166000191681526020018460ff1660ff1681526020018360001916600019168152602001826000191660001916815260200194505050505060206040516020810390808403906000865af11580156129da573d6000803e3d6000fd5b5050506020604051035173ffffffffffffffffffffffffffffffffffffffff16141515612a0657600080fd5b3373ffffffffffffffffffffffffffffffffffffffff168673ffffffffffffffffffffffffffffffffffffffff16141515612a4057600080fd5b612a4a348361244b565b9050612a57338683613157565b98505b601260003373ffffffffffffffffffffffffffffffffffffffff1673ffffffffffffffffffffffffffffffffffffffff16815260200190815260200160002060009054906101000a900460ff161515612b7457612710888563ffffffff1602811515612ac257fe5b04601060003373ffffffffffffffffffffffffffffffffffffffff1673ffffffffffffffffffffffffffffffffffffffff1681526020019081526020016000205410151515612b1057600080fd5b612710888463ffffffff1602811515612b2557fe5b04601060003373ffffffffffffffffffffffffffffffffffffffff1673ffffffffffffffffffffffffffffffffffffffff1681526020019081526020016000205411151515612b7357600080fd5b5b889950505050505050505050949350505050565b600c5481565b6000600260009054906101000a900473ffffffffffffffffffffffffffffffffffffffff1673ffffffffffffffffffffffffffffffffffffffff1663dd62ed3e6000809054906101000a900473ffffffffffffffffffffffffffffffffffffffff16306040518363ffffffff167c0100000000000000000000000000000000000000000000000000000000028152600401808373ffffffffffffffffffffffffffffffffffffffff1673ffffffffffffffffffffffffffffffffffffffff1681526020018273ffffffffffffffffffffffffffffffffffffffff1673ffffffffffffffffffffffffffffffffffffffff16815260200192505050602060405180830381600087803b158015612ca257600080fd5b505af1158015612cb6573d6000803e3d6000fd5b505050506040513d6020811015612ccc57600080fd5b8101908080519060200190929190505050905090565b6000809054906101000a900473ffffffffffffffffffffffffffffffffffffffff1673ffffffffffffffffffffffffffffffffffffffff163373ffffffffffffffffffffffffffffffffffffffff16141515612d3d57600080fd5b80601260008473ffffffffffffffffffffffffffffffffffffffff1673ffffffffffffffffffffffffffffffffffffffff16815260200190815260200160002060006101000a81548160ff0219169083151502179055507fa54714518c5d275fdcd3d2a461e4858e4e8cb04fb93cd0bca9d6d34115f264408282604051808373ffffffffffffffffffffffffffffffffffffffff1673ffffffffffffffffffffffffffffffffffffffff168152602001821515151581526020019250505060405180910390a15050565b6000809054906101000a900473ffffffffffffffffffffffffffffffffffffffff1673ffffffffffffffffffffffffffffffffffffffff163373ffffffffffffffffffffffffffffffffffffffff16141515612e6257600080fd5b612e6b81613952565b50565b6000809054906101000a900473ffffffffffffffffffffffffffffffffffffffff1673ffffffffffffffffffffffffffffffffffffffff163373ffffffffffffffffffffffffffffffffffffffff16141515612ec957600080fd5b600154600c541115612eda57600080fd5b80600560006101000a81548173ffffffffffffffffffffffffffffffffffffffff021916908373ffffffffffffffffffffffffffffffffffffffff16021790555050565b600b5481565b600260009054906101000a900473ffffffffffffffffffffffffffffffffffffffff1681565b60008060149054906101000a900460ff1615612f6557600080fd5b61314f8383600360009054906101000a900473ffffffffffffffffffffffffffffffffffffffff1673ffffffffffffffffffffffffffffffffffffffff166318a4155e34600b54600a540360095433600260009054906101000a900473ffffffffffffffffffffffffffffffffffffffff1673ffffffffffffffffffffffffffffffffffffffff1663313ce5676040518163ffffffff167c0100000000000000000000000000000000000000000000000000000000028152600401602060405180830381600087803b15801561303a57600080fd5b505af115801561304e573d6000803e3d6000fd5b505050506040513d602081101561306457600080fd5b81019080805190602001909291905050506040518663ffffffff167c0100000000000000000000000000000000000000000000000000000000028152600401808681526020018581526020018481526020018373ffffffffffffffffffffffffffffffffffffffff1673ffffffffffffffffffffffffffffffffffffffff16815260200182815260200195505050505050602060405180830381600087803b15801561310f57600080fd5b505af1158015613123573d6000803e3d6000fd5b505050506040513d602081101561313957600080fd5b8101908080519060200190929190505050613157565b905092915050565b600080600060149054906101000a900460ff161561317457600080fd5b6002600781111561318157fe5b61318961102d565b600781111561319457fe5b14156131f757601260008673ffffffffffffffffffffffffffffffffffffffff1673ffffffffffffffffffffffffffffffffffffffff16815260200190815260200160002060009054906101000a900460ff1615156131f257600080fd5b613228565b6003600781111561320457fe5b61320c61102d565b600781111561321757fe5b141561322257613227565b600080fd5b5b3490506000831415151561323b57600080fd5b6000601060008773ffffffffffffffffffffffffffffffffffffffff1673ffffffffffffffffffffffffffffffffffffffff16815260200190815260200160002054141561329657600c600081548092919060010191905055505b601060008673ffffffffffffffffffffffffffffffffffffffff1673ffffffffffffffffffffffffffffffffffffffff1681526020019081526020016000205473__SafeMathLib___________________________6366098d4f9091836040518363ffffffff167c0100000000000000000000000000000000000000000000000000000000028152600401808381526020018281526020019250505060206040518083038186803b15801561334a57600080fd5b505af415801561335e573d6000803e3d6000fd5b505050506040513d602081101561337457600080fd5b8101908080519060200190929190505050601060008773ffffffffffffffffffffffffffffffffffffffff1673ffffffffffffffffffffffffffffffffffffffff16815260200190815260200160002081905550601160008673ffffffffffffffffffffffffffffffffffffffff1673ffffffffffffffffffffffffffffffffffffffff1681526020019081526020016000205473__SafeMathLib___________________________6366098d4f9091856040518363ffffffff167c0100000000000000000000000000000000000000000000000000000000028152600401808381526020018281526020019250505060206040518083038186803b15801561347c57600080fd5b505af4158015613490573d6000803e3d6000fd5b505050506040513d60208110156134a657600080fd5b8101908080519060200190929190505050601160008773ffffffffffffffffffffffffffffffffffffffff1673ffffffffffffffffffffffffffffffffffffffff16815260200190815260200160002081905550600a5473__SafeMathLib___________________________6366098d4f9091836040518363ffffffff167c0100000000000000000000000000000000000000000000000000000000028152600401808381526020018281526020019250505060206040518083038186803b15801561357157600080fd5b505af4158015613585573d6000803e3d6000fd5b505050506040513d602081101561359b57600080fd5b8101908080519060200190929190505050600a8190555060095473__SafeMathLib___________________________6366098d4f9091856040518363ffffffff167c0100000000000000000000000000000000000000000000000000000000028152600401808381526020018281526020019250505060206040518083038186803b15801561362957600080fd5b505af415801561363d573d6000803e3d6000fd5b505050506040513d602081101561365357600080fd5b8101908080519060200190929190505050600981905550600360009054906101000a900473ffffffffffffffffffffffffffffffffffffffff1673ffffffffffffffffffffffffffffffffffffffff1663f14ae17d866040518263ffffffff167c0100000000000000000000000000000000000000000000000000000000028152600401808273ffffffffffffffffffffffffffffffffffffffff1673ffffffffffffffffffffffffffffffffffffffff168152602001915050602060405180830381600087803b15801561372757600080fd5b505af115801561373b573d6000803e3d6000fd5b505050506040513d602081101561375157600080fd5b81019080805190602001909291905050501561382057600b5473__SafeMathLib___________________________6366098d4f9091836040518363ffffffff167c0100000000000000000000000000000000000000000000000000000000028152600401808381526020018281526020019250505060206040518083038186803b1580156137de57600080fd5b505af41580156137f2573d6000803e3d6000fd5b505050506040513d602081101561380857600080fd5b8101908080519060200190929190505050600b819055505b6138308184600a54600954612616565b15151561383c57600080fd5b6138468584613a4c565b600560009054906101000a900473ffffffffffffffffffffffffffffffffffffffff1673ffffffffffffffffffffffffffffffffffffffff166108fc829081150290604051600060405180830381858888f1935050505015156138a857600080fd5b7f0396f60aaad038749091d273dc13aaabc63db6e2271c7bad442d5cf25cc4335085828587604051808573ffffffffffffffffffffffffffffffffffffffff1673ffffffffffffffffffffffffffffffffffffffff168152602001848152602001838152602001826fffffffffffffffffffffffffffffffff166fffffffffffffffffffffffffffffffff16815260200194505050505060405180910390a1829150509392505050565b600073ffffffffffffffffffffffffffffffffffffffff168173ffffffffffffffffffffffffffffffffffffffff161415151561398e57600080fd5b8073ffffffffffffffffffffffffffffffffffffffff166000809054906101000a900473ffffffffffffffffffffffffffffffffffffffff1673ffffffffffffffffffffffffffffffffffffffff167f8be0079c531659141344cd1fd0a4f28419497f9722a3daafe3b4186f6b6457e060405160405180910390a3806000806101000a81548173ffffffffffffffffffffffffffffffffffffffff021916908373ffffffffffffffffffffffffffffffffffffffff16021790555050565b600260009054906101000a900473ffffffffffffffffffffffffffffffffffffffff1673ffffffffffffffffffffffffffffffffffffffff166323b872dd601460009054906101000a900473ffffffffffffffffffffffffffffffffffffffff1684846040518463ffffffff167c0100000000000000000000000000000000000000000000000000000000028152600401808473ffffffffffffffffffffffffffffffffffffffff1673ffffffffffffffffffffffffffffffffffffffff1681526020018373ffffffffffffffffffffffffffffffffffffffff1673ffffffffffffffffffffffffffffffffffffffff1681526020018281526020019350505050602060405180830381600087803b158015613b6757600080fd5b505af1158015613b7b573d6000803e3d6000fd5b505050506040513d6020811015613b9157600080fd5b81019080805190602001909291905050501515613bad57600080fd5b50505600a165627a7a7230582071b2e31d58f6b6251bb79dceff598651c2973de709684a0c1f2dd95b20c2e8270029",
  "source": "import \"./CrowdsaleBase.sol\";\nimport \"./AllocatedCrowdsaleMixin.sol\";\nimport \"./KYCPayloadDeserializer.sol\";\n\n/**\n * A crowdsale that allows buys only from signed payload with server-side specified limits and price.\n *\n * The token distribution happens as in the allocated crowdsale.\n *\n */\ncontract KYCCrowdsale is AllocatedCrowdsaleMixin, KYCPayloadDeserializer {\n\n  /* Server holds the private key to this address to sign incoming buy payloads to signal we have KYC records in the books for these users. */\n  address public signerAddress;\n\n  /* A new server-side signer key was set to be effective */\n  event SignerChanged(address signer);\n\n  /**\n   * Constructor.\n   */\n  function KYCCrowdsale(address _token, PricingStrategy _pricingStrategy, address _multisigWallet, uint _start, uint _end, uint _minimumFundingGoal, address _beneficiary) CrowdsaleBase(_token, _pricingStrategy, _multisigWallet, _start, _end, _minimumFundingGoal) AllocatedCrowdsaleMixin(_beneficiary) {\n\n  }\n\n  /**\n   * A token purchase with anti-money laundering\n   *\n   * return tokenAmount How many tokens where bought\n   */\n  function buyWithKYCData(bytes dataframe, uint8 v, bytes32 r, bytes32 s) public payable returns(uint tokenAmount) {\n\n    uint _tokenAmount;\n    uint multiplier = 10 ** 18;\n\n    // Perform signature check for normal addresses\n    // (not deployment accounts, etc.)\n    if(earlyParticipantWhitelist[msg.sender]) {\n      // Deployment provided early participant list is for deployment and diagnostics\n      // For test purchases use this faux customer id 0x1000\n      _tokenAmount = investInternal(msg.sender, 0x1000);\n\n    } else {\n      // User comes through the server, check that the signature to ensure ther server\n      // side KYC has passed for this customer id and whitelisted Ethereum address\n\n      bytes32 hash = sha256(dataframe);\n\n      var (whitelistedAddress, customerId, minETH, maxETH, pricingInfo) = getKYCPayload(dataframe);\n\n      // Check that the KYC data is signed by our server\n      require(ecrecover(hash, v, r, s) == signerAddress);\n\n      // Only whitelisted address can participate the transaction\n      require(whitelistedAddress == msg.sender);\n\n      // Server gives us information what is the buy price for this user\n      uint256 tokensTotal = calculateTokens(msg.value, pricingInfo);\n\n      _tokenAmount = buyTokens(msg.sender, customerId, tokensTotal);\n    }\n\n    if(!earlyParticipantWhitelist[msg.sender]) {\n      // We assume there is no serious min and max fluctuations for the customer, unless\n      // especially set in the server side per customer manual override.\n      // Otherwise the customer can reuse old data payload with different min or max value\n      // to work around the per customer cap.\n      require(investedAmountOf[msg.sender] >= minETH * multiplier / 10000);\n      require(investedAmountOf[msg.sender] <= maxETH * multiplier / 10000);\n    }\n\n    return _tokenAmount;\n  }\n\n  /// @dev This function can set the server side address\n  /// @param _signerAddress The address derived from server's private key\n  function setSignerAddress(address _signerAddress) onlyOwner {\n    signerAddress = _signerAddress;\n    SignerChanged(signerAddress);\n  }\n\n}\n",
  "sourcePath": "/home/otokarev/work/umbre/ico/contracts/KYCCrowdsale.sol",
  "compiler": {
    "name": "solc",
    "version": "0.4.24+commit.e67f0147.Emscripten.clang"
  },
  "schemaVersion": "2.0.1",
  "updatedAt": "2018-09-12T21:12:30.133Z"
}