{
  "contractName": "KYCPresale",
  "abi": [
    {
      "constant": true,
      "inputs": [],
      "name": "ownerTestValue",
      "outputs": [
        {
          "name": "",
          "type": "uint256"
        }
      ],
      "payable": false,
      "stateMutability": "view",
      "type": "function"
    },
    {
      "constant": true,
      "inputs": [],
      "name": "isPricingSane",
      "outputs": [
        {
          "name": "sane",
          "type": "bool"
        }
      ],
      "payable": false,
      "stateMutability": "view",
      "type": "function"
    },
    {
      "constant": true,
      "inputs": [],
      "name": "endsAt",
      "outputs": [
        {
          "name": "",
          "type": "uint256"
        }
      ],
      "payable": false,
      "stateMutability": "view",
      "type": "function"
    },
    {
      "constant": true,
      "inputs": [],
      "name": "minimumFundingGoal",
      "outputs": [
        {
          "name": "",
          "type": "uint256"
        }
      ],
      "payable": false,
      "stateMutability": "view",
      "type": "function"
    },
    {
      "constant": false,
      "inputs": [
        {
          "name": "addr",
          "type": "address"
        }
      ],
      "name": "setFinalizeAgent",
      "outputs": [],
      "payable": false,
      "stateMutability": "nonpayable",
      "type": "function"
    },
    {
      "constant": true,
      "inputs": [
        {
          "name": "",
          "type": "address"
        }
      ],
      "name": "investedAmountOf",
      "outputs": [
        {
          "name": "",
          "type": "uint256"
        }
      ],
      "payable": false,
      "stateMutability": "view",
      "type": "function"
    },
    {
      "constant": true,
      "inputs": [],
      "name": "finalizeAgent",
      "outputs": [
        {
          "name": "",
          "type": "address"
        }
      ],
      "payable": false,
      "stateMutability": "view",
      "type": "function"
    },
    {
      "constant": true,
      "inputs": [],
      "name": "weiRaised",
      "outputs": [
        {
          "name": "",
          "type": "uint256"
        }
      ],
      "payable": false,
      "stateMutability": "view",
      "type": "function"
    },
    {
      "constant": true,
      "inputs": [],
      "name": "isCrowdsale",
      "outputs": [
        {
          "name": "",
          "type": "bool"
        }
      ],
      "payable": false,
      "stateMutability": "view",
      "type": "function"
    },
    {
      "constant": false,
      "inputs": [],
      "name": "finalize",
      "outputs": [],
      "payable": false,
      "stateMutability": "nonpayable",
      "type": "function"
    },
    {
      "constant": true,
      "inputs": [],
      "name": "tokensSold",
      "outputs": [
        {
          "name": "",
          "type": "uint256"
        }
      ],
      "payable": false,
      "stateMutability": "view",
      "type": "function"
    },
    {
      "constant": false,
      "inputs": [],
      "name": "refund",
      "outputs": [],
      "payable": false,
      "stateMutability": "nonpayable",
      "type": "function"
    },
    {
      "constant": true,
      "inputs": [],
      "name": "signerAddress",
      "outputs": [
        {
          "name": "",
          "type": "address"
        }
      ],
      "payable": false,
      "stateMutability": "view",
      "type": "function"
    },
    {
      "constant": true,
      "inputs": [],
      "name": "weiRefunded",
      "outputs": [
        {
          "name": "",
          "type": "uint256"
        }
      ],
      "payable": false,
      "stateMutability": "view",
      "type": "function"
    },
    {
      "constant": false,
      "inputs": [],
      "name": "halt",
      "outputs": [],
      "payable": false,
      "stateMutability": "nonpayable",
      "type": "function"
    },
    {
      "constant": true,
      "inputs": [],
      "name": "MAX_INVESTMENTS_BEFORE_MULTISIG_CHANGE",
      "outputs": [
        {
          "name": "",
          "type": "uint256"
        }
      ],
      "payable": false,
      "stateMutability": "view",
      "type": "function"
    },
    {
      "constant": false,
      "inputs": [
        {
          "name": "time",
          "type": "uint256"
        }
      ],
      "name": "setEndsAt",
      "outputs": [],
      "payable": false,
      "stateMutability": "nonpayable",
      "type": "function"
    },
    {
      "constant": false,
      "inputs": [],
      "name": "renounceOwnership",
      "outputs": [],
      "payable": false,
      "stateMutability": "nonpayable",
      "type": "function"
    },
    {
      "constant": true,
      "inputs": [
        {
          "name": "dataframe",
          "type": "bytes"
        }
      ],
      "name": "getKYCPayload",
      "outputs": [
        {
          "name": "whitelistedAddress",
          "type": "address"
        },
        {
          "name": "customerId",
          "type": "uint128"
        },
        {
          "name": "minEth",
          "type": "uint32"
        },
        {
          "name": "maxEth",
          "type": "uint32"
        },
        {
          "name": "pricingInfo",
          "type": "uint256"
        }
      ],
      "payable": false,
      "stateMutability": "view",
      "type": "function"
    },
    {
      "constant": true,
      "inputs": [],
      "name": "pricingStrategy",
      "outputs": [
        {
          "name": "",
          "type": "address"
        }
      ],
      "payable": false,
      "stateMutability": "view",
      "type": "function"
    },
    {
      "constant": true,
      "inputs": [],
      "name": "loadedRefund",
      "outputs": [
        {
          "name": "",
          "type": "uint256"
        }
      ],
      "payable": false,
      "stateMutability": "view",
      "type": "function"
    },
    {
      "constant": true,
      "inputs": [],
      "name": "isMinimumGoalReached",
      "outputs": [
        {
          "name": "reached",
          "type": "bool"
        }
      ],
      "payable": false,
      "stateMutability": "view",
      "type": "function"
    },
    {
      "constant": false,
      "inputs": [],
      "name": "loadRefund",
      "outputs": [],
      "payable": true,
      "stateMutability": "payable",
      "type": "function"
    },
    {
      "constant": false,
      "inputs": [
        {
          "name": "val",
          "type": "uint256"
        }
      ],
      "name": "setOwnerTestValue",
      "outputs": [],
      "payable": false,
      "stateMutability": "nonpayable",
      "type": "function"
    },
    {
      "constant": true,
      "inputs": [],
      "name": "owner",
      "outputs": [
        {
          "name": "",
          "type": "address"
        }
      ],
      "payable": false,
      "stateMutability": "view",
      "type": "function"
    },
    {
      "constant": true,
      "inputs": [
        {
          "name": "weisTotal",
          "type": "uint256"
        },
        {
          "name": "pricePerToken",
          "type": "uint256"
        }
      ],
      "name": "calculateTokens",
      "outputs": [
        {
          "name": "tokensTotal",
          "type": "uint256"
        }
      ],
      "payable": false,
      "stateMutability": "view",
      "type": "function"
    },
    {
      "constant": true,
      "inputs": [],
      "name": "multisigWallet",
      "outputs": [
        {
          "name": "",
          "type": "address"
        }
      ],
      "payable": false,
      "stateMutability": "view",
      "type": "function"
    },
    {
      "constant": true,
      "inputs": [
        {
          "name": "",
          "type": "address"
        }
      ],
      "name": "tokenAmountOf",
      "outputs": [
        {
          "name": "",
          "type": "uint256"
        }
      ],
      "payable": false,
      "stateMutability": "view",
      "type": "function"
    },
    {
      "constant": true,
      "inputs": [],
      "name": "isFinalizerSane",
      "outputs": [
        {
          "name": "sane",
          "type": "bool"
        }
      ],
      "payable": false,
      "stateMutability": "view",
      "type": "function"
    },
    {
      "constant": true,
      "inputs": [],
      "name": "startsAt",
      "outputs": [
        {
          "name": "",
          "type": "uint256"
        }
      ],
      "payable": false,
      "stateMutability": "view",
      "type": "function"
    },
    {
      "constant": true,
      "inputs": [],
      "name": "finalized",
      "outputs": [
        {
          "name": "",
          "type": "bool"
        }
      ],
      "payable": false,
      "stateMutability": "view",
      "type": "function"
    },
    {
      "constant": true,
      "inputs": [],
      "name": "halted",
      "outputs": [
        {
          "name": "",
          "type": "bool"
        }
      ],
      "payable": false,
      "stateMutability": "view",
      "type": "function"
    },
    {
      "constant": true,
      "inputs": [],
      "name": "saleWeiCap",
      "outputs": [
        {
          "name": "",
          "type": "uint256"
        }
      ],
      "payable": false,
      "stateMutability": "view",
      "type": "function"
    },
    {
      "constant": true,
      "inputs": [
        {
          "name": "",
          "type": "address"
        }
      ],
      "name": "earlyParticipantWhitelist",
      "outputs": [
        {
          "name": "",
          "type": "bool"
        }
      ],
      "payable": false,
      "stateMutability": "view",
      "type": "function"
    },
    {
      "constant": false,
      "inputs": [],
      "name": "unhalt",
      "outputs": [],
      "payable": false,
      "stateMutability": "nonpayable",
      "type": "function"
    },
    {
      "constant": true,
      "inputs": [],
      "name": "investorCount",
      "outputs": [
        {
          "name": "",
          "type": "uint256"
        }
      ],
      "payable": false,
      "stateMutability": "view",
      "type": "function"
    },
    {
      "constant": false,
      "inputs": [
        {
          "name": "addr",
          "type": "address"
        },
        {
          "name": "status",
          "type": "bool"
        }
      ],
      "name": "setEarlyParicipantWhitelist",
      "outputs": [],
      "payable": false,
      "stateMutability": "nonpayable",
      "type": "function"
    },
    {
      "constant": false,
      "inputs": [
        {
          "name": "_newOwner",
          "type": "address"
        }
      ],
      "name": "transferOwnership",
      "outputs": [],
      "payable": false,
      "stateMutability": "nonpayable",
      "type": "function"
    },
    {
      "constant": false,
      "inputs": [
        {
          "name": "addr",
          "type": "address"
        }
      ],
      "name": "setMultisig",
      "outputs": [],
      "payable": false,
      "stateMutability": "nonpayable",
      "type": "function"
    },
    {
      "constant": true,
      "inputs": [],
      "name": "presaleWeiRaised",
      "outputs": [
        {
          "name": "",
          "type": "uint256"
        }
      ],
      "payable": false,
      "stateMutability": "view",
      "type": "function"
    },
    {
      "constant": true,
      "inputs": [],
      "name": "token",
      "outputs": [
        {
          "name": "",
          "type": "address"
        }
      ],
      "payable": false,
      "stateMutability": "view",
      "type": "function"
    },
    {
      "inputs": [
        {
          "name": "_multisigWallet",
          "type": "address"
        },
        {
          "name": "_start",
          "type": "uint256"
        },
        {
          "name": "_end",
          "type": "uint256"
        },
        {
          "name": "_saleWeiCap",
          "type": "uint256"
        }
      ],
      "payable": false,
      "stateMutability": "nonpayable",
      "type": "constructor"
    },
    {
      "payable": true,
      "stateMutability": "payable",
      "type": "fallback"
    },
    {
      "anonymous": false,
      "inputs": [
        {
          "indexed": false,
          "name": "signer",
          "type": "address"
        }
      ],
      "name": "SignerChanged",
      "type": "event"
    },
    {
      "anonymous": false,
      "inputs": [
        {
          "indexed": false,
          "name": "investor",
          "type": "address"
        },
        {
          "indexed": false,
          "name": "weiAmount",
          "type": "uint256"
        },
        {
          "indexed": false,
          "name": "tokenAmount",
          "type": "uint256"
        },
        {
          "indexed": false,
          "name": "customerId",
          "type": "uint128"
        },
        {
          "indexed": false,
          "name": "pricingInfo",
          "type": "uint256"
        }
      ],
      "name": "Prepurchased",
      "type": "event"
    },
    {
      "anonymous": false,
      "inputs": [
        {
          "indexed": false,
          "name": "newCap",
          "type": "uint256"
        }
      ],
      "name": "CapUpdated",
      "type": "event"
    },
    {
      "anonymous": false,
      "inputs": [
        {
          "indexed": false,
          "name": "investor",
          "type": "address"
        },
        {
          "indexed": false,
          "name": "weiAmount",
          "type": "uint256"
        },
        {
          "indexed": false,
          "name": "tokenAmount",
          "type": "uint256"
        },
        {
          "indexed": false,
          "name": "customerId",
          "type": "uint128"
        }
      ],
      "name": "Invested",
      "type": "event"
    },
    {
      "anonymous": false,
      "inputs": [
        {
          "indexed": false,
          "name": "investor",
          "type": "address"
        },
        {
          "indexed": false,
          "name": "weiAmount",
          "type": "uint256"
        }
      ],
      "name": "Refund",
      "type": "event"
    },
    {
      "anonymous": false,
      "inputs": [
        {
          "indexed": false,
          "name": "newRequireCustomerId",
          "type": "bool"
        },
        {
          "indexed": false,
          "name": "newRequiredSignedAddress",
          "type": "bool"
        },
        {
          "indexed": false,
          "name": "newSignerAddress",
          "type": "address"
        }
      ],
      "name": "InvestmentPolicyChanged",
      "type": "event"
    },
    {
      "anonymous": false,
      "inputs": [
        {
          "indexed": false,
          "name": "addr",
          "type": "address"
        },
        {
          "indexed": false,
          "name": "status",
          "type": "bool"
        }
      ],
      "name": "Whitelisted",
      "type": "event"
    },
    {
      "anonymous": false,
      "inputs": [
        {
          "indexed": false,
          "name": "newEndsAt",
          "type": "uint256"
        }
      ],
      "name": "EndsAtChanged",
      "type": "event"
    },
    {
      "anonymous": false,
      "inputs": [
        {
          "indexed": true,
          "name": "previousOwner",
          "type": "address"
        }
      ],
      "name": "OwnershipRenounced",
      "type": "event"
    },
    {
      "anonymous": false,
      "inputs": [
        {
          "indexed": true,
          "name": "previousOwner",
          "type": "address"
        },
        {
          "indexed": true,
          "name": "newOwner",
          "type": "address"
        }
      ],
      "name": "OwnershipTransferred",
      "type": "event"
    },
    {
      "constant": false,
      "inputs": [
        {
          "name": "dataframe",
          "type": "bytes"
        },
        {
          "name": "v",
          "type": "uint8"
        },
        {
          "name": "r",
          "type": "bytes32"
        },
        {
          "name": "s",
          "type": "bytes32"
        }
      ],
      "name": "buyWithKYCData",
      "outputs": [
        {
          "name": "tokenAmount",
          "type": "uint256"
        }
      ],
      "payable": true,
      "stateMutability": "payable",
      "type": "function"
    },
    {
      "constant": false,
      "inputs": [
        {
          "name": "_signerAddress",
          "type": "address"
        }
      ],
      "name": "setSignerAddress",
      "outputs": [],
      "payable": false,
      "stateMutability": "nonpayable",
      "type": "function"
    },
    {
      "constant": true,
      "inputs": [
        {
          "name": "weiAmount",
          "type": "uint256"
        },
        {
          "name": "tokenAmount",
          "type": "uint256"
        },
        {
          "name": "weiRaisedTotal",
          "type": "uint256"
        },
        {
          "name": "tokensSoldTotal",
          "type": "uint256"
        }
      ],
      "name": "isBreakingCap",
      "outputs": [
        {
          "name": "limitBroken",
          "type": "bool"
        }
      ],
      "payable": false,
      "stateMutability": "view",
      "type": "function"
    },
    {
      "constant": true,
      "inputs": [],
      "name": "isCrowdsaleFull",
      "outputs": [
        {
          "name": "",
          "type": "bool"
        }
      ],
      "payable": false,
      "stateMutability": "view",
      "type": "function"
    },
    {
      "constant": false,
      "inputs": [
        {
          "name": "newCap",
          "type": "uint256"
        }
      ],
      "name": "setWeiCap",
      "outputs": [],
      "payable": false,
      "stateMutability": "nonpayable",
      "type": "function"
    },
    {
      "constant": false,
      "inputs": [
        {
          "name": "_pricingStrategy",
          "type": "address"
        }
      ],
      "name": "setPricingStrategy",
      "outputs": [],
      "payable": false,
      "stateMutability": "nonpayable",
      "type": "function"
    },
    {
      "constant": true,
      "inputs": [],
      "name": "getState",
      "outputs": [
        {
          "name": "",
          "type": "uint8"
        }
      ],
      "payable": false,
      "stateMutability": "view",
      "type": "function"
    }
  ],
  "bytecode": "0x6080604052600560015560006009556000600a556000600b556000600c556000600d556000600e553480156200003457600080fd5b506040516080806200318d83398101806040528101908080519060200190929190805190602001909291908051906020019092919080519060200190929190505050600160008585856000336000806101000a81548173ffffffffffffffffffffffffffffffffffffffff021916908373ffffffffffffffffffffffffffffffffffffffff160217905550336000806101000a81548173ffffffffffffffffffffffffffffffffffffffff021916908373ffffffffffffffffffffffffffffffffffffffff16021790555085600260006101000a81548173ffffffffffffffffffffffffffffffffffffffff021916908373ffffffffffffffffffffffffffffffffffffffff1602179055506200015a856200023f640100000000026401000000009004565b83600560006101000a81548173ffffffffffffffffffffffffffffffffffffffff021916908373ffffffffffffffffffffffffffffffffffffffff1602179055506000600560009054906101000a900473ffffffffffffffffffffffffffffffffffffffff1673ffffffffffffffffffffffffffffffffffffffff161415620001e257600080fd5b6000831415620001f157600080fd5b8260078190555060008214156200020757600080fd5b816008819055506008546007541015156200022157600080fd5b8060068190555050505050505080601481905550505050506200029e565b6000809054906101000a900473ffffffffffffffffffffffffffffffffffffffff1673ffffffffffffffffffffffffffffffffffffffff163373ffffffffffffffffffffffffffffffffffffffff161415156200029b57600080fd5b50565b612edf80620002ae6000396000f300608060405260043610610246576000357c0100000000000000000000000000000000000000000000000000000000900463ffffffff168063015fa6c11461024b5780630226401d14610278578063046dc166146102a3578063062b01ce146102e65780630a09284a1461031557806313f4e977146103405780631865c57d1461036b57806319b667da146103a45780631aae3460146103e757806321d5c0f61461043e5780634042b66f146104955780634551dd59146104c05780634bb278f3146104ef57806350c6773414610506578063518ab2a814610549578063590e1ae3146105745780635b7633d01461058b5780635da89ac0146105e25780635ed7ca5b1461060d5780636203f09f146106245780636e50eb3f1461064f578063715018a61461067c57806373752db41461069357806378b99c2414610794578063797d9437146107eb5780637c2e08a31461081657806387612102146108455780638d51faec1461084f5780638da5cb5b1461087c578063903cc583146108d35780639075becf1461091e57806397b150ca146109755780639d3c663f146109cc578063a7ba44c314610a2f578063af46868214610a5e578063b3f05b9714610a89578063b9b8af0b14610ab8578063c80d369414610ae7578063cb16e6d014610b12578063cb3e64fd14610b6d578063d5d0902114610b84578063d7c7159c14610bb3578063d7e64c0014610c4c578063eac2493214610c77578063f2fde38b14610cc6578063f3283fba14610d09578063f7c00e2f14610d4c578063fc0c546a14610d77575b600080fd5b34801561025757600080fd5b5061027660048036038101908080359060200190929190505050610dce565b005b34801561028457600080fd5b5061028d610e6a565b6040518082815260200191505060405180910390f35b3480156102af57600080fd5b506102e4600480360381019080803573ffffffffffffffffffffffffffffffffffffffff169060200190929190505050610e70565b005b3480156102f257600080fd5b506102fb610f94565b604051808215151515815260200191505060405180910390f35b34801561032157600080fd5b5061032a611093565b6040518082815260200191505060405180910390f35b34801561034c57600080fd5b50610355611099565b6040518082815260200191505060405180910390f35b34801561037757600080fd5b5061038061109f565b6040518082600781111561039057fe5b60ff16815260200191505060405180910390f35b3480156103b057600080fd5b506103e5600480360381019080803573ffffffffffffffffffffffffffffffffffffffff1690602001909291905050506110bc565b005b3480156103f357600080fd5b50610428600480360381019080803573ffffffffffffffffffffffffffffffffffffffff169060200190929190505050611227565b6040518082815260200191505060405180910390f35b34801561044a57600080fd5b5061045361123f565b604051808273ffffffffffffffffffffffffffffffffffffffff1673ffffffffffffffffffffffffffffffffffffffff16815260200191505060405180910390f35b3480156104a157600080fd5b506104aa611265565b6040518082815260200191505060405180910390f35b3480156104cc57600080fd5b506104d561126b565b604051808215151515815260200191505060405180910390f35b3480156104fb57600080fd5b50610504611274565b005b34801561051257600080fd5b50610547600480360381019080803573ffffffffffffffffffffffffffffffffffffffff16906020019092919050505061142f565b005b34801561055557600080fd5b5061055e61148d565b6040518082815260200191505060405180910390f35b34801561058057600080fd5b50610589611493565b005b34801561059757600080fd5b506105a06116be565b604051808273ffffffffffffffffffffffffffffffffffffffff1673ffffffffffffffffffffffffffffffffffffffff16815260200191505060405180910390f35b3480156105ee57600080fd5b506105f76116e4565b6040518082815260200191505060405180910390f35b34801561061957600080fd5b506106226116ea565b005b34801561063057600080fd5b50610639611762565b6040518082815260200191505060405180910390f35b34801561065b57600080fd5b5061067a60048036038101908080359060200190929190505050611768565b005b34801561068857600080fd5b50610691611822565b005b34801561069f57600080fd5b506106fa600480360381019080803590602001908201803590602001908080601f0160208091040260200160405190810160405280939291908181526020018383808284378201915050505050509192919290505050611924565b604051808673ffffffffffffffffffffffffffffffffffffffff1673ffffffffffffffffffffffffffffffffffffffff168152602001856fffffffffffffffffffffffffffffffff166fffffffffffffffffffffffffffffffff1681526020018463ffffffff1663ffffffff1681526020018363ffffffff1663ffffffff1681526020018281526020019550505050505060405180910390f35b3480156107a057600080fd5b506107a9611f20565b604051808273ffffffffffffffffffffffffffffffffffffffff1673ffffffffffffffffffffffffffffffffffffffff16815260200191505060405180910390f35b3480156107f757600080fd5b50610800611f46565b6040518082815260200191505060405180910390f35b34801561082257600080fd5b5061082b611f4c565b604051808215151515815260200191505060405180910390f35b61084d611f5b565b005b34801561085b57600080fd5b5061087a60048036038101908080359060200190929190505050612051565b005b34801561088857600080fd5b506108916120b6565b604051808273ffffffffffffffffffffffffffffffffffffffff1673ffffffffffffffffffffffffffffffffffffffff16815260200191505060405180910390f35b3480156108df57600080fd5b5061090860048036038101908080359060200190929190803590602001909291905050506120db565b6040518082815260200191505060405180910390f35b34801561092a57600080fd5b50610933612268565b604051808273ffffffffffffffffffffffffffffffffffffffff1673ffffffffffffffffffffffffffffffffffffffff16815260200191505060405180910390f35b34801561098157600080fd5b506109b6600480360381019080803573ffffffffffffffffffffffffffffffffffffffff16906020019092919050505061228e565b6040518082815260200191505060405180910390f35b3480156109d857600080fd5b50610a15600480360381019080803590602001909291908035906020019092919080359060200190929190803590602001909291905050506122a6565b604051808215151515815260200191505060405180910390f35b348015610a3b57600080fd5b50610a446122c8565b604051808215151515815260200191505060405180910390f35b348015610a6a57600080fd5b50610a73612390565b6040518082815260200191505060405180910390f35b348015610a9557600080fd5b50610a9e612396565b604051808215151515815260200191505060405180910390f35b348015610ac457600080fd5b50610acd6123a9565b604051808215151515815260200191505060405180910390f35b348015610af357600080fd5b50610afc6123bc565b6040518082815260200191505060405180910390f35b348015610b1e57600080fd5b50610b53600480360381019080803573ffffffffffffffffffffffffffffffffffffffff1690602001909291905050506123c2565b604051808215151515815260200191505060405180910390f35b348015610b7957600080fd5b50610b826123e2565b005b348015610b9057600080fd5b50610b99612474565b604051808215151515815260200191505060405180910390f35b610c36600480360381019080803590602001908201803590602001908080601f0160208091040260200160405190810160405280939291908181526020018383808284378201915050505050509192919290803560ff16906020019092919080356000191690602001909291908035600019169060200190929190505050612483565b6040518082815260200191505060405180910390f35b348015610c5857600080fd5b50610c61612b4b565b6040518082815260200191505060405180910390f35b348015610c8357600080fd5b50610cc4600480360381019080803573ffffffffffffffffffffffffffffffffffffffff169060200190929190803515159060200190929190505050612b51565b005b348015610cd257600080fd5b50610d07600480360381019080803573ffffffffffffffffffffffffffffffffffffffff169060200190929190505050612c76565b005b348015610d1557600080fd5b50610d4a600480360381019080803573ffffffffffffffffffffffffffffffffffffffff169060200190929190505050612cdd565b005b348015610d5857600080fd5b50610d61612d8d565b6040518082815260200191505060405180910390f35b348015610d8357600080fd5b50610d8c612d93565b604051808273ffffffffffffffffffffffffffffffffffffffff1673ffffffffffffffffffffffffffffffffffffffff16815260200191505060405180910390f35b6000809054906101000a900473ffffffffffffffffffffffffffffffffffffffff1673ffffffffffffffffffffffffffffffffffffffff163373ffffffffffffffffffffffffffffffffffffffff16141515610e2957600080fd5b806014819055507f3c8eb7c49d332f4c1e4d92a27cda93c31cc9452f7a408e0c6109fcddbc9946ea816040518082815260200191505060405180910390a150565b60135481565b6000809054906101000a900473ffffffffffffffffffffffffffffffffffffffff1673ffffffffffffffffffffffffffffffffffffffff163373ffffffffffffffffffffffffffffffffffffffff16141515610ecb57600080fd5b80601560006101000a81548173ffffffffffffffffffffffffffffffffffffffff021916908373ffffffffffffffffffffffffffffffffffffffff1602179055507f5719a5656c5cfdaafa148ecf366fd3b0a7fae06449ce2a46225977fb7417e29d601560009054906101000a900473ffffffffffffffffffffffffffffffffffffffff16604051808273ffffffffffffffffffffffffffffffffffffffff1673ffffffffffffffffffffffffffffffffffffffff16815260200191505060405180910390a150565b6000600360009054906101000a900473ffffffffffffffffffffffffffffffffffffffff1673ffffffffffffffffffffffffffffffffffffffff16638e768288306040518263ffffffff167c0100000000000000000000000000000000000000000000000000000000028152600401808273ffffffffffffffffffffffffffffffffffffffff1673ffffffffffffffffffffffffffffffffffffffff168152602001915050602060405180830381600087803b15801561105357600080fd5b505af1158015611067573d6000803e3d6000fd5b505050506040513d602081101561107d57600080fd5b8101908080519060200190929190505050905090565b60085481565b60065481565b60006007544210156110b457600290506110b9565b600390505b90565b6000809054906101000a900473ffffffffffffffffffffffffffffffffffffffff1673ffffffffffffffffffffffffffffffffffffffff163373ffffffffffffffffffffffffffffffffffffffff1614151561111757600080fd5b80600460006101000a81548173ffffffffffffffffffffffffffffffffffffffff021916908373ffffffffffffffffffffffffffffffffffffffff160217905550600460009054906101000a900473ffffffffffffffffffffffffffffffffffffffff1673ffffffffffffffffffffffffffffffffffffffff1663614cb9046040518163ffffffff167c0100000000000000000000000000000000000000000000000000000000028152600401602060405180830381600087803b1580156111de57600080fd5b505af11580156111f2573d6000803e3d6000fd5b505050506040513d602081101561120857600080fd5b8101908080519060200190929190505050151561122457600080fd5b50565b60106020528060005260406000206000915090505481565b600460009054906101000a900473ffffffffffffffffffffffffffffffffffffffff1681565b600a5481565b60006001905090565b600480600781111561128257fe5b61128a61109f565b600781111561129557fe5b1415156112a157600080fd5b6000809054906101000a900473ffffffffffffffffffffffffffffffffffffffff1673ffffffffffffffffffffffffffffffffffffffff163373ffffffffffffffffffffffffffffffffffffffff161415156112fc57600080fd5b600060149054906101000a900460ff161561131657600080fd5b600f60009054906101000a900460ff161561133057600080fd5b6000600460009054906101000a900473ffffffffffffffffffffffffffffffffffffffff1673ffffffffffffffffffffffffffffffffffffffff1614151561141157600460009054906101000a900473ffffffffffffffffffffffffffffffffffffffff1673ffffffffffffffffffffffffffffffffffffffff16630bf318a36040518163ffffffff167c0100000000000000000000000000000000000000000000000000000000028152600401600060405180830381600087803b1580156113f857600080fd5b505af115801561140c573d6000803e3d6000fd5b505050505b6001600f60006101000a81548160ff02191690831515021790555050565b6000809054906101000a900473ffffffffffffffffffffffffffffffffffffffff1673ffffffffffffffffffffffffffffffffffffffff163373ffffffffffffffffffffffffffffffffffffffff1614151561148a57600080fd5b50565b60095481565b600060078060078111156114a357fe5b6114ab61109f565b60078111156114b657fe5b1415156114c257600080fd5b601060003373ffffffffffffffffffffffffffffffffffffffff1673ffffffffffffffffffffffffffffffffffffffff168152602001908152602001600020549150600082141561151257600080fd5b6000601060003373ffffffffffffffffffffffffffffffffffffffff1673ffffffffffffffffffffffffffffffffffffffff16815260200190815260200160002081905550600e5473__SafeMathLib___________________________6366098d4f9091846040518363ffffffff167c0100000000000000000000000000000000000000000000000000000000028152600401808381526020018281526020019250505060206040518083038186803b1580156115ce57600080fd5b505af41580156115e2573d6000803e3d6000fd5b505050506040513d60208110156115f857600080fd5b8101908080519060200190929190505050600e819055507fbb28353e4598c3b9199101a66e0989549b659a59a54d2c27fbb183f1932c8e6d3383604051808373ffffffffffffffffffffffffffffffffffffffff1673ffffffffffffffffffffffffffffffffffffffff1681526020018281526020019250505060405180910390a13373ffffffffffffffffffffffffffffffffffffffff166108fc839081150290604051600060405180830381858888f1935050505015156116ba57600080fd5b5050565b601560009054906101000a900473ffffffffffffffffffffffffffffffffffffffff1681565b600e5481565b6000809054906101000a900473ffffffffffffffffffffffffffffffffffffffff1673ffffffffffffffffffffffffffffffffffffffff163373ffffffffffffffffffffffffffffffffffffffff1614151561174557600080fd5b6001600060146101000a81548160ff021916908315150217905550565b60015481565b6000809054906101000a900473ffffffffffffffffffffffffffffffffffffffff1673ffffffffffffffffffffffffffffffffffffffff163373ffffffffffffffffffffffffffffffffffffffff161415156117c357600080fd5b804211156117d057600080fd5b8060075411156117df57600080fd5b806008819055507fd34bb772c4ae9baa99db852f622773b31c7827e8ee818449fef20d30980bd3106008546040518082815260200191505060405180910390a150565b6000809054906101000a900473ffffffffffffffffffffffffffffffffffffffff1673ffffffffffffffffffffffffffffffffffffffff163373ffffffffffffffffffffffffffffffffffffffff1614151561187d57600080fd5b6000809054906101000a900473ffffffffffffffffffffffffffffffffffffffff1673ffffffffffffffffffffffffffffffffffffffff167ff8df31144d9c2f0f6b59d69b8b98abd5459d07f2742c4df920b25aae33c6482060405160405180910390a260008060006101000a81548173ffffffffffffffffffffffffffffffffffffffff021916908373ffffffffffffffffffffffffffffffffffffffff160217905550565b6000806000806000806000806000808a73__BytesDeserializer_____________________63b655e138909160006040518363ffffffff167c01000000000000000000000000000000000000000000000000000000000281526004018080602001838152602001828103825284818151815260200191508051906020019080838360005b838110156119c35780820151818401526020810190506119a8565b50505050905090810190601f1680156119f05780820380516001836020036101000a031916815260200191505b50935050505060206040518083038186803b158015611a0e57600080fd5b505af4158015611a22573d6000803e3d6000fd5b505050506040513d6020811015611a3857600080fd5b810190808051906020019092919050505094508a73__BytesDeserializer_____________________6316419aa7909160146040518363ffffffff167c01000000000000000000000000000000000000000000000000000000000281526004018080602001838152602001828103825284818151815260200191508051906020019080838360005b83811015611adb578082015181840152602081019050611ac0565b50505050905090810190601f168015611b085780820380516001836020036101000a031916815260200191505b50935050505060206040518083038186803b158015611b2657600080fd5b505af4158015611b3a573d6000803e3d6000fd5b505050506040513d6020811015611b5057600080fd5b8101908080519060200190929190505050700100000000000000000000000000000000900493508a73__BytesDeserializer_____________________63d54dd8f9909160246040518363ffffffff167c01000000000000000000000000000000000000000000000000000000000281526004018080602001838152602001828103825284818151815260200191508051906020019080838360005b83811015611c07578082015181840152602081019050611bec565b50505050905090810190601f168015611c345780820380516001836020036101000a031916815260200191505b50935050505060206040518083038186803b158015611c5257600080fd5b505af4158015611c66573d6000803e3d6000fd5b505050506040513d6020811015611c7c57600080fd5b81019080805190602001909291905050507c0100000000000000000000000000000000000000000000000000000000900492508a73__BytesDeserializer_____________________63d54dd8f9909160286040518363ffffffff167c01000000000000000000000000000000000000000000000000000000000281526004018080602001838152602001828103825284818151815260200191508051906020019080838360005b83811015611d3f578082015181840152602081019050611d24565b50505050905090810190601f168015611d6c5780820380516001836020036101000a031916815260200191505b50935050505060206040518083038186803b158015611d8a57600080fd5b505af4158015611d9e573d6000803e3d6000fd5b505050506040513d6020811015611db457600080fd5b81019080805190602001909291905050507c0100000000000000000000000000000000000000000000000000000000900491508a73__BytesDeserializer_____________________632e1eb7fe9091602c6040518363ffffffff167c01000000000000000000000000000000000000000000000000000000000281526004018080602001838152602001828103825284818151815260200191508051906020019080838360005b83811015611e77578082015181840152602081019050611e5c565b50505050905090810190601f168015611ea45780820380516001836020036101000a031916815260200191505b50935050505060206040518083038186803b158015611ec257600080fd5b505af4158015611ed6573d6000803e3d6000fd5b505050506040513d6020811015611eec57600080fd5b8101908080519060200190929190505050600190049050848484848499509950995099509950505050505091939590929450565b600360009054906101000a900473ffffffffffffffffffffffffffffffffffffffff1681565b600d5481565b6000600654600a541015905090565b6005806007811115611f6957fe5b611f7161109f565b6007811115611f7c57fe5b141515611f8857600080fd5b6000341415611f9657600080fd5b600d5473__SafeMathLib___________________________6366098d4f9091346040518363ffffffff167c0100000000000000000000000000000000000000000000000000000000028152600401808381526020018281526020019250505060206040518083038186803b15801561200d57600080fd5b505af4158015612021573d6000803e3d6000fd5b505050506040513d602081101561203757600080fd5b8101908080519060200190929190505050600d8190555050565b6000809054906101000a900473ffffffffffffffffffffffffffffffffffffffff1673ffffffffffffffffffffffffffffffffffffffff163373ffffffffffffffffffffffffffffffffffffffff161415156120ac57600080fd5b8060138190555050565b6000809054906101000a900473ffffffffffffffffffffffffffffffffffffffff1681565b600080600260009054906101000a900473ffffffffffffffffffffffffffffffffffffffff1673ffffffffffffffffffffffffffffffffffffffff1663313ce5676040518163ffffffff167c0100000000000000000000000000000000000000000000000000000000028152600401602060405180830381600087803b15801561216457600080fd5b505af1158015612178573d6000803e3d6000fd5b505050506040513d602081101561218e57600080fd5b8101908080519060200190929190505050600a0a9050828473__SafeMathLib___________________________631d3b9edf9091846040518363ffffffff167c0100000000000000000000000000000000000000000000000000000000028152600401808381526020018281526020019250505060206040518083038186803b15801561221a57600080fd5b505af415801561222e573d6000803e3d6000fd5b505050506040513d602081101561224457600080fd5b810190808051906020019092919050505081151561225e57fe5b0491505092915050565b600560009054906101000a900473ffffffffffffffffffffffffffffffffffffffff1681565b60116020528060005260406000206000915090505481565b60006014548311156122bb57600190506122c0565b600090505b949350505050565b6000600460009054906101000a900473ffffffffffffffffffffffffffffffffffffffff1673ffffffffffffffffffffffffffffffffffffffff166382771c8e6040518163ffffffff167c0100000000000000000000000000000000000000000000000000000000028152600401602060405180830381600087803b15801561235057600080fd5b505af1158015612364573d6000803e3d6000fd5b505050506040513d602081101561237a57600080fd5b8101908080519060200190929190505050905090565b60075481565b600f60009054906101000a900460ff1681565b600060149054906101000a900460ff1681565b60145481565b60126020528060005260406000206000915054906101000a900460ff1681565b6000809054906101000a900473ffffffffffffffffffffffffffffffffffffffff1673ffffffffffffffffffffffffffffffffffffffff163373ffffffffffffffffffffffffffffffffffffffff1614151561243d57600080fd5b600060149054906101000a900460ff16151561245857600080fd5b60008060146101000a81548160ff021916908315150217905550565b6000601454600a541015905090565b600080600080600080600080600080600060149054906101000a900460ff161515156124ae57600080fd5b60028e6040518082805190602001908083835b6020831015156124e657805182526020820191506020810190506020830392506124c1565b6001836020036101000a0380198251168184511680821785525050505050509050019150506020604051808303816000865af115801561252a573d6000803e3d6000fd5b5050506040513d602081101561253f57600080fd5b8101908080519060200190929190505050985061255b8e611924565b97509750975097509750670de0b6b3a76400009250339150349050601560009054906101000a900473ffffffffffffffffffffffffffffffffffffffff1673ffffffffffffffffffffffffffffffffffffffff1660018a8f8f8f604051600081526020016040526040518085600019166000191681526020018460ff1660ff1681526020018360001916600019168152602001826000191660001916815260200194505050505060206040516020810390808403906000865af1158015612626573d6000803e3d6000fd5b5050506020604051035173ffffffffffffffffffffffffffffffffffffffff1614151561265257600080fd5b6002600781111561265f57fe5b61266761109f565b600781111561267257fe5b14156126d557601260008373ffffffffffffffffffffffffffffffffffffffff1673ffffffffffffffffffffffffffffffffffffffff16815260200190815260200160002060009054906101000a900460ff1615156126d057600080fd5b612706565b600360078111156126e257fe5b6126ea61109f565b60078111156126f557fe5b141561270057612705565b600080fd5b5b6000601060008473ffffffffffffffffffffffffffffffffffffffff1673ffffffffffffffffffffffffffffffffffffffff16815260200190815260200160002054141561276157600c600081548092919060010191905055505b601060008373ffffffffffffffffffffffffffffffffffffffff1673ffffffffffffffffffffffffffffffffffffffff1681526020019081526020016000205473__SafeMathLib___________________________6366098d4f9091836040518363ffffffff167c0100000000000000000000000000000000000000000000000000000000028152600401808381526020018281526020019250505060206040518083038186803b15801561281557600080fd5b505af4158015612829573d6000803e3d6000fd5b505050506040513d602081101561283f57600080fd5b8101908080519060200190929190505050601060008473ffffffffffffffffffffffffffffffffffffffff1673ffffffffffffffffffffffffffffffffffffffff16815260200190815260200160002081905550600a5473__SafeMathLib___________________________6366098d4f9091836040518363ffffffff167c0100000000000000000000000000000000000000000000000000000000028152600401808381526020018281526020019250505060206040518083038186803b15801561290a57600080fd5b505af415801561291e573d6000803e3d6000fd5b505050506040513d602081101561293457600080fd5b8101908080519060200190929190505050600a8190555061295b818b600a546009546122a6565b15151561296757600080fd5b612710838763ffffffff160281151561297c57fe5b04601060003373ffffffffffffffffffffffffffffffffffffffff1673ffffffffffffffffffffffffffffffffffffffff16815260200190815260200160002054101515156129ca57600080fd5b612710838663ffffffff16028115156129df57fe5b04601060003373ffffffffffffffffffffffffffffffffffffffff1673ffffffffffffffffffffffffffffffffffffffff1681526020019081526020016000205411151515612a2d57600080fd5b600560009054906101000a900473ffffffffffffffffffffffffffffffffffffffff1673ffffffffffffffffffffffffffffffffffffffff166108fc829081150290604051600060405180830381858888f193505050501515612a8f57600080fd5b7fb926bd06586c265869c2a70eaf4affb7b7b778b25883b85a123262d056f79c0182828c8a88604051808673ffffffffffffffffffffffffffffffffffffffff1673ffffffffffffffffffffffffffffffffffffffff168152602001858152602001848152602001836fffffffffffffffffffffffffffffffff166fffffffffffffffffffffffffffffffff1681526020018281526020019550505050505060405180910390a160009950505050505050505050949350505050565b600c5481565b6000809054906101000a900473ffffffffffffffffffffffffffffffffffffffff1673ffffffffffffffffffffffffffffffffffffffff163373ffffffffffffffffffffffffffffffffffffffff16141515612bac57600080fd5b80601260008473ffffffffffffffffffffffffffffffffffffffff1673ffffffffffffffffffffffffffffffffffffffff16815260200190815260200160002060006101000a81548160ff0219169083151502179055507fa54714518c5d275fdcd3d2a461e4858e4e8cb04fb93cd0bca9d6d34115f264408282604051808373ffffffffffffffffffffffffffffffffffffffff1673ffffffffffffffffffffffffffffffffffffffff168152602001821515151581526020019250505060405180910390a15050565b6000809054906101000a900473ffffffffffffffffffffffffffffffffffffffff1673ffffffffffffffffffffffffffffffffffffffff163373ffffffffffffffffffffffffffffffffffffffff16141515612cd157600080fd5b612cda81612db9565b50565b6000809054906101000a900473ffffffffffffffffffffffffffffffffffffffff1673ffffffffffffffffffffffffffffffffffffffff163373ffffffffffffffffffffffffffffffffffffffff16141515612d3857600080fd5b600154600c541115612d4957600080fd5b80600560006101000a81548173ffffffffffffffffffffffffffffffffffffffff021916908373ffffffffffffffffffffffffffffffffffffffff16021790555050565b600b5481565b600260009054906101000a900473ffffffffffffffffffffffffffffffffffffffff1681565b600073ffffffffffffffffffffffffffffffffffffffff168173ffffffffffffffffffffffffffffffffffffffff1614151515612df557600080fd5b8073ffffffffffffffffffffffffffffffffffffffff166000809054906101000a900473ffffffffffffffffffffffffffffffffffffffff1673ffffffffffffffffffffffffffffffffffffffff167f8be0079c531659141344cd1fd0a4f28419497f9722a3daafe3b4186f6b6457e060405160405180910390a3806000806101000a81548173ffffffffffffffffffffffffffffffffffffffff021916908373ffffffffffffffffffffffffffffffffffffffff160217905550505600a165627a7a72305820acc7ecc106aaff6d57e00c9801b96090797032bebfc0681409d514e456e8d9aa0029",
  "source": "import \"./CrowdsaleBase.sol\";\nimport \"./KYCPayloadDeserializer.sol\";\n\n/**\n * A presale smart contract that collects money from SAFT/SAFTE agreed buyers.\n *\n * Presale contract where we collect money for the token that does not exist yet.\n * The same KYC rules apply as in KYCCrowdsale. No tokens are issued in this point,\n * but they are delivered to the buyers after the token sale is over.\n *\n */\ncontract KYCPresale is CrowdsaleBase, KYCPayloadDeserializer {\n\n  /** The cap of this presale contract in wei */\n  uint256 public saleWeiCap;\n\n  /** Server holds the private key to this address to decide if the AML payload is valid or not. */\n  address public signerAddress;\n\n  /** A new server-side signer key was set to be effective */\n  event SignerChanged(address signer);\n\n  /** An user made a prepurchase through KYC'ed interface. The money has been moved to the token sale multisig wallet. The buyer will receive their tokens in an airdrop after the token sale is over. */\n  event Prepurchased(address investor, uint weiAmount, uint tokenAmount, uint128 customerId, uint256 pricingInfo);\n\n  /** The owner changes the presale ETH cap during the sale */\n  event CapUpdated(uint256 newCap);\n\n  /**\n   * Constructor.\n   *\n   * Presale does not know about token or pricing strategy, as they will be only available during the future airdrop.\n   *\n   * @dev The parent contract has some unnecessary variables for our use case. For this round of development, we chose to use null value for token and pricing strategy. In the future versions have a parent sale contract that does not assume an existing token.\n   */\n  function KYCPresale(address _multisigWallet, uint _start, uint _end, uint _saleWeiCap) CrowdsaleBase(FractionalERC20(address(1)), PricingStrategy(address(0)), _multisigWallet, _start, _end, 0) {\n    saleWeiCap = _saleWeiCap;\n  }\n\n  /**\n   * A token purchase with anti-money laundering\n   *\n   * return tokenAmount How many tokens where bought\n   */\n  function buyWithKYCData(bytes dataframe, uint8 v, bytes32 r, bytes32 s) public payable returns(uint tokenAmount) {\n\n    // Presale ended / emergency abort\n    require(!halted);\n\n    bytes32 hash = sha256(dataframe);\n    var (whitelistedAddress, customerId, minETH, maxETH, pricingInfo) = getKYCPayload(dataframe);\n    uint multiplier = 10 ** 18;\n    address receiver = msg.sender;\n    uint weiAmount = msg.value;\n\n    // The payload was created by token sale server\n    require(ecrecover(hash, v, r, s) == signerAddress);\n\n    // Determine if it's a good time to accept investment from this participant\n    if(getState() == State.PreFunding) {\n      // Are we whitelisted for early deposit\n      require(earlyParticipantWhitelist[receiver]);\n    } else if(getState() == State.Funding) {\n      // Retail participants can only come in when the crowdsale is running\n      // pass\n    } else {\n      // Unwanted state\n      revert();\n    }\n\n    if(investedAmountOf[receiver] == 0) {\n       // A new investor\n       investorCount++;\n    }\n\n    // Update per investor amount\n    investedAmountOf[receiver] = investedAmountOf[receiver].plus(weiAmount);\n\n    // Update totals\n    weiRaised = weiRaised.plus(weiAmount);\n\n    // Check that we did not bust the cap\n    require(!isBreakingCap(weiAmount, tokenAmount, weiRaised, tokensSold));\n\n    require(investedAmountOf[msg.sender] >= minETH * multiplier / 10000);\n    require(investedAmountOf[msg.sender] <= maxETH * multiplier / 10000);\n\n    // Pocket the money, or fail the crowdsale if we for some reason cannot send the money to our multisig\n    require(multisigWallet.send(weiAmount));\n\n    // Tell us invest was success\n    Prepurchased(receiver, weiAmount, tokenAmount, customerId, pricingInfo);\n\n    return 0; // In presale we do not issue actual tokens tyet\n  }\n\n  /// @dev This function can set the server side address\n  /// @param _signerAddress The address derived from server's private key\n  function setSignerAddress(address _signerAddress) onlyOwner {\n    signerAddress = _signerAddress;\n    SignerChanged(signerAddress);\n  }\n\n  /**\n   * Called from invest() to confirm if the curret investment does not break our cap rule.\n   */\n  function isBreakingCap(uint weiAmount, uint tokenAmount, uint weiRaisedTotal, uint tokensSoldTotal) constant returns (bool limitBroken) {\n    if(weiRaisedTotal > saleWeiCap) {\n      return true;\n    } else {\n      return false;\n    }\n  }\n\n  /**\n   * We are sold out when our approve pool becomes empty.\n   */\n  function isCrowdsaleFull() public constant returns (bool) {\n    return weiRaised >= saleWeiCap;\n  }\n\n  /**\n   * Allow owner to adjust the cap during the presale.\n   *\n   * This allows e.g. US dollar pegged caps.\n   */\n  function setWeiCap(uint newCap) public onlyOwner {\n    saleWeiCap = newCap;\n    CapUpdated(newCap);\n  }\n\n  /**\n   * Because this is a presale, we do not issue any tokens yet.\n   *\n   * @dev Have this taken away from the parent contract?\n   */\n  function assignTokens(address receiver, uint tokenAmount) internal {\n    revert();\n  }\n\n  /**\n   * Allow to (re)set pricing strategy.\n   *\n   * @dev Because we do not have token price set in presale, we do nothing. This will be removed in the future versions.\n   */\n  function setPricingStrategy(PricingStrategy _pricingStrategy) onlyOwner {\n  }\n\n  /**\n   * Presale state machine management.\n   *\n   * Presale cannot fail; it is running until manually ended.\n   *\n   */\n  function getState() public constant returns (State) {\n    if (block.timestamp < startsAt) {\n      return State.PreFunding;\n    } else {\n      return State.Funding;\n    }\n  }\n\n}\n",
  "sourcePath": "/home/otokarev/work/umbre/ico/contracts/KYCPresale.sol",
  "compiler": {
    "name": "solc",
    "version": "0.4.24+commit.e67f0147.Emscripten.clang"
  },
  "schemaVersion": "2.0.1",
  "updatedAt": "2018-09-12T21:12:30.135Z"
}