{
  "contractName": "KYCPayloadDeserializer",
  "abi": [
    {
      "constant": true,
      "inputs": [
        {
          "name": "dataframe",
          "type": "bytes"
        }
      ],
      "name": "getKYCPayload",
      "outputs": [
        {
          "name": "whitelistedAddress",
          "type": "address"
        },
        {
          "name": "customerId",
          "type": "uint128"
        },
        {
          "name": "minEth",
          "type": "uint32"
        },
        {
          "name": "maxEth",
          "type": "uint32"
        },
        {
          "name": "pricingInfo",
          "type": "uint256"
        }
      ],
      "payable": false,
      "stateMutability": "view",
      "type": "function"
    }
  ],
  "bytecode": "0x608060405234801561001057600080fd5b5061076f806100206000396000f300608060405260043610610041576000357c0100000000000000000000000000000000000000000000000000000000900463ffffffff16806373752db414610046575b600080fd5b34801561005257600080fd5b506100ad600480360381019080803590602001908201803590602001908080601f0160208091040260200160405190810160405280939291908181526020018383808284378201915050505050509192919290505050610147565b604051808673ffffffffffffffffffffffffffffffffffffffff1673ffffffffffffffffffffffffffffffffffffffff168152602001856fffffffffffffffffffffffffffffffff166fffffffffffffffffffffffffffffffff1681526020018463ffffffff1663ffffffff1681526020018363ffffffff1663ffffffff1681526020018281526020019550505050505060405180910390f35b6000806000806000806000806000808a73__BytesDeserializer_____________________63b655e138909160006040518363ffffffff167c01000000000000000000000000000000000000000000000000000000000281526004018080602001838152602001828103825284818151815260200191508051906020019080838360005b838110156101e65780820151818401526020810190506101cb565b50505050905090810190601f1680156102135780820380516001836020036101000a031916815260200191505b50935050505060206040518083038186803b15801561023157600080fd5b505af4158015610245573d6000803e3d6000fd5b505050506040513d602081101561025b57600080fd5b810190808051906020019092919050505094508a73__BytesDeserializer_____________________6316419aa7909160146040518363ffffffff167c01000000000000000000000000000000000000000000000000000000000281526004018080602001838152602001828103825284818151815260200191508051906020019080838360005b838110156102fe5780820151818401526020810190506102e3565b50505050905090810190601f16801561032b5780820380516001836020036101000a031916815260200191505b50935050505060206040518083038186803b15801561034957600080fd5b505af415801561035d573d6000803e3d6000fd5b505050506040513d602081101561037357600080fd5b8101908080519060200190929190505050700100000000000000000000000000000000900493508a73__BytesDeserializer_____________________63d54dd8f9909160246040518363ffffffff167c01000000000000000000000000000000000000000000000000000000000281526004018080602001838152602001828103825284818151815260200191508051906020019080838360005b8381101561042a57808201518184015260208101905061040f565b50505050905090810190601f1680156104575780820380516001836020036101000a031916815260200191505b50935050505060206040518083038186803b15801561047557600080fd5b505af4158015610489573d6000803e3d6000fd5b505050506040513d602081101561049f57600080fd5b81019080805190602001909291905050507c0100000000000000000000000000000000000000000000000000000000900492508a73__BytesDeserializer_____________________63d54dd8f9909160286040518363ffffffff167c01000000000000000000000000000000000000000000000000000000000281526004018080602001838152602001828103825284818151815260200191508051906020019080838360005b83811015610562578082015181840152602081019050610547565b50505050905090810190601f16801561058f5780820380516001836020036101000a031916815260200191505b50935050505060206040518083038186803b1580156105ad57600080fd5b505af41580156105c1573d6000803e3d6000fd5b505050506040513d60208110156105d757600080fd5b81019080805190602001909291905050507c0100000000000000000000000000000000000000000000000000000000900491508a73__BytesDeserializer_____________________632e1eb7fe9091602c6040518363ffffffff167c01000000000000000000000000000000000000000000000000000000000281526004018080602001838152602001828103825284818151815260200191508051906020019080838360005b8381101561069a57808201518184015260208101905061067f565b50505050905090810190601f1680156106c75780820380516001836020036101000a031916815260200191505b50935050505060206040518083038186803b1580156106e557600080fd5b505af41580156106f9573d6000803e3d6000fd5b505050506040513d602081101561070f57600080fd5b81019080805190602001909291905050506001900490508484848484995099509950995099505050505050919395909294505600a165627a7a7230582052f0a978f7c311b8cc0803deca593b4678994a9b74717ed07d43f79b059a39b20029",
  "source": "/**\n * This smart contract code is Copyright 2017 TokenMarket Ltd. For more information see https://tokenmarket.net\n *\n * Licensed under the Apache License, version 2.0: https://github.com/TokenMarketNet/ico/blob/master/LICENSE.txt\n */\n\n\nimport \"./BytesDeserializer.sol\";\n\n/**\n * A mix-in contract to decode different signed KYC payloads.\n *\n * @notice This should be a library, but for the complexity and toolchain fragility risks involving of linking library inside library, we currently use this as a helper method mix-in.\n */\ncontract KYCPayloadDeserializer {\n\n  using BytesDeserializer for bytes;\n\n  // @notice this struct describes what kind of data we include in the payload, we do not use this directly\n  // The bytes payload set on the server side\n  // total 56 bytes\n  struct KYCPayload {\n\n    /** Customer whitelisted address where the deposit can come from */\n    address whitelistedAddress; // 20 bytes\n\n    /** Customer id, UUID v4 */\n    uint128 customerId; // 16 bytes\n\n    /**\n     * Min amount this customer needs to invest in ETH. Set zero if no minimum. Expressed as parts of 10000. 1 ETH = 10000.\n     * @notice Decided to use 32-bit words to make the copy-pasted Data field for the ICO transaction less lenghty.\n     */\n    uint32 minETH; // 4 bytes\n\n    /** Max amount this customer can to invest in ETH. Set zero if no maximum. Expressed as parts of 10000. 1 ETH = 10000. */\n    uint32 maxETH; // 4 bytes\n\n    /**\n     * Information about the price promised for this participant. It can be pricing tier id or directly one token price in weis.\n     * @notice This is a later addition and not supported in all scenarios yet.\n     */\n    uint256 pricingInfo;\n  }\n\n\n  /**\n   * Same as above, but with pricing information included in the payload as the last integer.\n   *\n   * @notice In a long run, deprecate the legacy methods above and only use this payload.\n   */\n  function getKYCPayload(bytes dataframe) public constant returns(address whitelistedAddress, uint128 customerId, uint32 minEth, uint32 maxEth, uint256 pricingInfo) {\n    address _whitelistedAddress = dataframe.sliceAddress(0);\n    uint128 _customerId = uint128(dataframe.slice16(20));\n    uint32 _minETH = uint32(dataframe.slice4(36));\n    uint32 _maxETH = uint32(dataframe.slice4(40));\n    uint256 _pricingInfo = uint256(dataframe.slice32(44));\n    return (_whitelistedAddress, _customerId, _minETH, _maxETH, _pricingInfo);\n  }\n\n}\n",
  "sourcePath": "/home/otokarev/work/umbre/ico/contracts/KYCPayloadDeserializer.sol",
  "compiler": {
    "name": "solc",
    "version": "0.4.24+commit.e67f0147.Emscripten.clang"
  },
  "schemaVersion": "2.0.1",
  "updatedAt": "2018-09-12T21:12:30.134Z"
}