{
  "contractName": "MilestonePricing",
  "abi": [
    {
      "constant": true,
      "inputs": [],
      "name": "isPricingStrategy",
      "outputs": [
        {
          "name": "",
          "type": "bool"
        }
      ],
      "payable": false,
      "stateMutability": "view",
      "type": "function"
    },
    {
      "constant": true,
      "inputs": [],
      "name": "milestoneCount",
      "outputs": [
        {
          "name": "",
          "type": "uint256"
        }
      ],
      "payable": false,
      "stateMutability": "view",
      "type": "function"
    },
    {
      "constant": false,
      "inputs": [],
      "name": "renounceOwnership",
      "outputs": [],
      "payable": false,
      "stateMutability": "nonpayable",
      "type": "function"
    },
    {
      "constant": true,
      "inputs": [],
      "name": "owner",
      "outputs": [
        {
          "name": "",
          "type": "address"
        }
      ],
      "payable": false,
      "stateMutability": "view",
      "type": "function"
    },
    {
      "constant": true,
      "inputs": [],
      "name": "MAX_MILESTONE",
      "outputs": [
        {
          "name": "",
          "type": "uint256"
        }
      ],
      "payable": false,
      "stateMutability": "view",
      "type": "function"
    },
    {
      "constant": true,
      "inputs": [
        {
          "name": "",
          "type": "uint256"
        }
      ],
      "name": "milestones",
      "outputs": [
        {
          "name": "time",
          "type": "uint256"
        },
        {
          "name": "price",
          "type": "uint256"
        }
      ],
      "payable": false,
      "stateMutability": "view",
      "type": "function"
    },
    {
      "constant": true,
      "inputs": [
        {
          "name": "",
          "type": "address"
        }
      ],
      "name": "preicoAddresses",
      "outputs": [
        {
          "name": "",
          "type": "uint256"
        }
      ],
      "payable": false,
      "stateMutability": "view",
      "type": "function"
    },
    {
      "constant": false,
      "inputs": [
        {
          "name": "_newOwner",
          "type": "address"
        }
      ],
      "name": "transferOwnership",
      "outputs": [],
      "payable": false,
      "stateMutability": "nonpayable",
      "type": "function"
    },
    {
      "inputs": [
        {
          "name": "_milestones",
          "type": "uint256[]"
        }
      ],
      "payable": false,
      "stateMutability": "nonpayable",
      "type": "constructor"
    },
    {
      "payable": true,
      "stateMutability": "payable",
      "type": "fallback"
    },
    {
      "anonymous": false,
      "inputs": [
        {
          "indexed": true,
          "name": "previousOwner",
          "type": "address"
        }
      ],
      "name": "OwnershipRenounced",
      "type": "event"
    },
    {
      "anonymous": false,
      "inputs": [
        {
          "indexed": true,
          "name": "previousOwner",
          "type": "address"
        },
        {
          "indexed": true,
          "name": "newOwner",
          "type": "address"
        }
      ],
      "name": "OwnershipTransferred",
      "type": "event"
    },
    {
      "constant": false,
      "inputs": [
        {
          "name": "preicoAddress",
          "type": "address"
        },
        {
          "name": "pricePerToken",
          "type": "uint256"
        }
      ],
      "name": "setPreicoAddress",
      "outputs": [],
      "payable": false,
      "stateMutability": "nonpayable",
      "type": "function"
    },
    {
      "constant": true,
      "inputs": [
        {
          "name": "n",
          "type": "uint256"
        }
      ],
      "name": "getMilestone",
      "outputs": [
        {
          "name": "",
          "type": "uint256"
        },
        {
          "name": "",
          "type": "uint256"
        }
      ],
      "payable": false,
      "stateMutability": "view",
      "type": "function"
    },
    {
      "constant": true,
      "inputs": [],
      "name": "getPricingStartsAt",
      "outputs": [
        {
          "name": "",
          "type": "uint256"
        }
      ],
      "payable": false,
      "stateMutability": "view",
      "type": "function"
    },
    {
      "constant": true,
      "inputs": [],
      "name": "getPricingEndsAt",
      "outputs": [
        {
          "name": "",
          "type": "uint256"
        }
      ],
      "payable": false,
      "stateMutability": "view",
      "type": "function"
    },
    {
      "constant": true,
      "inputs": [
        {
          "name": "_crowdsale",
          "type": "address"
        }
      ],
      "name": "isSane",
      "outputs": [
        {
          "name": "",
          "type": "bool"
        }
      ],
      "payable": false,
      "stateMutability": "view",
      "type": "function"
    },
    {
      "constant": true,
      "inputs": [],
      "name": "getCurrentPrice",
      "outputs": [
        {
          "name": "result",
          "type": "uint256"
        }
      ],
      "payable": false,
      "stateMutability": "view",
      "type": "function"
    },
    {
      "constant": true,
      "inputs": [
        {
          "name": "value",
          "type": "uint256"
        },
        {
          "name": "weiRaised",
          "type": "uint256"
        },
        {
          "name": "tokensSold",
          "type": "uint256"
        },
        {
          "name": "msgSender",
          "type": "address"
        },
        {
          "name": "decimals",
          "type": "uint256"
        }
      ],
      "name": "calculatePrice",
      "outputs": [
        {
          "name": "",
          "type": "uint256"
        }
      ],
      "payable": false,
      "stateMutability": "view",
      "type": "function"
    },
    {
      "constant": true,
      "inputs": [
        {
          "name": "purchaser",
          "type": "address"
        }
      ],
      "name": "isPresalePurchase",
      "outputs": [
        {
          "name": "",
          "type": "bool"
        }
      ],
      "payable": false,
      "stateMutability": "view",
      "type": "function"
    }
  ],
  "bytecode": "0x60806040523480156200001157600080fd5b506040516200101c3803806200101c83398101806040528101908080518201929190505050600080336000806101000a81548173ffffffffffffffffffffffffffffffffffffffff021916908373ffffffffffffffffffffffffffffffffffffffff1602179055506001600284518115156200008957fe5b0614806200009c57506002600a02835110155b15620000a757600080fd5b60028351811515620000b557fe5b0460168190555060009150600090505b60028351811515620000d357fe5b04811015620001a9578260028202815181101515620000ee57fe5b90602001906020020151600282600a811015156200010857fe5b600202016000018190555082600160028302018151811015156200012857fe5b90602001906020020151600282600a811015156200014257fe5b60020201600101819055506000821415801562000176575081600282600a811015156200016b57fe5b600202016000015411155b156200018157600080fd5b600281600a811015156200019157fe5b600202016000015491508080600101915050620000c5565b60006002600160165403600a81101515620001c057fe5b6002020160010154141515620001d557600080fd5b505050610e3480620001e86000396000f3006080604052600436106100e6576000357c0100000000000000000000000000000000000000000000000000000000900463ffffffff16806304bbc255146100eb5780630681ca551461011a57806318a4155e146101455780632442e1cb146101c45780632c9a0a951461020c5780636f079f9014610237578063715018a6146102625780638da5cb5b146102795780638e768288146102d057806396821fc11461032b578063e474f97a14610356578063e89e4ed6146103a3578063eb91d37e146103eb578063f14ae17d14610416578063f1ef9a0814610471578063f2fde38b146104c8575b600080fd5b3480156100f757600080fd5b5061010061050b565b604051808215151515815260200191505060405180910390f35b34801561012657600080fd5b5061012f610514565b6040518082815260200191505060405180910390f35b34801561015157600080fd5b506101ae600480360381019080803590602001909291908035906020019092919080359060200190929190803573ffffffffffffffffffffffffffffffffffffffff1690602001909291908035906020019092919050505061051a565b6040518082815260200191505060405180910390f35b3480156101d057600080fd5b506101ef60048036038101908080359060200190929190505050610741565b604051808381526020018281526020019250505060405180910390f35b34801561021857600080fd5b5061022161077b565b6040518082815260200191505060405180910390f35b34801561024357600080fd5b5061024c61078e565b6040518082815260200191505060405180910390f35b34801561026e57600080fd5b506102776107a1565b005b34801561028557600080fd5b5061028e6108a3565b604051808273ffffffffffffffffffffffffffffffffffffffff1673ffffffffffffffffffffffffffffffffffffffff16815260200191505060405180910390f35b3480156102dc57600080fd5b50610311600480360381019080803573ffffffffffffffffffffffffffffffffffffffff1690602001909291905050506108c8565b604051808215151515815260200191505060405180910390f35b34801561033757600080fd5b50610340610a2e565b6040518082815260200191505060405180910390f35b34801561036257600080fd5b506103a1600480360381019080803573ffffffffffffffffffffffffffffffffffffffff16906020019092919080359060200190929190505050610a33565b005b3480156103af57600080fd5b506103ce60048036038101908080359060200190929190505050610ad6565b604051808381526020018281526020019250505060405180910390f35b3480156103f757600080fd5b50610400610aff565b6040518082815260200191505060405180910390f35b34801561042257600080fd5b50610457600480360381019080803573ffffffffffffffffffffffffffffffffffffffff169060200190929190505050610b12565b604051808215151515815260200191505060405180910390f35b34801561047d57600080fd5b506104b2600480360381019080803573ffffffffffffffffffffffffffffffffffffffff169060200190929190505050610b6e565b6040518082815260200191505060405180910390f35b3480156104d457600080fd5b50610509600480360381019080803573ffffffffffffffffffffffffffffffffffffffff169060200190929190505050610b86565b005b60006001905090565b60165481565b600080600083600a0a91506000600160008773ffffffffffffffffffffffffffffffffffffffff1673ffffffffffffffffffffffffffffffffffffffff16815260200190815260200160002054111561066e57600160008673ffffffffffffffffffffffffffffffffffffffff1673ffffffffffffffffffffffffffffffffffffffff168152602001908152602001600020548873__SafeMathLib___________________________631d3b9edf9091856040518363ffffffff167c0100000000000000000000000000000000000000000000000000000000028152600401808381526020018281526020019250505060206040518083038186803b15801561062257600080fd5b505af4158015610636573d6000803e3d6000fd5b505050506040513d602081101561064c57600080fd5b810190808051906020019092919050505081151561066657fe5b049250610736565b610676610aff565b9050808873__SafeMathLib___________________________631d3b9edf9091856040518363ffffffff167c0100000000000000000000000000000000000000000000000000000000028152600401808381526020018281526020019250505060206040518083038186803b1580156106ee57600080fd5b505af4158015610702573d6000803e3d6000fd5b505050506040513d602081101561071857600080fd5b810190808051906020019092919050505081151561073257fe5b0492505b505095945050505050565b600080600283600a8110151561075357fe5b6002020160000154600284600a8110151561076a57fe5b600202016001015491509150915091565b6000610785610bed565b60000151905090565b6000610798610c2d565b60000151905090565b6000809054906101000a900473ffffffffffffffffffffffffffffffffffffffff1673ffffffffffffffffffffffffffffffffffffffff163373ffffffffffffffffffffffffffffffffffffffff161415156107fc57600080fd5b6000809054906101000a900473ffffffffffffffffffffffffffffffffffffffff1673ffffffffffffffffffffffffffffffffffffffff167ff8df31144d9c2f0f6b59d69b8b98abd5459d07f2742c4df920b25aae33c6482060405160405180910390a260008060006101000a81548173ffffffffffffffffffffffffffffffffffffffff021916908373ffffffffffffffffffffffffffffffffffffffff160217905550565b6000809054906101000a900473ffffffffffffffffffffffffffffffffffffffff1681565b6000808290506108d661077b565b8173ffffffffffffffffffffffffffffffffffffffff1663af4686826040518163ffffffff167c0100000000000000000000000000000000000000000000000000000000028152600401602060405180830381600087803b15801561093a57600080fd5b505af115801561094e573d6000803e3d6000fd5b505050506040513d602081101561096457600080fd5b8101908080519060200190929190505050148015610a26575061098561078e565b8173ffffffffffffffffffffffffffffffffffffffff16630a09284a6040518163ffffffff167c0100000000000000000000000000000000000000000000000000000000028152600401602060405180830381600087803b1580156109e957600080fd5b505af11580156109fd573d6000803e3d6000fd5b505050506040513d6020811015610a1357600080fd5b8101908080519060200190929190505050145b915050919050565b600a81565b6000809054906101000a900473ffffffffffffffffffffffffffffffffffffffff1673ffffffffffffffffffffffffffffffffffffffff163373ffffffffffffffffffffffffffffffffffffffff16141515610a8e57600080fd5b80600160008473ffffffffffffffffffffffffffffffffffffffff1673ffffffffffffffffffffffffffffffffffffffff168152602001908152602001600020819055505050565b600281600a81101515610ae557fe5b600202016000915090508060000154908060010154905082565b6000610b09610c71565b60200151905090565b600080600160008473ffffffffffffffffffffffffffffffffffffffff1673ffffffffffffffffffffffffffffffffffffffff168152602001908152602001600020541115610b645760019050610b69565b600090505b919050565b60016020528060005260406000206000915090505481565b6000809054906101000a900473ffffffffffffffffffffffffffffffffffffffff1673ffffffffffffffffffffffffffffffffffffffff163373ffffffffffffffffffffffffffffffffffffffff16141515610be157600080fd5b610bea81610cf4565b50565b610bf5610dee565b60026000600a81101515610c0557fe5b6002020160408051908101604052908160008201548152602001600182015481525050905090565b610c35610dee565b6002600160165403600a81101515610c4957fe5b6002020160408051908101604052908160008201548152602001600182015481525050905090565b610c79610dee565b60008090505b600a811015610cef57600281600a81101515610c9757fe5b6002020160000154421015610ce257600260018203600a81101515610cb857fe5b60020201604080519081016040529081600082015481526020016001820154815250509150610cf0565b8080600101915050610c7f565b5b5090565b600073ffffffffffffffffffffffffffffffffffffffff168173ffffffffffffffffffffffffffffffffffffffff1614151515610d3057600080fd5b8073ffffffffffffffffffffffffffffffffffffffff166000809054906101000a900473ffffffffffffffffffffffffffffffffffffffff1673ffffffffffffffffffffffffffffffffffffffff167f8be0079c531659141344cd1fd0a4f28419497f9722a3daafe3b4186f6b6457e060405160405180910390a3806000806101000a81548173ffffffffffffffffffffffffffffffffffffffff021916908373ffffffffffffffffffffffffffffffffffffffff16021790555050565b6040805190810160405280600081526020016000815250905600a165627a7a7230582008f2997771a9fec6db6530c09bd64bb6e32d58ba1d4a9d0314c559f71bfc76840029",
  "source": "/**\n * This smart contract code is Copyright 2017 TokenMarket Ltd. For more information see https://tokenmarket.net\n *\n * Licensed under the Apache License, version 2.0: https://github.com/TokenMarketNet/ico/blob/master/LICENSE.txt\n */\n\npragma solidity ^0.4.6;\n\nimport \"./PricingStrategy.sol\";\nimport \"./Crowdsale.sol\";\nimport \"./SafeMathLib.sol\";\nimport \"zeppelin/contracts/ownership/Ownable.sol\";\n\n\n/// @dev Time milestone based pricing with special support for pre-ico deals.\ncontract MilestonePricing is PricingStrategy, Ownable {\n\n  using SafeMathLib for uint;\n\n  uint public constant MAX_MILESTONE = 10;\n\n  // This contains all pre-ICO addresses, and their prices (weis per token)\n  mapping (address => uint) public preicoAddresses;\n\n  /**\n  * Define pricing schedule using milestones.\n  */\n  struct Milestone {\n\n      // UNIX timestamp when this milestone kicks in\n      uint time;\n\n      // How many tokens per wei you will get after this milestone has been passed\n      uint price;\n  }\n\n  // Store milestones in a fixed array, so that it can be seen in a blockchain explorer\n  // Milestone 0 is always (0, 0)\n  // (TODO: change this when we confirm dynamic arrays are explorable)\n  Milestone[10] public milestones;\n\n  // How many active milestones we have\n  uint public milestoneCount;\n\n  /// @dev Contruction, creating a list of milestones\n  /// @param _milestones uint[] milestones Pairs of (time, price)\n  function MilestonePricing(uint[] _milestones) {\n    // Need to have tuples, length check\n    if(_milestones.length % 2 == 1 || _milestones.length >= MAX_MILESTONE*2) {\n      throw;\n    }\n\n    milestoneCount = _milestones.length / 2;\n\n    uint lastTimestamp = 0;\n\n    for(uint i=0; i<_milestones.length/2; i++) {\n      milestones[i].time = _milestones[i*2];\n      milestones[i].price = _milestones[i*2+1];\n\n      // No invalid steps\n      if((lastTimestamp != 0) && (milestones[i].time <= lastTimestamp)) {\n        throw;\n      }\n\n      lastTimestamp = milestones[i].time;\n    }\n\n    // Last milestone price must be zero, terminating the crowdale\n    if(milestones[milestoneCount-1].price != 0) {\n      throw;\n    }\n  }\n\n  /// @dev This is invoked once for every pre-ICO address, set pricePerToken\n  ///      to 0 to disable\n  /// @param preicoAddress PresaleFundCollector address\n  /// @param pricePerToken How many weis one token cost for pre-ico investors\n  function setPreicoAddress(address preicoAddress, uint pricePerToken)\n    public\n    onlyOwner\n  {\n    preicoAddresses[preicoAddress] = pricePerToken;\n  }\n\n  /// @dev Iterate through milestones. You reach end of milestones when price = 0\n  /// @return tuple (time, price)\n  function getMilestone(uint n) public constant returns (uint, uint) {\n    return (milestones[n].time, milestones[n].price);\n  }\n\n  function getFirstMilestone() private constant returns (Milestone) {\n    return milestones[0];\n  }\n\n  function getLastMilestone() private constant returns (Milestone) {\n    return milestones[milestoneCount-1];\n  }\n\n  function getPricingStartsAt() public constant returns (uint) {\n    return getFirstMilestone().time;\n  }\n\n  function getPricingEndsAt() public constant returns (uint) {\n    return getLastMilestone().time;\n  }\n\n  function isSane(address _crowdsale) public constant returns(bool) {\n    Crowdsale crowdsale = Crowdsale(_crowdsale);\n    return crowdsale.startsAt() == getPricingStartsAt() && crowdsale.endsAt() == getPricingEndsAt();\n  }\n\n  /// @dev Get the current milestone or bail out if we are not in the milestone periods.\n  /// @return {[type]} [description]\n  function getCurrentMilestone() private constant returns (Milestone) {\n    uint i;\n\n    for(i=0; i<milestones.length; i++) {\n      if(now < milestones[i].time) {\n        return milestones[i-1];\n      }\n    }\n  }\n\n  /// @dev Get the current price.\n  /// @return The current price or 0 if we are outside milestone period\n  function getCurrentPrice() public constant returns (uint result) {\n    return getCurrentMilestone().price;\n  }\n\n  /// @dev Calculate the current price for buy in amount.\n  function calculatePrice(uint value, uint weiRaised, uint tokensSold, address msgSender, uint decimals) public constant returns (uint) {\n\n    uint multiplier = 10 ** decimals;\n\n    // This investor is coming through pre-ico\n    if(preicoAddresses[msgSender] > 0) {\n      return value.times(multiplier) / preicoAddresses[msgSender];\n    }\n\n    uint price = getCurrentPrice();\n    return value.times(multiplier) / price;\n  }\n\n  function isPresalePurchase(address purchaser) public constant returns (bool) {\n    if(preicoAddresses[purchaser] > 0)\n      return true;\n    else\n      return false;\n  }\n\n  function() payable {\n    throw; // No money on this contract\n  }\n\n}\n",
  "sourcePath": "/home/otokarev/work/umbre/ico/contracts/MilestonePricing.sol",
  "compiler": {
    "name": "solc",
    "version": "0.4.24+commit.e67f0147.Emscripten.clang"
  },
  "schemaVersion": "2.0.1",
  "updatedAt": "2018-09-12T21:12:30.137Z"
}