{
  "contractName": "MintedTokenCapped2Crowdsale",
  "abi": [
    {
      "constant": true,
      "inputs": [],
      "name": "ownerTestValue",
      "outputs": [
        {
          "name": "",
          "type": "uint256"
        }
      ],
      "payable": false,
      "stateMutability": "view",
      "type": "function"
    },
    {
      "constant": true,
      "inputs": [],
      "name": "requireCustomerId",
      "outputs": [
        {
          "name": "",
          "type": "bool"
        }
      ],
      "payable": false,
      "stateMutability": "view",
      "type": "function"
    },
    {
      "constant": false,
      "inputs": [
        {
          "name": "addr",
          "type": "address"
        }
      ],
      "name": "invest",
      "outputs": [],
      "payable": true,
      "stateMutability": "payable",
      "type": "function"
    },
    {
      "constant": true,
      "inputs": [],
      "name": "isPricingSane",
      "outputs": [
        {
          "name": "sane",
          "type": "bool"
        }
      ],
      "payable": false,
      "stateMutability": "view",
      "type": "function"
    },
    {
      "constant": true,
      "inputs": [],
      "name": "endsAt",
      "outputs": [
        {
          "name": "",
          "type": "uint256"
        }
      ],
      "payable": false,
      "stateMutability": "view",
      "type": "function"
    },
    {
      "constant": true,
      "inputs": [],
      "name": "minimumFundingGoal",
      "outputs": [
        {
          "name": "",
          "type": "uint256"
        }
      ],
      "payable": false,
      "stateMutability": "view",
      "type": "function"
    },
    {
      "constant": true,
      "inputs": [],
      "name": "getState",
      "outputs": [
        {
          "name": "",
          "type": "uint8"
        }
      ],
      "payable": false,
      "stateMutability": "view",
      "type": "function"
    },
    {
      "constant": false,
      "inputs": [
        {
          "name": "addr",
          "type": "address"
        }
      ],
      "name": "setFinalizeAgent",
      "outputs": [],
      "payable": false,
      "stateMutability": "nonpayable",
      "type": "function"
    },
    {
      "constant": false,
      "inputs": [
        {
          "name": "addr",
          "type": "address"
        },
        {
          "name": "customerId",
          "type": "uint128"
        },
        {
          "name": "v",
          "type": "uint8"
        },
        {
          "name": "r",
          "type": "bytes32"
        },
        {
          "name": "s",
          "type": "bytes32"
        }
      ],
      "name": "investWithSignedAddress",
      "outputs": [],
      "payable": true,
      "stateMutability": "payable",
      "type": "function"
    },
    {
      "constant": true,
      "inputs": [
        {
          "name": "",
          "type": "address"
        }
      ],
      "name": "investedAmountOf",
      "outputs": [
        {
          "name": "",
          "type": "uint256"
        }
      ],
      "payable": false,
      "stateMutability": "view",
      "type": "function"
    },
    {
      "constant": true,
      "inputs": [],
      "name": "finalizeAgent",
      "outputs": [
        {
          "name": "",
          "type": "address"
        }
      ],
      "payable": false,
      "stateMutability": "view",
      "type": "function"
    },
    {
      "constant": true,
      "inputs": [
        {
          "name": "",
          "type": "uint256"
        }
      ],
      "name": "tranches",
      "outputs": [
        {
          "name": "startAt",
          "type": "uint256"
        },
        {
          "name": "amount",
          "type": "uint256"
        }
      ],
      "payable": false,
      "stateMutability": "view",
      "type": "function"
    },
    {
      "constant": false,
      "inputs": [
        {
          "name": "receiver",
          "type": "address"
        },
        {
          "name": "fullTokens",
          "type": "uint256"
        },
        {
          "name": "weiPrice",
          "type": "uint256"
        }
      ],
      "name": "preallocate",
      "outputs": [],
      "payable": false,
      "stateMutability": "nonpayable",
      "type": "function"
    },
    {
      "constant": true,
      "inputs": [],
      "name": "maximumSellableTokens",
      "outputs": [
        {
          "name": "",
          "type": "uint256"
        }
      ],
      "payable": false,
      "stateMutability": "view",
      "type": "function"
    },
    {
      "constant": true,
      "inputs": [],
      "name": "weiRaised",
      "outputs": [
        {
          "name": "",
          "type": "uint256"
        }
      ],
      "payable": false,
      "stateMutability": "view",
      "type": "function"
    },
    {
      "constant": true,
      "inputs": [],
      "name": "isLastTrancheUnlocked",
      "outputs": [
        {
          "name": "",
          "type": "bool"
        }
      ],
      "payable": false,
      "stateMutability": "view",
      "type": "function"
    },
    {
      "constant": true,
      "inputs": [],
      "name": "isCrowdsale",
      "outputs": [
        {
          "name": "",
          "type": "bool"
        }
      ],
      "payable": false,
      "stateMutability": "view",
      "type": "function"
    },
    {
      "constant": false,
      "inputs": [],
      "name": "finalize",
      "outputs": [],
      "payable": false,
      "stateMutability": "nonpayable",
      "type": "function"
    },
    {
      "constant": false,
      "inputs": [
        {
          "name": "_pricingStrategy",
          "type": "address"
        }
      ],
      "name": "setPricingStrategy",
      "outputs": [],
      "payable": false,
      "stateMutability": "nonpayable",
      "type": "function"
    },
    {
      "constant": true,
      "inputs": [],
      "name": "tokensSold",
      "outputs": [
        {
          "name": "",
          "type": "uint256"
        }
      ],
      "payable": false,
      "stateMutability": "view",
      "type": "function"
    },
    {
      "constant": false,
      "inputs": [],
      "name": "refund",
      "outputs": [],
      "payable": false,
      "stateMutability": "nonpayable",
      "type": "function"
    },
    {
      "constant": true,
      "inputs": [],
      "name": "trancheCount",
      "outputs": [
        {
          "name": "",
          "type": "uint256"
        }
      ],
      "payable": false,
      "stateMutability": "view",
      "type": "function"
    },
    {
      "constant": true,
      "inputs": [],
      "name": "signerAddress",
      "outputs": [
        {
          "name": "",
          "type": "address"
        }
      ],
      "payable": false,
      "stateMutability": "view",
      "type": "function"
    },
    {
      "constant": true,
      "inputs": [],
      "name": "weiRefunded",
      "outputs": [
        {
          "name": "",
          "type": "uint256"
        }
      ],
      "payable": false,
      "stateMutability": "view",
      "type": "function"
    },
    {
      "constant": false,
      "inputs": [],
      "name": "halt",
      "outputs": [],
      "payable": false,
      "stateMutability": "nonpayable",
      "type": "function"
    },
    {
      "constant": true,
      "inputs": [],
      "name": "MAX_INVESTMENTS_BEFORE_MULTISIG_CHANGE",
      "outputs": [
        {
          "name": "",
          "type": "uint256"
        }
      ],
      "payable": false,
      "stateMutability": "view",
      "type": "function"
    },
    {
      "constant": false,
      "inputs": [
        {
          "name": "customerId",
          "type": "uint128"
        },
        {
          "name": "checksum",
          "type": "bytes1"
        }
      ],
      "name": "buyWithCustomerIdWithChecksum",
      "outputs": [],
      "payable": true,
      "stateMutability": "payable",
      "type": "function"
    },
    {
      "constant": false,
      "inputs": [
        {
          "name": "time",
          "type": "uint256"
        }
      ],
      "name": "setEndsAt",
      "outputs": [],
      "payable": false,
      "stateMutability": "nonpayable",
      "type": "function"
    },
    {
      "constant": false,
      "inputs": [],
      "name": "renounceOwnership",
      "outputs": [],
      "payable": false,
      "stateMutability": "nonpayable",
      "type": "function"
    },
    {
      "constant": true,
      "inputs": [],
      "name": "pricingStrategy",
      "outputs": [
        {
          "name": "",
          "type": "address"
        }
      ],
      "payable": false,
      "stateMutability": "view",
      "type": "function"
    },
    {
      "constant": true,
      "inputs": [],
      "name": "loadedRefund",
      "outputs": [
        {
          "name": "",
          "type": "uint256"
        }
      ],
      "payable": false,
      "stateMutability": "view",
      "type": "function"
    },
    {
      "constant": true,
      "inputs": [],
      "name": "isMinimumGoalReached",
      "outputs": [
        {
          "name": "reached",
          "type": "bool"
        }
      ],
      "payable": false,
      "stateMutability": "view",
      "type": "function"
    },
    {
      "constant": false,
      "inputs": [
        {
          "name": "value",
          "type": "bool"
        }
      ],
      "name": "setRequireCustomerId",
      "outputs": [],
      "payable": false,
      "stateMutability": "nonpayable",
      "type": "function"
    },
    {
      "constant": true,
      "inputs": [],
      "name": "logsLength",
      "outputs": [
        {
          "name": "",
          "type": "uint256"
        }
      ],
      "payable": false,
      "stateMutability": "view",
      "type": "function"
    },
    {
      "constant": false,
      "inputs": [],
      "name": "loadRefund",
      "outputs": [],
      "payable": true,
      "stateMutability": "payable",
      "type": "function"
    },
    {
      "constant": true,
      "inputs": [],
      "name": "MAX_TRANCHES",
      "outputs": [
        {
          "name": "",
          "type": "uint256"
        }
      ],
      "payable": false,
      "stateMutability": "view",
      "type": "function"
    },
    {
      "constant": false,
      "inputs": [
        {
          "name": "val",
          "type": "uint256"
        }
      ],
      "name": "setOwnerTestValue",
      "outputs": [],
      "payable": false,
      "stateMutability": "nonpayable",
      "type": "function"
    },
    {
      "constant": true,
      "inputs": [],
      "name": "owner",
      "outputs": [
        {
          "name": "",
          "type": "address"
        }
      ],
      "payable": false,
      "stateMutability": "view",
      "type": "function"
    },
    {
      "constant": true,
      "inputs": [
        {
          "name": "weisTotal",
          "type": "uint256"
        },
        {
          "name": "pricePerToken",
          "type": "uint256"
        }
      ],
      "name": "calculateTokens",
      "outputs": [
        {
          "name": "tokensTotal",
          "type": "uint256"
        }
      ],
      "payable": false,
      "stateMutability": "view",
      "type": "function"
    },
    {
      "constant": true,
      "inputs": [],
      "name": "multisigWallet",
      "outputs": [
        {
          "name": "",
          "type": "address"
        }
      ],
      "payable": false,
      "stateMutability": "view",
      "type": "function"
    },
    {
      "constant": true,
      "inputs": [
        {
          "name": "",
          "type": "address"
        }
      ],
      "name": "tokenAmountOf",
      "outputs": [
        {
          "name": "",
          "type": "uint256"
        }
      ],
      "payable": false,
      "stateMutability": "view",
      "type": "function"
    },
    {
      "constant": false,
      "inputs": [
        {
          "name": "customerId",
          "type": "uint128"
        }
      ],
      "name": "buyWithCustomerId",
      "outputs": [],
      "payable": true,
      "stateMutability": "payable",
      "type": "function"
    },
    {
      "constant": false,
      "inputs": [],
      "name": "buy",
      "outputs": [],
      "payable": true,
      "stateMutability": "payable",
      "type": "function"
    },
    {
      "constant": true,
      "inputs": [],
      "name": "isFinalizerSane",
      "outputs": [
        {
          "name": "sane",
          "type": "bool"
        }
      ],
      "payable": false,
      "stateMutability": "view",
      "type": "function"
    },
    {
      "constant": true,
      "inputs": [],
      "name": "startsAt",
      "outputs": [
        {
          "name": "",
          "type": "uint256"
        }
      ],
      "payable": false,
      "stateMutability": "view",
      "type": "function"
    },
    {
      "constant": true,
      "inputs": [],
      "name": "finalized",
      "outputs": [
        {
          "name": "",
          "type": "bool"
        }
      ],
      "payable": false,
      "stateMutability": "view",
      "type": "function"
    },
    {
      "constant": true,
      "inputs": [],
      "name": "halted",
      "outputs": [
        {
          "name": "",
          "type": "bool"
        }
      ],
      "payable": false,
      "stateMutability": "view",
      "type": "function"
    },
    {
      "constant": true,
      "inputs": [
        {
          "name": "",
          "type": "address"
        }
      ],
      "name": "earlyParticipantWhitelist",
      "outputs": [
        {
          "name": "",
          "type": "bool"
        }
      ],
      "payable": false,
      "stateMutability": "view",
      "type": "function"
    },
    {
      "constant": false,
      "inputs": [],
      "name": "unhalt",
      "outputs": [],
      "payable": false,
      "stateMutability": "nonpayable",
      "type": "function"
    },
    {
      "constant": true,
      "inputs": [],
      "name": "requiredSignedAddress",
      "outputs": [
        {
          "name": "",
          "type": "bool"
        }
      ],
      "payable": false,
      "stateMutability": "view",
      "type": "function"
    },
    {
      "constant": true,
      "inputs": [],
      "name": "investorCount",
      "outputs": [
        {
          "name": "",
          "type": "uint256"
        }
      ],
      "payable": false,
      "stateMutability": "view",
      "type": "function"
    },
    {
      "constant": true,
      "inputs": [
        {
          "name": "",
          "type": "uint256"
        }
      ],
      "name": "logs",
      "outputs": [
        {
          "name": "",
          "type": "string"
        }
      ],
      "payable": false,
      "stateMutability": "view",
      "type": "function"
    },
    {
      "constant": false,
      "inputs": [
        {
          "name": "addr",
          "type": "address"
        },
        {
          "name": "status",
          "type": "bool"
        }
      ],
      "name": "setEarlyParicipantWhitelist",
      "outputs": [],
      "payable": false,
      "stateMutability": "nonpayable",
      "type": "function"
    },
    {
      "constant": false,
      "inputs": [
        {
          "name": "value",
          "type": "bool"
        },
        {
          "name": "_signerAddress",
          "type": "address"
        }
      ],
      "name": "setRequireSignedAddress",
      "outputs": [],
      "payable": false,
      "stateMutability": "nonpayable",
      "type": "function"
    },
    {
      "constant": false,
      "inputs": [
        {
          "name": "addr",
          "type": "address"
        },
        {
          "name": "customerId",
          "type": "uint128"
        }
      ],
      "name": "investWithCustomerId",
      "outputs": [],
      "payable": true,
      "stateMutability": "payable",
      "type": "function"
    },
    {
      "constant": false,
      "inputs": [
        {
          "name": "_newOwner",
          "type": "address"
        }
      ],
      "name": "transferOwnership",
      "outputs": [],
      "payable": false,
      "stateMutability": "nonpayable",
      "type": "function"
    },
    {
      "constant": false,
      "inputs": [
        {
          "name": "addr",
          "type": "address"
        }
      ],
      "name": "setMultisig",
      "outputs": [],
      "payable": false,
      "stateMutability": "nonpayable",
      "type": "function"
    },
    {
      "constant": false,
      "inputs": [
        {
          "name": "customerId",
          "type": "uint128"
        },
        {
          "name": "v",
          "type": "uint8"
        },
        {
          "name": "r",
          "type": "bytes32"
        },
        {
          "name": "s",
          "type": "bytes32"
        }
      ],
      "name": "buyWithSignedAddress",
      "outputs": [],
      "payable": true,
      "stateMutability": "payable",
      "type": "function"
    },
    {
      "constant": true,
      "inputs": [],
      "name": "presaleWeiRaised",
      "outputs": [
        {
          "name": "",
          "type": "uint256"
        }
      ],
      "payable": false,
      "stateMutability": "view",
      "type": "function"
    },
    {
      "constant": true,
      "inputs": [],
      "name": "token",
      "outputs": [
        {
          "name": "",
          "type": "address"
        }
      ],
      "payable": false,
      "stateMutability": "view",
      "type": "function"
    },
    {
      "inputs": [
        {
          "name": "_token",
          "type": "address"
        },
        {
          "name": "_pricingStrategy",
          "type": "address"
        },
        {
          "name": "_multisigWallet",
          "type": "address"
        },
        {
          "name": "_start",
          "type": "uint256"
        },
        {
          "name": "_end",
          "type": "uint256"
        },
        {
          "name": "_minimumFundingGoal",
          "type": "uint256"
        },
        {
          "name": "_sellableTokensTranches",
          "type": "uint256[]"
        }
      ],
      "payable": false,
      "stateMutability": "nonpayable",
      "type": "constructor"
    },
    {
      "payable": true,
      "stateMutability": "payable",
      "type": "fallback"
    },
    {
      "anonymous": false,
      "inputs": [
        {
          "indexed": false,
          "name": "investor",
          "type": "address"
        },
        {
          "indexed": false,
          "name": "weiAmount",
          "type": "uint256"
        },
        {
          "indexed": false,
          "name": "tokenAmount",
          "type": "uint256"
        },
        {
          "indexed": false,
          "name": "customerId",
          "type": "uint128"
        }
      ],
      "name": "Invested",
      "type": "event"
    },
    {
      "anonymous": false,
      "inputs": [
        {
          "indexed": false,
          "name": "investor",
          "type": "address"
        },
        {
          "indexed": false,
          "name": "weiAmount",
          "type": "uint256"
        }
      ],
      "name": "Refund",
      "type": "event"
    },
    {
      "anonymous": false,
      "inputs": [
        {
          "indexed": false,
          "name": "newRequireCustomerId",
          "type": "bool"
        },
        {
          "indexed": false,
          "name": "newRequiredSignedAddress",
          "type": "bool"
        },
        {
          "indexed": false,
          "name": "newSignerAddress",
          "type": "address"
        }
      ],
      "name": "InvestmentPolicyChanged",
      "type": "event"
    },
    {
      "anonymous": false,
      "inputs": [
        {
          "indexed": false,
          "name": "addr",
          "type": "address"
        },
        {
          "indexed": false,
          "name": "status",
          "type": "bool"
        }
      ],
      "name": "Whitelisted",
      "type": "event"
    },
    {
      "anonymous": false,
      "inputs": [
        {
          "indexed": false,
          "name": "newEndsAt",
          "type": "uint256"
        }
      ],
      "name": "EndsAtChanged",
      "type": "event"
    },
    {
      "anonymous": false,
      "inputs": [
        {
          "indexed": true,
          "name": "previousOwner",
          "type": "address"
        }
      ],
      "name": "OwnershipRenounced",
      "type": "event"
    },
    {
      "anonymous": false,
      "inputs": [
        {
          "indexed": true,
          "name": "previousOwner",
          "type": "address"
        },
        {
          "indexed": true,
          "name": "newOwner",
          "type": "address"
        }
      ],
      "name": "OwnershipTransferred",
      "type": "event"
    },
    {
      "constant": true,
      "inputs": [
        {
          "name": "weiAmount",
          "type": "uint256"
        },
        {
          "name": "tokenAmount",
          "type": "uint256"
        },
        {
          "name": "weiRaisedTotal",
          "type": "uint256"
        },
        {
          "name": "tokensSoldTotal",
          "type": "uint256"
        }
      ],
      "name": "isBreakingCap",
      "outputs": [
        {
          "name": "limitBroken",
          "type": "bool"
        }
      ],
      "payable": false,
      "stateMutability": "view",
      "type": "function"
    },
    {
      "constant": true,
      "inputs": [],
      "name": "isCrowdsaleFull",
      "outputs": [
        {
          "name": "",
          "type": "bool"
        }
      ],
      "payable": false,
      "stateMutability": "view",
      "type": "function"
    }
  ],
  "bytecode": "0x6080604052600560015560006009556000600a556000600b556000600c556000600d556000600e556000602a60006101000a81548160ff0219169083151502179055503480156200004f57600080fd5b5060405162004e4738038062004e4783398101806040528101908080519060200190929190805190602001909291908051906020019092919080519060200190929190805190602001909291908051906020019092919080518201929190505050600080888888888888858585858585336000806101000a81548173ffffffffffffffffffffffffffffffffffffffff021916908373ffffffffffffffffffffffffffffffffffffffff160217905550336000806101000a81548173ffffffffffffffffffffffffffffffffffffffff021916908373ffffffffffffffffffffffffffffffffffffffff16021790555085600260006101000a81548173ffffffffffffffffffffffffffffffffffffffff021916908373ffffffffffffffffffffffffffffffffffffffff1602179055506200019a856200041b640100000000026401000000009004565b83600560006101000a81548173ffffffffffffffffffffffffffffffffffffffff021916908373ffffffffffffffffffffffffffffffffffffffff1602179055506000600560009054906101000a900473ffffffffffffffffffffffffffffffffffffffff1673ffffffffffffffffffffffffffffffffffffffff1614156200022257600080fd5b60008314156200023157600080fd5b8260078190555060008214156200024757600080fd5b816008819055506008546007541015156200026157600080fd5b806006819055505050505050505050505050506001600284518115156200028457fe5b0614806200029757506002600a02835110155b15620002a257600080fd5b620002f16040805190810160405280600581526020017f53746172740000000000000000000000000000000000000000000000000000008152506200058b640100000000026401000000009004565b60028351811515620002ff57fe5b0460298190555060009150600090505b600283518115156200031d57fe5b04811015620003f35782600282028151811015156200033857fe5b90602001906020020151601582600a811015156200035257fe5b600202016000018190555082600160028302018151811015156200037257fe5b90602001906020020151601582600a811015156200038c57fe5b600202016001018190555060008214158015620003c0575081601582600a81101515620003b557fe5b600202016001015411155b15620003cb57600080fd5b601581600a81101515620003db57fe5b6002020160010154915080806001019150506200030f565b6200040c620005cb640100000000026401000000009004565b505050505050505050620009de565b6000809054906101000a900473ffffffffffffffffffffffffffffffffffffffff1673ffffffffffffffffffffffffffffffffffffffff163373ffffffffffffffffffffffffffffffffffffffff161415156200047757600080fd5b80600360006101000a81548173ffffffffffffffffffffffffffffffffffffffff021916908373ffffffffffffffffffffffffffffffffffffffff160217905550600360009054906101000a900473ffffffffffffffffffffffffffffffffffffffff1673ffffffffffffffffffffffffffffffffffffffff166304bbc2556040518163ffffffff167c0100000000000000000000000000000000000000000000000000000000028152600401602060405180830381600087803b1580156200053f57600080fd5b505af115801562000554573d6000803e3d6000fd5b505050506040513d60208110156200056b57600080fd5b810190808051906020019092919050505015156200058857600080fd5b50565b80602c6000602d5481526020019081526020016000209080519060200190620005b69291906200092f565b506001602d6000828254019250508190555050565b60006200061c6040805190810160405280600a81526020017f696e6372656173652829000000000000000000000000000000000000000000008152506200058b640100000000026401000000009004565b602a60009054906101000a900460ff16156200068757620006816040805190810160405280601281526020017f756e6c6f636b656420736f2072657475726e00000000000000000000000000008152506200058b640100000000026401000000009004565b620007ca565b600090505b600a811015620007515742601582600a81101515620006a757fe5b6002020160000154108015620006d457506000601582600a81101515620006ca57fe5b6002020160010154115b156200074357620007246200070f601583600a81101515620006f257fe5b6002020160010154620007cd640100000000026401000000009004565b6200058b640100000000026401000000009004565b601581600a811015156200073457fe5b6002020160010154602b819055505b80806001019150506200068c565b806001600a031415620007c9576001602a60006101000a81548160ff021916908315150217905550620007c86040805190810160405280600a81526020017f736574206c6f636b6564000000000000000000000000000000000000000000008152506200058b640100000000026401000000009004565b5b5b50565b606060008060606000808614156200081d576040805190810160405280600181526020017f3000000000000000000000000000000000000000000000000000000000000000815250945062000926565b8593505b6000841415156200084a578280600101935050600a848115156200084157fe5b04935062000821565b826040519080825280601f01601f1916602001820160405280156200087e5781602001602082028038833980820191505090505b5091506001830390505b6000861415156200092257600a86811515620008a057fe5b066030017f010000000000000000000000000000000000000000000000000000000000000002828280600190039350815181101515620008dc57fe5b9060200101907effffffffffffffffffffffffffffffffffffffffffffffffffffffffffffff1916908160001a905350600a868115156200091957fe5b04955062000888565b8194505b50505050919050565b828054600181600116156101000203166002900490600052602060002090601f016020900481019282601f106200097257805160ff1916838001178555620009a3565b82800160010185558215620009a3579182015b82811115620009a257825182559160200191906001019062000985565b5b509050620009b29190620009b6565b5090565b620009db91905b80821115620009d7576000816000905550600101620009bd565b5090565b90565b61445980620009ee6000396000f3006080604052600436106102e0576000357c0100000000000000000000000000000000000000000000000000000000900463ffffffff1680630226401d146102e557806303ca0eed1461031057806303f9c7931461033f578063062b01ce146103755780630a09284a146103a457806313f4e977146103cf5780631865c57d146103fa57806319b667da146104335780631a49803b146104765780631aae3460146104f157806321d5c0f61461054857806326c259621461059f57806332013ac3146105e75780633ad075ea1461063e5780634042b66f146106695780634375b743146106945780634551dd59146106c35780634bb278f3146106f257806350c6773414610709578063518ab2a81461074c578063590e1ae31461077757806359eb82241461078e5780635b7633d0146107b95780635da89ac0146108105780635ed7ca5b1461083b5780636203f09f1461085257806363c6082f1461087d5780636e50eb3f146108db578063715018a61461090857806378b99c241461091f578063797d9437146109765780637c2e08a3146109a15780637f7d711e146109d0578063813427f9146109ff5780638761210214610a2a57806389506a4414610a345780638d51faec14610a5f5780638da5cb5b14610a8c578063903cc58314610ae35780639075becf14610b2e57806397b150ca14610b8557806399e9376c14610bdc5780639d3c663f14610c0e578063a6f2ae3a14610c71578063a7ba44c314610c7b578063af46868214610caa578063b3f05b9714610cd5578063b9b8af0b14610d04578063cb16e6d014610d33578063cb3e64fd14610d8e578063d222dc0414610da5578063d5d0902114610dd4578063d7e64c0014610e03578063e79899bd14610e2e578063eac2493214610ed4578063ed68ff2c14610f23578063ef86944314610f72578063f2fde38b14610fc4578063f3283fba14611007578063f48697261461104a578063f7c00e2f146110a5578063fc0c546a146110d0575b600080fd5b3480156102f157600080fd5b506102fa611127565b6040518082815260200191505060405180910390f35b34801561031c57600080fd5b5061032561112d565b604051808215151515815260200191505060405180910390f35b610373600480360381019080803573ffffffffffffffffffffffffffffffffffffffff169060200190929190505050611140565b005b34801561038157600080fd5b5061038a611183565b604051808215151515815260200191505060405180910390f35b3480156103b057600080fd5b506103b9611282565b6040518082815260200191505060405180910390f35b3480156103db57600080fd5b506103e4611288565b6040518082815260200191505060405180910390f35b34801561040657600080fd5b5061040f61128e565b6040518082600781111561041f57fe5b60ff16815260200191505060405180910390f35b34801561043f57600080fd5b50610474600480360381019080803573ffffffffffffffffffffffffffffffffffffffff16906020019092919050505061155a565b005b6104ef600480360381019080803573ffffffffffffffffffffffffffffffffffffffff16906020019092919080356fffffffffffffffffffffffffffffffff169060200190929190803560ff169060200190929190803560001916906020019092919080356000191690602001909291905050506116c5565b005b3480156104fd57600080fd5b50610532600480360381019080803573ffffffffffffffffffffffffffffffffffffffff169060200190929190505050611868565b6040518082815260200191505060405180910390f35b34801561055457600080fd5b5061055d611880565b604051808273ffffffffffffffffffffffffffffffffffffffff1673ffffffffffffffffffffffffffffffffffffffff16815260200191505060405180910390f35b3480156105ab57600080fd5b506105ca600480360381019080803590602001909291905050506118a6565b604051808381526020018281526020019250505060405180910390f35b3480156105f357600080fd5b5061063c600480360381019080803573ffffffffffffffffffffffffffffffffffffffff16906020019092919080359060200190929190803590602001909291905050506118cf565b005b34801561064a57600080fd5b50610653611e6d565b6040518082815260200191505060405180910390f35b34801561067557600080fd5b5061067e611e73565b6040518082815260200191505060405180910390f35b3480156106a057600080fd5b506106a9611e79565b604051808215151515815260200191505060405180910390f35b3480156106cf57600080fd5b506106d8611e8c565b604051808215151515815260200191505060405180910390f35b3480156106fe57600080fd5b50610707611e95565b005b34801561071557600080fd5b5061074a600480360381019080803573ffffffffffffffffffffffffffffffffffffffff169060200190929190505050612050565b005b34801561075857600080fd5b506107616121bb565b6040518082815260200191505060405180910390f35b34801561078357600080fd5b5061078c6121c1565b005b34801561079a57600080fd5b506107a36123ec565b6040518082815260200191505060405180910390f35b3480156107c557600080fd5b506107ce6123f2565b604051808273ffffffffffffffffffffffffffffffffffffffff1673ffffffffffffffffffffffffffffffffffffffff16815260200191505060405180910390f35b34801561081c57600080fd5b50610825612418565b6040518082815260200191505060405180910390f35b34801561084757600080fd5b5061085061241e565b005b34801561085e57600080fd5b50610867612496565b6040518082815260200191505060405180910390f35b6108d960048036038101908080356fffffffffffffffffffffffffffffffff16906020019092919080357effffffffffffffffffffffffffffffffffffffffffffffffffffffffffffff1916906020019092919050505061249c565b005b3480156108e757600080fd5b5061090660048036038101908080359060200190929190505050612548565b005b34801561091457600080fd5b5061091d612602565b005b34801561092b57600080fd5b50610934612704565b604051808273ffffffffffffffffffffffffffffffffffffffff1673ffffffffffffffffffffffffffffffffffffffff16815260200191505060405180910390f35b34801561098257600080fd5b5061098b61272a565b6040518082815260200191505060405180910390f35b3480156109ad57600080fd5b506109b6612730565b604051808215151515815260200191505060405180910390f35b3480156109dc57600080fd5b506109fd60048036038101908080351515906020019092919050505061273f565b005b348015610a0b57600080fd5b50610a14612872565b6040518082815260200191505060405180910390f35b610a32612878565b005b348015610a4057600080fd5b50610a4961296e565b6040518082815260200191505060405180910390f35b348015610a6b57600080fd5b50610a8a60048036038101908080359060200190929190505050612973565b005b348015610a9857600080fd5b50610aa16129d8565b604051808273ffffffffffffffffffffffffffffffffffffffff1673ffffffffffffffffffffffffffffffffffffffff16815260200191505060405180910390f35b348015610aef57600080fd5b50610b1860048036038101908080359060200190929190803590602001909291905050506129fd565b6040518082815260200191505060405180910390f35b348015610b3a57600080fd5b50610b43612b8a565b604051808273ffffffffffffffffffffffffffffffffffffffff1673ffffffffffffffffffffffffffffffffffffffff16815260200191505060405180910390f35b348015610b9157600080fd5b50610bc6600480360381019080803573ffffffffffffffffffffffffffffffffffffffff169060200190929190505050612bb0565b6040518082815260200191505060405180910390f35b610c0c60048036038101908080356fffffffffffffffffffffffffffffffff169060200190929190505050612bc8565b005b348015610c1a57600080fd5b50610c5760048036038101908080359060200190929190803590602001909291908035906020019092919080359060200190929190505050612bd5565b604051808215151515815260200191505060405180910390f35b610c79612c68565b005b348015610c8757600080fd5b50610c90612c73565b604051808215151515815260200191505060405180910390f35b348015610cb657600080fd5b50610cbf612d3b565b6040518082815260200191505060405180910390f35b348015610ce157600080fd5b50610cea612d41565b604051808215151515815260200191505060405180910390f35b348015610d1057600080fd5b50610d19612d54565b604051808215151515815260200191505060405180910390f35b348015610d3f57600080fd5b50610d74600480360381019080803573ffffffffffffffffffffffffffffffffffffffff169060200190929190505050612d67565b604051808215151515815260200191505060405180910390f35b348015610d9a57600080fd5b50610da3612d87565b005b348015610db157600080fd5b50610dba612e19565b604051808215151515815260200191505060405180910390f35b348015610de057600080fd5b50610de9612e2c565b604051808215151515815260200191505060405180910390f35b348015610e0f57600080fd5b50610e18612e79565b6040518082815260200191505060405180910390f35b348015610e3a57600080fd5b50610e5960048036038101908080359060200190929190505050612e7f565b6040518080602001828103825283818151815260200191508051906020019080838360005b83811015610e99578082015181840152602081019050610e7e565b50505050905090810190601f168015610ec65780820380516001836020036101000a031916815260200191505b509250505060405180910390f35b348015610ee057600080fd5b50610f21600480360381019080803573ffffffffffffffffffffffffffffffffffffffff169060200190929190803515159060200190929190505050612f2f565b005b348015610f2f57600080fd5b50610f70600480360381019080803515159060200190929190803573ffffffffffffffffffffffffffffffffffffffff169060200190929190505050613054565b005b610fc2600480360381019080803573ffffffffffffffffffffffffffffffffffffffff16906020019092919080356fffffffffffffffffffffffffffffffff1690602001909291905050506131c9565b005b348015610fd057600080fd5b50611005600480360381019080803573ffffffffffffffffffffffffffffffffffffffff169060200190929190505050613212565b005b34801561101357600080fd5b50611048600480360381019080803573ffffffffffffffffffffffffffffffffffffffff169060200190929190505050613279565b005b6110a360048036038101908080356fffffffffffffffffffffffffffffffff169060200190929190803560ff16906020019092919080356000191690602001909291908035600019169060200190929190505050613329565b005b3480156110b157600080fd5b506110ba61333c565b6040518082815260200191505060405180910390f35b3480156110dc57600080fd5b506110e5613342565b604051808273ffffffffffffffffffffffffffffffffffffffff1673ffffffffffffffffffffffffffffffffffffffff16815260200191505060405180910390f35b60135481565b601460009054906101000a900460ff1681565b601460009054906101000a900460ff161561115a57600080fd5b601460019054906101000a900460ff161561117457600080fd5b61117f816000613368565b5050565b6000600360009054906101000a900473ffffffffffffffffffffffffffffffffffffffff1673ffffffffffffffffffffffffffffffffffffffff16638e768288306040518263ffffffff167c0100000000000000000000000000000000000000000000000000000000028152600401808273ffffffffffffffffffffffffffffffffffffffff1673ffffffffffffffffffffffffffffffffffffffff168152602001915050602060405180830381600087803b15801561124257600080fd5b505af1158015611256573d6000803e3d6000fd5b505050506040513d602081101561126c57600080fd5b8101908080519060200190929190505050905090565b60085481565b60065481565b6000600f60009054906101000a900460ff16156112ae5760069050611557565b6000600460009054906101000a900473ffffffffffffffffffffffffffffffffffffffff1673ffffffffffffffffffffffffffffffffffffffff1614156112f85760019050611557565b600460009054906101000a900473ffffffffffffffffffffffffffffffffffffffff1673ffffffffffffffffffffffffffffffffffffffff166382771c8e6040518163ffffffff167c0100000000000000000000000000000000000000000000000000000000028152600401602060405180830381600087803b15801561137e57600080fd5b505af1158015611392573d6000803e3d6000fd5b505050506040513d60208110156113a857600080fd5b810190808051906020019092919050505015156113c85760019050611557565b600360009054906101000a900473ffffffffffffffffffffffffffffffffffffffff1673ffffffffffffffffffffffffffffffffffffffff16638e768288306040518263ffffffff167c0100000000000000000000000000000000000000000000000000000000028152600401808273ffffffffffffffffffffffffffffffffffffffff1673ffffffffffffffffffffffffffffffffffffffff168152602001915050602060405180830381600087803b15801561148557600080fd5b505af1158015611499573d6000803e3d6000fd5b505050506040513d60208110156114af57600080fd5b810190808051906020019092919050505015156114cf5760019050611557565b6007544210156114e25760029050611557565b60085442111580156114f957506114f7612e2c565b155b156115075760039050611557565b61150f612730565b1561151d5760049050611557565b611525612730565b15801561153457506000600a54115b80156115445750600a54600d5410155b156115525760079050611557565b600590505b90565b6000809054906101000a900473ffffffffffffffffffffffffffffffffffffffff1673ffffffffffffffffffffffffffffffffffffffff163373ffffffffffffffffffffffffffffffffffffffff161415156115b557600080fd5b80600460006101000a81548173ffffffffffffffffffffffffffffffffffffffff021916908373ffffffffffffffffffffffffffffffffffffffff160217905550600460009054906101000a900473ffffffffffffffffffffffffffffffffffffffff1673ffffffffffffffffffffffffffffffffffffffff1663614cb9046040518163ffffffff167c0100000000000000000000000000000000000000000000000000000000028152600401602060405180830381600087803b15801561167c57600080fd5b505af1158015611690573d6000803e3d6000fd5b505050506040513d60208110156116a657600080fd5b810190808051906020019092919050505015156116c257600080fd5b50565b6000600286604051808273ffffffffffffffffffffffffffffffffffffffff1673ffffffffffffffffffffffffffffffffffffffff166c010000000000000000000000000281526014019150506020604051808303816000865af1158015611731573d6000803e3d6000fd5b5050506040513d602081101561174657600080fd5b81019080805190602001909291905050509050601460029054906101000a900473ffffffffffffffffffffffffffffffffffffffff1673ffffffffffffffffffffffffffffffffffffffff16600182868686604051600081526020016040526040518085600019166000191681526020018460ff1660ff1681526020018360001916600019168152602001826000191660001916815260200194505050505060206040516020810390808403906000865af1158015611809573d6000803e3d6000fd5b5050506020604051035173ffffffffffffffffffffffffffffffffffffffff1614151561183557600080fd5b6000856fffffffffffffffffffffffffffffffff16141561185557600080fd5b61185f8686613368565b50505050505050565b60106020528060005260406000206000915090505481565b600460009054906101000a900473ffffffffffffffffffffffffffffffffffffffff1681565b601581600a811015156118b557fe5b600202016000915090508060000154908060010154905082565b6000806000809054906101000a900473ffffffffffffffffffffffffffffffffffffffff1673ffffffffffffffffffffffffffffffffffffffff163373ffffffffffffffffffffffffffffffffffffffff1614151561192d57600080fd5b600260009054906101000a900473ffffffffffffffffffffffffffffffffffffffff1673ffffffffffffffffffffffffffffffffffffffff1663313ce5676040518163ffffffff167c0100000000000000000000000000000000000000000000000000000000028152600401602060405180830381600087803b1580156119b357600080fd5b505af11580156119c7573d6000803e3d6000fd5b505050506040513d60208110156119dd57600080fd5b8101908080519060200190929190505050600a0a840291508383029050600a5473__SafeMathLib___________________________6366098d4f9091836040518363ffffffff167c0100000000000000000000000000000000000000000000000000000000028152600401808381526020018281526020019250505060206040518083038186803b158015611a7157600080fd5b505af4158015611a85573d6000803e3d6000fd5b505050506040513d6020811015611a9b57600080fd5b8101908080519060200190929190505050600a8190555060095473__SafeMathLib___________________________6366098d4f9091846040518363ffffffff167c0100000000000000000000000000000000000000000000000000000000028152600401808381526020018281526020019250505060206040518083038186803b158015611b2957600080fd5b505af4158015611b3d573d6000803e3d6000fd5b505050506040513d6020811015611b5357600080fd5b8101908080519060200190929190505050600981905550601060008673ffffffffffffffffffffffffffffffffffffffff1673ffffffffffffffffffffffffffffffffffffffff1681526020019081526020016000205473__SafeMathLib___________________________6366098d4f9091836040518363ffffffff167c0100000000000000000000000000000000000000000000000000000000028152600401808381526020018281526020019250505060206040518083038186803b158015611c1e57600080fd5b505af4158015611c32573d6000803e3d6000fd5b505050506040513d6020811015611c4857600080fd5b8101908080519060200190929190505050601060008773ffffffffffffffffffffffffffffffffffffffff1673ffffffffffffffffffffffffffffffffffffffff16815260200190815260200160002081905550601160008673ffffffffffffffffffffffffffffffffffffffff1673ffffffffffffffffffffffffffffffffffffffff1681526020019081526020016000205473__SafeMathLib___________________________6366098d4f9091846040518363ffffffff167c0100000000000000000000000000000000000000000000000000000000028152600401808381526020018281526020019250505060206040518083038186803b158015611d5057600080fd5b505af4158015611d64573d6000803e3d6000fd5b505050506040513d6020811015611d7a57600080fd5b8101908080519060200190929190505050601160008773ffffffffffffffffffffffffffffffffffffffff1673ffffffffffffffffffffffffffffffffffffffff16815260200190815260200160002081905550611dd88583613575565b7f0396f60aaad038749091d273dc13aaabc63db6e2271c7bad442d5cf25cc433508582846000604051808573ffffffffffffffffffffffffffffffffffffffff1673ffffffffffffffffffffffffffffffffffffffff168152602001848152602001838152602001826fffffffffffffffffffffffffffffffff16815260200194505050505060405180910390a15050505050565b602b5481565b600a5481565b602a60009054906101000a900460ff1681565b60006001905090565b6004806007811115611ea357fe5b611eab61128e565b6007811115611eb657fe5b141515611ec257600080fd5b6000809054906101000a900473ffffffffffffffffffffffffffffffffffffffff1673ffffffffffffffffffffffffffffffffffffffff163373ffffffffffffffffffffffffffffffffffffffff16141515611f1d57600080fd5b600060149054906101000a900460ff1615611f3757600080fd5b600f60009054906101000a900460ff1615611f5157600080fd5b6000600460009054906101000a900473ffffffffffffffffffffffffffffffffffffffff1673ffffffffffffffffffffffffffffffffffffffff1614151561203257600460009054906101000a900473ffffffffffffffffffffffffffffffffffffffff1673ffffffffffffffffffffffffffffffffffffffff16630bf318a36040518163ffffffff167c0100000000000000000000000000000000000000000000000000000000028152600401600060405180830381600087803b15801561201957600080fd5b505af115801561202d573d6000803e3d6000fd5b505050505b6001600f60006101000a81548160ff02191690831515021790555050565b6000809054906101000a900473ffffffffffffffffffffffffffffffffffffffff1673ffffffffffffffffffffffffffffffffffffffff163373ffffffffffffffffffffffffffffffffffffffff161415156120ab57600080fd5b80600360006101000a81548173ffffffffffffffffffffffffffffffffffffffff021916908373ffffffffffffffffffffffffffffffffffffffff160217905550600360009054906101000a900473ffffffffffffffffffffffffffffffffffffffff1673ffffffffffffffffffffffffffffffffffffffff166304bbc2556040518163ffffffff167c0100000000000000000000000000000000000000000000000000000000028152600401602060405180830381600087803b15801561217257600080fd5b505af1158015612186573d6000803e3d6000fd5b505050506040513d602081101561219c57600080fd5b810190808051906020019092919050505015156121b857600080fd5b50565b60095481565b600060078060078111156121d157fe5b6121d961128e565b60078111156121e457fe5b1415156121f057600080fd5b601060003373ffffffffffffffffffffffffffffffffffffffff1673ffffffffffffffffffffffffffffffffffffffff168152602001908152602001600020549150600082141561224057600080fd5b6000601060003373ffffffffffffffffffffffffffffffffffffffff1673ffffffffffffffffffffffffffffffffffffffff16815260200190815260200160002081905550600e5473__SafeMathLib___________________________6366098d4f9091846040518363ffffffff167c0100000000000000000000000000000000000000000000000000000000028152600401808381526020018281526020019250505060206040518083038186803b1580156122fc57600080fd5b505af4158015612310573d6000803e3d6000fd5b505050506040513d602081101561232657600080fd5b8101908080519060200190929190505050600e819055507fbb28353e4598c3b9199101a66e0989549b659a59a54d2c27fbb183f1932c8e6d3383604051808373ffffffffffffffffffffffffffffffffffffffff1673ffffffffffffffffffffffffffffffffffffffff1681526020018281526020019250505060405180910390a13373ffffffffffffffffffffffffffffffffffffffff166108fc839081150290604051600060405180830381858888f1935050505015156123e857600080fd5b5050565b60295481565b601460029054906101000a900473ffffffffffffffffffffffffffffffffffffffff1681565b600e5481565b6000809054906101000a900473ffffffffffffffffffffffffffffffffffffffff1673ffffffffffffffffffffffffffffffffffffffff163373ffffffffffffffffffffffffffffffffffffffff1614151561247957600080fd5b6001600060146101000a81548160ff021916908315150217905550565b60015481565b807effffffffffffffffffffffffffffffffffffffffffffffffffffffffffffff19168260405180826fffffffffffffffffffffffffffffffff166fffffffffffffffffffffffffffffffff1670010000000000000000000000000000000002815260100191505060405180910390207effffffffffffffffffffffffffffffffffffffffffffffffffffffffffffff191614151561253a57600080fd5b61254433836131c9565b5050565b6000809054906101000a900473ffffffffffffffffffffffffffffffffffffffff1673ffffffffffffffffffffffffffffffffffffffff163373ffffffffffffffffffffffffffffffffffffffff161415156125a357600080fd5b804211156125b057600080fd5b8060075411156125bf57600080fd5b806008819055507fd34bb772c4ae9baa99db852f622773b31c7827e8ee818449fef20d30980bd3106008546040518082815260200191505060405180910390a150565b6000809054906101000a900473ffffffffffffffffffffffffffffffffffffffff1673ffffffffffffffffffffffffffffffffffffffff163373ffffffffffffffffffffffffffffffffffffffff1614151561265d57600080fd5b6000809054906101000a900473ffffffffffffffffffffffffffffffffffffffff1673ffffffffffffffffffffffffffffffffffffffff167ff8df31144d9c2f0f6b59d69b8b98abd5459d07f2742c4df920b25aae33c6482060405160405180910390a260008060006101000a81548173ffffffffffffffffffffffffffffffffffffffff021916908373ffffffffffffffffffffffffffffffffffffffff160217905550565b600360009054906101000a900473ffffffffffffffffffffffffffffffffffffffff1681565b600d5481565b6000600654600a541015905090565b6000809054906101000a900473ffffffffffffffffffffffffffffffffffffffff1673ffffffffffffffffffffffffffffffffffffffff163373ffffffffffffffffffffffffffffffffffffffff1614151561279a57600080fd5b80601460006101000a81548160ff0219169083151502179055507f48d826081348f5f00e8a33c9ae8ce89ed4c6e88400b585a478bc203d9e8177d3601460009054906101000a900460ff16601460019054906101000a900460ff16601460029054906101000a900473ffffffffffffffffffffffffffffffffffffffff166040518084151515158152602001831515151581526020018273ffffffffffffffffffffffffffffffffffffffff1673ffffffffffffffffffffffffffffffffffffffff168152602001935050505060405180910390a150565b602d5481565b600580600781111561288657fe5b61288e61128e565b600781111561289957fe5b1415156128a557600080fd5b60003414156128b357600080fd5b600d5473__SafeMathLib___________________________6366098d4f9091346040518363ffffffff167c0100000000000000000000000000000000000000000000000000000000028152600401808381526020018281526020019250505060206040518083038186803b15801561292a57600080fd5b505af415801561293e573d6000803e3d6000fd5b505050506040513d602081101561295457600080fd5b8101908080519060200190929190505050600d8190555050565b600a81565b6000809054906101000a900473ffffffffffffffffffffffffffffffffffffffff1673ffffffffffffffffffffffffffffffffffffffff163373ffffffffffffffffffffffffffffffffffffffff161415156129ce57600080fd5b8060138190555050565b6000809054906101000a900473ffffffffffffffffffffffffffffffffffffffff1681565b600080600260009054906101000a900473ffffffffffffffffffffffffffffffffffffffff1673ffffffffffffffffffffffffffffffffffffffff1663313ce5676040518163ffffffff167c0100000000000000000000000000000000000000000000000000000000028152600401602060405180830381600087803b158015612a8657600080fd5b505af1158015612a9a573d6000803e3d6000fd5b505050506040513d6020811015612ab057600080fd5b8101908080519060200190929190505050600a0a9050828473__SafeMathLib___________________________631d3b9edf9091846040518363ffffffff167c0100000000000000000000000000000000000000000000000000000000028152600401808381526020018281526020019250505060206040518083038186803b158015612b3c57600080fd5b505af4158015612b50573d6000803e3d6000fd5b505050506040513d6020811015612b6657600080fd5b8101908080519060200190929190505050811515612b8057fe5b0491505092915050565b600560009054906101000a900473ffffffffffffffffffffffffffffffffffffffff1681565b60116020528060005260406000206000915090505481565b612bd233826131c9565b50565b6000612c156040805190810160405280601081526020017f6973427265616b696e6743617028293a0000000000000000000000000000000081525061375c565b612c26612c218661379a565b61375c565b612c37612c328561379a565b61375c565b612c48612c438461379a565b61375c565b612c59612c548361379a565b61375c565b602b5482119050949350505050565b612c7133611140565b565b6000600460009054906101000a900473ffffffffffffffffffffffffffffffffffffffff1673ffffffffffffffffffffffffffffffffffffffff166382771c8e6040518163ffffffff167c0100000000000000000000000000000000000000000000000000000000028152600401602060405180830381600087803b158015612cfb57600080fd5b505af1158015612d0f573d6000803e3d6000fd5b505050506040513d6020811015612d2557600080fd5b8101908080519060200190929190505050905090565b60075481565b600f60009054906101000a900460ff1681565b600060149054906101000a900460ff1681565b60126020528060005260406000206000915054906101000a900460ff1681565b6000809054906101000a900473ffffffffffffffffffffffffffffffffffffffff1673ffffffffffffffffffffffffffffffffffffffff163373ffffffffffffffffffffffffffffffffffffffff16141515612de257600080fd5b600060149054906101000a900460ff161515612dfd57600080fd5b60008060146101000a81548160ff021916908315150217905550565b601460019054906101000a900460ff1681565b6000612e6c6040805190810160405280601181526020017f697343726f776473616c6546756c6c282900000000000000000000000000000081525061375c565b602b546009541015905090565b600c5481565b602c6020528060005260406000206000915090508054600181600116156101000203166002900480601f016020809104026020016040519081016040528092919081815260200182805460018160011615610100020316600290048015612f275780601f10612efc57610100808354040283529160200191612f27565b820191906000526020600020905b815481529060010190602001808311612f0a57829003601f168201915b505050505081565b6000809054906101000a900473ffffffffffffffffffffffffffffffffffffffff1673ffffffffffffffffffffffffffffffffffffffff163373ffffffffffffffffffffffffffffffffffffffff16141515612f8a57600080fd5b80601260008473ffffffffffffffffffffffffffffffffffffffff1673ffffffffffffffffffffffffffffffffffffffff16815260200190815260200160002060006101000a81548160ff0219169083151502179055507fa54714518c5d275fdcd3d2a461e4858e4e8cb04fb93cd0bca9d6d34115f264408282604051808373ffffffffffffffffffffffffffffffffffffffff1673ffffffffffffffffffffffffffffffffffffffff168152602001821515151581526020019250505060405180910390a15050565b6000809054906101000a900473ffffffffffffffffffffffffffffffffffffffff1673ffffffffffffffffffffffffffffffffffffffff163373ffffffffffffffffffffffffffffffffffffffff161415156130af57600080fd5b81601460016101000a81548160ff02191690831515021790555080601460026101000a81548173ffffffffffffffffffffffffffffffffffffffff021916908373ffffffffffffffffffffffffffffffffffffffff1602179055507f48d826081348f5f00e8a33c9ae8ce89ed4c6e88400b585a478bc203d9e8177d3601460009054906101000a900460ff16601460019054906101000a900460ff16601460029054906101000a900473ffffffffffffffffffffffffffffffffffffffff166040518084151515158152602001831515151581526020018273ffffffffffffffffffffffffffffffffffffffff1673ffffffffffffffffffffffffffffffffffffffff168152602001935050505060405180910390a15050565b601460019054906101000a900460ff16156131e357600080fd5b6000816fffffffffffffffffffffffffffffffff16141561320357600080fd5b61320d8282613368565b505050565b6000809054906101000a900473ffffffffffffffffffffffffffffffffffffffff1673ffffffffffffffffffffffffffffffffffffffff163373ffffffffffffffffffffffffffffffffffffffff1614151561326d57600080fd5b613276816138f1565b50565b6000809054906101000a900473ffffffffffffffffffffffffffffffffffffffff1673ffffffffffffffffffffffffffffffffffffffff163373ffffffffffffffffffffffffffffffffffffffff161415156132d457600080fd5b600154600c5411156132e557600080fd5b80600560006101000a81548173ffffffffffffffffffffffffffffffffffffffff021916908373ffffffffffffffffffffffffffffffffffffffff16021790555050565b61333633858585856116c5565b50505050565b600b5481565b600260009054906101000a900473ffffffffffffffffffffffffffffffffffffffff1681565b60008060149054906101000a900460ff161561338357600080fd5b61356d8383600360009054906101000a900473ffffffffffffffffffffffffffffffffffffffff1673ffffffffffffffffffffffffffffffffffffffff166318a4155e34600b54600a540360095433600260009054906101000a900473ffffffffffffffffffffffffffffffffffffffff1673ffffffffffffffffffffffffffffffffffffffff1663313ce5676040518163ffffffff167c0100000000000000000000000000000000000000000000000000000000028152600401602060405180830381600087803b15801561345857600080fd5b505af115801561346c573d6000803e3d6000fd5b505050506040513d602081101561348257600080fd5b81019080805190602001909291905050506040518663ffffffff167c0100000000000000000000000000000000000000000000000000000000028152600401808681526020018581526020018481526020018373ffffffffffffffffffffffffffffffffffffffff1673ffffffffffffffffffffffffffffffffffffffff16815260200182815260200195505050505050602060405180830381600087803b15801561352d57600080fd5b505af1158015613541573d6000803e3d6000fd5b505050506040513d602081101561355757600080fd5b81019080805190602001909291905050506139eb565b905092915050565b60006135b56040805190810160405280600581526020017f50696e673100000000000000000000000000000000000000000000000000000081525061375c565b600260009054906101000a900473ffffffffffffffffffffffffffffffffffffffff1690506136186040805190810160405280600581526020017f50696e673200000000000000000000000000000000000000000000000000000081525061375c565b8073ffffffffffffffffffffffffffffffffffffffff166340c10f1984846040518363ffffffff167c0100000000000000000000000000000000000000000000000000000000028152600401808373ffffffffffffffffffffffffffffffffffffffff1673ffffffffffffffffffffffffffffffffffffffff16815260200182815260200192505050600060405180830381600087803b1580156136bb57600080fd5b505af11580156136cf573d6000803e3d6000fd5b505050506137116040805190810160405280600581526020017f50696e673300000000000000000000000000000000000000000000000000000081525061375c565b6137196141e6565b6137576040805190810160405280600581526020017f50696e673400000000000000000000000000000000000000000000000000000081525061375c565b505050565b80602c6000602d5481526020019081526020016000209080519060200190613785929190614388565b506001602d6000828254019250508190555050565b606060008060606000808614156137e8576040805190810160405280600181526020017f300000000000000000000000000000000000000000000000000000000000000081525094506138e8565b8593505b600084141515613812578280600101935050600a8481151561380a57fe5b0493506137ec565b826040519080825280601f01601f1916602001820160405280156138455781602001602082028038833980820191505090505b5091506001830390505b6000861415156138e457600a8681151561386557fe5b066030017f0100000000000000000000000000000000000000000000000000000000000000028282806001900393508151811015156138a057fe5b9060200101907effffffffffffffffffffffffffffffffffffffffffffffffffffffffffffff1916908160001a905350600a868115156138dc57fe5b04955061384f565b8194505b50505050919050565b600073ffffffffffffffffffffffffffffffffffffffff168173ffffffffffffffffffffffffffffffffffffffff161415151561392d57600080fd5b8073ffffffffffffffffffffffffffffffffffffffff166000809054906101000a900473ffffffffffffffffffffffffffffffffffffffff1673ffffffffffffffffffffffffffffffffffffffff167f8be0079c531659141344cd1fd0a4f28419497f9722a3daafe3b4186f6b6457e060405160405180910390a3806000806101000a81548173ffffffffffffffffffffffffffffffffffffffff021916908373ffffffffffffffffffffffffffffffffffffffff16021790555050565b600080600060149054906101000a900460ff1615613a0857600080fd5b60026007811115613a1557fe5b613a1d61128e565b6007811115613a2857fe5b1415613a8b57601260008673ffffffffffffffffffffffffffffffffffffffff1673ffffffffffffffffffffffffffffffffffffffff16815260200190815260200160002060009054906101000a900460ff161515613a8657600080fd5b613abc565b60036007811115613a9857fe5b613aa061128e565b6007811115613aab57fe5b1415613ab657613abb565b600080fd5b5b34905060008314151515613acf57600080fd5b6000601060008773ffffffffffffffffffffffffffffffffffffffff1673ffffffffffffffffffffffffffffffffffffffff168152602001908152602001600020541415613b2a57600c600081548092919060010191905055505b601060008673ffffffffffffffffffffffffffffffffffffffff1673ffffffffffffffffffffffffffffffffffffffff1681526020019081526020016000205473__SafeMathLib___________________________6366098d4f9091836040518363ffffffff167c0100000000000000000000000000000000000000000000000000000000028152600401808381526020018281526020019250505060206040518083038186803b158015613bde57600080fd5b505af4158015613bf2573d6000803e3d6000fd5b505050506040513d6020811015613c0857600080fd5b8101908080519060200190929190505050601060008773ffffffffffffffffffffffffffffffffffffffff1673ffffffffffffffffffffffffffffffffffffffff16815260200190815260200160002081905550601160008673ffffffffffffffffffffffffffffffffffffffff1673ffffffffffffffffffffffffffffffffffffffff1681526020019081526020016000205473__SafeMathLib___________________________6366098d4f9091856040518363ffffffff167c0100000000000000000000000000000000000000000000000000000000028152600401808381526020018281526020019250505060206040518083038186803b158015613d1057600080fd5b505af4158015613d24573d6000803e3d6000fd5b505050506040513d6020811015613d3a57600080fd5b8101908080519060200190929190505050601160008773ffffffffffffffffffffffffffffffffffffffff1673ffffffffffffffffffffffffffffffffffffffff16815260200190815260200160002081905550600a5473__SafeMathLib___________________________6366098d4f9091836040518363ffffffff167c0100000000000000000000000000000000000000000000000000000000028152600401808381526020018281526020019250505060206040518083038186803b158015613e0557600080fd5b505af4158015613e19573d6000803e3d6000fd5b505050506040513d6020811015613e2f57600080fd5b8101908080519060200190929190505050600a8190555060095473__SafeMathLib___________________________6366098d4f9091856040518363ffffffff167c0100000000000000000000000000000000000000000000000000000000028152600401808381526020018281526020019250505060206040518083038186803b158015613ebd57600080fd5b505af4158015613ed1573d6000803e3d6000fd5b505050506040513d6020811015613ee757600080fd5b8101908080519060200190929190505050600981905550600360009054906101000a900473ffffffffffffffffffffffffffffffffffffffff1673ffffffffffffffffffffffffffffffffffffffff1663f14ae17d866040518263ffffffff167c0100000000000000000000000000000000000000000000000000000000028152600401808273ffffffffffffffffffffffffffffffffffffffff1673ffffffffffffffffffffffffffffffffffffffff168152602001915050602060405180830381600087803b158015613fbb57600080fd5b505af1158015613fcf573d6000803e3d6000fd5b505050506040513d6020811015613fe557600080fd5b8101908080519060200190929190505050156140b457600b5473__SafeMathLib___________________________6366098d4f9091836040518363ffffffff167c0100000000000000000000000000000000000000000000000000000000028152600401808381526020018281526020019250505060206040518083038186803b15801561407257600080fd5b505af4158015614086573d6000803e3d6000fd5b505050506040513d602081101561409c57600080fd5b8101908080519060200190929190505050600b819055505b6140c48184600a54600954612bd5565b1515156140d057600080fd5b6140da8584613575565b600560009054906101000a900473ffffffffffffffffffffffffffffffffffffffff1673ffffffffffffffffffffffffffffffffffffffff166108fc829081150290604051600060405180830381858888f19350505050151561413c57600080fd5b7f0396f60aaad038749091d273dc13aaabc63db6e2271c7bad442d5cf25cc4335085828587604051808573ffffffffffffffffffffffffffffffffffffffff1673ffffffffffffffffffffffffffffffffffffffff168152602001848152602001838152602001826fffffffffffffffffffffffffffffffff166fffffffffffffffffffffffffffffffff16815260200194505050505060405180910390a1829150509392505050565b60006142266040805190810160405280600a81526020017f696e63726561736528290000000000000000000000000000000000000000000081525061375c565b602a60009054906101000a900460ff161561427e576142796040805190810160405280601281526020017f756e6c6f636b656420736f2072657475726e000000000000000000000000000081525061375c565b614385565b600090505b600a81101561431e5742601582600a8110151561429c57fe5b60020201600001541080156142c757506000601582600a811015156142bd57fe5b6002020160010154115b15614311576142f36142ee601583600a811015156142e157fe5b600202016001015461379a565b61375c565b601581600a8110151561430257fe5b6002020160010154602b819055505b8080600101915050614283565b806001600a031415614384576001602a60006101000a81548160ff0219169083151502179055506143836040805190810160405280600a81526020017f736574206c6f636b65640000000000000000000000000000000000000000000081525061375c565b5b5b50565b828054600181600116156101000203166002900490600052602060002090601f016020900481019282601f106143c957805160ff19168380011785556143f7565b828001600101855582156143f7579182015b828111156143f65782518255916020019190600101906143db565b5b5090506144049190614408565b5090565b61442a91905b8082111561442657600081600090555060010161440e565b5090565b905600a165627a7a723058203a8429778303574fe922a3ea83734c53333c6f99c5fdc7eba8a3b2beb1ccec630029",
  "source": "/**\n * This smart contract code is Copyright 2017 TokenMarket Ltd. For more information see https://tokenmarket.net\n *\n * Licensed under the Apache License, version 2.0: https://github.com/TokenMarketNet/ico/blob/master/LICENSE.txt\n */\n\npragma solidity ^0.4.8;\n\nimport \"./Crowdsale.sol\";\nimport \"./MintableToken.sol\";\n\n/**\n * ICO crowdsale contract that is capped by amout of tokens.\n *\n * - Tokens are dynamically created during the crowdsale\n *\n *\n */\ncontract MintedTokenCapped2Crowdsale is Crowdsale {\n\n  uint public constant MAX_TRANCHES = 10;\n\n  /**\n  * Define pricing schedule using tranches.\n  */\n  struct Tranche {\n\n    // The date after which this tranche amount is unlocked\n    uint startAt;\n\n    // How many tokens will be unlocked while when startAt reached\n    uint amount;\n  }\n\n  // Store tranches in a fixed array, so that it can be seen in a blockchain explorer\n  // Tranche 0 is always (0, 0)\n  // (TODO: change this when we confirm dynamic arrays are explorable)\n  Tranche[10] public tranches;\n\n  // How many active tranches we have\n  uint public trancheCount;\n\n  bool public isLastTrancheUnlocked = false;\n\n  /* Maximum amount of tokens this crowdsale can sell. */\n  uint public maximumSellableTokens;\n\n\n  mapping(uint => string) public logs;\n  uint public logsLength;\n\n  function log(string str) internal {\n    logs[logsLength] = str;\n    logsLength += 1;\n  }\n\n  function uint2str(uint i) internal pure returns (string){\n    if (i == 0) return \"0\";\n    uint j = i;\n    uint length;\n    while (j != 0) {\n      length++;\n      j /= 10;\n    }\n    bytes memory bstr = new bytes(length);\n    uint k = length - 1;\n    while (i != 0) {\n      bstr[k--] = byte(48 + i % 10);\n      i /= 10;\n    }\n    return string(bstr);\n  }\n\n  function MintedTokenCapped2Crowdsale(\n    address _token,\n    PricingStrategy _pricingStrategy,\n    address _multisigWallet,\n    uint _start,\n    uint _end,\n    uint _minimumFundingGoal,\n    uint[] _sellableTokensTranches\n  ) Crowdsale(_token, _pricingStrategy, _multisigWallet, _start, _end, _minimumFundingGoal) {\n    // Need to have tuples, length check\n    if(_sellableTokensTranches.length % 2 == 1 || _sellableTokensTranches.length >= MAX_TRANCHES * 2) {\n      throw;\n    }\n\n    log(\"Start\");\n\n    trancheCount = _sellableTokensTranches.length / 2;\n\n    uint highestAmount = 0;\n\n    for(uint i = 0; i < _sellableTokensTranches.length / 2; i++) {\n      tranches[i].startAt = _sellableTokensTranches[i * 2];\n      tranches[i].amount = _sellableTokensTranches[i * 2 + 1];\n\n      // No invalid steps\n      if((highestAmount != 0) && (tranches[i].amount <= highestAmount)) {\n        throw;\n      }\n\n      highestAmount = tranches[i].amount;\n    }\n\n    increaseMaximumSellableTokens();\n  }\n\n  /**\n   * Called from invest() to confirm if the curret investment does not break our cap rule.\n   */\n  function isBreakingCap(uint weiAmount, uint tokenAmount, uint weiRaisedTotal, uint tokensSoldTotal) constant returns (bool limitBroken) {\n    log(\"isBreakingCap():\");\n    log(uint2str(weiAmount));\n    log(uint2str(tokenAmount));\n    log(uint2str(weiRaisedTotal));\n    log(uint2str(tokensSoldTotal));\n    return tokensSoldTotal > maximumSellableTokens;\n  }\n\n  function isCrowdsaleFull() public constant returns (bool) {\n    log(\"isCrowdsaleFull()\");\n    return tokensSold >= maximumSellableTokens;\n  }\n\n  /**\n   * Unlock new tranche if it's time come\n   */\n  function increaseMaximumSellableTokens() internal {\n    log(\"increase()\");\n    if (isLastTrancheUnlocked) {\n        log(\"unlocked so return\");\n      return;\n    }\n\n    for(uint i = 0; i < tranches.length; i++) {\n      if(tranches[i].startAt < now && tranches[i].amount > 0) {\n        log(uint2str(tranches[i].amount));\n        maximumSellableTokens = tranches[i].amount;\n      }\n    }\n\n    if (tranches.length - 1 == i) {\n      isLastTrancheUnlocked = true;\n        log(\"set locked\");\n    }\n  }\n\n  /**\n   * Dynamically create tokens and assign them to the investor.\n   */\n  function assignTokens(address receiver, uint tokenAmount) internal {\n    log(\"Ping1\");\n    MintableToken mintableToken = MintableToken(token);\n    log(\"Ping2\");\n    mintableToken.mint(receiver, tokenAmount);\n    log(\"Ping3\");\n    increaseMaximumSellableTokens();\n    log(\"Ping4\");\n  }\n}\n",
  "sourcePath": "/home/otokarev/work/umbre/ico/contracts/MintedTokenCapped2Crowdsale.sol",
  "compiler": {
    "name": "solc",
    "version": "0.4.24+commit.e67f0147.Emscripten.clang"
  },
  "schemaVersion": "2.0.1",
  "updatedAt": "2018-09-12T21:12:30.142Z"
}