{
  "contractName": "NullFinalizeAgent",
  "abi": [
    {
      "constant": true,
      "inputs": [],
      "name": "isFinalizeAgent",
      "outputs": [
        {
          "name": "",
          "type": "bool"
        }
      ],
      "payable": false,
      "stateMutability": "view",
      "type": "function"
    },
    {
      "constant": true,
      "inputs": [],
      "name": "crowdsale",
      "outputs": [
        {
          "name": "",
          "type": "address"
        }
      ],
      "payable": false,
      "stateMutability": "view",
      "type": "function"
    },
    {
      "inputs": [
        {
          "name": "_crowdsale",
          "type": "address"
        }
      ],
      "payable": false,
      "stateMutability": "nonpayable",
      "type": "constructor"
    },
    {
      "constant": true,
      "inputs": [],
      "name": "isSane",
      "outputs": [
        {
          "name": "",
          "type": "bool"
        }
      ],
      "payable": false,
      "stateMutability": "view",
      "type": "function"
    },
    {
      "constant": false,
      "inputs": [],
      "name": "finalizeCrowdsale",
      "outputs": [],
      "payable": false,
      "stateMutability": "nonpayable",
      "type": "function"
    }
  ],
  "bytecode": "0x608060405234801561001057600080fd5b5060405160208061021b83398101806040528101908080519060200190929190505050806000806101000a81548173ffffffffffffffffffffffffffffffffffffffff021916908373ffffffffffffffffffffffffffffffffffffffff16021790555050610198806100836000396000f300608060405260043610610062576000357c0100000000000000000000000000000000000000000000000000000000900463ffffffff1680630bf318a314610067578063614cb9041461007e57806382771c8e146100ad5780639c1e03a0146100dc575b600080fd5b34801561007357600080fd5b5061007c610133565b005b34801561008a57600080fd5b50610093610135565b604051808215151515815260200191505060405180910390f35b3480156100b957600080fd5b506100c261013e565b604051808215151515815260200191505060405180910390f35b3480156100e857600080fd5b506100f1610147565b604051808273ffffffffffffffffffffffffffffffffffffffff1673ffffffffffffffffffffffffffffffffffffffff16815260200191505060405180910390f35b565b60006001905090565b60006001905090565b6000809054906101000a900473ffffffffffffffffffffffffffffffffffffffff16815600a165627a7a723058206f27195f204ed6f19d2d0f6854e983135164b45e3fea9bdd2009d7eeaaa454aa0029",
  "source": "/**\n * This smart contract code is Copyright 2017 TokenMarket Ltd. For more information see https://tokenmarket.net\n *\n * Licensed under the Apache License, version 2.0: https://github.com/TokenMarketNet/ico/blob/master/LICENSE.txt\n */\n\npragma solidity ^0.4.6;\n\nimport \"./Crowdsale.sol\";\nimport \"./ReleasableToken.sol\";\n\n/**\n * A finalize agent that does nothing.\n *\n * - Token transfer must be manually released by the owner\n */\ncontract NullFinalizeAgent is FinalizeAgent {\n\n  Crowdsale public crowdsale;\n\n  function NullFinalizeAgent(Crowdsale _crowdsale) {\n    crowdsale = _crowdsale;\n  }\n\n  /** Check that we can release the token */\n  function isSane() public constant returns (bool) {\n    return true;\n  }\n\n  /** Called once by crowdsale finalize() if the sale was success. */\n  function finalizeCrowdsale() public {\n  }\n\n}\n",
  "sourcePath": "/home/otokarev/work/umbre/ico/contracts/NullFinalizeAgent.sol",
  "compiler": {
    "name": "solc",
    "version": "0.4.24+commit.e67f0147.Emscripten.clang"
  },
  "schemaVersion": "2.0.1",
  "updatedAt": "2018-09-12T21:12:30.146Z"
}