{
  "contractName": "PaymentForwarder",
  "abi": [
    {
      "constant": false,
      "inputs": [],
      "name": "halt",
      "outputs": [],
      "payable": false,
      "stateMutability": "nonpayable",
      "type": "function"
    },
    {
      "constant": false,
      "inputs": [],
      "name": "renounceOwnership",
      "outputs": [],
      "payable": false,
      "stateMutability": "nonpayable",
      "type": "function"
    },
    {
      "constant": true,
      "inputs": [],
      "name": "owner",
      "outputs": [
        {
          "name": "",
          "type": "address"
        }
      ],
      "payable": false,
      "stateMutability": "view",
      "type": "function"
    },
    {
      "constant": true,
      "inputs": [],
      "name": "customerCount",
      "outputs": [
        {
          "name": "",
          "type": "uint256"
        }
      ],
      "payable": false,
      "stateMutability": "view",
      "type": "function"
    },
    {
      "constant": true,
      "inputs": [],
      "name": "totalTransferred",
      "outputs": [
        {
          "name": "",
          "type": "uint256"
        }
      ],
      "payable": false,
      "stateMutability": "view",
      "type": "function"
    },
    {
      "constant": true,
      "inputs": [],
      "name": "halted",
      "outputs": [
        {
          "name": "",
          "type": "bool"
        }
      ],
      "payable": false,
      "stateMutability": "view",
      "type": "function"
    },
    {
      "constant": false,
      "inputs": [],
      "name": "unhalt",
      "outputs": [],
      "payable": false,
      "stateMutability": "nonpayable",
      "type": "function"
    },
    {
      "constant": true,
      "inputs": [],
      "name": "teamMultisig",
      "outputs": [
        {
          "name": "",
          "type": "address"
        }
      ],
      "payable": false,
      "stateMutability": "view",
      "type": "function"
    },
    {
      "constant": true,
      "inputs": [
        {
          "name": "",
          "type": "address"
        }
      ],
      "name": "paymentsByBenefactor",
      "outputs": [
        {
          "name": "",
          "type": "uint256"
        }
      ],
      "payable": false,
      "stateMutability": "view",
      "type": "function"
    },
    {
      "constant": false,
      "inputs": [
        {
          "name": "_newOwner",
          "type": "address"
        }
      ],
      "name": "transferOwnership",
      "outputs": [],
      "payable": false,
      "stateMutability": "nonpayable",
      "type": "function"
    },
    {
      "constant": true,
      "inputs": [
        {
          "name": "",
          "type": "uint128"
        }
      ],
      "name": "paymentsByCustomer",
      "outputs": [
        {
          "name": "",
          "type": "uint256"
        }
      ],
      "payable": false,
      "stateMutability": "view",
      "type": "function"
    },
    {
      "inputs": [
        {
          "name": "_owner",
          "type": "address"
        },
        {
          "name": "_teamMultisig",
          "type": "address"
        }
      ],
      "payable": false,
      "stateMutability": "nonpayable",
      "type": "constructor"
    },
    {
      "anonymous": false,
      "inputs": [
        {
          "indexed": false,
          "name": "source",
          "type": "address"
        },
        {
          "indexed": false,
          "name": "amount",
          "type": "uint256"
        },
        {
          "indexed": false,
          "name": "customerId",
          "type": "uint128"
        },
        {
          "indexed": false,
          "name": "benefactor",
          "type": "address"
        }
      ],
      "name": "PaymentForwarded",
      "type": "event"
    },
    {
      "anonymous": false,
      "inputs": [
        {
          "indexed": true,
          "name": "previousOwner",
          "type": "address"
        }
      ],
      "name": "OwnershipRenounced",
      "type": "event"
    },
    {
      "anonymous": false,
      "inputs": [
        {
          "indexed": true,
          "name": "previousOwner",
          "type": "address"
        },
        {
          "indexed": true,
          "name": "newOwner",
          "type": "address"
        }
      ],
      "name": "OwnershipTransferred",
      "type": "event"
    },
    {
      "constant": false,
      "inputs": [
        {
          "name": "customerId",
          "type": "uint128"
        },
        {
          "name": "benefactor",
          "type": "address"
        }
      ],
      "name": "payWithoutChecksum",
      "outputs": [],
      "payable": true,
      "stateMutability": "payable",
      "type": "function"
    },
    {
      "constant": false,
      "inputs": [
        {
          "name": "customerId",
          "type": "uint128"
        },
        {
          "name": "benefactor",
          "type": "address"
        },
        {
          "name": "checksum",
          "type": "bytes1"
        }
      ],
      "name": "pay",
      "outputs": [],
      "payable": true,
      "stateMutability": "payable",
      "type": "function"
    },
    {
      "constant": false,
      "inputs": [
        {
          "name": "customerId",
          "type": "uint128"
        },
        {
          "name": "checksum",
          "type": "bytes1"
        }
      ],
      "name": "payForMyselfWithChecksum",
      "outputs": [],
      "payable": true,
      "stateMutability": "payable",
      "type": "function"
    },
    {
      "constant": false,
      "inputs": [
        {
          "name": "customerId",
          "type": "uint128"
        }
      ],
      "name": "payForMyself",
      "outputs": [],
      "payable": true,
      "stateMutability": "payable",
      "type": "function"
    }
  ],
  "bytecode": "0x608060405234801561001057600080fd5b50604051604080610def8339810180604052810190808051906020019092919080519060200190929190505050336000806101000a81548173ffffffffffffffffffffffffffffffffffffffff021916908373ffffffffffffffffffffffffffffffffffffffff16021790555080600160006101000a81548173ffffffffffffffffffffffffffffffffffffffff021916908373ffffffffffffffffffffffffffffffffffffffff160217905550816000806101000a81548173ffffffffffffffffffffffffffffffffffffffff021916908373ffffffffffffffffffffffffffffffffffffffff1602179055505050610ce08061010f6000396000f3006080604052600436106100db576000357c0100000000000000000000000000000000000000000000000000000000900463ffffffff168063274465b4146100e0578063312883971461011257806346f2e880146101645780635ed7ca5b146101c2578063715018a6146101d95780638da5cb5b146101f05780639757e8a3146102475780639b087b2d14610272578063b9b8af0b1461029d578063bbc43d41146102cc578063cb3e64fd1461034a578063dbc0c08514610361578063ef3336f5146103b8578063f2fde38b1461040f578063f921567614610452575b600080fd5b61011060048036038101908080356fffffffffffffffffffffffffffffffff1690602001909291905050506104a5565b005b61016260048036038101908080356fffffffffffffffffffffffffffffffff169060200190929190803573ffffffffffffffffffffffffffffffffffffffff1690602001909291905050506104b2565b005b6101c060048036038101908080356fffffffffffffffffffffffffffffffff16906020019092919080357effffffffffffffffffffffffffffffffffffffffffffffffffffffffffffff191690602001909291905050506106f7565b005b3480156101ce57600080fd5b506101d76107a3565b005b3480156101e557600080fd5b506101ee61081b565b005b3480156101fc57600080fd5b5061020561091d565b604051808273ffffffffffffffffffffffffffffffffffffffff1673ffffffffffffffffffffffffffffffffffffffff16815260200191505060405180910390f35b34801561025357600080fd5b5061025c610942565b6040518082815260200191505060405180910390f35b34801561027e57600080fd5b50610287610948565b6040518082815260200191505060405180910390f35b3480156102a957600080fd5b506102b261094e565b604051808215151515815260200191505060405180910390f35b61034860048036038101908080356fffffffffffffffffffffffffffffffff169060200190929190803573ffffffffffffffffffffffffffffffffffffffff16906020019092919080357effffffffffffffffffffffffffffffffffffffffffffffffffffffffffffff19169060200190929190505050610961565b005b34801561035657600080fd5b5061035f610a6b565b005b34801561036d57600080fd5b50610376610afd565b604051808273ffffffffffffffffffffffffffffffffffffffff1673ffffffffffffffffffffffffffffffffffffffff16815260200191505060405180910390f35b3480156103c457600080fd5b506103f9600480360381019080803573ffffffffffffffffffffffffffffffffffffffff169060200190929190505050610b23565b6040518082815260200191505060405180910390f35b34801561041b57600080fd5b50610450600480360381019080803573ffffffffffffffffffffffffffffffffffffffff169060200190929190505050610b3b565b005b34801561045e57600080fd5b5061048f60048036038101908080356fffffffffffffffffffffffffffffffff169060200190929190505050610ba2565b6040518082815260200191505060405180910390f35b6104af81336104b2565b50565b60008060149054906101000a900460ff16156104cd57600080fd5b3490507f4e4e2d6da11427f2d85d47e2bced64efa9ccd9694ae97786772a22d465bc80a433828585604051808573ffffffffffffffffffffffffffffffffffffffff1673ffffffffffffffffffffffffffffffffffffffff168152602001848152602001836fffffffffffffffffffffffffffffffff166fffffffffffffffffffffffffffffffff1681526020018273ffffffffffffffffffffffffffffffffffffffff1673ffffffffffffffffffffffffffffffffffffffff16815260200194505050505060405180910390a180600260008282540192505081905550600060046000856fffffffffffffffffffffffffffffffff166fffffffffffffffffffffffffffffffff1681526020019081526020016000205414156105fe576003600081548092919060010191905055505b8060046000856fffffffffffffffffffffffffffffffff166fffffffffffffffffffffffffffffffff1681526020019081526020016000206000828254019250508190555080600560008473ffffffffffffffffffffffffffffffffffffffff1673ffffffffffffffffffffffffffffffffffffffff16815260200190815260200160002060008282540192505081905550600160009054906101000a900473ffffffffffffffffffffffffffffffffffffffff1673ffffffffffffffffffffffffffffffffffffffff166108fc829081150290604051600060405180830381858888f1935050505015156106f257600080fd5b505050565b807effffffffffffffffffffffffffffffffffffffffffffffffffffffffffffff19168260405180826fffffffffffffffffffffffffffffffff166fffffffffffffffffffffffffffffffff1670010000000000000000000000000000000002815260100191505060405180910390207effffffffffffffffffffffffffffffffffffffffffffffffffffffffffffff191614151561079557600080fd5b61079f82336104b2565b5050565b6000809054906101000a900473ffffffffffffffffffffffffffffffffffffffff1673ffffffffffffffffffffffffffffffffffffffff163373ffffffffffffffffffffffffffffffffffffffff161415156107fe57600080fd5b6001600060146101000a81548160ff021916908315150217905550565b6000809054906101000a900473ffffffffffffffffffffffffffffffffffffffff1673ffffffffffffffffffffffffffffffffffffffff163373ffffffffffffffffffffffffffffffffffffffff1614151561087657600080fd5b6000809054906101000a900473ffffffffffffffffffffffffffffffffffffffff1673ffffffffffffffffffffffffffffffffffffffff167ff8df31144d9c2f0f6b59d69b8b98abd5459d07f2742c4df920b25aae33c6482060405160405180910390a260008060006101000a81548173ffffffffffffffffffffffffffffffffffffffff021916908373ffffffffffffffffffffffffffffffffffffffff160217905550565b6000809054906101000a900473ffffffffffffffffffffffffffffffffffffffff1681565b60035481565b60025481565b600060149054906101000a900460ff1681565b600060149054906101000a900460ff161561097b57600080fd5b807effffffffffffffffffffffffffffffffffffffffffffffffffffffffffffff1916838360405180836fffffffffffffffffffffffffffffffff166fffffffffffffffffffffffffffffffff167001000000000000000000000000000000000281526010018273ffffffffffffffffffffffffffffffffffffffff1673ffffffffffffffffffffffffffffffffffffffff166c010000000000000000000000000281526014019250505060405180910390207effffffffffffffffffffffffffffffffffffffffffffffffffffffffffffff1916141515610a5c57600080fd5b610a6683836104b2565b505050565b6000809054906101000a900473ffffffffffffffffffffffffffffffffffffffff1673ffffffffffffffffffffffffffffffffffffffff163373ffffffffffffffffffffffffffffffffffffffff16141515610ac657600080fd5b600060149054906101000a900460ff161515610ae157600080fd5b60008060146101000a81548160ff021916908315150217905550565b600160009054906101000a900473ffffffffffffffffffffffffffffffffffffffff1681565b60056020528060005260406000206000915090505481565b6000809054906101000a900473ffffffffffffffffffffffffffffffffffffffff1673ffffffffffffffffffffffffffffffffffffffff163373ffffffffffffffffffffffffffffffffffffffff16141515610b9657600080fd5b610b9f81610bba565b50565b60046020528060005260406000206000915090505481565b600073ffffffffffffffffffffffffffffffffffffffff168173ffffffffffffffffffffffffffffffffffffffff1614151515610bf657600080fd5b8073ffffffffffffffffffffffffffffffffffffffff166000809054906101000a900473ffffffffffffffffffffffffffffffffffffffff1673ffffffffffffffffffffffffffffffffffffffff167f8be0079c531659141344cd1fd0a4f28419497f9722a3daafe3b4186f6b6457e060405160405180910390a3806000806101000a81548173ffffffffffffffffffffffffffffffffffffffff021916908373ffffffffffffffffffffffffffffffffffffffff160217905550505600a165627a7a7230582048817ad0af76f96422e9e71940a714007539e5c883db05a9737175a03e47f9200029",
  "source": "/**\n * This smart contract code is Copyright 2017 TokenMarket Ltd. For more information see https://tokenmarket.net\n *\n * Licensed under the Apache License, version 2.0: https://github.com/TokenMarketNet/ico/blob/master/LICENSE.txt\n */\n\npragma solidity ^0.4.8;\n\nimport \"./Haltable.sol\";\n\n/**\n * Forward Ethereum payments to another wallet and track them with an event.\n *\n * Allows to identify customers who made Ethereum payment for a central token issuance.\n * Furthermore allow making a payment on behalf of another address.\n *\n * Allow pausing to signal the end of the crowdsale.\n */\ncontract PaymentForwarder is Haltable {\n\n  /** Who will get all ETH in the end */\n  address public teamMultisig;\n\n  /** Total incoming money */\n  uint public totalTransferred;\n\n  /** How many distinct customers we have that have made a payment */\n  uint public customerCount;\n\n  /** Total incoming money per centrally tracked customer id */\n  mapping(uint128 => uint) public paymentsByCustomer;\n\n  /** Total incoming money per benefactor address */\n  mapping(address => uint) public paymentsByBenefactor;\n\n  /** A customer has made a payment. Benefactor is the address where the tokens will be ultimately issued.*/\n  event PaymentForwarded(address source, uint amount, uint128 customerId, address benefactor);\n\n  function PaymentForwarder(address _owner, address _teamMultisig) {\n    teamMultisig = _teamMultisig;\n    owner = _owner;\n  }\n\n  function payWithoutChecksum(uint128 customerId, address benefactor) public stopInEmergency payable {\n\n    uint weiAmount = msg.value;\n\n    PaymentForwarded(msg.sender, weiAmount, customerId, benefactor);\n\n    // We trust Ethereum amounts cannot overflow uint256\n    totalTransferred += weiAmount;\n\n    if(paymentsByCustomer[customerId] == 0) {\n      customerCount++;\n    }\n\n    paymentsByCustomer[customerId] += weiAmount;\n\n    // We track benefactor addresses for extra safety;\n    // In the case of central ETH issuance tracking has problems we can\n    // construct ETH contributions solely based on blockchain data\n    paymentsByBenefactor[benefactor] += weiAmount;\n\n    // May run out of gas\n    if(!teamMultisig.send(weiAmount)) throw;\n  }\n\n  /**\n   * Pay on a behalf of an address.\n   *\n   * @param customerId Identifier in the central database, UUID v4\n   *\n   */\n   function pay(uint128 customerId, address benefactor, bytes1 checksum) public stopInEmergency payable {\n    // see customerid.py\n     if (bytes1(sha3(customerId, benefactor)) != checksum) throw;\n     payWithoutChecksum(customerId, benefactor);\n   }\n\n  /**\n   * Pay on a behalf of the sender.\n   *\n   * @param customerId Identifier in the central database, UUID v4\n   *\n   */\n  function payForMyselfWithChecksum(uint128 customerId, bytes1 checksum) public payable {\n    // see customerid.py\n    if (bytes1(sha3(customerId)) != checksum) throw;\n    payWithoutChecksum(customerId, msg.sender);\n  }\n\n  /**\n   * Legacy API signature.\n   */\n  function payForMyself(uint128 customerId) public payable {\n    payWithoutChecksum(customerId, msg.sender);\n  }\n\n}\n",
  "sourcePath": "/home/otokarev/work/umbre/ico/contracts/PaymentForwarder.sol",
  "compiler": {
    "name": "solc",
    "version": "0.4.24+commit.e67f0147.Emscripten.clang"
  },
  "schemaVersion": "2.0.1",
  "updatedAt": "2018-09-12T21:12:30.147Z"
}