{
  "contractName": "PreICOProxyBuyer",
  "abi": [
    {
      "constant": true,
      "inputs": [],
      "name": "weiMinimumLimit",
      "outputs": [
        {
          "name": "",
          "type": "uint256"
        }
      ],
      "payable": false,
      "stateMutability": "view",
      "type": "function"
    },
    {
      "constant": true,
      "inputs": [
        {
          "name": "",
          "type": "address"
        }
      ],
      "name": "balances",
      "outputs": [
        {
          "name": "",
          "type": "uint256"
        }
      ],
      "payable": false,
      "stateMutability": "view",
      "type": "function"
    },
    {
      "constant": true,
      "inputs": [
        {
          "name": "",
          "type": "uint256"
        }
      ],
      "name": "investors",
      "outputs": [
        {
          "name": "",
          "type": "address"
        }
      ],
      "payable": false,
      "stateMutability": "view",
      "type": "function"
    },
    {
      "constant": true,
      "inputs": [],
      "name": "weiRaised",
      "outputs": [
        {
          "name": "",
          "type": "uint256"
        }
      ],
      "payable": false,
      "stateMutability": "view",
      "type": "function"
    },
    {
      "constant": false,
      "inputs": [],
      "name": "halt",
      "outputs": [],
      "payable": false,
      "stateMutability": "nonpayable",
      "type": "function"
    },
    {
      "constant": true,
      "inputs": [],
      "name": "freezeEndsAt",
      "outputs": [
        {
          "name": "",
          "type": "uint256"
        }
      ],
      "payable": false,
      "stateMutability": "view",
      "type": "function"
    },
    {
      "constant": false,
      "inputs": [],
      "name": "renounceOwnership",
      "outputs": [],
      "payable": false,
      "stateMutability": "nonpayable",
      "type": "function"
    },
    {
      "constant": true,
      "inputs": [],
      "name": "tokensBought",
      "outputs": [
        {
          "name": "",
          "type": "uint256"
        }
      ],
      "payable": false,
      "stateMutability": "view",
      "type": "function"
    },
    {
      "constant": true,
      "inputs": [],
      "name": "weiCap",
      "outputs": [
        {
          "name": "",
          "type": "uint256"
        }
      ],
      "payable": false,
      "stateMutability": "view",
      "type": "function"
    },
    {
      "constant": true,
      "inputs": [],
      "name": "claimCount",
      "outputs": [
        {
          "name": "",
          "type": "uint256"
        }
      ],
      "payable": false,
      "stateMutability": "view",
      "type": "function"
    },
    {
      "constant": true,
      "inputs": [],
      "name": "owner",
      "outputs": [
        {
          "name": "",
          "type": "address"
        }
      ],
      "payable": false,
      "stateMutability": "view",
      "type": "function"
    },
    {
      "constant": true,
      "inputs": [],
      "name": "crowdsale",
      "outputs": [
        {
          "name": "",
          "type": "address"
        }
      ],
      "payable": false,
      "stateMutability": "view",
      "type": "function"
    },
    {
      "constant": true,
      "inputs": [],
      "name": "weiMaximumLimit",
      "outputs": [
        {
          "name": "",
          "type": "uint256"
        }
      ],
      "payable": false,
      "stateMutability": "view",
      "type": "function"
    },
    {
      "constant": true,
      "inputs": [],
      "name": "halted",
      "outputs": [
        {
          "name": "",
          "type": "bool"
        }
      ],
      "payable": false,
      "stateMutability": "view",
      "type": "function"
    },
    {
      "constant": true,
      "inputs": [
        {
          "name": "",
          "type": "address"
        }
      ],
      "name": "claimed",
      "outputs": [
        {
          "name": "",
          "type": "uint256"
        }
      ],
      "payable": false,
      "stateMutability": "view",
      "type": "function"
    },
    {
      "constant": false,
      "inputs": [],
      "name": "unhalt",
      "outputs": [],
      "payable": false,
      "stateMutability": "nonpayable",
      "type": "function"
    },
    {
      "constant": true,
      "inputs": [],
      "name": "timeLock",
      "outputs": [
        {
          "name": "",
          "type": "uint256"
        }
      ],
      "payable": false,
      "stateMutability": "view",
      "type": "function"
    },
    {
      "constant": true,
      "inputs": [],
      "name": "totalClaimed",
      "outputs": [
        {
          "name": "",
          "type": "uint256"
        }
      ],
      "payable": false,
      "stateMutability": "view",
      "type": "function"
    },
    {
      "constant": true,
      "inputs": [],
      "name": "investorCount",
      "outputs": [
        {
          "name": "",
          "type": "uint256"
        }
      ],
      "payable": false,
      "stateMutability": "view",
      "type": "function"
    },
    {
      "constant": true,
      "inputs": [],
      "name": "forcedRefund",
      "outputs": [
        {
          "name": "",
          "type": "bool"
        }
      ],
      "payable": false,
      "stateMutability": "view",
      "type": "function"
    },
    {
      "constant": false,
      "inputs": [
        {
          "name": "_newOwner",
          "type": "address"
        }
      ],
      "name": "transferOwnership",
      "outputs": [],
      "payable": false,
      "stateMutability": "nonpayable",
      "type": "function"
    },
    {
      "inputs": [
        {
          "name": "_owner",
          "type": "address"
        },
        {
          "name": "_freezeEndsAt",
          "type": "uint256"
        },
        {
          "name": "_weiMinimumLimit",
          "type": "uint256"
        },
        {
          "name": "_weiMaximumLimit",
          "type": "uint256"
        },
        {
          "name": "_weiCap",
          "type": "uint256"
        }
      ],
      "payable": false,
      "stateMutability": "nonpayable",
      "type": "constructor"
    },
    {
      "payable": true,
      "stateMutability": "payable",
      "type": "fallback"
    },
    {
      "anonymous": false,
      "inputs": [
        {
          "indexed": false,
          "name": "investor",
          "type": "address"
        },
        {
          "indexed": false,
          "name": "weiAmount",
          "type": "uint256"
        },
        {
          "indexed": false,
          "name": "tokenAmount",
          "type": "uint256"
        },
        {
          "indexed": false,
          "name": "customerId",
          "type": "uint128"
        }
      ],
      "name": "Invested",
      "type": "event"
    },
    {
      "anonymous": false,
      "inputs": [
        {
          "indexed": false,
          "name": "investor",
          "type": "address"
        },
        {
          "indexed": false,
          "name": "value",
          "type": "uint256"
        }
      ],
      "name": "Refunded",
      "type": "event"
    },
    {
      "anonymous": false,
      "inputs": [
        {
          "indexed": false,
          "name": "count",
          "type": "uint256"
        }
      ],
      "name": "TokensBoughts",
      "type": "event"
    },
    {
      "anonymous": false,
      "inputs": [
        {
          "indexed": false,
          "name": "investor",
          "type": "address"
        },
        {
          "indexed": false,
          "name": "count",
          "type": "uint256"
        }
      ],
      "name": "Distributed",
      "type": "event"
    },
    {
      "anonymous": false,
      "inputs": [
        {
          "indexed": true,
          "name": "previousOwner",
          "type": "address"
        }
      ],
      "name": "OwnershipRenounced",
      "type": "event"
    },
    {
      "anonymous": false,
      "inputs": [
        {
          "indexed": true,
          "name": "previousOwner",
          "type": "address"
        },
        {
          "indexed": true,
          "name": "newOwner",
          "type": "address"
        }
      ],
      "name": "OwnershipTransferred",
      "type": "event"
    },
    {
      "constant": true,
      "inputs": [],
      "name": "getToken",
      "outputs": [
        {
          "name": "",
          "type": "address"
        }
      ],
      "payable": false,
      "stateMutability": "view",
      "type": "function"
    },
    {
      "constant": false,
      "inputs": [
        {
          "name": "customerId",
          "type": "uint128"
        }
      ],
      "name": "buyWithCustomerId",
      "outputs": [],
      "payable": true,
      "stateMutability": "payable",
      "type": "function"
    },
    {
      "constant": false,
      "inputs": [],
      "name": "buy",
      "outputs": [],
      "payable": true,
      "stateMutability": "payable",
      "type": "function"
    },
    {
      "constant": false,
      "inputs": [],
      "name": "buyForEverybody",
      "outputs": [],
      "payable": false,
      "stateMutability": "nonpayable",
      "type": "function"
    },
    {
      "constant": true,
      "inputs": [
        {
          "name": "investor",
          "type": "address"
        }
      ],
      "name": "getClaimAmount",
      "outputs": [
        {
          "name": "",
          "type": "uint256"
        }
      ],
      "payable": false,
      "stateMutability": "view",
      "type": "function"
    },
    {
      "constant": true,
      "inputs": [
        {
          "name": "investor",
          "type": "address"
        }
      ],
      "name": "getClaimLeft",
      "outputs": [
        {
          "name": "",
          "type": "uint256"
        }
      ],
      "payable": false,
      "stateMutability": "view",
      "type": "function"
    },
    {
      "constant": false,
      "inputs": [],
      "name": "claimAll",
      "outputs": [],
      "payable": false,
      "stateMutability": "nonpayable",
      "type": "function"
    },
    {
      "constant": false,
      "inputs": [
        {
          "name": "amount",
          "type": "uint256"
        }
      ],
      "name": "claim",
      "outputs": [],
      "payable": false,
      "stateMutability": "nonpayable",
      "type": "function"
    },
    {
      "constant": false,
      "inputs": [],
      "name": "refund",
      "outputs": [],
      "payable": false,
      "stateMutability": "nonpayable",
      "type": "function"
    },
    {
      "constant": false,
      "inputs": [
        {
          "name": "_crowdsale",
          "type": "address"
        }
      ],
      "name": "setCrowdsale",
      "outputs": [],
      "payable": false,
      "stateMutability": "nonpayable",
      "type": "function"
    },
    {
      "constant": false,
      "inputs": [
        {
          "name": "_timeLock",
          "type": "uint256"
        }
      ],
      "name": "setTimeLock",
      "outputs": [],
      "payable": false,
      "stateMutability": "nonpayable",
      "type": "function"
    },
    {
      "constant": false,
      "inputs": [],
      "name": "forceRefund",
      "outputs": [],
      "payable": false,
      "stateMutability": "nonpayable",
      "type": "function"
    },
    {
      "constant": false,
      "inputs": [],
      "name": "loadRefund",
      "outputs": [],
      "payable": true,
      "stateMutability": "payable",
      "type": "function"
    },
    {
      "constant": false,
      "inputs": [],
      "name": "getState",
      "outputs": [
        {
          "name": "",
          "type": "uint8"
        }
      ],
      "payable": false,
      "stateMutability": "nonpayable",
      "type": "function"
    },
    {
      "constant": true,
      "inputs": [],
      "name": "isPresale",
      "outputs": [
        {
          "name": "",
          "type": "bool"
        }
      ],
      "payable": false,
      "stateMutability": "view",
      "type": "function"
    }
  ],
  "bytecode": "0x608060405234801561001057600080fd5b5060405160a080611eb28339810180604052810190808051906020019092919080519060200190929190805190602001909291908051906020019092919080519060200190929190505050336000806101000a81548173ffffffffffffffffffffffffffffffffffffffff021916908373ffffffffffffffffffffffffffffffffffffffff160217905550846000806101000a81548173ffffffffffffffffffffffffffffffffffffffff021916908373ffffffffffffffffffffffffffffffffffffffff16021790555060008414156100e957600080fd5b60008314156100f757600080fd5b600082141561010557600080fd5b826007819055508160088190555080600981905550836006819055505050505050611d7d806101356000396000f3006080604052600436106101c2576000357c0100000000000000000000000000000000000000000000000000000000900463ffffffff1680631540fe22146101c75780631865c57d146101f257806321df0da71461022b57806327e235e314610282578063379607f5146102d95780633c67b6b7146103065780633feb5f2b1461035d5780634042b66f146103ca578063483a20b2146103f5578063590e1ae3146104385780635bcb318a1461044f5780635ed7ca5b1461047c5780636962b01014610493578063715018a6146104be578063732783ac146104d557806384fe502914610500578063876121021461052b5780638da4d3c9146105355780638da5cb5b1461056057806395364a84146105b757806399e9376c146105e65780639c1e03a014610618578063a6f2ae3a1461066f578063aa5581ef14610679578063b9b8af0b146106a4578063bd7427f8146106d3578063c884ef83146106ea578063cb3e64fd14610741578063d085835a14610758578063d1058e5914610783578063d46070481461079a578063d54ad2a1146107b1578063d7e64c00146107dc578063dba2d87514610807578063dde070e814610836578063f2fde38b1461088d575b600080fd5b3480156101d357600080fd5b506101dc6108d0565b6040518082815260200191505060405180910390f35b3480156101fe57600080fd5b506102076108d6565b6040518082600381111561021757fe5b60ff16815260200191505060405180910390f35b34801561023757600080fd5b50610240610926565b604051808273ffffffffffffffffffffffffffffffffffffffff1673ffffffffffffffffffffffffffffffffffffffff16815260200191505060405180910390f35b34801561028e57600080fd5b506102c3600480360381019080803573ffffffffffffffffffffffffffffffffffffffff169060200190929190505050610a33565b6040518082815260200191505060405180910390f35b3480156102e557600080fd5b5061030460048036038101908080359060200190929190505050610a4b565b005b34801561031257600080fd5b50610347600480360381019080803573ffffffffffffffffffffffffffffffffffffffff169060200190929190505050610cfc565b6040518082815260200191505060405180910390f35b34801561036957600080fd5b5061038860048036038101908080359060200190929190505050610d5f565b604051808273ffffffffffffffffffffffffffffffffffffffff1673ffffffffffffffffffffffffffffffffffffffff16815260200191505060405180910390f35b3480156103d657600080fd5b506103df610d9d565b6040518082815260200191505060405180910390f35b34801561040157600080fd5b50610436600480360381019080803573ffffffffffffffffffffffffffffffffffffffff169060200190929190505050610da3565b005b34801561044457600080fd5b5061044d610f04565b005b34801561045b57600080fd5b5061047a600480360381019080803590602001909291905050506110c7565b005b34801561048857600080fd5b5061049161112c565b005b34801561049f57600080fd5b506104a86111a4565b6040518082815260200191505060405180910390f35b3480156104ca57600080fd5b506104d36111aa565b005b3480156104e157600080fd5b506104ea6112ac565b6040518082815260200191505060405180910390f35b34801561050c57600080fd5b506105156112b2565b6040518082815260200191505060405180910390f35b6105336112b8565b005b34801561054157600080fd5b5061054a6112e5565b6040518082815260200191505060405180910390f35b34801561056c57600080fd5b506105756112eb565b604051808273ffffffffffffffffffffffffffffffffffffffff1673ffffffffffffffffffffffffffffffffffffffff16815260200191505060405180910390f35b3480156105c357600080fd5b506105cc611310565b604051808215151515815260200191505060405180910390f35b61061660048036038101908080356fffffffffffffffffffffffffffffffff169060200190929190505050611319565b005b34801561062457600080fd5b5061062d61133f565b604051808273ffffffffffffffffffffffffffffffffffffffff1673ffffffffffffffffffffffffffffffffffffffff16815260200191505060405180910390f35b610677611365565b005b34801561068557600080fd5b5061068e61138b565b6040518082815260200191505060405180910390f35b3480156106b057600080fd5b506106b9611391565b604051808215151515815260200191505060405180910390f35b3480156106df57600080fd5b506106e86113a4565b005b3480156106f657600080fd5b5061072b600480360381019080803573ffffffffffffffffffffffffffffffffffffffff16906020019092919050505061141c565b6040518082815260200191505060405180910390f35b34801561074d57600080fd5b50610756611434565b005b34801561076457600080fd5b5061076d6114c6565b6040518082815260200191505060405180910390f35b34801561078f57600080fd5b506107986114cc565b005b3480156107a657600080fd5b506107af6114df565b005b3480156107bd57600080fd5b506107c66117ca565b6040518082815260200191505060405180910390f35b3480156107e857600080fd5b506107f16117d0565b6040518082815260200191505060405180910390f35b34801561081357600080fd5b5061081c6117d6565b604051808215151515815260200191505060405180910390f35b34801561084257600080fd5b50610877600480360381019080803573ffffffffffffffffffffffffffffffffffffffff1690602001909291905050506117e9565b6040518082815260200191505060405180910390f35b34801561089957600080fd5b506108ce600480360381019080803573ffffffffffffffffffffffffffffffffffffffff16906020019092919050505061187f565b005b60075481565b6000600e60009054906101000a900460ff16156108f65760039050610923565b6000600a54141561091e57600654421015156109155760039050610923565b60019050610923565b600290505b90565b600080600e60019054906101000a900473ffffffffffffffffffffffffffffffffffffffff1673ffffffffffffffffffffffffffffffffffffffff16141561096d57600080fd5b600e60019054906101000a900473ffffffffffffffffffffffffffffffffffffffff1673ffffffffffffffffffffffffffffffffffffffff1663fc0c546a6040518163ffffffff167c0100000000000000000000000000000000000000000000000000000000028152600401602060405180830381600087803b1580156109f357600080fd5b505af1158015610a07573d6000803e3d6000fd5b505050506040513d6020811015610a1d57600080fd5b8101908080519060200190929190505050905090565b60046020528060005260406000206000915090505481565b60008060149054906101000a900460ff1615610a6657600080fd5b600d5442111515610a7657600080fd5b3390506000821415610a8757600080fd5b81610a9182610cfc565b1015610a9c57600080fd5b6000600560008373ffffffffffffffffffffffffffffffffffffffff1673ffffffffffffffffffffffffffffffffffffffff168152602001908152602001600020541415610af757600b600081548092919060010191905055505b610b4982600560008473ffffffffffffffffffffffffffffffffffffffff1673ffffffffffffffffffffffffffffffffffffffff168152602001908152602001600020546118e690919063ffffffff16565b600560008373ffffffffffffffffffffffffffffffffffffffff1673ffffffffffffffffffffffffffffffffffffffff16815260200190815260200160002081905550610ba182600c546118e690919063ffffffff16565b600c81905550610baf610926565b73ffffffffffffffffffffffffffffffffffffffff1663a9059cbb82846040518363ffffffff167c0100000000000000000000000000000000000000000000000000000000028152600401808373ffffffffffffffffffffffffffffffffffffffff1673ffffffffffffffffffffffffffffffffffffffff16815260200182815260200192505050602060405180830381600087803b158015610c5157600080fd5b505af1158015610c65573d6000803e3d6000fd5b505050506040513d6020811015610c7b57600080fd5b8101908080519060200190929190505050507fb649c98f58055c520df0dcb5709eff2e931217ff2fb1e21376130d31bbb1c0af8183604051808373ffffffffffffffffffffffffffffffffffffffff1673ffffffffffffffffffffffffffffffffffffffff1681526020018281526020019250505060405180910390a15050565b6000610d58600560008473ffffffffffffffffffffffffffffffffffffffff1673ffffffffffffffffffffffffffffffffffffffff16815260200190815260200160002054610d4a846117e9565b61190290919063ffffffff16565b9050919050565b600381815481101515610d6e57fe5b906000526020600020016000915054906101000a900473ffffffffffffffffffffffffffffffffffffffff1681565b60025481565b6000809054906101000a900473ffffffffffffffffffffffffffffffffffffffff1673ffffffffffffffffffffffffffffffffffffffff163373ffffffffffffffffffffffffffffffffffffffff16141515610dfe57600080fd5b80600e60016101000a81548173ffffffffffffffffffffffffffffffffffffffff021916908373ffffffffffffffffffffffffffffffffffffffff160217905550600e60019054906101000a900473ffffffffffffffffffffffffffffffffffffffff1673ffffffffffffffffffffffffffffffffffffffff16634551dd596040518163ffffffff167c0100000000000000000000000000000000000000000000000000000000028152600401602060405180830381600087803b158015610ec557600080fd5b505af1158015610ed9573d6000803e3d6000fd5b505050506040513d6020811015610eef57600080fd5b81019080805190602001909291905050505050565b600080600060149054906101000a900460ff1615610f2157600080fd5b600380811115610f2d57fe5b610f356108d6565b6003811115610f4057fe5b141515610f4c57600080fd5b3391506000600460008473ffffffffffffffffffffffffffffffffffffffff1673ffffffffffffffffffffffffffffffffffffffff168152602001908152602001600020541415610f9c57600080fd5b600460008373ffffffffffffffffffffffffffffffffffffffff1673ffffffffffffffffffffffffffffffffffffffff168152602001908152602001600020549050600460008373ffffffffffffffffffffffffffffffffffffffff1673ffffffffffffffffffffffffffffffffffffffff168152602001908152602001600020600090558173ffffffffffffffffffffffffffffffffffffffff168160405160006040518083038185875af192505050151561105857600080fd5b7fd7dee2702d63ad89917b6a4da9981c90c4d24f8c2bdfd64c604ecae57d8d06518282604051808373ffffffffffffffffffffffffffffffffffffffff1673ffffffffffffffffffffffffffffffffffffffff1681526020018281526020019250505060405180910390a15050565b6000809054906101000a900473ffffffffffffffffffffffffffffffffffffffff1673ffffffffffffffffffffffffffffffffffffffff163373ffffffffffffffffffffffffffffffffffffffff1614151561112257600080fd5b80600d8190555050565b6000809054906101000a900473ffffffffffffffffffffffffffffffffffffffff1673ffffffffffffffffffffffffffffffffffffffff163373ffffffffffffffffffffffffffffffffffffffff1614151561118757600080fd5b6001600060146101000a81548160ff021916908315150217905550565b60065481565b6000809054906101000a900473ffffffffffffffffffffffffffffffffffffffff1673ffffffffffffffffffffffffffffffffffffffff163373ffffffffffffffffffffffffffffffffffffffff1614151561120557600080fd5b6000809054906101000a900473ffffffffffffffffffffffffffffffffffffffff1673ffffffffffffffffffffffffffffffffffffffff167ff8df31144d9c2f0f6b59d69b8b98abd5459d07f2742c4df920b25aae33c6482060405160405180910390a260008060006101000a81548173ffffffffffffffffffffffffffffffffffffffff021916908373ffffffffffffffffffffffffffffffffffffffff160217905550565b600a5481565b60095481565b6003808111156112c457fe5b6112cc6108d6565b60038111156112d757fe5b1415156112e357600080fd5b565b600b5481565b6000809054906101000a900473ffffffffffffffffffffffffffffffffffffffff1681565b60006001905090565b600060149054906101000a900460ff161561133357600080fd5b61133c8161191b565b50565b600e60019054906101000a900473ffffffffffffffffffffffffffffffffffffffff1681565b600060149054906101000a900460ff161561137f57600080fd5b611389600061191b565b565b60085481565b600060149054906101000a900460ff1681565b6000809054906101000a900473ffffffffffffffffffffffffffffffffffffffff1673ffffffffffffffffffffffffffffffffffffffff163373ffffffffffffffffffffffffffffffffffffffff161415156113ff57600080fd5b6001600e60006101000a81548160ff021916908315150217905550565b60056020528060005260406000206000915090505481565b6000809054906101000a900473ffffffffffffffffffffffffffffffffffffffff1673ffffffffffffffffffffffffffffffffffffffff163373ffffffffffffffffffffffffffffffffffffffff1614151561148f57600080fd5b600060149054906101000a900460ff1615156114aa57600080fd5b60008060146101000a81548160ff021916908315150217905550565b600d5481565b6114dd6114d833610cfc565b610a4b565b565b600060149054906101000a900460ff16801561154857506000809054906101000a900473ffffffffffffffffffffffffffffffffffffffff1673ffffffffffffffffffffffffffffffffffffffff163373ffffffffffffffffffffffffffffffffffffffff1614155b1561155257600080fd5b6001600381111561155f57fe5b6115676108d6565b600381111561157257fe5b14151561157e57600080fd5b6000600e60019054906101000a900473ffffffffffffffffffffffffffffffffffffffff1673ffffffffffffffffffffffffffffffffffffffff1614156115c457600080fd5b600e60019054906101000a900473ffffffffffffffffffffffffffffffffffffffff1673ffffffffffffffffffffffffffffffffffffffff166303f9c793600254306040518363ffffffff167c0100000000000000000000000000000000000000000000000000000000028152600401808273ffffffffffffffffffffffffffffffffffffffff1673ffffffffffffffffffffffffffffffffffffffff1681526020019150506000604051808303818588803b15801561168357600080fd5b505af1158015611697573d6000803e3d6000fd5b50505050506116a4610926565b73ffffffffffffffffffffffffffffffffffffffff166370a08231306040518263ffffffff167c0100000000000000000000000000000000000000000000000000000000028152600401808273ffffffffffffffffffffffffffffffffffffffff1673ffffffffffffffffffffffffffffffffffffffff168152602001915050602060405180830381600087803b15801561173e57600080fd5b505af1158015611752573d6000803e3d6000fd5b505050506040513d602081101561176857600080fd5b8101908080519060200190929190505050600a819055506000600a54141561178f57600080fd5b7f6e1e34c7e3c3bcd68cb35ee1352c9d7320d7d1ab8ff8402c789a235f368a993e600a546040518082815260200191505060405180910390a1565b600c5481565b60015481565b600e60009054906101000a900460ff1681565b6000600260038111156117f857fe5b6118006108d6565b600381111561180b57fe5b14151561181757600080fd5b60025461186e600a54600460008673ffffffffffffffffffffffffffffffffffffffff1673ffffffffffffffffffffffffffffffffffffffff16815260200190815260200160002054611c1f90919063ffffffff16565b81151561187757fe5b049050919050565b6000809054906101000a900473ffffffffffffffffffffffffffffffffffffffff1673ffffffffffffffffffffffffffffffffffffffff163373ffffffffffffffffffffffffffffffffffffffff161415156118da57600080fd5b6118e381611c57565b50565b600081830190508281101515156118f957fe5b80905092915050565b600082821115151561191057fe5b818303905092915050565b6000806001600381111561192b57fe5b6119336108d6565b600381111561193e57fe5b14151561194a57600080fd5b600034141561195857600080fd5b3391506000600460008473ffffffffffffffffffffffffffffffffffffffff1673ffffffffffffffffffffffffffffffffffffffff168152602001908152602001600020541190506119f234600460008573ffffffffffffffffffffffffffffffffffffffff1673ffffffffffffffffffffffffffffffffffffffff168152602001908152602001600020546118e690919063ffffffff16565b600460008473ffffffffffffffffffffffffffffffffffffffff1673ffffffffffffffffffffffffffffffffffffffff16815260200190815260200160002081905550600754600460008473ffffffffffffffffffffffffffffffffffffffff1673ffffffffffffffffffffffffffffffffffffffff168152602001908152602001600020541080611ac45750600854600460008473ffffffffffffffffffffffffffffffffffffffff1673ffffffffffffffffffffffffffffffffffffffff16815260200190815260200160002054115b15611ace57600080fd5b801515611b4e5760038290806001815401808255809150509060018203906000526020600020016000909192909190916101000a81548173ffffffffffffffffffffffffffffffffffffffff021916908373ffffffffffffffffffffffffffffffffffffffff160217905550506001600081548092919060010191905055505b611b63346002546118e690919063ffffffff16565b6002819055506009546002541115611b7a57600080fd5b7f0396f60aaad038749091d273dc13aaabc63db6e2271c7bad442d5cf25cc433508234600086604051808573ffffffffffffffffffffffffffffffffffffffff1673ffffffffffffffffffffffffffffffffffffffff168152602001848152602001838152602001826fffffffffffffffffffffffffffffffff166fffffffffffffffffffffffffffffffff16815260200194505050505060405180910390a1505050565b600080831415611c325760009050611c51565b8183029050818382811515611c4357fe5b04141515611c4d57fe5b8090505b92915050565b600073ffffffffffffffffffffffffffffffffffffffff168173ffffffffffffffffffffffffffffffffffffffff1614151515611c9357600080fd5b8073ffffffffffffffffffffffffffffffffffffffff166000809054906101000a900473ffffffffffffffffffffffffffffffffffffffff1673ffffffffffffffffffffffffffffffffffffffff167f8be0079c531659141344cd1fd0a4f28419497f9722a3daafe3b4186f6b6457e060405160405180910390a3806000806101000a81548173ffffffffffffffffffffffffffffffffffffffff021916908373ffffffffffffffffffffffffffffffffffffffff160217905550505600a165627a7a72305820b2f074c22dcf3c2a86656fa7701b567f2e71025ffdffa67cc3f9dc22eb47ff3d0029",
  "source": "/**\n * This smart contract code is Copyright 2017 TokenMarket Ltd. For more information see https://tokenmarket.net\n *\n * Licensed under the Apache License, version 2.0: https://github.com/TokenMarketNet/ico/blob/master/LICENSE.txt\n */\n\npragma solidity ^0.4.6;\n\nimport \"zeppelin/contracts/math/SafeMath.sol\";\nimport \"./Crowdsale.sol\";\nimport \"./Haltable.sol\";\n\n/**\n * Collect funds from presale investors, buy tokens for them in a single transaction and distribute out tokens.\n *\n * - Collect funds from pre-sale investors\n * - Send funds to the crowdsale when it opens\n * - Allow owner to set the crowdsale\n * - Have refund after X days as a safety hatch if the crowdsale doesn't materilize\n * - Allow unlimited investors\n * - Tokens are distributed on PreICOProxyBuyer smart contract first\n * - The original investors can claim their tokens from the smart contract after the token transfer has been released\n * - All functions can be halted by owner if something goes wrong\n *\n */\ncontract PreICOProxyBuyer is Ownable, Haltable {\n  using SafeMath for uint;\n\n  /** How many investors we have now */\n  uint public investorCount;\n\n  /** How many wei we have raised totla. */\n  uint public weiRaised;\n\n  /** Who are our investors (iterable) */\n  address[] public investors;\n\n  /** How much they have invested */\n  mapping(address => uint) public balances;\n\n  /** How many tokens investors have claimed */\n  mapping(address => uint) public claimed;\n\n  /** When our refund freeze is over (UNIT timestamp) */\n  uint public freezeEndsAt;\n\n  /** What is the minimum buy in */\n  uint public weiMinimumLimit;\n\n  /** What is the maximum buy in */\n  uint public weiMaximumLimit;\n\n  /** How many weis total we are allowed to collect. */\n  uint public weiCap;\n\n  /** How many tokens were bought */\n  uint public tokensBought;\n\n   /** How many investors have claimed their tokens */\n  uint public claimCount;\n\n  uint public totalClaimed;\n\n  /** If timeLock > 0, claiming is possible only after the time has passed **/\n  uint public timeLock;\n\n  /** This is used to signal that we want the refund **/\n  bool public forcedRefund;\n\n  /** Our ICO contract where we will move the funds */\n  Crowdsale public crowdsale;\n\n  /** What is our current state. */\n  enum State{Unknown, Funding, Distributing, Refunding}\n\n  /** Somebody loaded their investment money */\n  event Invested(address investor, uint weiAmount, uint tokenAmount, uint128 customerId);\n\n  /** Refund claimed */\n  event Refunded(address investor, uint value);\n\n  /** We executed our buy */\n  event TokensBoughts(uint count);\n\n  /** We distributed tokens to an investor */\n  event Distributed(address investor, uint count);\n\n  /**\n   * Create presale contract where lock up period is given days\n   */\n  function PreICOProxyBuyer(address _owner, uint _freezeEndsAt, uint _weiMinimumLimit, uint _weiMaximumLimit, uint _weiCap) {\n\n    owner = _owner;\n\n    // Give argument\n    if(_freezeEndsAt == 0) {\n      throw;\n    }\n\n    // Give argument\n    if(_weiMinimumLimit == 0) {\n      throw;\n    }\n\n    if(_weiMaximumLimit == 0) {\n      throw;\n    }\n\n    weiMinimumLimit = _weiMinimumLimit;\n    weiMaximumLimit = _weiMaximumLimit;\n    weiCap = _weiCap;\n    freezeEndsAt = _freezeEndsAt;\n  }\n\n  /**\n   * Get the token we are distributing.\n   */\n  function getToken() public constant returns(FractionalERC20) {\n    if(address(crowdsale) == 0)  {\n      throw;\n    }\n\n    return crowdsale.token();\n  }\n\n  /**\n   * Participate to a presale.\n   */\n  function invest(uint128 customerId) private {\n\n    // Cannot invest anymore through crowdsale when moving has begun\n    if(getState() != State.Funding) throw;\n\n    if(msg.value == 0) throw; // No empty buys\n\n    address investor = msg.sender;\n\n    bool existing = balances[investor] > 0;\n\n    balances[investor] = balances[investor].add(msg.value);\n\n    // Need to satisfy minimum and maximum limits\n    if(balances[investor] < weiMinimumLimit || balances[investor] > weiMaximumLimit) {\n      throw;\n    }\n\n    // This is a new investor\n    if(!existing) {\n      investors.push(investor);\n      investorCount++;\n    }\n\n    weiRaised = weiRaised.add(msg.value);\n    if(weiRaised > weiCap) {\n      throw;\n    }\n\n    // We will use the same event form the Crowdsale for compatibility reasons\n    // despite not having a token amount.\n    Invested(investor, msg.value, 0, customerId);\n  }\n\n  function buyWithCustomerId(uint128 customerId) public stopInEmergency payable {\n    invest(customerId);\n  }\n\n  function buy() public stopInEmergency payable {\n    invest(0x0);\n  }\n\n\n  /**\n   * Load funds to the crowdsale for all investors.\n   *\n   *\n   */\n  function buyForEverybody() stopNonOwnersInEmergency public {\n\n    if(getState() != State.Funding) {\n      // Only allow buy once\n      throw;\n    }\n\n    // Crowdsale not yet set\n    if(address(crowdsale) == 0) throw;\n\n    // Buy tokens on the contract\n    crowdsale.invest.value(weiRaised)(address(this));\n\n    // Record how many tokens we got\n    tokensBought = getToken().balanceOf(address(this));\n\n    if(tokensBought == 0) {\n      // Did not get any tokens\n      throw;\n    }\n\n    TokensBoughts(tokensBought);\n  }\n\n  /**\n   * How may tokens each investor gets.\n   */\n  function getClaimAmount(address investor) public constant returns (uint) {\n\n    // Claims can be only made if we manage to buy tokens\n    if(getState() != State.Distributing) {\n      throw;\n    }\n    return balances[investor].mul(tokensBought) / weiRaised;\n  }\n\n  /**\n   * How many tokens remain unclaimed for an investor.\n   */\n  function getClaimLeft(address investor) public constant returns (uint) {\n    return getClaimAmount(investor).sub(claimed[investor]);\n  }\n\n  /**\n   * Claim all remaining tokens for this investor.\n   */\n  function claimAll() {\n    claim(getClaimLeft(msg.sender));\n  }\n\n  /**\n   * Claim N bought tokens to the investor as the msg sender.\n   *\n   */\n  function claim(uint amount) stopInEmergency {\n    require (now > timeLock);\n\n    address investor = msg.sender;\n\n    if(amount == 0) {\n      throw;\n    }\n\n    if(getClaimLeft(investor) < amount) {\n      // Woops we cannot get more than we have left\n      throw;\n    }\n\n    // We track who many investor have (partially) claimed their tokens\n    if(claimed[investor] == 0) {\n      claimCount++;\n    }\n\n    claimed[investor] = claimed[investor].add(amount);\n    totalClaimed = totalClaimed.add(amount);\n    getToken().transfer(investor, amount);\n\n    Distributed(investor, amount);\n  }\n\n  /**\n   * ICO never happened. Allow refund.\n   */\n  function refund() stopInEmergency {\n\n    // Trying to ask refund too soon\n    if(getState() != State.Refunding) throw;\n\n    address investor = msg.sender;\n    if(balances[investor] == 0) throw;\n    uint amount = balances[investor];\n    delete balances[investor];\n    if(!(investor.call.value(amount)())) throw;\n    Refunded(investor, amount);\n  }\n\n  /**\n   * Set the target crowdsale where we will move presale funds when the crowdsale opens.\n   */\n  function setCrowdsale(Crowdsale _crowdsale) public onlyOwner {\n    crowdsale = _crowdsale;\n\n    // Check interface\n    if(!crowdsale.isCrowdsale()) true;\n  }\n\n  /// @dev Setting timelock (delay) for claiming\n  /// @param _timeLock Time after which claiming is possible\n  function setTimeLock(uint _timeLock) public onlyOwner {\n    timeLock = _timeLock;\n  }\n\n  /// @dev This is used in the first case scenario, this will force the state\n  ///      to refunding. This can be also used when the ICO fails to meet the cap.\n  function forceRefund() public onlyOwner {\n    forcedRefund = true;\n  }\n\n  /// @dev This should be used if the Crowdsale fails, to receive the refuld money.\n  ///      we can't use Crowdsale's refund, since our default function does not\n  ///      accept money in.\n  function loadRefund() public payable {\n    if(getState() != State.Refunding) throw;\n  }\n\n  /**\n   * Resolve the contract umambigious state.\n   */\n  function getState() public returns(State) {\n    if (forcedRefund)\n      return State.Refunding;\n\n    if(tokensBought == 0) {\n      if(now >= freezeEndsAt) {\n         return State.Refunding;\n      } else {\n        return State.Funding;\n      }\n    } else {\n      return State.Distributing;\n    }\n  }\n\n  /** Interface marker. */\n  function isPresale() public constant returns (bool) {\n    return true;\n  }\n\n  /** Explicitly call function from your wallet. */\n  function() payable {\n    throw;\n  }\n}\n",
  "sourcePath": "/home/otokarev/work/umbre/ico/contracts/PreICOProxyBuyer.sol",
  "compiler": {
    "name": "solc",
    "version": "0.4.24+commit.e67f0147.Emscripten.clang"
  },
  "schemaVersion": "2.0.1",
  "updatedAt": "2018-09-12T21:12:30.148Z"
}