{
  "contractName": "PresaleFundCollector",
  "abi": [
    {
      "constant": true,
      "inputs": [],
      "name": "weiMinimumLimit",
      "outputs": [
        {
          "name": "",
          "type": "uint256"
        }
      ],
      "payable": false,
      "stateMutability": "view",
      "type": "function"
    },
    {
      "constant": true,
      "inputs": [
        {
          "name": "",
          "type": "address"
        }
      ],
      "name": "balances",
      "outputs": [
        {
          "name": "",
          "type": "uint256"
        }
      ],
      "payable": false,
      "stateMutability": "view",
      "type": "function"
    },
    {
      "constant": true,
      "inputs": [
        {
          "name": "",
          "type": "uint256"
        }
      ],
      "name": "investors",
      "outputs": [
        {
          "name": "",
          "type": "address"
        }
      ],
      "payable": false,
      "stateMutability": "view",
      "type": "function"
    },
    {
      "constant": true,
      "inputs": [],
      "name": "freezeEndsAt",
      "outputs": [
        {
          "name": "",
          "type": "uint256"
        }
      ],
      "payable": false,
      "stateMutability": "view",
      "type": "function"
    },
    {
      "constant": true,
      "inputs": [],
      "name": "MAX_INVESTORS",
      "outputs": [
        {
          "name": "",
          "type": "uint256"
        }
      ],
      "payable": false,
      "stateMutability": "view",
      "type": "function"
    },
    {
      "constant": false,
      "inputs": [],
      "name": "renounceOwnership",
      "outputs": [],
      "payable": false,
      "stateMutability": "nonpayable",
      "type": "function"
    },
    {
      "constant": true,
      "inputs": [],
      "name": "owner",
      "outputs": [
        {
          "name": "",
          "type": "address"
        }
      ],
      "payable": false,
      "stateMutability": "view",
      "type": "function"
    },
    {
      "constant": true,
      "inputs": [],
      "name": "crowdsale",
      "outputs": [
        {
          "name": "",
          "type": "address"
        }
      ],
      "payable": false,
      "stateMutability": "view",
      "type": "function"
    },
    {
      "constant": true,
      "inputs": [],
      "name": "moving",
      "outputs": [
        {
          "name": "",
          "type": "bool"
        }
      ],
      "payable": false,
      "stateMutability": "view",
      "type": "function"
    },
    {
      "constant": true,
      "inputs": [],
      "name": "investorCount",
      "outputs": [
        {
          "name": "",
          "type": "uint256"
        }
      ],
      "payable": false,
      "stateMutability": "view",
      "type": "function"
    },
    {
      "constant": false,
      "inputs": [
        {
          "name": "_newOwner",
          "type": "address"
        }
      ],
      "name": "transferOwnership",
      "outputs": [],
      "payable": false,
      "stateMutability": "nonpayable",
      "type": "function"
    },
    {
      "inputs": [
        {
          "name": "_owner",
          "type": "address"
        },
        {
          "name": "_freezeEndsAt",
          "type": "uint256"
        },
        {
          "name": "_weiMinimumLimit",
          "type": "uint256"
        }
      ],
      "payable": false,
      "stateMutability": "nonpayable",
      "type": "constructor"
    },
    {
      "payable": true,
      "stateMutability": "payable",
      "type": "fallback"
    },
    {
      "anonymous": false,
      "inputs": [
        {
          "indexed": false,
          "name": "investor",
          "type": "address"
        },
        {
          "indexed": false,
          "name": "value",
          "type": "uint256"
        }
      ],
      "name": "Invested",
      "type": "event"
    },
    {
      "anonymous": false,
      "inputs": [
        {
          "indexed": false,
          "name": "investor",
          "type": "address"
        },
        {
          "indexed": false,
          "name": "value",
          "type": "uint256"
        }
      ],
      "name": "Refunded",
      "type": "event"
    },
    {
      "anonymous": false,
      "inputs": [
        {
          "indexed": true,
          "name": "previousOwner",
          "type": "address"
        }
      ],
      "name": "OwnershipRenounced",
      "type": "event"
    },
    {
      "anonymous": false,
      "inputs": [
        {
          "indexed": true,
          "name": "previousOwner",
          "type": "address"
        },
        {
          "indexed": true,
          "name": "newOwner",
          "type": "address"
        }
      ],
      "name": "OwnershipTransferred",
      "type": "event"
    },
    {
      "constant": false,
      "inputs": [],
      "name": "invest",
      "outputs": [],
      "payable": true,
      "stateMutability": "payable",
      "type": "function"
    },
    {
      "constant": false,
      "inputs": [
        {
          "name": "investor",
          "type": "address"
        }
      ],
      "name": "participateCrowdsaleInvestor",
      "outputs": [],
      "payable": false,
      "stateMutability": "nonpayable",
      "type": "function"
    },
    {
      "constant": false,
      "inputs": [],
      "name": "participateCrowdsaleAll",
      "outputs": [],
      "payable": false,
      "stateMutability": "nonpayable",
      "type": "function"
    },
    {
      "constant": false,
      "inputs": [],
      "name": "refund",
      "outputs": [],
      "payable": false,
      "stateMutability": "nonpayable",
      "type": "function"
    },
    {
      "constant": false,
      "inputs": [
        {
          "name": "_crowdsale",
          "type": "address"
        }
      ],
      "name": "setCrowdsale",
      "outputs": [],
      "payable": false,
      "stateMutability": "nonpayable",
      "type": "function"
    }
  ],
  "bytecode": "0x6080604052602060015534801561001557600080fd5b50604051606080611058833981018060405281019080805190602001909291908051906020019092919080519060200190929190505050336000806101000a81548173ffffffffffffffffffffffffffffffffffffffff021916908373ffffffffffffffffffffffffffffffffffffffff160217905550826000806101000a81548173ffffffffffffffffffffffffffffffffffffffff021916908373ffffffffffffffffffffffffffffffffffffffff16021790555060008214156100da57600080fd5b60008114156100e857600080fd5b8060068190555081600581905550505050610f50806101086000396000f3006080604052600436106100e6576000357c0100000000000000000000000000000000000000000000000000000000900463ffffffff1680631540fe22146100eb57806324ae84cc1461011657806327e235e3146101595780633feb5f2b146101b0578063483a20b21461021d578063590e1ae3146102605780636962b010146102775780636a34480b146102a2578063715018a6146102cd5780638da5cb5b146102e45780639c1e03a01461033b578063b8e3e6da14610392578063cb11526d146103a9578063d7e64c00146103d8578063e8b5e51f14610403578063f2fde38b1461040d575b600080fd5b3480156100f757600080fd5b50610100610450565b6040518082815260200191505060405180910390f35b34801561012257600080fd5b50610157600480360381019080803573ffffffffffffffffffffffffffffffffffffffff169060200190929190505050610456565b005b34801561016557600080fd5b5061019a600480360381019080803573ffffffffffffffffffffffffffffffffffffffff169060200190929190505050610660565b6040518082815260200191505060405180910390f35b3480156101bc57600080fd5b506101db60048036038101908080359060200190929190505050610678565b604051808273ffffffffffffffffffffffffffffffffffffffff1673ffffffffffffffffffffffffffffffffffffffff16815260200191505060405180910390f35b34801561022957600080fd5b5061025e600480360381019080803573ffffffffffffffffffffffffffffffffffffffff1690602001909291905050506106b6565b005b34801561026c57600080fd5b50610275610755565b005b34801561028357600080fd5b5061028c610906565b6040518082815260200191505060405180910390f35b3480156102ae57600080fd5b506102b761090c565b6040518082815260200191505060405180910390f35b3480156102d957600080fd5b506102e2610912565b005b3480156102f057600080fd5b506102f9610a14565b604051808273ffffffffffffffffffffffffffffffffffffffff1673ffffffffffffffffffffffffffffffffffffffff16815260200191505060405180910390f35b34801561034757600080fd5b50610350610a39565b604051808273ffffffffffffffffffffffffffffffffffffffff1673ffffffffffffffffffffffffffffffffffffffff16815260200191505060405180910390f35b34801561039e57600080fd5b506103a7610a5f565b005b3480156103b557600080fd5b506103be610ac4565b604051808215151515815260200191505060405180910390f35b3480156103e457600080fd5b506103ed610ad7565b6040518082815260200191505060405180910390f35b61040b610add565b005b34801561041957600080fd5b5061044e600480360381019080803573ffffffffffffffffffffffffffffffffffffffff169060200190929190505050610dc3565b005b60065481565b600080600760019054906101000a900473ffffffffffffffffffffffffffffffffffffffff1673ffffffffffffffffffffffffffffffffffffffff16141561049d57600080fd5b6001600760006101000a81548160ff0219169083151502179055506000600460008473ffffffffffffffffffffffffffffffffffffffff1673ffffffffffffffffffffffffffffffffffffffff16815260200190815260200160002054111561065c57600460008373ffffffffffffffffffffffffffffffffffffffff1673ffffffffffffffffffffffffffffffffffffffff168152602001908152602001600020549050600460008373ffffffffffffffffffffffffffffffffffffffff1673ffffffffffffffffffffffffffffffffffffffff16815260200190815260200160002060009055600760019054906101000a900473ffffffffffffffffffffffffffffffffffffffff1673ffffffffffffffffffffffffffffffffffffffff166303f9c79382846040518363ffffffff167c0100000000000000000000000000000000000000000000000000000000028152600401808273ffffffffffffffffffffffffffffffffffffffff1673ffffffffffffffffffffffffffffffffffffffff1681526020019150506000604051808303818588803b15801561064257600080fd5b505af1158015610656573d6000803e3d6000fd5b50505050505b5050565b60046020528060005260406000206000915090505481565b60038181548110151561068757fe5b906000526020600020016000915054906101000a900473ffffffffffffffffffffffffffffffffffffffff1681565b6000809054906101000a900473ffffffffffffffffffffffffffffffffffffffff1673ffffffffffffffffffffffffffffffffffffffff163373ffffffffffffffffffffffffffffffffffffffff1614151561071157600080fd5b80600760016101000a81548173ffffffffffffffffffffffffffffffffffffffff021916908373ffffffffffffffffffffffffffffffffffffffff16021790555050565b60008060055442101561076757600080fd5b6001600760006101000a81548160ff0219169083151502179055503391506000600460008473ffffffffffffffffffffffffffffffffffffffff1673ffffffffffffffffffffffffffffffffffffffff1681526020019081526020016000205414156107d257600080fd5b600460008373ffffffffffffffffffffffffffffffffffffffff1673ffffffffffffffffffffffffffffffffffffffff168152602001908152602001600020549050600460008373ffffffffffffffffffffffffffffffffffffffff1673ffffffffffffffffffffffffffffffffffffffff168152602001908152602001600020600090558173ffffffffffffffffffffffffffffffffffffffff166108fc829081150290604051600060405180830381858888f19350505050151561089757600080fd5b7fd7dee2702d63ad89917b6a4da9981c90c4d24f8c2bdfd64c604ecae57d8d06518282604051808373ffffffffffffffffffffffffffffffffffffffff1673ffffffffffffffffffffffffffffffffffffffff1681526020018281526020019250505060405180910390a15050565b60055481565b60015481565b6000809054906101000a900473ffffffffffffffffffffffffffffffffffffffff1673ffffffffffffffffffffffffffffffffffffffff163373ffffffffffffffffffffffffffffffffffffffff1614151561096d57600080fd5b6000809054906101000a900473ffffffffffffffffffffffffffffffffffffffff1673ffffffffffffffffffffffffffffffffffffffff167ff8df31144d9c2f0f6b59d69b8b98abd5459d07f2742c4df920b25aae33c6482060405160405180910390a260008060006101000a81548173ffffffffffffffffffffffffffffffffffffffff021916908373ffffffffffffffffffffffffffffffffffffffff160217905550565b6000809054906101000a900473ffffffffffffffffffffffffffffffffffffffff1681565b600760019054906101000a900473ffffffffffffffffffffffffffffffffffffffff1681565b60008090505b600380549050811015610ac157610ab4600382815481101515610a8457fe5b9060005260206000200160009054906101000a900473ffffffffffffffffffffffffffffffffffffffff16610456565b8080600101915050610a65565b50565b600760009054906101000a900460ff1681565b60025481565b600080600760009054906101000a900460ff1615610afa57600080fd5b3391506000600460008473ffffffffffffffffffffffffffffffffffffffff1673ffffffffffffffffffffffffffffffffffffffff16815260200190815260200160002054119050600460008373ffffffffffffffffffffffffffffffffffffffff1673ffffffffffffffffffffffffffffffffffffffff1681526020019081526020016000205473__SafeMathLib___________________________6366098d4f9091346040518363ffffffff167c0100000000000000000000000000000000000000000000000000000000028152600401808381526020018281526020019250505060206040518083038186803b158015610bf657600080fd5b505af4158015610c0a573d6000803e3d6000fd5b505050506040513d6020811015610c2057600080fd5b8101908080519060200190929190505050600460008473ffffffffffffffffffffffffffffffffffffffff1673ffffffffffffffffffffffffffffffffffffffff16815260200190815260200160002081905550600654600460008473ffffffffffffffffffffffffffffffffffffffff1673ffffffffffffffffffffffffffffffffffffffff168152602001908152602001600020541015610cc257600080fd5b801515610d5457600154600254101515610cdb57600080fd5b60038290806001815401808255809150509060018203906000526020600020016000909192909190916101000a81548173ffffffffffffffffffffffffffffffffffffffff021916908373ffffffffffffffffffffffffffffffffffffffff160217905550506002600081548092919060010191905055505b7fc3f75dfc78f6efac88ad5abb5e606276b903647d97b2a62a1ef89840a658bbc38234604051808373ffffffffffffffffffffffffffffffffffffffff1673ffffffffffffffffffffffffffffffffffffffff1681526020018281526020019250505060405180910390a15050565b6000809054906101000a900473ffffffffffffffffffffffffffffffffffffffff1673ffffffffffffffffffffffffffffffffffffffff163373ffffffffffffffffffffffffffffffffffffffff16141515610e1e57600080fd5b610e2781610e2a565b50565b600073ffffffffffffffffffffffffffffffffffffffff168173ffffffffffffffffffffffffffffffffffffffff1614151515610e6657600080fd5b8073ffffffffffffffffffffffffffffffffffffffff166000809054906101000a900473ffffffffffffffffffffffffffffffffffffffff1673ffffffffffffffffffffffffffffffffffffffff167f8be0079c531659141344cd1fd0a4f28419497f9722a3daafe3b4186f6b6457e060405160405180910390a3806000806101000a81548173ffffffffffffffffffffffffffffffffffffffff021916908373ffffffffffffffffffffffffffffffffffffffff160217905550505600a165627a7a723058205bc63f94b1f9755bbd95453318306123af9dc47737333ecffde5a818145b7f0d0029",
  "source": "/**\n * This smart contract code is Copyright 2017 TokenMarket Ltd. For more information see https://tokenmarket.net\n *\n * Licensed under the Apache License, version 2.0: https://github.com/TokenMarketNet/ico/blob/master/LICENSE.txt\n */\n\npragma solidity ^0.4.6;\n\n\nimport \"./Crowdsale.sol\";\nimport \"./SafeMathLib.sol\";\n\n/**\n * Collect funds from presale investors to be send to the crowdsale smart contract later.\n *\n * - Collect funds from pre-sale investors\n * - Send funds to the crowdsale when it opens\n * - Allow owner to set the crowdsale\n * - Have refund after X days as a safety hatch if the crowdsale doesn't materilize\n *\n */\ncontract PresaleFundCollector is Ownable {\n\n  using SafeMathLib for uint;\n\n  /** How many investors when can carry per a single contract */\n  uint public MAX_INVESTORS = 32;\n\n  /** How many investors we have now */\n  uint public investorCount;\n\n  /** Who are our investors (iterable) */\n  address[] public investors;\n\n  /** How much they have invested */\n  mapping(address => uint) public balances;\n\n  /** When our refund freeze is over (UNIX timestamp) */\n  uint public freezeEndsAt;\n\n  /** What is the minimum buy in */\n  uint public weiMinimumLimit;\n\n  /** Have we begun to move funds */\n  bool public moving;\n\n  /** Our ICO contract where we will move the funds */\n  Crowdsale public crowdsale;\n\n  event Invested(address investor, uint value);\n  event Refunded(address investor, uint value);\n\n  /**\n   * Create presale contract where lock up period is given days\n   */\n  function PresaleFundCollector(address _owner, uint _freezeEndsAt, uint _weiMinimumLimit) {\n\n    owner = _owner;\n\n    // Give argument\n    if(_freezeEndsAt == 0) {\n      throw;\n    }\n\n    // Give argument\n    if(_weiMinimumLimit == 0) {\n      throw;\n    }\n\n    weiMinimumLimit = _weiMinimumLimit;\n    freezeEndsAt = _freezeEndsAt;\n  }\n\n  /**\n   * Participate to a presale.\n   */\n  function invest() public payable {\n\n    // Cannot invest anymore through crowdsale when moving has begun\n    if(moving) throw;\n\n    address investor = msg.sender;\n\n    bool existing = balances[investor] > 0;\n\n    balances[investor] = balances[investor].plus(msg.value);\n\n    // Need to fulfill minimum limit\n    if(balances[investor] < weiMinimumLimit) {\n      throw;\n    }\n\n    // This is a new investor\n    if(!existing) {\n\n      // Limit number of investors to prevent too long loops\n      if(investorCount >= MAX_INVESTORS) throw;\n\n      investors.push(investor);\n      investorCount++;\n    }\n\n    Invested(investor, msg.value);\n  }\n\n  /**\n   * Load funds to the crowdsale for a single investor.\n   */\n  function participateCrowdsaleInvestor(address investor) public {\n\n    // Crowdsale not yet set\n    if(address(crowdsale) == 0) throw;\n\n    moving = true;\n\n    if(balances[investor] > 0) {\n      uint amount = balances[investor];\n      delete balances[investor];\n      crowdsale.invest.value(amount)(investor);\n    }\n  }\n\n  /**\n   * Load funds to the crowdsale for all investor.\n   *\n   */\n  function participateCrowdsaleAll() public {\n\n    // We might hit a max gas limit in this loop,\n    // and in this case you can simply call participateCrowdsaleInvestor() for all investors\n    for(uint i=0; i<investors.length; i++) {\n       participateCrowdsaleInvestor(investors[i]);\n    }\n  }\n\n  /**\n   * ICO never happened. Allow refund.\n   */\n  function refund() {\n\n    // Trying to ask refund too soon\n    if(now < freezeEndsAt) throw;\n\n    // We have started to move funds\n    moving = true;\n\n    address investor = msg.sender;\n    if(balances[investor] == 0) throw;\n    uint amount = balances[investor];\n    delete balances[investor];\n    if(!investor.send(amount)) throw;\n    Refunded(investor, amount);\n  }\n\n  /**\n   * Set the target crowdsale where we will move presale funds when the crowdsale opens.\n   */\n  function setCrowdsale(Crowdsale _crowdsale) public onlyOwner {\n     crowdsale = _crowdsale;\n  }\n\n  /** Explicitly call function from your wallet. */\n  function() payable {\n    throw;\n  }\n}\n",
  "sourcePath": "/home/otokarev/work/umbre/ico/contracts/PresaleFundCollector.sol",
  "compiler": {
    "name": "solc",
    "version": "0.4.24+commit.e67f0147.Emscripten.clang"
  },
  "schemaVersion": "2.0.1",
  "updatedAt": "2018-09-12T21:12:30.153Z"
}