{
  "contractName": "SimpleReleaseAgent",
  "abi": [
    {
      "inputs": [
        {
          "name": "_token",
          "type": "address"
        }
      ],
      "payable": false,
      "stateMutability": "nonpayable",
      "type": "constructor"
    },
    {
      "constant": false,
      "inputs": [],
      "name": "release",
      "outputs": [],
      "payable": false,
      "stateMutability": "nonpayable",
      "type": "function"
    }
  ],
  "bytecode": "0x608060405234801561001057600080fd5b506040516020806101a483398101806040528101908080519060200190929190505050806000806101000a81548173ffffffffffffffffffffffffffffffffffffffff021916908373ffffffffffffffffffffffffffffffffffffffff16021790555050610121806100836000396000f300608060405260043610603f576000357c0100000000000000000000000000000000000000000000000000000000900463ffffffff16806386d1a69f146044575b600080fd5b348015604f57600080fd5b5060566058565b005b6000809054906101000a900473ffffffffffffffffffffffffffffffffffffffff1673ffffffffffffffffffffffffffffffffffffffff16635f412d4f6040518163ffffffff167c0100000000000000000000000000000000000000000000000000000000028152600401600060405180830381600087803b15801560dc57600080fd5b505af115801560ef573d6000803e3d6000fd5b505050505600a165627a7a72305820514b567a2b20f38c5cc41d061a71c6fc5ef4d7a9dc6190a079526f2376ce3fb50029",
  "source": "pragma solidity ^0.4.8;\n\nimport \"../ReleasableToken.sol\";\n\n\n/**\n * To test transfer lock up release.\n */\ncontract SimpleReleaseAgent {\n\n  ReleasableToken token;\n\n  function SimpleReleaseAgent(ReleasableToken _token) {\n    token = _token;\n  }\n\n  function release() {\n    token.releaseTokenTransfer();\n  }\n}\n",
  "sourcePath": "/home/otokarev/work/umbre/ico/contracts/test/SimpleReleaseAgent.sol",
  "compiler": {
    "name": "solc",
    "version": "0.4.24+commit.e67f0147.Emscripten.clang"
  },
  "schemaVersion": "2.0.1",
  "updatedAt": "2018-09-12T21:12:30.166Z"
}