{
  "contractName": "TestSolidityAddressHash",
  "abi": [
    {
      "constant": true,
      "inputs": [],
      "name": "leftPad",
      "outputs": [
        {
          "name": "",
          "type": "address"
        }
      ],
      "payable": false,
      "stateMutability": "view",
      "type": "function"
    },
    {
      "constant": true,
      "inputs": [],
      "name": "getHashLeftPad",
      "outputs": [
        {
          "name": "",
          "type": "bytes32"
        }
      ],
      "payable": false,
      "stateMutability": "view",
      "type": "function"
    }
  ],
  "bytecode": "0x608060405272b5557397b157a17fb1abca97a38e4646bedb886000806101000a81548173ffffffffffffffffffffffffffffffffffffffff021916908373ffffffffffffffffffffffffffffffffffffffff16021790555034801561006357600080fd5b506101e9806100736000396000f30060806040526004361061004c576000357c0100000000000000000000000000000000000000000000000000000000900463ffffffff168063b2d55f6c14610051578063ceb41385146100a8575b600080fd5b34801561005d57600080fd5b506100666100db565b604051808273ffffffffffffffffffffffffffffffffffffffff1673ffffffffffffffffffffffffffffffffffffffff16815260200191505060405180910390f35b3480156100b457600080fd5b506100bd610100565b60405180826000191660001916815260200191505060405180910390f35b6000809054906101000a900473ffffffffffffffffffffffffffffffffffffffff1681565b60008060026000809054906101000a900473ffffffffffffffffffffffffffffffffffffffff16604051808273ffffffffffffffffffffffffffffffffffffffff1673ffffffffffffffffffffffffffffffffffffffff166c010000000000000000000000000281526014019150506020604051808303816000865af115801561018e573d6000803e3d6000fd5b5050506040513d60208110156101a357600080fd5b8101908080519060200190929190505050905080915050905600a165627a7a7230582086d04117dbdcf585b85e54667abb4f05904b9b934954e24be1aa688ace809e6f0029",
  "source": "pragma solidity ^0.4.8;\n\n/**\n * Test address hash behavior with left and right padded zeroes.\n */\ncontract TestSolidityAddressHash {\n\n  address public leftPad = 0x00b5557397B157a17fb1AbCa97a38e4646BEDb88;\n\n  // Solidity 0.4.11+ needs a valid address here\n  //address public rightPad = 00x88b5557397B157a17fb1AbCa97a38e4646BEDb00;\n\n  function getHashLeftPad() public constant returns (bytes32) {\n    bytes32 hash = sha256(leftPad);\n    return hash;\n  }\n\n  /*\n  function getHashRightPad() public constant returns (bytes32) {\n    bytes32 hash = sha256(rightPad);\n    return hash;\n  }*/\n\n}\n",
  "sourcePath": "/home/otokarev/work/umbre/ico/contracts/test/TestSolidityAddressHash.sol",
  "compiler": {
    "name": "solc",
    "version": "0.4.24+commit.e67f0147.Emscripten.clang"
  },
  "schemaVersion": "2.0.1",
  "updatedAt": "2018-09-12T21:12:30.168Z"
}