{
  "contractName": "TestBytesDeserializer",
  "abi": [
    {
      "constant": true,
      "inputs": [
        {
          "name": "b",
          "type": "bytes"
        },
        {
          "name": "offset",
          "type": "uint256"
        }
      ],
      "name": "getUint256",
      "outputs": [
        {
          "name": "",
          "type": "uint256"
        }
      ],
      "payable": false,
      "stateMutability": "view",
      "type": "function"
    },
    {
      "constant": true,
      "inputs": [
        {
          "name": "b",
          "type": "bytes"
        },
        {
          "name": "offset",
          "type": "uint256"
        }
      ],
      "name": "getUint128",
      "outputs": [
        {
          "name": "",
          "type": "uint256"
        }
      ],
      "payable": false,
      "stateMutability": "view",
      "type": "function"
    },
    {
      "constant": true,
      "inputs": [
        {
          "name": "b",
          "type": "bytes"
        },
        {
          "name": "offset",
          "type": "uint256"
        }
      ],
      "name": "getUint32",
      "outputs": [
        {
          "name": "",
          "type": "uint256"
        }
      ],
      "payable": false,
      "stateMutability": "view",
      "type": "function"
    },
    {
      "constant": true,
      "inputs": [
        {
          "name": "b",
          "type": "bytes"
        },
        {
          "name": "offset",
          "type": "uint256"
        }
      ],
      "name": "getUint16",
      "outputs": [
        {
          "name": "",
          "type": "uint256"
        }
      ],
      "payable": false,
      "stateMutability": "view",
      "type": "function"
    },
    {
      "constant": true,
      "inputs": [
        {
          "name": "b",
          "type": "bytes"
        },
        {
          "name": "offset",
          "type": "uint256"
        }
      ],
      "name": "getBytes32",
      "outputs": [
        {
          "name": "",
          "type": "bytes32"
        }
      ],
      "payable": false,
      "stateMutability": "view",
      "type": "function"
    },
    {
      "constant": true,
      "inputs": [
        {
          "name": "b",
          "type": "bytes"
        },
        {
          "name": "offset",
          "type": "uint256"
        }
      ],
      "name": "getAddress",
      "outputs": [
        {
          "name": "",
          "type": "address"
        }
      ],
      "payable": false,
      "stateMutability": "view",
      "type": "function"
    }
  ],
  "bytecode": "0x608060405234801561001057600080fd5b50610b37806100206000396000f300608060405260043610610078576000357c0100000000000000000000000000000000000000000000000000000000900463ffffffff1680631de8e96a1461007d578063510a6cca14610104578063816b9d851461019357806394ca2cb51461021a57806395adae4f146102cd578063c804796a14610354575b600080fd5b34801561008957600080fd5b506100ee600480360381019080803590602001908201803590602001908080601f0160208091040260200160405190810160405280939291908181526020018383808284378201915050505050509192919290803590602001909291905050506103db565b6040518082815260200191505060405180910390f35b34801561011057600080fd5b50610175600480360381019080803590602001908201803590602001908080601f016020809104026020016040519081016040528093929190818152602001838380828437820191505050505050919291929080359060200190929190505050610520565b60405180826000191660001916815260200191505060405180910390f35b34801561019f57600080fd5b50610204600480360381019080803590602001908201803590602001908080601f01602080910402602001604051908101604052809392919081815260200183838082843782019150505050505091929192908035906020019092919050505061063f565b6040518082815260200191505060405180910390f35b34801561022657600080fd5b5061028b600480360381019080803590602001908201803590602001908080601f016020809104026020016040519081016040528093929190818152602001838380828437820191505050505050919291929080359060200190929190505050610762565b604051808273ffffffffffffffffffffffffffffffffffffffff1673ffffffffffffffffffffffffffffffffffffffff16815260200191505060405180910390f35b3480156102d957600080fd5b5061033e600480360381019080803590602001908201803590602001908080601f016020809104026020016040519081016040528093929190818152602001838380828437820191505050505050919291929080359060200190929190505050610881565b6040518082815260200191505060405180910390f35b34801561036057600080fd5b506103c5600480360381019080803590602001908201803590602001908080601f0160208091040260200160405190810160405280939291908181526020018383808284378201915050505050509192919290803590602001909291905050506109c6565b6040518082815260200191505060405180910390f35b60008273__BytesDeserializer_____________________63d54dd8f99091846040518363ffffffff167c01000000000000000000000000000000000000000000000000000000000281526004018080602001838152602001828103825284818151815260200191508051906020019080838360005b8381101561046c578082015181840152602081019050610451565b50505050905090810190601f1680156104995780820380516001836020036101000a031916815260200191505b50935050505060206040518083038186803b1580156104b757600080fd5b505af41580156104cb573d6000803e3d6000fd5b505050506040513d60208110156104e157600080fd5b81019080805190602001909291905050507c0100000000000000000000000000000000000000000000000000000000900463ffffffff16905092915050565b60008273__BytesDeserializer_____________________632e1eb7fe9091846040518363ffffffff167c01000000000000000000000000000000000000000000000000000000000281526004018080602001838152602001828103825284818151815260200191508051906020019080838360005b838110156105b1578082015181840152602081019050610596565b50505050905090810190601f1680156105de5780820380516001836020036101000a031916815260200191505b50935050505060206040518083038186803b1580156105fc57600080fd5b505af4158015610610573d6000803e3d6000fd5b505050506040513d602081101561062657600080fd5b8101908080519060200190929190505050905092915050565b60008273__BytesDeserializer_____________________632e1eb7fe9091846040518363ffffffff167c01000000000000000000000000000000000000000000000000000000000281526004018080602001838152602001828103825284818151815260200191508051906020019080838360005b838110156106d05780820151818401526020810190506106b5565b50505050905090810190601f1680156106fd5780820380516001836020036101000a031916815260200191505b50935050505060206040518083038186803b15801561071b57600080fd5b505af415801561072f573d6000803e3d6000fd5b505050506040513d602081101561074557600080fd5b810190808051906020019092919050505060019004905092915050565b60008273__BytesDeserializer_____________________63b655e1389091846040518363ffffffff167c01000000000000000000000000000000000000000000000000000000000281526004018080602001838152602001828103825284818151815260200191508051906020019080838360005b838110156107f35780820151818401526020810190506107d8565b50505050905090810190601f1680156108205780820380516001836020036101000a031916815260200191505b50935050505060206040518083038186803b15801561083e57600080fd5b505af4158015610852573d6000803e3d6000fd5b505050506040513d602081101561086857600080fd5b8101908080519060200190929190505050905092915050565b60008273__BytesDeserializer_____________________63209563419091846040518363ffffffff167c01000000000000000000000000000000000000000000000000000000000281526004018080602001838152602001828103825284818151815260200191508051906020019080838360005b838110156109125780820151818401526020810190506108f7565b50505050905090810190601f16801561093f5780820380516001836020036101000a031916815260200191505b50935050505060206040518083038186803b15801561095d57600080fd5b505af4158015610971573d6000803e3d6000fd5b505050506040513d602081101561098757600080fd5b81019080805190602001909291905050507e01000000000000000000000000000000000000000000000000000000000000900461ffff16905092915050565b60008273__BytesDeserializer_____________________6316419aa79091846040518363ffffffff167c01000000000000000000000000000000000000000000000000000000000281526004018080602001838152602001828103825284818151815260200191508051906020019080838360005b83811015610a57578082015181840152602081019050610a3c565b50505050905090810190601f168015610a845780820380516001836020036101000a031916815260200191505b50935050505060206040518083038186803b158015610aa257600080fd5b505af4158015610ab6573d6000803e3d6000fd5b505050506040513d6020811015610acc57600080fd5b810190808051906020019092919050505070010000000000000000000000000000000090046fffffffffffffffffffffffffffffffff169050929150505600a165627a7a7230582040c0d5044973807b91bd427ecf1620219f2fb7f3cd935d73cc6771b46f14868c0029",
  "source": "import \"../BytesDeserializer.sol\";\n\ncontract TestBytesDeserializer {\n\n    using BytesDeserializer for bytes;\n\n    function getUint256(bytes b, uint offset) public constant returns (uint256) {\n      return uint256(b.slice32(offset));\n    }\n\n    function getUint128(bytes b, uint offset) public constant returns (uint256) {\n      return uint128(b.slice16(offset));\n    }\n\n    function getUint32(bytes b, uint offset) public constant returns (uint256) {\n      return uint32(b.slice4(offset));\n    }\n\n    function getUint16(bytes b, uint offset) public constant returns (uint256) {\n      return uint16(b.slice2(offset));\n    }\n\n    function getBytes32(bytes b, uint offset) public constant returns (bytes32) {\n      return b.slice32(offset);\n    }\n\n    function getAddress(bytes b, uint offset) public constant returns (address) {\n      return b.sliceAddress(offset);\n    }\n\n}\n",
  "sourcePath": "/home/otokarev/work/umbre/ico/contracts/test/TestBytesDeserializer.sol",
  "compiler": {
    "name": "solc",
    "version": "0.4.24+commit.e67f0147.Emscripten.clang"
  },
  "schemaVersion": "2.0.1",
  "updatedAt": "2018-09-12T21:12:30.166Z"
}