{
  "contractName": "TimeVault",
  "abi": [
    {
      "constant": true,
      "inputs": [],
      "name": "isTimeVault",
      "outputs": [
        {
          "name": "",
          "type": "bool"
        }
      ],
      "payable": false,
      "stateMutability": "view",
      "type": "function"
    },
    {
      "constant": true,
      "inputs": [],
      "name": "unlockedAt",
      "outputs": [
        {
          "name": "",
          "type": "uint256"
        }
      ],
      "payable": false,
      "stateMutability": "view",
      "type": "function"
    },
    {
      "constant": true,
      "inputs": [],
      "name": "teamMultisig",
      "outputs": [
        {
          "name": "",
          "type": "address"
        }
      ],
      "payable": false,
      "stateMutability": "view",
      "type": "function"
    },
    {
      "constant": true,
      "inputs": [],
      "name": "token",
      "outputs": [
        {
          "name": "",
          "type": "address"
        }
      ],
      "payable": false,
      "stateMutability": "view",
      "type": "function"
    },
    {
      "inputs": [
        {
          "name": "_teamMultisig",
          "type": "address"
        },
        {
          "name": "_token",
          "type": "address"
        },
        {
          "name": "_unlockedAt",
          "type": "uint256"
        }
      ],
      "payable": false,
      "stateMutability": "nonpayable",
      "type": "constructor"
    },
    {
      "payable": false,
      "stateMutability": "nonpayable",
      "type": "fallback"
    },
    {
      "anonymous": false,
      "inputs": [],
      "name": "Unlocked",
      "type": "event"
    },
    {
      "constant": true,
      "inputs": [],
      "name": "getTokenBalance",
      "outputs": [
        {
          "name": "",
          "type": "uint256"
        }
      ],
      "payable": false,
      "stateMutability": "view",
      "type": "function"
    },
    {
      "constant": false,
      "inputs": [],
      "name": "unlock",
      "outputs": [],
      "payable": false,
      "stateMutability": "nonpayable",
      "type": "function"
    }
  ],
  "bytecode": "0x608060405260016000806101000a81548160ff02191690831515021790555034801561002a57600080fd5b5060405160608061065083398101806040528101908080519060200190929190805190602001909291908051906020019092919050505082600160006101000a81548173ffffffffffffffffffffffffffffffffffffffff021916908373ffffffffffffffffffffffffffffffffffffffff16021790555081600060016101000a81548173ffffffffffffffffffffffffffffffffffffffff021916908373ffffffffffffffffffffffffffffffffffffffff160217905550806002819055506000600160009054906101000a900473ffffffffffffffffffffffffffffffffffffffff1673ffffffffffffffffffffffffffffffffffffffff16141561013057600080fd5b60008060019054906101000a900473ffffffffffffffffffffffffffffffffffffffff1673ffffffffffffffffffffffffffffffffffffffff16141561017557600080fd5b5050506104c9806101876000396000f300608060405260043610610078576000357c0100000000000000000000000000000000000000000000000000000000900463ffffffff16806382b2e2571461008a57806389c1108d146100b55780638cb1e9c1146100e4578063a69df4b51461010f578063dbc0c08514610126578063fc0c546a1461017d575b34801561008457600080fd5b50600080fd5b34801561009657600080fd5b5061009f6101d4565b6040518082815260200191505060405180910390f35b3480156100c157600080fd5b506100ca6102d2565b604051808215151515815260200191505060405180910390f35b3480156100f057600080fd5b506100f96102e4565b6040518082815260200191505060405180910390f35b34801561011b57600080fd5b506101246102ea565b005b34801561013257600080fd5b5061013b610451565b604051808273ffffffffffffffffffffffffffffffffffffffff1673ffffffffffffffffffffffffffffffffffffffff16815260200191505060405180910390f35b34801561018957600080fd5b50610192610477565b604051808273ffffffffffffffffffffffffffffffffffffffff1673ffffffffffffffffffffffffffffffffffffffff16815260200191505060405180910390f35b60008060019054906101000a900473ffffffffffffffffffffffffffffffffffffffff1673ffffffffffffffffffffffffffffffffffffffff166370a08231306040518263ffffffff167c0100000000000000000000000000000000000000000000000000000000028152600401808273ffffffffffffffffffffffffffffffffffffffff1673ffffffffffffffffffffffffffffffffffffffff168152602001915050602060405180830381600087803b15801561029257600080fd5b505af11580156102a6573d6000803e3d6000fd5b505050506040513d60208110156102bc57600080fd5b8101908080519060200190929190505050905090565b6000809054906101000a900460ff1681565b60025481565b6002544210156102f957600080fd5b600060019054906101000a900473ffffffffffffffffffffffffffffffffffffffff1673ffffffffffffffffffffffffffffffffffffffff1663a9059cbb600160009054906101000a900473ffffffffffffffffffffffffffffffffffffffff166103626101d4565b6040518363ffffffff167c0100000000000000000000000000000000000000000000000000000000028152600401808373ffffffffffffffffffffffffffffffffffffffff1673ffffffffffffffffffffffffffffffffffffffff16815260200182815260200192505050602060405180830381600087803b1580156103e757600080fd5b505af11580156103fb573d6000803e3d6000fd5b505050506040513d602081101561041157600080fd5b8101908080519060200190929190505050507f19aad37188a1d3921e29eb3c66acf43d81975e107cb650d58cca878627955fd660405160405180910390a1565b600160009054906101000a900473ffffffffffffffffffffffffffffffffffffffff1681565b600060019054906101000a900473ffffffffffffffffffffffffffffffffffffffff16815600a165627a7a72305820890e92dc99c3e1804d868ea01e1e1a5c823467cbe7175e856c43f42a42dbfd480029",
  "source": "/**\n * This smart contract code is Copyright 2017 TokenMarket Ltd. For more information see https://tokenmarket.net\n *\n * Licensed under the Apache License, version 2.0: https://github.com/TokenMarketNet/ico/blob/master/LICENSE.txt\n */\n\npragma solidity ^0.4.8;\n\nimport \"./StandardTokenExt.sol\";\n\n/**\n *\n * Time-locked token vault of allocated founder tokens.\n *\n * First used by Lunyr https://github.com/Lunyr/crowdsale-contracts\n *\n *\n * See TokenVault for multi user implementation.\n */\ncontract TimeVault {\n\n  /** Interface flag to determine if address is for a real contract or not */\n  bool public isTimeVault = true;\n\n  /** Token we are holding */\n  StandardTokenExt public token;\n\n  /** Address that can claim tokens */\n  address public teamMultisig;\n\n  /** UNIX timestamp when tokens can be claimed. */\n  uint256 public unlockedAt;\n\n  event Unlocked();\n\n  function TimeVault(address _teamMultisig, StandardTokenExt _token, uint _unlockedAt) {\n\n    teamMultisig = _teamMultisig;\n    token = _token;\n    unlockedAt = _unlockedAt;\n\n    // Sanity check\n    if (teamMultisig == 0x0) throw;\n    if (address(token) == 0x0) throw;\n  }\n\n  function getTokenBalance() public constant returns (uint) {\n    return token.balanceOf(address(this));\n  }\n\n  function unlock() public {\n    // Wait your turn!\n    if (now < unlockedAt) throw;\n\n    // StandardToken will throw in the case of transaction fails\n    token.transfer(teamMultisig, getTokenBalance());\n\n    Unlocked();\n  }\n\n  // disallow ETH payment for this vault\n  function () { throw; }\n\n}\n",
  "sourcePath": "/home/otokarev/work/umbre/ico/contracts/TimeVault.sol",
  "compiler": {
    "name": "solc",
    "version": "0.4.24+commit.e67f0147.Emscripten.clang"
  },
  "schemaVersion": "2.0.1",
  "updatedAt": "2018-09-12T21:12:30.158Z"
}