{
  "contractName": "TokenVault",
  "abi": [
    {
      "constant": true,
      "inputs": [],
      "name": "tokensAllocatedTotal",
      "outputs": [
        {
          "name": "",
          "type": "uint256"
        }
      ],
      "payable": false,
      "stateMutability": "view",
      "type": "function"
    },
    {
      "constant": false,
      "inputs": [
        {
          "name": "token",
          "type": "address"
        }
      ],
      "name": "recoverTokens",
      "outputs": [],
      "payable": false,
      "stateMutability": "nonpayable",
      "type": "function"
    },
    {
      "constant": true,
      "inputs": [
        {
          "name": "",
          "type": "address"
        }
      ],
      "name": "lastClaimedAt",
      "outputs": [
        {
          "name": "",
          "type": "uint256"
        }
      ],
      "payable": false,
      "stateMutability": "view",
      "type": "function"
    },
    {
      "constant": true,
      "inputs": [
        {
          "name": "",
          "type": "address"
        }
      ],
      "name": "balances",
      "outputs": [
        {
          "name": "",
          "type": "uint256"
        }
      ],
      "payable": false,
      "stateMutability": "view",
      "type": "function"
    },
    {
      "constant": true,
      "inputs": [],
      "name": "tokensPerSecond",
      "outputs": [
        {
          "name": "",
          "type": "uint256"
        }
      ],
      "payable": false,
      "stateMutability": "view",
      "type": "function"
    },
    {
      "constant": true,
      "inputs": [],
      "name": "freezeEndsAt",
      "outputs": [
        {
          "name": "",
          "type": "uint256"
        }
      ],
      "payable": false,
      "stateMutability": "view",
      "type": "function"
    },
    {
      "constant": false,
      "inputs": [],
      "name": "renounceOwnership",
      "outputs": [],
      "payable": false,
      "stateMutability": "nonpayable",
      "type": "function"
    },
    {
      "constant": true,
      "inputs": [],
      "name": "owner",
      "outputs": [
        {
          "name": "",
          "type": "address"
        }
      ],
      "payable": false,
      "stateMutability": "view",
      "type": "function"
    },
    {
      "constant": true,
      "inputs": [],
      "name": "tokensToBeAllocated",
      "outputs": [
        {
          "name": "",
          "type": "uint256"
        }
      ],
      "payable": false,
      "stateMutability": "view",
      "type": "function"
    },
    {
      "constant": true,
      "inputs": [],
      "name": "lockedAt",
      "outputs": [
        {
          "name": "",
          "type": "uint256"
        }
      ],
      "payable": false,
      "stateMutability": "view",
      "type": "function"
    },
    {
      "constant": true,
      "inputs": [
        {
          "name": "",
          "type": "address"
        }
      ],
      "name": "claimed",
      "outputs": [
        {
          "name": "",
          "type": "uint256"
        }
      ],
      "payable": false,
      "stateMutability": "view",
      "type": "function"
    },
    {
      "constant": true,
      "inputs": [],
      "name": "totalClaimed",
      "outputs": [
        {
          "name": "",
          "type": "uint256"
        }
      ],
      "payable": false,
      "stateMutability": "view",
      "type": "function"
    },
    {
      "constant": true,
      "inputs": [],
      "name": "investorCount",
      "outputs": [
        {
          "name": "",
          "type": "uint256"
        }
      ],
      "payable": false,
      "stateMutability": "view",
      "type": "function"
    },
    {
      "constant": false,
      "inputs": [
        {
          "name": "_newOwner",
          "type": "address"
        }
      ],
      "name": "transferOwnership",
      "outputs": [],
      "payable": false,
      "stateMutability": "nonpayable",
      "type": "function"
    },
    {
      "constant": true,
      "inputs": [],
      "name": "token",
      "outputs": [
        {
          "name": "",
          "type": "address"
        }
      ],
      "payable": false,
      "stateMutability": "view",
      "type": "function"
    },
    {
      "inputs": [
        {
          "name": "_owner",
          "type": "address"
        },
        {
          "name": "_freezeEndsAt",
          "type": "uint256"
        },
        {
          "name": "_token",
          "type": "address"
        },
        {
          "name": "_tokensToBeAllocated",
          "type": "uint256"
        },
        {
          "name": "_tokensPerSecond",
          "type": "uint256"
        }
      ],
      "payable": false,
      "stateMutability": "nonpayable",
      "type": "constructor"
    },
    {
      "anonymous": false,
      "inputs": [
        {
          "indexed": false,
          "name": "investor",
          "type": "address"
        },
        {
          "indexed": false,
          "name": "value",
          "type": "uint256"
        }
      ],
      "name": "Allocated",
      "type": "event"
    },
    {
      "anonymous": false,
      "inputs": [
        {
          "indexed": false,
          "name": "investors",
          "type": "address"
        },
        {
          "indexed": false,
          "name": "count",
          "type": "uint256"
        }
      ],
      "name": "Distributed",
      "type": "event"
    },
    {
      "anonymous": false,
      "inputs": [],
      "name": "Locked",
      "type": "event"
    },
    {
      "anonymous": false,
      "inputs": [
        {
          "indexed": true,
          "name": "previousOwner",
          "type": "address"
        }
      ],
      "name": "OwnershipRenounced",
      "type": "event"
    },
    {
      "anonymous": false,
      "inputs": [
        {
          "indexed": true,
          "name": "previousOwner",
          "type": "address"
        },
        {
          "indexed": true,
          "name": "newOwner",
          "type": "address"
        }
      ],
      "name": "OwnershipTransferred",
      "type": "event"
    },
    {
      "constant": false,
      "inputs": [
        {
          "name": "investor",
          "type": "address"
        },
        {
          "name": "amount",
          "type": "uint256"
        }
      ],
      "name": "setInvestor",
      "outputs": [],
      "payable": false,
      "stateMutability": "nonpayable",
      "type": "function"
    },
    {
      "constant": false,
      "inputs": [],
      "name": "lock",
      "outputs": [],
      "payable": false,
      "stateMutability": "nonpayable",
      "type": "function"
    },
    {
      "constant": false,
      "inputs": [],
      "name": "recoverFailedLock",
      "outputs": [],
      "payable": false,
      "stateMutability": "nonpayable",
      "type": "function"
    },
    {
      "constant": true,
      "inputs": [],
      "name": "getBalance",
      "outputs": [
        {
          "name": "howManyTokensCurrentlyInVault",
          "type": "uint256"
        }
      ],
      "payable": false,
      "stateMutability": "view",
      "type": "function"
    },
    {
      "constant": true,
      "inputs": [
        {
          "name": "investor",
          "type": "address"
        }
      ],
      "name": "getCurrentlyClaimableAmount",
      "outputs": [
        {
          "name": "claimableAmount",
          "type": "uint256"
        }
      ],
      "payable": false,
      "stateMutability": "view",
      "type": "function"
    },
    {
      "constant": false,
      "inputs": [],
      "name": "claim",
      "outputs": [],
      "payable": false,
      "stateMutability": "nonpayable",
      "type": "function"
    },
    {
      "constant": false,
      "inputs": [
        {
          "name": "tokenToClaim",
          "type": "address"
        }
      ],
      "name": "tokensToBeReturned",
      "outputs": [
        {
          "name": "",
          "type": "uint256"
        }
      ],
      "payable": false,
      "stateMutability": "nonpayable",
      "type": "function"
    },
    {
      "constant": true,
      "inputs": [],
      "name": "getState",
      "outputs": [
        {
          "name": "",
          "type": "uint8"
        }
      ],
      "payable": false,
      "stateMutability": "view",
      "type": "function"
    }
  ],
  "bytecode": "0x608060405234801561001057600080fd5b5060405160a08062001a558339810180604052810190808051906020019092919080519060200190929190805190602001909291908051906020019092919080519060200190929190505050336000806101000a81548173ffffffffffffffffffffffffffffffffffffffff021916908373ffffffffffffffffffffffffffffffffffffffff160217905550846000806101000a81548173ffffffffffffffffffffffffffffffffffffffff021916908373ffffffffffffffffffffffffffffffffffffffff16021790555060008060009054906101000a900473ffffffffffffffffffffffffffffffffffffffff1673ffffffffffffffffffffffffffffffffffffffff16141561012157600080fd5b82600b60006101000a81548173ffffffffffffffffffffffffffffffffffffffff021916908373ffffffffffffffffffffffffffffffffffffffff160217905550600b60009054906101000a900473ffffffffffffffffffffffffffffffffffffffff1673ffffffffffffffffffffffffffffffffffffffff1663eefa597b6040518163ffffffff167c0100000000000000000000000000000000000000000000000000000000028152600401602060405180830381600087803b1580156101e857600080fd5b505af11580156101fc573d6000803e3d6000fd5b505050506040513d602081101561021257600080fd5b8101908080519060200190929190505050151561022e57600080fd5b600084141561023c57600080fd5b600082141561024a57600080fd5b4284101561025e5742600881905550610266565b836008819055505b8160028190555080600a8190555050505050506117cc80620002896000396000f300608060405260043610610133576000357c0100000000000000000000000000000000000000000000000000000000900463ffffffff16806311e48cdf1461013857806312065fe01461016357806316114acd1461018e5780631865c57d146101d157806326a40c991461020a57806327e235e3146102615780634d8d9e92146102b85780634e71d92d146102e35780636962b010146102fa578063715018a6146103255780638da5cb5b1461033c5780638e327dd314610393578063990ca3ff146103e0578063b21634821461040b578063c45d19db14610436578063c828e6ee1461048d578063c884ef83146104e4578063d54ad2a11461053b578063d7e64c0014610566578063f2fde38b14610591578063f83d08ba146105d4578063f85b2160146105eb578063fc0c546a14610602575b600080fd5b34801561014457600080fd5b5061014d610659565b6040518082815260200191505060405180910390f35b34801561016f57600080fd5b5061017861065f565b6040518082815260200191505060405180910390f35b34801561019a57600080fd5b506101cf600480360381019080803573ffffffffffffffffffffffffffffffffffffffff16906020019092919050505061075e565b005b3480156101dd57600080fd5b506101e66108c4565b604051808260038111156101f657fe5b60ff16815260200191505060405180910390f35b34801561021657600080fd5b5061024b600480360381019080803573ffffffffffffffffffffffffffffffffffffffff1690602001909291905050506108f4565b6040518082815260200191505060405180910390f35b34801561026d57600080fd5b506102a2600480360381019080803573ffffffffffffffffffffffffffffffffffffffff16906020019092919050505061090c565b6040518082815260200191505060405180910390f35b3480156102c457600080fd5b506102cd610924565b6040518082815260200191505060405180910390f35b3480156102ef57600080fd5b506102f861092a565b005b34801561030657600080fd5b5061030f610bc7565b6040518082815260200191505060405180910390f35b34801561033157600080fd5b5061033a610bcd565b005b34801561034857600080fd5b50610351610ccf565b604051808273ffffffffffffffffffffffffffffffffffffffff1673ffffffffffffffffffffffffffffffffffffffff16815260200191505060405180910390f35b34801561039f57600080fd5b506103de600480360381019080803573ffffffffffffffffffffffffffffffffffffffff16906020019092919080359060200190929190505050610cf4565b005b3480156103ec57600080fd5b506103f5610e8f565b6040518082815260200191505060405180910390f35b34801561041757600080fd5b50610420610e95565b6040518082815260200191505060405180910390f35b34801561044257600080fd5b50610477600480360381019080803573ffffffffffffffffffffffffffffffffffffffff169060200190929190505050610e9b565b6040518082815260200191505060405180910390f35b34801561049957600080fd5b506104ce600480360381019080803573ffffffffffffffffffffffffffffffffffffffff169060200190929190505050611091565b6040518082815260200191505060405180910390f35b3480156104f057600080fd5b50610525600480360381019080803573ffffffffffffffffffffffffffffffffffffffff1690602001909291905050506111b6565b6040518082815260200191505060405180910390f35b34801561054757600080fd5b506105506111ce565b6040518082815260200191505060405180910390f35b34801561057257600080fd5b5061057b6111d4565b6040518082815260200191505060405180910390f35b34801561059d57600080fd5b506105d2600480360381019080803573ffffffffffffffffffffffffffffffffffffffff1690602001909291905050506111da565b005b3480156105e057600080fd5b506105e9611241565b005b3480156105f757600080fd5b506106006113fa565b005b34801561060e57600080fd5b50610617611680565b604051808273ffffffffffffffffffffffffffffffffffffffff1673ffffffffffffffffffffffffffffffffffffffff16815260200191505060405180910390f35b60045481565b6000600b60009054906101000a900473ffffffffffffffffffffffffffffffffffffffff1673ffffffffffffffffffffffffffffffffffffffff166370a08231306040518263ffffffff167c0100000000000000000000000000000000000000000000000000000000028152600401808273ffffffffffffffffffffffffffffffffffffffff1673ffffffffffffffffffffffffffffffffffffffff168152602001915050602060405180830381600087803b15801561071e57600080fd5b505af1158015610732573d6000803e3d6000fd5b505050506040513d602081101561074857600080fd5b8101908080519060200190929190505050905090565b6000809054906101000a900473ffffffffffffffffffffffffffffffffffffffff1673ffffffffffffffffffffffffffffffffffffffff163373ffffffffffffffffffffffffffffffffffffffff161415156107b957600080fd5b8073ffffffffffffffffffffffffffffffffffffffff1663a9059cbb6000809054906101000a900473ffffffffffffffffffffffffffffffffffffffff1661080084610e9b565b6040518363ffffffff167c0100000000000000000000000000000000000000000000000000000000028152600401808373ffffffffffffffffffffffffffffffffffffffff1673ffffffffffffffffffffffffffffffffffffffff16815260200182815260200192505050602060405180830381600087803b15801561088557600080fd5b505af1158015610899573d6000803e3d6000fd5b505050506040513d60208110156108af57600080fd5b81019080805190602001909291905050505050565b60008060095414156108d957600190506108f1565b6008544211156108ec57600390506108f1565b600290505b90565b60076020528060005260406000206000915090505481565b60056020528060005260406000206000915090505481565b600a5481565b6000803391506000600954141561094057600080fd5b60085442101561094f57600080fd5b6000600560008473ffffffffffffffffffffffffffffffffffffffff1673ffffffffffffffffffffffffffffffffffffffff16815260200190815260200160002054141561099c57600080fd5b6109a582611091565b90506000811115156109b657600080fd5b42600760008473ffffffffffffffffffffffffffffffffffffffff1673ffffffffffffffffffffffffffffffffffffffff1681526020019081526020016000208190555080600660008473ffffffffffffffffffffffffffffffffffffffff1673ffffffffffffffffffffffffffffffffffffffff1681526020019081526020016000206000828254019250508190555080600360008282540192505081905550600b60009054906101000a900473ffffffffffffffffffffffffffffffffffffffff1673ffffffffffffffffffffffffffffffffffffffff1663a9059cbb83836040518363ffffffff167c0100000000000000000000000000000000000000000000000000000000028152600401808373ffffffffffffffffffffffffffffffffffffffff1673ffffffffffffffffffffffffffffffffffffffff16815260200182815260200192505050602060405180830381600087803b158015610b1c57600080fd5b505af1158015610b30573d6000803e3d6000fd5b505050506040513d6020811015610b4657600080fd5b8101908080519060200190929190505050507fb649c98f58055c520df0dcb5709eff2e931217ff2fb1e21376130d31bbb1c0af8282604051808373ffffffffffffffffffffffffffffffffffffffff1673ffffffffffffffffffffffffffffffffffffffff1681526020018281526020019250505060405180910390a15050565b60085481565b6000809054906101000a900473ffffffffffffffffffffffffffffffffffffffff1673ffffffffffffffffffffffffffffffffffffffff163373ffffffffffffffffffffffffffffffffffffffff16141515610c2857600080fd5b6000809054906101000a900473ffffffffffffffffffffffffffffffffffffffff1673ffffffffffffffffffffffffffffffffffffffff167ff8df31144d9c2f0f6b59d69b8b98abd5459d07f2742c4df920b25aae33c6482060405160405180910390a260008060006101000a81548173ffffffffffffffffffffffffffffffffffffffff021916908373ffffffffffffffffffffffffffffffffffffffff160217905550565b6000809054906101000a900473ffffffffffffffffffffffffffffffffffffffff1681565b6000809054906101000a900473ffffffffffffffffffffffffffffffffffffffff1673ffffffffffffffffffffffffffffffffffffffff163373ffffffffffffffffffffffffffffffffffffffff16141515610d4f57600080fd5b60006009541115610d5f57600080fd5b6000811415610d6d57600080fd5b6000600560008473ffffffffffffffffffffffffffffffffffffffff1673ffffffffffffffffffffffffffffffffffffffff168152602001908152602001600020541115610dba57600080fd5b80600560008473ffffffffffffffffffffffffffffffffffffffff1673ffffffffffffffffffffffffffffffffffffffff16815260200190815260200160002081905550600160008154809291906001019190505550806004600082825401925050819055507f472f36e28bb47edb7c69c9e2ac00a77c66b505df54e9c818ac57110b0629e8c38282604051808373ffffffffffffffffffffffffffffffffffffffff1673ffffffffffffffffffffffffffffffffffffffff1681526020018281526020019250505060405180910390a15050565b60025481565b60095481565b6000600b60009054906101000a900473ffffffffffffffffffffffffffffffffffffffff1673ffffffffffffffffffffffffffffffffffffffff168273ffffffffffffffffffffffffffffffffffffffff161415610fb357610efb61065f565b73__SafeMathLib___________________________63f4f3bdc190916004546040518363ffffffff167c0100000000000000000000000000000000000000000000000000000000028152600401808381526020018281526020019250505060206040518083038186803b158015610f7157600080fd5b505af4158015610f85573d6000803e3d6000fd5b505050506040513d6020811015610f9b57600080fd5b8101908080519060200190929190505050905061108c565b8173ffffffffffffffffffffffffffffffffffffffff166370a08231306040518263ffffffff167c0100000000000000000000000000000000000000000000000000000000028152600401808273ffffffffffffffffffffffffffffffffffffffff1673ffffffffffffffffffffffffffffffffffffffff168152602001915050602060405180830381600087803b15801561104e57600080fd5b505af1158015611062573d6000803e3d6000fd5b505050506040513d602081101561107857600080fd5b810190808051906020019092919050505090505b919050565b600080600080600660008673ffffffffffffffffffffffffffffffffffffffff1673ffffffffffffffffffffffffffffffffffffffff16815260200190815260200160002054600560008773ffffffffffffffffffffffffffffffffffffffff1673ffffffffffffffffffffffffffffffffffffffff1681526020019081526020016000205403925060085442101561112d57600093506111ae565b6000600a5411156111aa57600760008673ffffffffffffffffffffffffffffffffffffffff1673ffffffffffffffffffffffffffffffffffffffff16815260200190815260200160002054915060008214156111895760085491505b600a54824203029050828111156111a2578293506111ae565b8093506111ae565b8293505b505050919050565b60066020528060005260406000206000915090505481565b60035481565b60015481565b6000809054906101000a900473ffffffffffffffffffffffffffffffffffffffff1673ffffffffffffffffffffffffffffffffffffffff163373ffffffffffffffffffffffffffffffffffffffff1614151561123557600080fd5b61123e816116a6565b50565b6000809054906101000a900473ffffffffffffffffffffffffffffffffffffffff1673ffffffffffffffffffffffffffffffffffffffff163373ffffffffffffffffffffffffffffffffffffffff1614151561129c57600080fd5b600060095411156112ac57600080fd5b6002546004541415156112be57600080fd5b600454600b60009054906101000a900473ffffffffffffffffffffffffffffffffffffffff1673ffffffffffffffffffffffffffffffffffffffff166370a08231306040518263ffffffff167c0100000000000000000000000000000000000000000000000000000000028152600401808273ffffffffffffffffffffffffffffffffffffffff1673ffffffffffffffffffffffffffffffffffffffff168152602001915050602060405180830381600087803b15801561137e57600080fd5b505af1158015611392573d6000803e3d6000fd5b505050506040513d60208110156113a857600080fd5b81019080805190602001909291905050501415156113c557600080fd5b426009819055507f0f2e5b6c72c6a4491efd919a9f9a409f324ef0708c11ee57d410c2cb06c0992b60405160405180910390a1565b6000809054906101000a900473ffffffffffffffffffffffffffffffffffffffff1673ffffffffffffffffffffffffffffffffffffffff163373ffffffffffffffffffffffffffffffffffffffff1614151561145557600080fd5b6000600954111561146557600080fd5b600b60009054906101000a900473ffffffffffffffffffffffffffffffffffffffff1673ffffffffffffffffffffffffffffffffffffffff1663a9059cbb6000809054906101000a900473ffffffffffffffffffffffffffffffffffffffff16600b60009054906101000a900473ffffffffffffffffffffffffffffffffffffffff1673ffffffffffffffffffffffffffffffffffffffff166370a08231306040518263ffffffff167c0100000000000000000000000000000000000000000000000000000000028152600401808273ffffffffffffffffffffffffffffffffffffffff1673ffffffffffffffffffffffffffffffffffffffff168152602001915050602060405180830381600087803b15801561158257600080fd5b505af1158015611596573d6000803e3d6000fd5b505050506040513d60208110156115ac57600080fd5b81019080805190602001909291905050506040518363ffffffff167c0100000000000000000000000000000000000000000000000000000000028152600401808373ffffffffffffffffffffffffffffffffffffffff1673ffffffffffffffffffffffffffffffffffffffff16815260200182815260200192505050602060405180830381600087803b15801561164257600080fd5b505af1158015611656573d6000803e3d6000fd5b505050506040513d602081101561166c57600080fd5b810190808051906020019092919050505050565b600b60009054906101000a900473ffffffffffffffffffffffffffffffffffffffff1681565b600073ffffffffffffffffffffffffffffffffffffffff168173ffffffffffffffffffffffffffffffffffffffff16141515156116e257600080fd5b8073ffffffffffffffffffffffffffffffffffffffff166000809054906101000a900473ffffffffffffffffffffffffffffffffffffffff1673ffffffffffffffffffffffffffffffffffffffff167f8be0079c531659141344cd1fd0a4f28419497f9722a3daafe3b4186f6b6457e060405160405180910390a3806000806101000a81548173ffffffffffffffffffffffffffffffffffffffff021916908373ffffffffffffffffffffffffffffffffffffffff160217905550505600a165627a7a72305820bdaf271589b5c2976c0be3e907bcfed0fc62e27d9284315bfcef73aedd01141b0029",
  "source": "/**\n * This smart contract code is Copyright 2017 TokenMarket Ltd. For more information see https://tokenmarket.net\n *\n * Licensed under the Apache License, version 2.0: https://github.com/TokenMarketNet/ico/blob/master/LICENSE.txt\n */\n\npragma solidity ^0.4.8;\n\n\nimport \"./Recoverable.sol\";\nimport \"./SafeMathLib.sol\";\nimport \"./StandardTokenExt.sol\";\nimport \"zeppelin/contracts/ownership/Ownable.sol\";\n\n/**\n * Hold tokens for a group investor of investors until the unlock date.\n *\n * After the unlock date the investor can claim their tokens.\n *\n * Steps\n *\n * - Prepare a spreadsheet for token allocation\n * - Deploy this contract, with the sum to tokens to be distributed, from the owner account\n * - Call setInvestor for all investors from the owner account using a local script and CSV input\n * - Move tokensToBeAllocated in this contract using StandardToken.transfer()\n * - Call lock from the owner account\n * - Wait until the freeze period is over\n * - After the freeze time is over investors can call claim() from their address to get their tokens\n *\n */\ncontract TokenVault is Ownable, Recoverable {\n  using SafeMathLib for uint;\n\n  /** How many investors we have now */\n  uint public investorCount;\n\n  /** Sum from the spreadsheet how much tokens we should get on the contract. If the sum does not match at the time of the lock the vault is faulty and must be recreated.*/\n  uint public tokensToBeAllocated;\n\n  /** How many tokens investors have claimed so far */\n  uint public totalClaimed;\n\n  /** How many tokens our internal book keeping tells us to have at the time of lock() when all investor data has been loaded */\n  uint public tokensAllocatedTotal;\n\n  /** How much we have allocated to the investors invested */\n  mapping(address => uint) public balances;\n\n  /** How many tokens investors have claimed */\n  mapping(address => uint) public claimed;\n\n  /** When was the last claim by an investor **/\n  mapping(address => uint) public lastClaimedAt;\n\n  /** When our claim freeze is over (UNIX timestamp) */\n  uint public freezeEndsAt;\n\n  /** When this vault was locked (UNIX timestamp) */\n  uint public lockedAt;\n\n  /** defining the tap **/\n  uint public tokensPerSecond;\n\n  /** We can also define our own token, which will override the ICO one ***/\n  StandardTokenExt public token;\n\n  /** What is our current state.\n   *\n   * Loading: Investor data is being loaded and contract not yet locked\n   * Holding: Holding tokens for investors\n   * Distributing: Freeze time is over, investors can claim their tokens\n   */\n  enum State{Unknown, Loading, Holding, Distributing}\n\n  /** We allocated tokens for investor */\n  event Allocated(address investor, uint value);\n\n  /** We distributed tokens to an investor */\n  event Distributed(address investors, uint count);\n\n  event Locked();\n\n  /**\n   * Create presale contract where lock up period is given days\n   *\n   * @param _owner Who can load investor data and lock\n   * @param _freezeEndsAt UNIX timestamp when the vault unlocks\n   * @param _token Token contract address we are distributing\n   * @param _tokensToBeAllocated Total number of tokens this vault will hold - including decimal multiplication\n   * @param _tokensPerSecond Define the tap: how many tokens we permit an user to withdraw per second, 0 to disable\n   */\n  function TokenVault(address _owner, uint _freezeEndsAt, StandardTokenExt _token, uint _tokensToBeAllocated, uint _tokensPerSecond) {\n\n    owner = _owner;\n\n    // Invalid owner\n    if(owner == 0) {\n      throw;\n    }\n\n    token = _token;\n\n    // Check the address looks like a token contract\n    if(!token.isToken()) {\n      throw;\n    }\n\n    // Give argument\n    if(_freezeEndsAt == 0) {\n      throw;\n    }\n\n    // Sanity check on _tokensToBeAllocated\n    if(_tokensToBeAllocated == 0) {\n      throw;\n    }\n\n    if (_freezeEndsAt < now) {\n      freezeEndsAt = now;\n    } else {\n      freezeEndsAt = _freezeEndsAt;\n    }\n    tokensToBeAllocated = _tokensToBeAllocated;\n    tokensPerSecond = _tokensPerSecond;\n  }\n\n  /// @dev Add a presale participating allocation\n  function setInvestor(address investor, uint amount) public onlyOwner {\n\n    if(lockedAt > 0) {\n      // Cannot add new investors after the vault is locked\n      throw;\n    }\n\n    if(amount == 0) throw; // No empty buys\n\n    // Don't allow reset\n    if(balances[investor] > 0) {\n      throw;\n    }\n\n    balances[investor] = amount;\n\n    investorCount++;\n\n    tokensAllocatedTotal += amount;\n\n    Allocated(investor, amount);\n  }\n\n  /// @dev Lock the vault\n  ///      - All balances have been loaded in correctly\n  ///      - Tokens are transferred on this vault correctly\n  ///      - Checks are in place to prevent creating a vault that is locked with incorrect token balances.\n  function lock() onlyOwner {\n\n    if(lockedAt > 0) {\n      throw; // Already locked\n    }\n\n    // Spreadsheet sum does not match to what we have loaded to the investor data\n    if(tokensAllocatedTotal != tokensToBeAllocated) {\n      throw;\n    }\n\n    // Do not lock the vault if the given tokens are not on this contract\n    if(token.balanceOf(address(this)) != tokensAllocatedTotal) {\n      throw;\n    }\n\n    lockedAt = now;\n\n    Locked();\n  }\n\n  /// @dev In the case locking failed, then allow the owner to reclaim the tokens on the contract.\n  function recoverFailedLock() onlyOwner {\n    if(lockedAt > 0) {\n      throw;\n    }\n\n    // Transfer all tokens on this contract back to the owner\n    token.transfer(owner, token.balanceOf(address(this)));\n  }\n\n  /// @dev Get the current balance of tokens in the vault\n  /// @return uint How many tokens there are currently in vault\n  function getBalance() public constant returns (uint howManyTokensCurrentlyInVault) {\n    return token.balanceOf(address(this));\n  }\n\n  /// @dev Check how many tokens \"investor\" can claim\n  /// @param investor Address of the investor\n  /// @return uint How many tokens the investor can claim now\n  function getCurrentlyClaimableAmount(address investor) public constant returns (uint claimableAmount) {\n    uint maxTokensLeft = balances[investor] - claimed[investor];\n\n    if (now < freezeEndsAt) {\n      return 0;\n    }\n\n    if (tokensPerSecond > 0) {\n      uint previousClaimAt = lastClaimedAt[investor];\n      uint maxClaim;\n\n      if (previousClaimAt == 0) {\n        previousClaimAt = freezeEndsAt;\n      }\n\n      maxClaim = (now - previousClaimAt) * tokensPerSecond;\n\n      if (maxClaim > maxTokensLeft) {\n        return maxTokensLeft;\n      } else {\n        return maxClaim;\n      }\n    } else {\n      return maxTokensLeft;\n    }\n  }\n\n  /// @dev Claim N bought tokens to the investor as the msg sender\n  function claim() {\n\n    address investor = msg.sender;\n\n    if(lockedAt == 0) {\n      throw; // We were never locked\n    }\n\n    if(now < freezeEndsAt) {\n      throw; // Trying to claim early\n    }\n\n    if(balances[investor] == 0) {\n      // Not our investor\n      throw;\n    }\n\n    uint amount = getCurrentlyClaimableAmount(investor);\n    require (amount > 0);\n\n    lastClaimedAt[investor] = now;\n\n    claimed[investor] += amount;\n\n    totalClaimed += amount;\n\n    token.transfer(investor, amount);\n\n    Distributed(investor, amount);\n  }\n\n  /// @dev This function is prototyped in Recoverable contract\n  function tokensToBeReturned(ERC20Basic tokenToClaim) public returns (uint) {\n    if (address(tokenToClaim) == address(token)) {\n      return getBalance().minus(tokensAllocatedTotal);\n    } else {\n      return tokenToClaim.balanceOf(this);\n    }\n  }\n\n  /// @dev Resolve the contract umambigious state\n  function getState() public constant returns(State) {\n    if(lockedAt == 0) {\n      return State.Loading;\n    } else if(now > freezeEndsAt) {\n      return State.Distributing;\n    } else {\n      return State.Holding;\n    }\n  }\n\n}\n",
  "sourcePath": "/home/otokarev/work/umbre/ico/contracts/TokenVault.sol",
  "compiler": {
    "name": "solc",
    "version": "0.4.24+commit.e67f0147.Emscripten.clang"
  },
  "schemaVersion": "2.0.1",
  "updatedAt": "2018-09-12T21:12:30.161Z"
}