{
  "contractName": "TokenTranchePricing",
  "abi": [
    {
      "constant": true,
      "inputs": [],
      "name": "isPricingStrategy",
      "outputs": [
        {
          "name": "",
          "type": "bool"
        }
      ],
      "payable": false,
      "stateMutability": "view",
      "type": "function"
    },
    {
      "constant": true,
      "inputs": [
        {
          "name": "",
          "type": "uint256"
        }
      ],
      "name": "tranches",
      "outputs": [
        {
          "name": "amount",
          "type": "uint256"
        },
        {
          "name": "price",
          "type": "uint256"
        }
      ],
      "payable": false,
      "stateMutability": "view",
      "type": "function"
    },
    {
      "constant": true,
      "inputs": [],
      "name": "trancheCount",
      "outputs": [
        {
          "name": "",
          "type": "uint256"
        }
      ],
      "payable": false,
      "stateMutability": "view",
      "type": "function"
    },
    {
      "constant": false,
      "inputs": [],
      "name": "renounceOwnership",
      "outputs": [],
      "payable": false,
      "stateMutability": "nonpayable",
      "type": "function"
    },
    {
      "constant": true,
      "inputs": [],
      "name": "MAX_TRANCHES",
      "outputs": [
        {
          "name": "",
          "type": "uint256"
        }
      ],
      "payable": false,
      "stateMutability": "view",
      "type": "function"
    },
    {
      "constant": true,
      "inputs": [],
      "name": "owner",
      "outputs": [
        {
          "name": "",
          "type": "address"
        }
      ],
      "payable": false,
      "stateMutability": "view",
      "type": "function"
    },
    {
      "constant": true,
      "inputs": [
        {
          "name": "purchaser",
          "type": "address"
        }
      ],
      "name": "isPresalePurchase",
      "outputs": [
        {
          "name": "",
          "type": "bool"
        }
      ],
      "payable": false,
      "stateMutability": "view",
      "type": "function"
    },
    {
      "constant": true,
      "inputs": [
        {
          "name": "",
          "type": "address"
        }
      ],
      "name": "preicoAddresses",
      "outputs": [
        {
          "name": "",
          "type": "uint256"
        }
      ],
      "payable": false,
      "stateMutability": "view",
      "type": "function"
    },
    {
      "constant": false,
      "inputs": [
        {
          "name": "_newOwner",
          "type": "address"
        }
      ],
      "name": "transferOwnership",
      "outputs": [],
      "payable": false,
      "stateMutability": "nonpayable",
      "type": "function"
    },
    {
      "inputs": [
        {
          "name": "_tranches",
          "type": "uint256[]"
        }
      ],
      "payable": false,
      "stateMutability": "nonpayable",
      "type": "constructor"
    },
    {
      "payable": true,
      "stateMutability": "payable",
      "type": "fallback"
    },
    {
      "anonymous": false,
      "inputs": [
        {
          "indexed": true,
          "name": "previousOwner",
          "type": "address"
        }
      ],
      "name": "OwnershipRenounced",
      "type": "event"
    },
    {
      "anonymous": false,
      "inputs": [
        {
          "indexed": true,
          "name": "previousOwner",
          "type": "address"
        },
        {
          "indexed": true,
          "name": "newOwner",
          "type": "address"
        }
      ],
      "name": "OwnershipTransferred",
      "type": "event"
    },
    {
      "constant": false,
      "inputs": [
        {
          "name": "preicoAddress",
          "type": "address"
        },
        {
          "name": "pricePerToken",
          "type": "uint256"
        }
      ],
      "name": "setPreicoAddress",
      "outputs": [],
      "payable": false,
      "stateMutability": "nonpayable",
      "type": "function"
    },
    {
      "constant": true,
      "inputs": [
        {
          "name": "n",
          "type": "uint256"
        }
      ],
      "name": "getTranche",
      "outputs": [
        {
          "name": "",
          "type": "uint256"
        },
        {
          "name": "",
          "type": "uint256"
        }
      ],
      "payable": false,
      "stateMutability": "view",
      "type": "function"
    },
    {
      "constant": true,
      "inputs": [],
      "name": "getPricingStartsAt",
      "outputs": [
        {
          "name": "",
          "type": "uint256"
        }
      ],
      "payable": false,
      "stateMutability": "view",
      "type": "function"
    },
    {
      "constant": true,
      "inputs": [],
      "name": "getPricingEndsAt",
      "outputs": [
        {
          "name": "",
          "type": "uint256"
        }
      ],
      "payable": false,
      "stateMutability": "view",
      "type": "function"
    },
    {
      "constant": true,
      "inputs": [
        {
          "name": "_crowdsale",
          "type": "address"
        }
      ],
      "name": "isSane",
      "outputs": [
        {
          "name": "",
          "type": "bool"
        }
      ],
      "payable": false,
      "stateMutability": "view",
      "type": "function"
    },
    {
      "constant": true,
      "inputs": [
        {
          "name": "tokensSold",
          "type": "uint256"
        }
      ],
      "name": "getCurrentPrice",
      "outputs": [
        {
          "name": "result",
          "type": "uint256"
        }
      ],
      "payable": false,
      "stateMutability": "view",
      "type": "function"
    },
    {
      "constant": true,
      "inputs": [
        {
          "name": "value",
          "type": "uint256"
        },
        {
          "name": "weiRaised",
          "type": "uint256"
        },
        {
          "name": "tokensSold",
          "type": "uint256"
        },
        {
          "name": "msgSender",
          "type": "address"
        },
        {
          "name": "decimals",
          "type": "uint256"
        }
      ],
      "name": "calculatePrice",
      "outputs": [
        {
          "name": "",
          "type": "uint256"
        }
      ],
      "payable": false,
      "stateMutability": "view",
      "type": "function"
    }
  ],
  "bytecode": "0x608060405234801561001057600080fd5b50604051610e76380380610e7683398101806040528101908080518201929190505050600080336000806101000a81548173ffffffffffffffffffffffffffffffffffffffff021916908373ffffffffffffffffffffffffffffffffffffffff16021790555060016002845181151561008557fe5b06148061009757506002600a02835110155b156100a157600080fd5b600283518115156100ae57fe5b0460168190555060009150600090505b600283518115156100cb57fe5b048110156101975782600282028151811015156100e457fe5b90602001906020020151600282600a811015156100fd57fe5b6002020160000181905550826001600283020181518110151561011c57fe5b90602001906020020151600282600a8110151561013557fe5b600202016001018190555060008214158015610167575081600282600a8110151561015c57fe5b600202016000015411155b1561017157600080fd5b600281600a8110151561018057fe5b6002020160000154915080806001019150506100be565b60006002600160165403600a811015156101ad57fe5b60020201600101541415156101c157600080fd5b505050610ca3806101d36000396000f3006080604052600436106100e6576000357c0100000000000000000000000000000000000000000000000000000000900463ffffffff16806304bbc255146100eb57806318a4155e1461011a57806326c25962146101995780632c9a0a95146101e157806359eb82241461020c5780636f079f9014610237578063715018a61461026257806389506a44146102795780638da5cb5b146102a45780638e768288146102fb578063c55d0f5614610356578063d972e8ad14610397578063e474f97a146103df578063f14ae17d1461042c578063f1ef9a0814610487578063f2fde38b146104de575b600080fd5b3480156100f757600080fd5b50610100610521565b604051808215151515815260200191505060405180910390f35b34801561012657600080fd5b50610183600480360381019080803590602001909291908035906020019092919080359060200190929190803573ffffffffffffffffffffffffffffffffffffffff1690602001909291908035906020019092919050505061052a565b6040518082815260200191505060405180910390f35b3480156101a557600080fd5b506101c460048036038101908080359060200190929190505050610752565b604051808381526020018281526020019250505060405180910390f35b3480156101ed57600080fd5b506101f661077b565b6040518082815260200191505060405180910390f35b34801561021857600080fd5b5061022161078e565b6040518082815260200191505060405180910390f35b34801561024357600080fd5b5061024c610794565b6040518082815260200191505060405180910390f35b34801561026e57600080fd5b506102776107a7565b005b34801561028557600080fd5b5061028e6108a9565b6040518082815260200191505060405180910390f35b3480156102b057600080fd5b506102b96108ae565b604051808273ffffffffffffffffffffffffffffffffffffffff1673ffffffffffffffffffffffffffffffffffffffff16815260200191505060405180910390f35b34801561030757600080fd5b5061033c600480360381019080803573ffffffffffffffffffffffffffffffffffffffff1690602001909291905050506108d3565b604051808215151515815260200191505060405180910390f35b34801561036257600080fd5b50610381600480360381019080803590602001909291905050506108de565b6040518082815260200191505060405180910390f35b3480156103a357600080fd5b506103c2600480360381019080803590602001909291905050506108f4565b604051808381526020018281526020019250505060405180910390f35b3480156103eb57600080fd5b5061042a600480360381019080803573ffffffffffffffffffffffffffffffffffffffff1690602001909291908035906020019092919050505061092e565b005b34801561043857600080fd5b5061046d600480360381019080803573ffffffffffffffffffffffffffffffffffffffff1690602001909291905050506109d1565b604051808215151515815260200191505060405180910390f35b34801561049357600080fd5b506104c8600480360381019080803573ffffffffffffffffffffffffffffffffffffffff1690602001909291905050506109db565b6040518082815260200191505060405180910390f35b3480156104ea57600080fd5b5061051f600480360381019080803573ffffffffffffffffffffffffffffffffffffffff1690602001909291905050506109f3565b005b60006001905090565b600080600083600a0a91506000600160008773ffffffffffffffffffffffffffffffffffffffff1673ffffffffffffffffffffffffffffffffffffffff16815260200190815260200160002054111561067e57600160008673ffffffffffffffffffffffffffffffffffffffff1673ffffffffffffffffffffffffffffffffffffffff168152602001908152602001600020548873__SafeMathLib___________________________631d3b9edf9091856040518363ffffffff167c0100000000000000000000000000000000000000000000000000000000028152600401808381526020018281526020019250505060206040518083038186803b15801561063257600080fd5b505af4158015610646573d6000803e3d6000fd5b505050506040513d602081101561065c57600080fd5b810190808051906020019092919050505081151561067657fe5b049250610747565b610687866108de565b9050808873__SafeMathLib___________________________631d3b9edf9091856040518363ffffffff167c0100000000000000000000000000000000000000000000000000000000028152600401808381526020018281526020019250505060206040518083038186803b1580156106ff57600080fd5b505af4158015610713573d6000803e3d6000fd5b505050506040513d602081101561072957600080fd5b810190808051906020019092919050505081151561074357fe5b0492505b505095945050505050565b600281600a8110151561076157fe5b600202016000915090508060000154908060010154905082565b6000610785610a5a565b60000151905090565b60165481565b600061079e610a9a565b60000151905090565b6000809054906101000a900473ffffffffffffffffffffffffffffffffffffffff1673ffffffffffffffffffffffffffffffffffffffff163373ffffffffffffffffffffffffffffffffffffffff1614151561080257600080fd5b6000809054906101000a900473ffffffffffffffffffffffffffffffffffffffff1673ffffffffffffffffffffffffffffffffffffffff167ff8df31144d9c2f0f6b59d69b8b98abd5459d07f2742c4df920b25aae33c6482060405160405180910390a260008060006101000a81548173ffffffffffffffffffffffffffffffffffffffff021916908373ffffffffffffffffffffffffffffffffffffffff160217905550565b600a81565b6000809054906101000a900473ffffffffffffffffffffffffffffffffffffffff1681565b600060019050919050565b60006108e982610ade565b602001519050919050565b600080600283600a8110151561090657fe5b6002020160000154600284600a8110151561091d57fe5b600202016001015491509150915091565b6000809054906101000a900473ffffffffffffffffffffffffffffffffffffffff1673ffffffffffffffffffffffffffffffffffffffff163373ffffffffffffffffffffffffffffffffffffffff1614151561098957600080fd5b80600160008473ffffffffffffffffffffffffffffffffffffffff1673ffffffffffffffffffffffffffffffffffffffff168152602001908152602001600020819055505050565b6000809050919050565b60016020528060005260406000206000915090505481565b6000809054906101000a900473ffffffffffffffffffffffffffffffffffffffff1673ffffffffffffffffffffffffffffffffffffffff163373ffffffffffffffffffffffffffffffffffffffff16141515610a4e57600080fd5b610a5781610b63565b50565b610a62610c5d565b60026000600a81101515610a7257fe5b6002020160408051908101604052908160008201548152602001600182015481525050905090565b610aa2610c5d565b6002600160165403600a81101515610ab657fe5b6002020160408051908101604052908160008201548152602001600182015481525050905090565b610ae6610c5d565b60008090505b600a811015610b5c57600281600a81101515610b0457fe5b6002020160000154831015610b4f57600260018203600a81101515610b2557fe5b60020201604080519081016040529081600082015481526020016001820154815250509150610b5d565b8080600101915050610aec565b5b50919050565b600073ffffffffffffffffffffffffffffffffffffffff168173ffffffffffffffffffffffffffffffffffffffff1614151515610b9f57600080fd5b8073ffffffffffffffffffffffffffffffffffffffff166000809054906101000a900473ffffffffffffffffffffffffffffffffffffffff1673ffffffffffffffffffffffffffffffffffffffff167f8be0079c531659141344cd1fd0a4f28419497f9722a3daafe3b4186f6b6457e060405160405180910390a3806000806101000a81548173ffffffffffffffffffffffffffffffffffffffff021916908373ffffffffffffffffffffffffffffffffffffffff16021790555050565b6040805190810160405280600081526020016000815250905600a165627a7a72305820049414e7215e5e2a1beef5f8461025e9b1cb6fd1865ee7565a2f1882dae142970029",
  "source": "/**\n * This smart contract code is Copyright 2017 TokenMarket Ltd. For more information see https://tokenmarket.net\n *\n * Licensed under the Apache License, version 2.0: https://github.com/TokenMarketNet/ico/blob/master/LICENSE.txt\n */\n\npragma solidity ^0.4.6;\n\nimport \"./PricingStrategy.sol\";\nimport \"./Crowdsale.sol\";\nimport \"./SafeMathLib.sol\";\nimport \"zeppelin/contracts/ownership/Ownable.sol\";\n\n/// @dev Tranche based pricing with special support for pre-ico deals.\n///      Implementing \"first price\" tranches, meaning, that if buyers order is\n///      covering more than one tranche, the price of the lowest tranche will apply\n///      to the whole order.\ncontract TokenTranchePricing is PricingStrategy, Ownable {\n\n  using SafeMathLib for uint;\n\n  uint public constant MAX_TRANCHES = 10;\n\n  // This contains all pre-ICO addresses, and their prices (weis per token)\n  mapping (address => uint) public preicoAddresses;\n\n  /**\n  * Define pricing schedule using tranches.\n  */\n  struct Tranche {\n\n      // Amount in weis when this tranche becomes active\n      uint amount;\n\n      // How many tokens per satoshi you will get while this tranche is active\n      uint price;\n  }\n\n  // Store tranches in a fixed array, so that it can be seen in a blockchain explorer\n  // Tranche 0 is always (0, 0)\n  // (TODO: change this when we confirm dynamic arrays are explorable)\n  Tranche[10] public tranches;\n\n  // How many active tranches we have\n  uint public trancheCount;\n\n  /// @dev Contruction, creating a list of tranches\n  /// @param _tranches uint[] tranches Pairs of (start amount, price)\n  function TokenTranchePricing(uint[] _tranches) {\n    // Need to have tuples, length check\n    if(_tranches.length % 2 == 1 || _tranches.length >= MAX_TRANCHES*2) {\n      throw;\n    }\n\n    trancheCount = _tranches.length / 2;\n\n    uint highestAmount = 0;\n\n    for(uint i=0; i<_tranches.length/2; i++) {\n      tranches[i].amount = _tranches[i*2];\n      tranches[i].price = _tranches[i*2+1];\n\n      // No invalid steps\n      if((highestAmount != 0) && (tranches[i].amount <= highestAmount)) {\n        throw;\n      }\n\n      highestAmount = tranches[i].amount;\n    }\n\n    // Last tranche price must be zero, terminating the crowdale\n    if(tranches[trancheCount-1].price != 0) {\n      throw;\n    }\n  }\n\n  /// @dev This is invoked once for every pre-ICO address, set pricePerToken\n  ///      to 0 to disable\n  /// @param preicoAddress PresaleFundCollector address\n  /// @param pricePerToken How many weis one token cost for pre-ico investors\n  function setPreicoAddress(address preicoAddress, uint pricePerToken)\n    public\n    onlyOwner\n  {\n    preicoAddresses[preicoAddress] = pricePerToken;\n  }\n\n  /// @dev Iterate through tranches. You reach end of tranches when price = 0\n  /// @return tuple (time, price)\n  function getTranche(uint n) public constant returns (uint, uint) {\n    return (tranches[n].amount, tranches[n].price);\n  }\n\n  function getFirstTranche() private constant returns (Tranche) {\n    return tranches[0];\n  }\n\n  function getLastTranche() private constant returns (Tranche) {\n    return tranches[trancheCount-1];\n  }\n\n  function getPricingStartsAt() public constant returns (uint) {\n    return getFirstTranche().amount;\n  }\n\n  function getPricingEndsAt() public constant returns (uint) {\n    return getLastTranche().amount;\n  }\n\n  function isSane(address _crowdsale) public constant returns(bool) {\n    // Our tranches are not bound by time, so we can't really check are we sane\n    // so we presume we are ;)\n    // In the future we could save and track raised tokens, and compare it to\n    // the Crowdsale contract.\n    return true;\n  }\n\n  /// @dev Get the current tranche or bail out if we are not in the tranche periods.\n  /// @param tokensSold total amount of tokens sold, for calculating the current tranche\n  /// @return {[type]} [description]\n  function getCurrentTranche(uint tokensSold) private constant returns (Tranche) {\n    uint i;\n\n    for(i=0; i < tranches.length; i++) {\n      if(tokensSold < tranches[i].amount) {\n        return tranches[i-1];\n      }\n    }\n  }\n\n  /// @dev Get the current price.\n  /// @param tokensSold total amount of tokens sold, for calculating the current tranche\n  /// @return The current price or 0 if we are outside trache ranges\n  function getCurrentPrice(uint tokensSold) public constant returns (uint result) {\n    return getCurrentTranche(tokensSold).price;\n  }\n\n  /// @dev Calculate the current price for buy in amount.\n  function calculatePrice(uint value, uint weiRaised, uint tokensSold, address msgSender, uint decimals) public constant returns (uint) {\n\n    uint multiplier = 10 ** decimals;\n\n    // This investor is coming through pre-ico\n    if(preicoAddresses[msgSender] > 0) {\n      return value.times(multiplier) / preicoAddresses[msgSender];\n    }\n\n    uint price = getCurrentPrice(tokensSold);\n    return value.times(multiplier) / price;\n  }\n\n  function() payable {\n    throw; // No money on this contract\n  }\n\n}\n",
  "sourcePath": "/home/otokarev/work/umbre/ico/contracts/TokenTranchePricing.sol",
  "compiler": {
    "name": "solc",
    "version": "0.4.24+commit.e67f0147.Emscripten.clang"
  },
  "schemaVersion": "2.0.1",
  "updatedAt": "2018-09-12T21:12:30.159Z"
}