{
  "contractName": "UncappedCrowdsale",
  "abi": [
    {
      "constant": true,
      "inputs": [],
      "name": "ownerTestValue",
      "outputs": [
        {
          "name": "",
          "type": "uint256"
        }
      ],
      "payable": false,
      "stateMutability": "view",
      "type": "function"
    },
    {
      "constant": true,
      "inputs": [],
      "name": "requireCustomerId",
      "outputs": [
        {
          "name": "",
          "type": "bool"
        }
      ],
      "payable": false,
      "stateMutability": "view",
      "type": "function"
    },
    {
      "constant": false,
      "inputs": [
        {
          "name": "addr",
          "type": "address"
        }
      ],
      "name": "invest",
      "outputs": [],
      "payable": true,
      "stateMutability": "payable",
      "type": "function"
    },
    {
      "constant": true,
      "inputs": [],
      "name": "isPricingSane",
      "outputs": [
        {
          "name": "sane",
          "type": "bool"
        }
      ],
      "payable": false,
      "stateMutability": "view",
      "type": "function"
    },
    {
      "constant": true,
      "inputs": [],
      "name": "endsAt",
      "outputs": [
        {
          "name": "",
          "type": "uint256"
        }
      ],
      "payable": false,
      "stateMutability": "view",
      "type": "function"
    },
    {
      "constant": true,
      "inputs": [],
      "name": "minimumFundingGoal",
      "outputs": [
        {
          "name": "",
          "type": "uint256"
        }
      ],
      "payable": false,
      "stateMutability": "view",
      "type": "function"
    },
    {
      "constant": true,
      "inputs": [],
      "name": "getState",
      "outputs": [
        {
          "name": "",
          "type": "uint8"
        }
      ],
      "payable": false,
      "stateMutability": "view",
      "type": "function"
    },
    {
      "constant": false,
      "inputs": [
        {
          "name": "addr",
          "type": "address"
        }
      ],
      "name": "setFinalizeAgent",
      "outputs": [],
      "payable": false,
      "stateMutability": "nonpayable",
      "type": "function"
    },
    {
      "constant": false,
      "inputs": [
        {
          "name": "addr",
          "type": "address"
        },
        {
          "name": "customerId",
          "type": "uint128"
        },
        {
          "name": "v",
          "type": "uint8"
        },
        {
          "name": "r",
          "type": "bytes32"
        },
        {
          "name": "s",
          "type": "bytes32"
        }
      ],
      "name": "investWithSignedAddress",
      "outputs": [],
      "payable": true,
      "stateMutability": "payable",
      "type": "function"
    },
    {
      "constant": true,
      "inputs": [
        {
          "name": "",
          "type": "address"
        }
      ],
      "name": "investedAmountOf",
      "outputs": [
        {
          "name": "",
          "type": "uint256"
        }
      ],
      "payable": false,
      "stateMutability": "view",
      "type": "function"
    },
    {
      "constant": true,
      "inputs": [],
      "name": "finalizeAgent",
      "outputs": [
        {
          "name": "",
          "type": "address"
        }
      ],
      "payable": false,
      "stateMutability": "view",
      "type": "function"
    },
    {
      "constant": false,
      "inputs": [
        {
          "name": "receiver",
          "type": "address"
        },
        {
          "name": "fullTokens",
          "type": "uint256"
        },
        {
          "name": "weiPrice",
          "type": "uint256"
        }
      ],
      "name": "preallocate",
      "outputs": [],
      "payable": false,
      "stateMutability": "nonpayable",
      "type": "function"
    },
    {
      "constant": true,
      "inputs": [],
      "name": "weiRaised",
      "outputs": [
        {
          "name": "",
          "type": "uint256"
        }
      ],
      "payable": false,
      "stateMutability": "view",
      "type": "function"
    },
    {
      "constant": true,
      "inputs": [],
      "name": "isCrowdsale",
      "outputs": [
        {
          "name": "",
          "type": "bool"
        }
      ],
      "payable": false,
      "stateMutability": "view",
      "type": "function"
    },
    {
      "constant": false,
      "inputs": [],
      "name": "finalize",
      "outputs": [],
      "payable": false,
      "stateMutability": "nonpayable",
      "type": "function"
    },
    {
      "constant": false,
      "inputs": [
        {
          "name": "_pricingStrategy",
          "type": "address"
        }
      ],
      "name": "setPricingStrategy",
      "outputs": [],
      "payable": false,
      "stateMutability": "nonpayable",
      "type": "function"
    },
    {
      "constant": true,
      "inputs": [],
      "name": "tokensSold",
      "outputs": [
        {
          "name": "",
          "type": "uint256"
        }
      ],
      "payable": false,
      "stateMutability": "view",
      "type": "function"
    },
    {
      "constant": false,
      "inputs": [],
      "name": "refund",
      "outputs": [],
      "payable": false,
      "stateMutability": "nonpayable",
      "type": "function"
    },
    {
      "constant": true,
      "inputs": [],
      "name": "signerAddress",
      "outputs": [
        {
          "name": "",
          "type": "address"
        }
      ],
      "payable": false,
      "stateMutability": "view",
      "type": "function"
    },
    {
      "constant": true,
      "inputs": [],
      "name": "weiRefunded",
      "outputs": [
        {
          "name": "",
          "type": "uint256"
        }
      ],
      "payable": false,
      "stateMutability": "view",
      "type": "function"
    },
    {
      "constant": false,
      "inputs": [],
      "name": "halt",
      "outputs": [],
      "payable": false,
      "stateMutability": "nonpayable",
      "type": "function"
    },
    {
      "constant": true,
      "inputs": [],
      "name": "MAX_INVESTMENTS_BEFORE_MULTISIG_CHANGE",
      "outputs": [
        {
          "name": "",
          "type": "uint256"
        }
      ],
      "payable": false,
      "stateMutability": "view",
      "type": "function"
    },
    {
      "constant": false,
      "inputs": [
        {
          "name": "customerId",
          "type": "uint128"
        },
        {
          "name": "checksum",
          "type": "bytes1"
        }
      ],
      "name": "buyWithCustomerIdWithChecksum",
      "outputs": [],
      "payable": true,
      "stateMutability": "payable",
      "type": "function"
    },
    {
      "constant": false,
      "inputs": [
        {
          "name": "time",
          "type": "uint256"
        }
      ],
      "name": "setEndsAt",
      "outputs": [],
      "payable": false,
      "stateMutability": "nonpayable",
      "type": "function"
    },
    {
      "constant": false,
      "inputs": [],
      "name": "renounceOwnership",
      "outputs": [],
      "payable": false,
      "stateMutability": "nonpayable",
      "type": "function"
    },
    {
      "constant": true,
      "inputs": [],
      "name": "pricingStrategy",
      "outputs": [
        {
          "name": "",
          "type": "address"
        }
      ],
      "payable": false,
      "stateMutability": "view",
      "type": "function"
    },
    {
      "constant": true,
      "inputs": [],
      "name": "loadedRefund",
      "outputs": [
        {
          "name": "",
          "type": "uint256"
        }
      ],
      "payable": false,
      "stateMutability": "view",
      "type": "function"
    },
    {
      "constant": true,
      "inputs": [],
      "name": "isMinimumGoalReached",
      "outputs": [
        {
          "name": "reached",
          "type": "bool"
        }
      ],
      "payable": false,
      "stateMutability": "view",
      "type": "function"
    },
    {
      "constant": false,
      "inputs": [
        {
          "name": "value",
          "type": "bool"
        }
      ],
      "name": "setRequireCustomerId",
      "outputs": [],
      "payable": false,
      "stateMutability": "nonpayable",
      "type": "function"
    },
    {
      "constant": false,
      "inputs": [],
      "name": "loadRefund",
      "outputs": [],
      "payable": true,
      "stateMutability": "payable",
      "type": "function"
    },
    {
      "constant": false,
      "inputs": [
        {
          "name": "val",
          "type": "uint256"
        }
      ],
      "name": "setOwnerTestValue",
      "outputs": [],
      "payable": false,
      "stateMutability": "nonpayable",
      "type": "function"
    },
    {
      "constant": true,
      "inputs": [],
      "name": "owner",
      "outputs": [
        {
          "name": "",
          "type": "address"
        }
      ],
      "payable": false,
      "stateMutability": "view",
      "type": "function"
    },
    {
      "constant": true,
      "inputs": [
        {
          "name": "weisTotal",
          "type": "uint256"
        },
        {
          "name": "pricePerToken",
          "type": "uint256"
        }
      ],
      "name": "calculateTokens",
      "outputs": [
        {
          "name": "tokensTotal",
          "type": "uint256"
        }
      ],
      "payable": false,
      "stateMutability": "view",
      "type": "function"
    },
    {
      "constant": true,
      "inputs": [],
      "name": "multisigWallet",
      "outputs": [
        {
          "name": "",
          "type": "address"
        }
      ],
      "payable": false,
      "stateMutability": "view",
      "type": "function"
    },
    {
      "constant": true,
      "inputs": [
        {
          "name": "",
          "type": "address"
        }
      ],
      "name": "tokenAmountOf",
      "outputs": [
        {
          "name": "",
          "type": "uint256"
        }
      ],
      "payable": false,
      "stateMutability": "view",
      "type": "function"
    },
    {
      "constant": false,
      "inputs": [
        {
          "name": "customerId",
          "type": "uint128"
        }
      ],
      "name": "buyWithCustomerId",
      "outputs": [],
      "payable": true,
      "stateMutability": "payable",
      "type": "function"
    },
    {
      "constant": false,
      "inputs": [],
      "name": "buy",
      "outputs": [],
      "payable": true,
      "stateMutability": "payable",
      "type": "function"
    },
    {
      "constant": true,
      "inputs": [],
      "name": "isFinalizerSane",
      "outputs": [
        {
          "name": "sane",
          "type": "bool"
        }
      ],
      "payable": false,
      "stateMutability": "view",
      "type": "function"
    },
    {
      "constant": true,
      "inputs": [],
      "name": "startsAt",
      "outputs": [
        {
          "name": "",
          "type": "uint256"
        }
      ],
      "payable": false,
      "stateMutability": "view",
      "type": "function"
    },
    {
      "constant": true,
      "inputs": [],
      "name": "finalized",
      "outputs": [
        {
          "name": "",
          "type": "bool"
        }
      ],
      "payable": false,
      "stateMutability": "view",
      "type": "function"
    },
    {
      "constant": true,
      "inputs": [],
      "name": "halted",
      "outputs": [
        {
          "name": "",
          "type": "bool"
        }
      ],
      "payable": false,
      "stateMutability": "view",
      "type": "function"
    },
    {
      "constant": true,
      "inputs": [
        {
          "name": "",
          "type": "address"
        }
      ],
      "name": "earlyParticipantWhitelist",
      "outputs": [
        {
          "name": "",
          "type": "bool"
        }
      ],
      "payable": false,
      "stateMutability": "view",
      "type": "function"
    },
    {
      "constant": false,
      "inputs": [],
      "name": "unhalt",
      "outputs": [],
      "payable": false,
      "stateMutability": "nonpayable",
      "type": "function"
    },
    {
      "constant": true,
      "inputs": [],
      "name": "requiredSignedAddress",
      "outputs": [
        {
          "name": "",
          "type": "bool"
        }
      ],
      "payable": false,
      "stateMutability": "view",
      "type": "function"
    },
    {
      "constant": true,
      "inputs": [],
      "name": "investorCount",
      "outputs": [
        {
          "name": "",
          "type": "uint256"
        }
      ],
      "payable": false,
      "stateMutability": "view",
      "type": "function"
    },
    {
      "constant": false,
      "inputs": [
        {
          "name": "addr",
          "type": "address"
        },
        {
          "name": "status",
          "type": "bool"
        }
      ],
      "name": "setEarlyParicipantWhitelist",
      "outputs": [],
      "payable": false,
      "stateMutability": "nonpayable",
      "type": "function"
    },
    {
      "constant": false,
      "inputs": [
        {
          "name": "value",
          "type": "bool"
        },
        {
          "name": "_signerAddress",
          "type": "address"
        }
      ],
      "name": "setRequireSignedAddress",
      "outputs": [],
      "payable": false,
      "stateMutability": "nonpayable",
      "type": "function"
    },
    {
      "constant": false,
      "inputs": [
        {
          "name": "addr",
          "type": "address"
        },
        {
          "name": "customerId",
          "type": "uint128"
        }
      ],
      "name": "investWithCustomerId",
      "outputs": [],
      "payable": true,
      "stateMutability": "payable",
      "type": "function"
    },
    {
      "constant": false,
      "inputs": [
        {
          "name": "_newOwner",
          "type": "address"
        }
      ],
      "name": "transferOwnership",
      "outputs": [],
      "payable": false,
      "stateMutability": "nonpayable",
      "type": "function"
    },
    {
      "constant": false,
      "inputs": [
        {
          "name": "addr",
          "type": "address"
        }
      ],
      "name": "setMultisig",
      "outputs": [],
      "payable": false,
      "stateMutability": "nonpayable",
      "type": "function"
    },
    {
      "constant": false,
      "inputs": [
        {
          "name": "customerId",
          "type": "uint128"
        },
        {
          "name": "v",
          "type": "uint8"
        },
        {
          "name": "r",
          "type": "bytes32"
        },
        {
          "name": "s",
          "type": "bytes32"
        }
      ],
      "name": "buyWithSignedAddress",
      "outputs": [],
      "payable": true,
      "stateMutability": "payable",
      "type": "function"
    },
    {
      "constant": true,
      "inputs": [],
      "name": "presaleWeiRaised",
      "outputs": [
        {
          "name": "",
          "type": "uint256"
        }
      ],
      "payable": false,
      "stateMutability": "view",
      "type": "function"
    },
    {
      "constant": true,
      "inputs": [],
      "name": "token",
      "outputs": [
        {
          "name": "",
          "type": "address"
        }
      ],
      "payable": false,
      "stateMutability": "view",
      "type": "function"
    },
    {
      "inputs": [
        {
          "name": "_token",
          "type": "address"
        },
        {
          "name": "_pricingStrategy",
          "type": "address"
        },
        {
          "name": "_multisigWallet",
          "type": "address"
        },
        {
          "name": "_start",
          "type": "uint256"
        },
        {
          "name": "_end",
          "type": "uint256"
        },
        {
          "name": "_minimumFundingGoal",
          "type": "uint256"
        }
      ],
      "payable": false,
      "stateMutability": "nonpayable",
      "type": "constructor"
    },
    {
      "payable": true,
      "stateMutability": "payable",
      "type": "fallback"
    },
    {
      "anonymous": false,
      "inputs": [
        {
          "indexed": false,
          "name": "investor",
          "type": "address"
        },
        {
          "indexed": false,
          "name": "weiAmount",
          "type": "uint256"
        },
        {
          "indexed": false,
          "name": "tokenAmount",
          "type": "uint256"
        },
        {
          "indexed": false,
          "name": "customerId",
          "type": "uint128"
        }
      ],
      "name": "Invested",
      "type": "event"
    },
    {
      "anonymous": false,
      "inputs": [
        {
          "indexed": false,
          "name": "investor",
          "type": "address"
        },
        {
          "indexed": false,
          "name": "weiAmount",
          "type": "uint256"
        }
      ],
      "name": "Refund",
      "type": "event"
    },
    {
      "anonymous": false,
      "inputs": [
        {
          "indexed": false,
          "name": "newRequireCustomerId",
          "type": "bool"
        },
        {
          "indexed": false,
          "name": "newRequiredSignedAddress",
          "type": "bool"
        },
        {
          "indexed": false,
          "name": "newSignerAddress",
          "type": "address"
        }
      ],
      "name": "InvestmentPolicyChanged",
      "type": "event"
    },
    {
      "anonymous": false,
      "inputs": [
        {
          "indexed": false,
          "name": "addr",
          "type": "address"
        },
        {
          "indexed": false,
          "name": "status",
          "type": "bool"
        }
      ],
      "name": "Whitelisted",
      "type": "event"
    },
    {
      "anonymous": false,
      "inputs": [
        {
          "indexed": false,
          "name": "newEndsAt",
          "type": "uint256"
        }
      ],
      "name": "EndsAtChanged",
      "type": "event"
    },
    {
      "anonymous": false,
      "inputs": [
        {
          "indexed": true,
          "name": "previousOwner",
          "type": "address"
        }
      ],
      "name": "OwnershipRenounced",
      "type": "event"
    },
    {
      "anonymous": false,
      "inputs": [
        {
          "indexed": true,
          "name": "previousOwner",
          "type": "address"
        },
        {
          "indexed": true,
          "name": "newOwner",
          "type": "address"
        }
      ],
      "name": "OwnershipTransferred",
      "type": "event"
    },
    {
      "constant": true,
      "inputs": [
        {
          "name": "weiAmount",
          "type": "uint256"
        },
        {
          "name": "tokenAmount",
          "type": "uint256"
        },
        {
          "name": "weiRaisedTotal",
          "type": "uint256"
        },
        {
          "name": "tokensSoldTotal",
          "type": "uint256"
        }
      ],
      "name": "isBreakingCap",
      "outputs": [
        {
          "name": "limitBroken",
          "type": "bool"
        }
      ],
      "payable": false,
      "stateMutability": "view",
      "type": "function"
    },
    {
      "constant": true,
      "inputs": [],
      "name": "isCrowdsaleFull",
      "outputs": [
        {
          "name": "",
          "type": "bool"
        }
      ],
      "payable": false,
      "stateMutability": "view",
      "type": "function"
    }
  ],
  "bytecode": "0x6080604052600560015560006009556000600a556000600b556000600c556000600d556000600e553480156200003457600080fd5b5060405160c08062003f70833981018060405281019080805190602001909291908051906020019092919080519060200190929190805190602001909291908051906020019092919080519060200190929190505050858585858585858585858585336000806101000a81548173ffffffffffffffffffffffffffffffffffffffff021916908373ffffffffffffffffffffffffffffffffffffffff160217905550336000806101000a81548173ffffffffffffffffffffffffffffffffffffffff021916908373ffffffffffffffffffffffffffffffffffffffff16021790555085600260006101000a81548173ffffffffffffffffffffffffffffffffffffffff021916908373ffffffffffffffffffffffffffffffffffffffff160217905550620001718562000257640100000000026401000000009004565b83600560006101000a81548173ffffffffffffffffffffffffffffffffffffffff021916908373ffffffffffffffffffffffffffffffffffffffff1602179055506000600560009054906101000a900473ffffffffffffffffffffffffffffffffffffffff1673ffffffffffffffffffffffffffffffffffffffff161415620001f957600080fd5b60008314156200020857600080fd5b8260078190555060008214156200021e57600080fd5b816008819055506008546007541015156200023857600080fd5b80600681905550505050505050505050505050505050505050620003c7565b6000809054906101000a900473ffffffffffffffffffffffffffffffffffffffff1673ffffffffffffffffffffffffffffffffffffffff163373ffffffffffffffffffffffffffffffffffffffff16141515620002b357600080fd5b80600360006101000a81548173ffffffffffffffffffffffffffffffffffffffff021916908373ffffffffffffffffffffffffffffffffffffffff160217905550600360009054906101000a900473ffffffffffffffffffffffffffffffffffffffff1673ffffffffffffffffffffffffffffffffffffffff166304bbc2556040518163ffffffff167c0100000000000000000000000000000000000000000000000000000000028152600401602060405180830381600087803b1580156200037b57600080fd5b505af115801562000390573d6000803e3d6000fd5b505050506040513d6020811015620003a757600080fd5b81019080805190602001909291905050501515620003c457600080fd5b50565b613b9980620003d76000396000f300608060405260043610610293576000357c0100000000000000000000000000000000000000000000000000000000900463ffffffff1680630226401d1461029857806303ca0eed146102c357806303f9c793146102f2578063062b01ce146103285780630a09284a1461035757806313f4e977146103825780631865c57d146103ad57806319b667da146103e65780631a49803b146104295780631aae3460146104a457806321d5c0f6146104fb57806332013ac3146105525780634042b66f146105a95780634551dd59146105d45780634bb278f31461060357806350c677341461061a578063518ab2a81461065d578063590e1ae3146106885780635b7633d01461069f5780635da89ac0146106f65780635ed7ca5b146107215780636203f09f1461073857806363c6082f146107635780636e50eb3f146107c1578063715018a6146107ee57806378b99c2414610805578063797d94371461085c5780637c2e08a3146108875780637f7d711e146108b657806387612102146108e55780638d51faec146108ef5780638da5cb5b1461091c578063903cc583146109735780639075becf146109be57806397b150ca14610a1557806399e9376c14610a6c5780639d3c663f14610a9e578063a6f2ae3a14610b01578063a7ba44c314610b0b578063af46868214610b3a578063b3f05b9714610b65578063b9b8af0b14610b94578063cb16e6d014610bc3578063cb3e64fd14610c1e578063d222dc0414610c35578063d5d0902114610c64578063d7e64c0014610c93578063eac2493214610cbe578063ed68ff2c14610d0d578063ef86944314610d5c578063f2fde38b14610dae578063f3283fba14610df1578063f486972614610e34578063f7c00e2f14610e8f578063fc0c546a14610eba575b600080fd5b3480156102a457600080fd5b506102ad610f11565b6040518082815260200191505060405180910390f35b3480156102cf57600080fd5b506102d8610f17565b604051808215151515815260200191505060405180910390f35b610326600480360381019080803573ffffffffffffffffffffffffffffffffffffffff169060200190929190505050610f2a565b005b34801561033457600080fd5b5061033d610f6d565b604051808215151515815260200191505060405180910390f35b34801561036357600080fd5b5061036c61106c565b6040518082815260200191505060405180910390f35b34801561038e57600080fd5b50610397611072565b6040518082815260200191505060405180910390f35b3480156103b957600080fd5b506103c2611078565b604051808260078111156103d257fe5b60ff16815260200191505060405180910390f35b3480156103f257600080fd5b50610427600480360381019080803573ffffffffffffffffffffffffffffffffffffffff169060200190929190505050611344565b005b6104a2600480360381019080803573ffffffffffffffffffffffffffffffffffffffff16906020019092919080356fffffffffffffffffffffffffffffffff169060200190929190803560ff169060200190929190803560001916906020019092919080356000191690602001909291905050506114af565b005b3480156104b057600080fd5b506104e5600480360381019080803573ffffffffffffffffffffffffffffffffffffffff169060200190929190505050611652565b6040518082815260200191505060405180910390f35b34801561050757600080fd5b5061051061166a565b604051808273ffffffffffffffffffffffffffffffffffffffff1673ffffffffffffffffffffffffffffffffffffffff16815260200191505060405180910390f35b34801561055e57600080fd5b506105a7600480360381019080803573ffffffffffffffffffffffffffffffffffffffff1690602001909291908035906020019092919080359060200190929190505050611690565b005b3480156105b557600080fd5b506105be611c2e565b6040518082815260200191505060405180910390f35b3480156105e057600080fd5b506105e9611c34565b604051808215151515815260200191505060405180910390f35b34801561060f57600080fd5b50610618611c3d565b005b34801561062657600080fd5b5061065b600480360381019080803573ffffffffffffffffffffffffffffffffffffffff169060200190929190505050611df8565b005b34801561066957600080fd5b50610672611f63565b6040518082815260200191505060405180910390f35b34801561069457600080fd5b5061069d611f69565b005b3480156106ab57600080fd5b506106b4612194565b604051808273ffffffffffffffffffffffffffffffffffffffff1673ffffffffffffffffffffffffffffffffffffffff16815260200191505060405180910390f35b34801561070257600080fd5b5061070b6121ba565b6040518082815260200191505060405180910390f35b34801561072d57600080fd5b506107366121c0565b005b34801561074457600080fd5b5061074d612238565b6040518082815260200191505060405180910390f35b6107bf60048036038101908080356fffffffffffffffffffffffffffffffff16906020019092919080357effffffffffffffffffffffffffffffffffffffffffffffffffffffffffffff1916906020019092919050505061223e565b005b3480156107cd57600080fd5b506107ec600480360381019080803590602001909291905050506122ea565b005b3480156107fa57600080fd5b506108036123a4565b005b34801561081157600080fd5b5061081a6124a6565b604051808273ffffffffffffffffffffffffffffffffffffffff1673ffffffffffffffffffffffffffffffffffffffff16815260200191505060405180910390f35b34801561086857600080fd5b506108716124cc565b6040518082815260200191505060405180910390f35b34801561089357600080fd5b5061089c6124d2565b604051808215151515815260200191505060405180910390f35b3480156108c257600080fd5b506108e36004803603810190808035151590602001909291905050506124e1565b005b6108ed612614565b005b3480156108fb57600080fd5b5061091a6004803603810190808035906020019092919050505061270a565b005b34801561092857600080fd5b5061093161276f565b604051808273ffffffffffffffffffffffffffffffffffffffff1673ffffffffffffffffffffffffffffffffffffffff16815260200191505060405180910390f35b34801561097f57600080fd5b506109a86004803603810190808035906020019092919080359060200190929190505050612794565b6040518082815260200191505060405180910390f35b3480156109ca57600080fd5b506109d3612921565b604051808273ffffffffffffffffffffffffffffffffffffffff1673ffffffffffffffffffffffffffffffffffffffff16815260200191505060405180910390f35b348015610a2157600080fd5b50610a56600480360381019080803573ffffffffffffffffffffffffffffffffffffffff169060200190929190505050612947565b6040518082815260200191505060405180910390f35b610a9c60048036038101908080356fffffffffffffffffffffffffffffffff16906020019092919050505061295f565b005b348015610aaa57600080fd5b50610ae76004803603810190808035906020019092919080359060200190929190803590602001909291908035906020019092919050505061296c565b604051808215151515815260200191505060405180910390f35b610b09612979565b005b348015610b1757600080fd5b50610b20612984565b604051808215151515815260200191505060405180910390f35b348015610b4657600080fd5b50610b4f612a4c565b6040518082815260200191505060405180910390f35b348015610b7157600080fd5b50610b7a612a52565b604051808215151515815260200191505060405180910390f35b348015610ba057600080fd5b50610ba9612a65565b604051808215151515815260200191505060405180910390f35b348015610bcf57600080fd5b50610c04600480360381019080803573ffffffffffffffffffffffffffffffffffffffff169060200190929190505050612a78565b604051808215151515815260200191505060405180910390f35b348015610c2a57600080fd5b50610c33612a98565b005b348015610c4157600080fd5b50610c4a612b2a565b604051808215151515815260200191505060405180910390f35b348015610c7057600080fd5b50610c79612b3d565b604051808215151515815260200191505060405180910390f35b348015610c9f57600080fd5b50610ca8612b45565b6040518082815260200191505060405180910390f35b348015610cca57600080fd5b50610d0b600480360381019080803573ffffffffffffffffffffffffffffffffffffffff169060200190929190803515159060200190929190505050612b4b565b005b348015610d1957600080fd5b50610d5a600480360381019080803515159060200190929190803573ffffffffffffffffffffffffffffffffffffffff169060200190929190505050612c70565b005b610dac600480360381019080803573ffffffffffffffffffffffffffffffffffffffff16906020019092919080356fffffffffffffffffffffffffffffffff169060200190929190505050612de5565b005b348015610dba57600080fd5b50610def600480360381019080803573ffffffffffffffffffffffffffffffffffffffff169060200190929190505050612e2e565b005b348015610dfd57600080fd5b50610e32600480360381019080803573ffffffffffffffffffffffffffffffffffffffff169060200190929190505050612e95565b005b610e8d60048036038101908080356fffffffffffffffffffffffffffffffff169060200190929190803560ff16906020019092919080356000191690602001909291908035600019169060200190929190505050612f45565b005b348015610e9b57600080fd5b50610ea4612f58565b6040518082815260200191505060405180910390f35b348015610ec657600080fd5b50610ecf612f5e565b604051808273ffffffffffffffffffffffffffffffffffffffff1673ffffffffffffffffffffffffffffffffffffffff16815260200191505060405180910390f35b60135481565b601460009054906101000a900460ff1681565b601460009054906101000a900460ff1615610f4457600080fd5b601460019054906101000a900460ff1615610f5e57600080fd5b610f69816000612f84565b5050565b6000600360009054906101000a900473ffffffffffffffffffffffffffffffffffffffff1673ffffffffffffffffffffffffffffffffffffffff16638e768288306040518263ffffffff167c0100000000000000000000000000000000000000000000000000000000028152600401808273ffffffffffffffffffffffffffffffffffffffff1673ffffffffffffffffffffffffffffffffffffffff168152602001915050602060405180830381600087803b15801561102c57600080fd5b505af1158015611040573d6000803e3d6000fd5b505050506040513d602081101561105657600080fd5b8101908080519060200190929190505050905090565b60085481565b60065481565b6000600f60009054906101000a900460ff16156110985760069050611341565b6000600460009054906101000a900473ffffffffffffffffffffffffffffffffffffffff1673ffffffffffffffffffffffffffffffffffffffff1614156110e25760019050611341565b600460009054906101000a900473ffffffffffffffffffffffffffffffffffffffff1673ffffffffffffffffffffffffffffffffffffffff166382771c8e6040518163ffffffff167c0100000000000000000000000000000000000000000000000000000000028152600401602060405180830381600087803b15801561116857600080fd5b505af115801561117c573d6000803e3d6000fd5b505050506040513d602081101561119257600080fd5b810190808051906020019092919050505015156111b25760019050611341565b600360009054906101000a900473ffffffffffffffffffffffffffffffffffffffff1673ffffffffffffffffffffffffffffffffffffffff16638e768288306040518263ffffffff167c0100000000000000000000000000000000000000000000000000000000028152600401808273ffffffffffffffffffffffffffffffffffffffff1673ffffffffffffffffffffffffffffffffffffffff168152602001915050602060405180830381600087803b15801561126f57600080fd5b505af1158015611283573d6000803e3d6000fd5b505050506040513d602081101561129957600080fd5b810190808051906020019092919050505015156112b95760019050611341565b6007544210156112cc5760029050611341565b60085442111580156112e357506112e1612b3d565b155b156112f15760039050611341565b6112f96124d2565b156113075760049050611341565b61130f6124d2565b15801561131e57506000600a54115b801561132e5750600a54600d5410155b1561133c5760079050611341565b600590505b90565b6000809054906101000a900473ffffffffffffffffffffffffffffffffffffffff1673ffffffffffffffffffffffffffffffffffffffff163373ffffffffffffffffffffffffffffffffffffffff1614151561139f57600080fd5b80600460006101000a81548173ffffffffffffffffffffffffffffffffffffffff021916908373ffffffffffffffffffffffffffffffffffffffff160217905550600460009054906101000a900473ffffffffffffffffffffffffffffffffffffffff1673ffffffffffffffffffffffffffffffffffffffff1663614cb9046040518163ffffffff167c0100000000000000000000000000000000000000000000000000000000028152600401602060405180830381600087803b15801561146657600080fd5b505af115801561147a573d6000803e3d6000fd5b505050506040513d602081101561149057600080fd5b810190808051906020019092919050505015156114ac57600080fd5b50565b6000600286604051808273ffffffffffffffffffffffffffffffffffffffff1673ffffffffffffffffffffffffffffffffffffffff166c010000000000000000000000000281526014019150506020604051808303816000865af115801561151b573d6000803e3d6000fd5b5050506040513d602081101561153057600080fd5b81019080805190602001909291905050509050601460029054906101000a900473ffffffffffffffffffffffffffffffffffffffff1673ffffffffffffffffffffffffffffffffffffffff16600182868686604051600081526020016040526040518085600019166000191681526020018460ff1660ff1681526020018360001916600019168152602001826000191660001916815260200194505050505060206040516020810390808403906000865af11580156115f3573d6000803e3d6000fd5b5050506020604051035173ffffffffffffffffffffffffffffffffffffffff1614151561161f57600080fd5b6000856fffffffffffffffffffffffffffffffff16141561163f57600080fd5b6116498686612f84565b50505050505050565b60106020528060005260406000206000915090505481565b600460009054906101000a900473ffffffffffffffffffffffffffffffffffffffff1681565b6000806000809054906101000a900473ffffffffffffffffffffffffffffffffffffffff1673ffffffffffffffffffffffffffffffffffffffff163373ffffffffffffffffffffffffffffffffffffffff161415156116ee57600080fd5b600260009054906101000a900473ffffffffffffffffffffffffffffffffffffffff1673ffffffffffffffffffffffffffffffffffffffff1663313ce5676040518163ffffffff167c0100000000000000000000000000000000000000000000000000000000028152600401602060405180830381600087803b15801561177457600080fd5b505af1158015611788573d6000803e3d6000fd5b505050506040513d602081101561179e57600080fd5b8101908080519060200190929190505050600a0a840291508383029050600a5473__SafeMathLib___________________________6366098d4f9091836040518363ffffffff167c0100000000000000000000000000000000000000000000000000000000028152600401808381526020018281526020019250505060206040518083038186803b15801561183257600080fd5b505af4158015611846573d6000803e3d6000fd5b505050506040513d602081101561185c57600080fd5b8101908080519060200190929190505050600a8190555060095473__SafeMathLib___________________________6366098d4f9091846040518363ffffffff167c0100000000000000000000000000000000000000000000000000000000028152600401808381526020018281526020019250505060206040518083038186803b1580156118ea57600080fd5b505af41580156118fe573d6000803e3d6000fd5b505050506040513d602081101561191457600080fd5b8101908080519060200190929190505050600981905550601060008673ffffffffffffffffffffffffffffffffffffffff1673ffffffffffffffffffffffffffffffffffffffff1681526020019081526020016000205473__SafeMathLib___________________________6366098d4f9091836040518363ffffffff167c0100000000000000000000000000000000000000000000000000000000028152600401808381526020018281526020019250505060206040518083038186803b1580156119df57600080fd5b505af41580156119f3573d6000803e3d6000fd5b505050506040513d6020811015611a0957600080fd5b8101908080519060200190929190505050601060008773ffffffffffffffffffffffffffffffffffffffff1673ffffffffffffffffffffffffffffffffffffffff16815260200190815260200160002081905550601160008673ffffffffffffffffffffffffffffffffffffffff1673ffffffffffffffffffffffffffffffffffffffff1681526020019081526020016000205473__SafeMathLib___________________________6366098d4f9091846040518363ffffffff167c0100000000000000000000000000000000000000000000000000000000028152600401808381526020018281526020019250505060206040518083038186803b158015611b1157600080fd5b505af4158015611b25573d6000803e3d6000fd5b505050506040513d6020811015611b3b57600080fd5b8101908080519060200190929190505050601160008773ffffffffffffffffffffffffffffffffffffffff1673ffffffffffffffffffffffffffffffffffffffff16815260200190815260200160002081905550611b998583613191565b7f0396f60aaad038749091d273dc13aaabc63db6e2271c7bad442d5cf25cc433508582846000604051808573ffffffffffffffffffffffffffffffffffffffff1673ffffffffffffffffffffffffffffffffffffffff168152602001848152602001838152602001826fffffffffffffffffffffffffffffffff16815260200194505050505060405180910390a15050505050565b600a5481565b60006001905090565b6004806007811115611c4b57fe5b611c53611078565b6007811115611c5e57fe5b141515611c6a57600080fd5b6000809054906101000a900473ffffffffffffffffffffffffffffffffffffffff1673ffffffffffffffffffffffffffffffffffffffff163373ffffffffffffffffffffffffffffffffffffffff16141515611cc557600080fd5b600060149054906101000a900460ff1615611cdf57600080fd5b600f60009054906101000a900460ff1615611cf957600080fd5b6000600460009054906101000a900473ffffffffffffffffffffffffffffffffffffffff1673ffffffffffffffffffffffffffffffffffffffff16141515611dda57600460009054906101000a900473ffffffffffffffffffffffffffffffffffffffff1673ffffffffffffffffffffffffffffffffffffffff16630bf318a36040518163ffffffff167c0100000000000000000000000000000000000000000000000000000000028152600401600060405180830381600087803b158015611dc157600080fd5b505af1158015611dd5573d6000803e3d6000fd5b505050505b6001600f60006101000a81548160ff02191690831515021790555050565b6000809054906101000a900473ffffffffffffffffffffffffffffffffffffffff1673ffffffffffffffffffffffffffffffffffffffff163373ffffffffffffffffffffffffffffffffffffffff16141515611e5357600080fd5b80600360006101000a81548173ffffffffffffffffffffffffffffffffffffffff021916908373ffffffffffffffffffffffffffffffffffffffff160217905550600360009054906101000a900473ffffffffffffffffffffffffffffffffffffffff1673ffffffffffffffffffffffffffffffffffffffff166304bbc2556040518163ffffffff167c0100000000000000000000000000000000000000000000000000000000028152600401602060405180830381600087803b158015611f1a57600080fd5b505af1158015611f2e573d6000803e3d6000fd5b505050506040513d6020811015611f4457600080fd5b81019080805190602001909291905050501515611f6057600080fd5b50565b60095481565b60006007806007811115611f7957fe5b611f81611078565b6007811115611f8c57fe5b141515611f9857600080fd5b601060003373ffffffffffffffffffffffffffffffffffffffff1673ffffffffffffffffffffffffffffffffffffffff1681526020019081526020016000205491506000821415611fe857600080fd5b6000601060003373ffffffffffffffffffffffffffffffffffffffff1673ffffffffffffffffffffffffffffffffffffffff16815260200190815260200160002081905550600e5473__SafeMathLib___________________________6366098d4f9091846040518363ffffffff167c0100000000000000000000000000000000000000000000000000000000028152600401808381526020018281526020019250505060206040518083038186803b1580156120a457600080fd5b505af41580156120b8573d6000803e3d6000fd5b505050506040513d60208110156120ce57600080fd5b8101908080519060200190929190505050600e819055507fbb28353e4598c3b9199101a66e0989549b659a59a54d2c27fbb183f1932c8e6d3383604051808373ffffffffffffffffffffffffffffffffffffffff1673ffffffffffffffffffffffffffffffffffffffff1681526020018281526020019250505060405180910390a13373ffffffffffffffffffffffffffffffffffffffff166108fc839081150290604051600060405180830381858888f19350505050151561219057600080fd5b5050565b601460029054906101000a900473ffffffffffffffffffffffffffffffffffffffff1681565b600e5481565b6000809054906101000a900473ffffffffffffffffffffffffffffffffffffffff1673ffffffffffffffffffffffffffffffffffffffff163373ffffffffffffffffffffffffffffffffffffffff1614151561221b57600080fd5b6001600060146101000a81548160ff021916908315150217905550565b60015481565b807effffffffffffffffffffffffffffffffffffffffffffffffffffffffffffff19168260405180826fffffffffffffffffffffffffffffffff166fffffffffffffffffffffffffffffffff1670010000000000000000000000000000000002815260100191505060405180910390207effffffffffffffffffffffffffffffffffffffffffffffffffffffffffffff19161415156122dc57600080fd5b6122e63383612de5565b5050565b6000809054906101000a900473ffffffffffffffffffffffffffffffffffffffff1673ffffffffffffffffffffffffffffffffffffffff163373ffffffffffffffffffffffffffffffffffffffff1614151561234557600080fd5b8042111561235257600080fd5b80600754111561236157600080fd5b806008819055507fd34bb772c4ae9baa99db852f622773b31c7827e8ee818449fef20d30980bd3106008546040518082815260200191505060405180910390a150565b6000809054906101000a900473ffffffffffffffffffffffffffffffffffffffff1673ffffffffffffffffffffffffffffffffffffffff163373ffffffffffffffffffffffffffffffffffffffff161415156123ff57600080fd5b6000809054906101000a900473ffffffffffffffffffffffffffffffffffffffff1673ffffffffffffffffffffffffffffffffffffffff167ff8df31144d9c2f0f6b59d69b8b98abd5459d07f2742c4df920b25aae33c6482060405160405180910390a260008060006101000a81548173ffffffffffffffffffffffffffffffffffffffff021916908373ffffffffffffffffffffffffffffffffffffffff160217905550565b600360009054906101000a900473ffffffffffffffffffffffffffffffffffffffff1681565b600d5481565b6000600654600a541015905090565b6000809054906101000a900473ffffffffffffffffffffffffffffffffffffffff1673ffffffffffffffffffffffffffffffffffffffff163373ffffffffffffffffffffffffffffffffffffffff1614151561253c57600080fd5b80601460006101000a81548160ff0219169083151502179055507f48d826081348f5f00e8a33c9ae8ce89ed4c6e88400b585a478bc203d9e8177d3601460009054906101000a900460ff16601460019054906101000a900460ff16601460029054906101000a900473ffffffffffffffffffffffffffffffffffffffff166040518084151515158152602001831515151581526020018273ffffffffffffffffffffffffffffffffffffffff1673ffffffffffffffffffffffffffffffffffffffff168152602001935050505060405180910390a150565b600580600781111561262257fe5b61262a611078565b600781111561263557fe5b14151561264157600080fd5b600034141561264f57600080fd5b600d5473__SafeMathLib___________________________6366098d4f9091346040518363ffffffff167c0100000000000000000000000000000000000000000000000000000000028152600401808381526020018281526020019250505060206040518083038186803b1580156126c657600080fd5b505af41580156126da573d6000803e3d6000fd5b505050506040513d60208110156126f057600080fd5b8101908080519060200190929190505050600d8190555050565b6000809054906101000a900473ffffffffffffffffffffffffffffffffffffffff1673ffffffffffffffffffffffffffffffffffffffff163373ffffffffffffffffffffffffffffffffffffffff1614151561276557600080fd5b8060138190555050565b6000809054906101000a900473ffffffffffffffffffffffffffffffffffffffff1681565b600080600260009054906101000a900473ffffffffffffffffffffffffffffffffffffffff1673ffffffffffffffffffffffffffffffffffffffff1663313ce5676040518163ffffffff167c0100000000000000000000000000000000000000000000000000000000028152600401602060405180830381600087803b15801561281d57600080fd5b505af1158015612831573d6000803e3d6000fd5b505050506040513d602081101561284757600080fd5b8101908080519060200190929190505050600a0a9050828473__SafeMathLib___________________________631d3b9edf9091846040518363ffffffff167c0100000000000000000000000000000000000000000000000000000000028152600401808381526020018281526020019250505060206040518083038186803b1580156128d357600080fd5b505af41580156128e7573d6000803e3d6000fd5b505050506040513d60208110156128fd57600080fd5b810190808051906020019092919050505081151561291757fe5b0491505092915050565b600560009054906101000a900473ffffffffffffffffffffffffffffffffffffffff1681565b60116020528060005260406000206000915090505481565b6129693382612de5565b50565b6000809050949350505050565b61298233610f2a565b565b6000600460009054906101000a900473ffffffffffffffffffffffffffffffffffffffff1673ffffffffffffffffffffffffffffffffffffffff166382771c8e6040518163ffffffff167c0100000000000000000000000000000000000000000000000000000000028152600401602060405180830381600087803b158015612a0c57600080fd5b505af1158015612a20573d6000803e3d6000fd5b505050506040513d6020811015612a3657600080fd5b8101908080519060200190929190505050905090565b60075481565b600f60009054906101000a900460ff1681565b600060149054906101000a900460ff1681565b60126020528060005260406000206000915054906101000a900460ff1681565b6000809054906101000a900473ffffffffffffffffffffffffffffffffffffffff1673ffffffffffffffffffffffffffffffffffffffff163373ffffffffffffffffffffffffffffffffffffffff16141515612af357600080fd5b600060149054906101000a900460ff161515612b0e57600080fd5b60008060146101000a81548160ff021916908315150217905550565b601460019054906101000a900460ff1681565b600080905090565b600c5481565b6000809054906101000a900473ffffffffffffffffffffffffffffffffffffffff1673ffffffffffffffffffffffffffffffffffffffff163373ffffffffffffffffffffffffffffffffffffffff16141515612ba657600080fd5b80601260008473ffffffffffffffffffffffffffffffffffffffff1673ffffffffffffffffffffffffffffffffffffffff16815260200190815260200160002060006101000a81548160ff0219169083151502179055507fa54714518c5d275fdcd3d2a461e4858e4e8cb04fb93cd0bca9d6d34115f264408282604051808373ffffffffffffffffffffffffffffffffffffffff1673ffffffffffffffffffffffffffffffffffffffff168152602001821515151581526020019250505060405180910390a15050565b6000809054906101000a900473ffffffffffffffffffffffffffffffffffffffff1673ffffffffffffffffffffffffffffffffffffffff163373ffffffffffffffffffffffffffffffffffffffff16141515612ccb57600080fd5b81601460016101000a81548160ff02191690831515021790555080601460026101000a81548173ffffffffffffffffffffffffffffffffffffffff021916908373ffffffffffffffffffffffffffffffffffffffff1602179055507f48d826081348f5f00e8a33c9ae8ce89ed4c6e88400b585a478bc203d9e8177d3601460009054906101000a900460ff16601460019054906101000a900460ff16601460029054906101000a900473ffffffffffffffffffffffffffffffffffffffff166040518084151515158152602001831515151581526020018273ffffffffffffffffffffffffffffffffffffffff1673ffffffffffffffffffffffffffffffffffffffff168152602001935050505060405180910390a15050565b601460019054906101000a900460ff1615612dff57600080fd5b6000816fffffffffffffffffffffffffffffffff161415612e1f57600080fd5b612e298282612f84565b505050565b6000809054906101000a900473ffffffffffffffffffffffffffffffffffffffff1673ffffffffffffffffffffffffffffffffffffffff163373ffffffffffffffffffffffffffffffffffffffff16141515612e8957600080fd5b612e9281613278565b50565b6000809054906101000a900473ffffffffffffffffffffffffffffffffffffffff1673ffffffffffffffffffffffffffffffffffffffff163373ffffffffffffffffffffffffffffffffffffffff16141515612ef057600080fd5b600154600c541115612f0157600080fd5b80600560006101000a81548173ffffffffffffffffffffffffffffffffffffffff021916908373ffffffffffffffffffffffffffffffffffffffff16021790555050565b612f5233858585856114af565b50505050565b600b5481565b600260009054906101000a900473ffffffffffffffffffffffffffffffffffffffff1681565b60008060149054906101000a900460ff1615612f9f57600080fd5b6131898383600360009054906101000a900473ffffffffffffffffffffffffffffffffffffffff1673ffffffffffffffffffffffffffffffffffffffff166318a4155e34600b54600a540360095433600260009054906101000a900473ffffffffffffffffffffffffffffffffffffffff1673ffffffffffffffffffffffffffffffffffffffff1663313ce5676040518163ffffffff167c0100000000000000000000000000000000000000000000000000000000028152600401602060405180830381600087803b15801561307457600080fd5b505af1158015613088573d6000803e3d6000fd5b505050506040513d602081101561309e57600080fd5b81019080805190602001909291905050506040518663ffffffff167c0100000000000000000000000000000000000000000000000000000000028152600401808681526020018581526020018481526020018373ffffffffffffffffffffffffffffffffffffffff1673ffffffffffffffffffffffffffffffffffffffff16815260200182815260200195505050505050602060405180830381600087803b15801561314957600080fd5b505af115801561315d573d6000803e3d6000fd5b505050506040513d602081101561317357600080fd5b8101908080519060200190929190505050613372565b905092915050565b6000600260009054906101000a900473ffffffffffffffffffffffffffffffffffffffff1690508073ffffffffffffffffffffffffffffffffffffffff166340c10f1984846040518363ffffffff167c0100000000000000000000000000000000000000000000000000000000028152600401808373ffffffffffffffffffffffffffffffffffffffff1673ffffffffffffffffffffffffffffffffffffffff16815260200182815260200192505050600060405180830381600087803b15801561325b57600080fd5b505af115801561326f573d6000803e3d6000fd5b50505050505050565b600073ffffffffffffffffffffffffffffffffffffffff168173ffffffffffffffffffffffffffffffffffffffff16141515156132b457600080fd5b8073ffffffffffffffffffffffffffffffffffffffff166000809054906101000a900473ffffffffffffffffffffffffffffffffffffffff1673ffffffffffffffffffffffffffffffffffffffff167f8be0079c531659141344cd1fd0a4f28419497f9722a3daafe3b4186f6b6457e060405160405180910390a3806000806101000a81548173ffffffffffffffffffffffffffffffffffffffff021916908373ffffffffffffffffffffffffffffffffffffffff16021790555050565b600080600060149054906101000a900460ff161561338f57600080fd5b6002600781111561339c57fe5b6133a4611078565b60078111156133af57fe5b141561341257601260008673ffffffffffffffffffffffffffffffffffffffff1673ffffffffffffffffffffffffffffffffffffffff16815260200190815260200160002060009054906101000a900460ff16151561340d57600080fd5b613443565b6003600781111561341f57fe5b613427611078565b600781111561343257fe5b141561343d57613442565b600080fd5b5b3490506000831415151561345657600080fd5b6000601060008773ffffffffffffffffffffffffffffffffffffffff1673ffffffffffffffffffffffffffffffffffffffff1681526020019081526020016000205414156134b157600c600081548092919060010191905055505b601060008673ffffffffffffffffffffffffffffffffffffffff1673ffffffffffffffffffffffffffffffffffffffff1681526020019081526020016000205473__SafeMathLib___________________________6366098d4f9091836040518363ffffffff167c0100000000000000000000000000000000000000000000000000000000028152600401808381526020018281526020019250505060206040518083038186803b15801561356557600080fd5b505af4158015613579573d6000803e3d6000fd5b505050506040513d602081101561358f57600080fd5b8101908080519060200190929190505050601060008773ffffffffffffffffffffffffffffffffffffffff1673ffffffffffffffffffffffffffffffffffffffff16815260200190815260200160002081905550601160008673ffffffffffffffffffffffffffffffffffffffff1673ffffffffffffffffffffffffffffffffffffffff1681526020019081526020016000205473__SafeMathLib___________________________6366098d4f9091856040518363ffffffff167c0100000000000000000000000000000000000000000000000000000000028152600401808381526020018281526020019250505060206040518083038186803b15801561369757600080fd5b505af41580156136ab573d6000803e3d6000fd5b505050506040513d60208110156136c157600080fd5b8101908080519060200190929190505050601160008773ffffffffffffffffffffffffffffffffffffffff1673ffffffffffffffffffffffffffffffffffffffff16815260200190815260200160002081905550600a5473__SafeMathLib___________________________6366098d4f9091836040518363ffffffff167c0100000000000000000000000000000000000000000000000000000000028152600401808381526020018281526020019250505060206040518083038186803b15801561378c57600080fd5b505af41580156137a0573d6000803e3d6000fd5b505050506040513d60208110156137b657600080fd5b8101908080519060200190929190505050600a8190555060095473__SafeMathLib___________________________6366098d4f9091856040518363ffffffff167c0100000000000000000000000000000000000000000000000000000000028152600401808381526020018281526020019250505060206040518083038186803b15801561384457600080fd5b505af4158015613858573d6000803e3d6000fd5b505050506040513d602081101561386e57600080fd5b8101908080519060200190929190505050600981905550600360009054906101000a900473ffffffffffffffffffffffffffffffffffffffff1673ffffffffffffffffffffffffffffffffffffffff1663f14ae17d866040518263ffffffff167c0100000000000000000000000000000000000000000000000000000000028152600401808273ffffffffffffffffffffffffffffffffffffffff1673ffffffffffffffffffffffffffffffffffffffff168152602001915050602060405180830381600087803b15801561394257600080fd5b505af1158015613956573d6000803e3d6000fd5b505050506040513d602081101561396c57600080fd5b810190808051906020019092919050505015613a3b57600b5473__SafeMathLib___________________________6366098d4f9091836040518363ffffffff167c0100000000000000000000000000000000000000000000000000000000028152600401808381526020018281526020019250505060206040518083038186803b1580156139f957600080fd5b505af4158015613a0d573d6000803e3d6000fd5b505050506040513d6020811015613a2357600080fd5b8101908080519060200190929190505050600b819055505b613a4b8184600a5460095461296c565b151515613a5757600080fd5b613a618584613191565b600560009054906101000a900473ffffffffffffffffffffffffffffffffffffffff1673ffffffffffffffffffffffffffffffffffffffff166108fc829081150290604051600060405180830381858888f193505050501515613ac357600080fd5b7f0396f60aaad038749091d273dc13aaabc63db6e2271c7bad442d5cf25cc4335085828587604051808573ffffffffffffffffffffffffffffffffffffffff1673ffffffffffffffffffffffffffffffffffffffff168152602001848152602001838152602001826fffffffffffffffffffffffffffffffff166fffffffffffffffffffffffffffffffff16815260200194505050505060405180910390a18291505093925050505600a165627a7a723058206758321910ab81583265a34a4991f56be08605ea09735c0ecc6993c82532ae630029",
  "source": "/**\n * This smart contract code is Copyright 2017 TokenMarket Ltd. For more information see https://tokenmarket.net\n *\n * Licensed under the Apache License, version 2.0: https://github.com/TokenMarketNet/ico/blob/master/LICENSE.txt\n */\n\npragma solidity ^0.4.8;\n\nimport \"./Crowdsale.sol\";\nimport \"./MintableToken.sol\";\n\n\n/**\n * Uncapped ICO crowdsale contract.\n *\n *\n * Intended usage\n *\n * - A short time window\n * - Flat price\n * - No cap\n *\n */\ncontract UncappedCrowdsale is Crowdsale {\n\n  function UncappedCrowdsale(address _token, PricingStrategy _pricingStrategy, address _multisigWallet, uint _start, uint _end, uint _minimumFundingGoal) Crowdsale(_token, _pricingStrategy, _multisigWallet, _start, _end, _minimumFundingGoal) {\n\n  }\n\n  /**\n   * Called from invest() to confirm if the curret investment does not break our cap rule.\n   */\n  function isBreakingCap(uint weiAmount, uint tokenAmount, uint weiRaisedTotal, uint tokensSoldTotal) constant returns (bool limitBroken) {\n    return false;\n  }\n\n  function isCrowdsaleFull() public constant returns (bool) {\n    // Uncle Scrooge\n    return false;\n  }\n\n  function assignTokens(address receiver, uint tokenAmount) internal {\n    MintableToken mintableToken = MintableToken(token);\n    mintableToken.mint(receiver, tokenAmount);\n  }\n}\n",
  "sourcePath": "/home/otokarev/work/umbre/ico/contracts/UncappedCrowdsale.sol",
  "compiler": {
    "name": "solc",
    "version": "0.4.24+commit.e67f0147.Emscripten.clang"
  },
  "schemaVersion": "2.0.1",
  "updatedAt": "2018-09-12T21:12:30.163Z"
}